:10000000507A001091D8000011DA000015DA0000D3
:1000100019DA00001DDA000021DA0000A26AFAEF06
:10002000000000000000000000000000AD6C0000B7
:1000300029DA0000000000005B6C0000716B00001A
:1000400035DA000057720000FF590000675A0000BF
:1000500045DA0000F767000000000000F7820000AA
:100060002F9A000059DA00005DDA000061DA000022
:1000700065DA000069DA00006DDA000071DA00006C
:1000800075DA000079DA00007DDA000051590000CD
:100090004B460000C34600008DDA000091DA0000F4
:1000A00095DA000099DA00009DDA0000A1DA00007C
:1000B000A1DA0000A9DA000000000000B1DA0000B7
:0400C000B5DA0000AD
:100300002DE9F04FA1B0824602AE002017461D46EF
:10031000029170620DF144080AE017F8011B02987F
:10032000D0470290002800F08B82706A401C7062F7
:10033000387808B9706A85E22528EED10020F0608F
:1003400030617061B061F061306201E040F0010045
:1003500017F8011F2029F9D023290DD02B2904D00B
:100360002D2906D030290AD00CE040F0020080B2DE
:10037000EEE740F00400FAE740F00800F7E740F04D
:100380001000F4E72A290DD129680A1D2A6009689E
:10039000F162002904D5494240F00400F16280B2C4
:1003A0007F1C13E00021F1620BE0F16A6FF0004363
:1003B000994205D001EB810302EB43013039F16230
:1003C0007F1C3A78A2F130010A29EED339782E2920
:1003D00003D04FF0FF31B1621EE017F8011F2A2948
:1003E00006D129680A1D2A607F1C0968B16213E0E2
:1003F0000021B1620BE0B16A6FF00043994205D071
:1004000001EB810302EB43013039B1627F1C3A7882
:10041000A2F130010A29EED330860FF6C0303978C8
:1004200000F0FAFD08B117F8010B8DF83A009DF8BD
:100430003A00682802BF39786829622005D06C2804
:1004400004BF38786C2803D171208DF83A007F1CE6
:1004500011A8B0603978B1F1250023D01C3871D0D3
:10046000001F02286ED9133800F09780093869D030
:10047000801E00F02B81401E00F0D480401E022818
:1004800060D9001F00F0CE80401F30D0401E00F029
:100490008480401E20D0C01E09D0801E7DD0C01E8A
:1004A0007BD01BE1F068411CF160252120E1286828
:1004B000011D29600068B26A7060002A02D500F050
:1004C000BBFD07E0002100F0D3FD00281ABF7168D2
:1004D000401AB06A30610DE12868011D29600021D1
:1004E0000068CDE9000111A870607821EAE09DF86C
:1004F0003A00622818D0682806D06A280BD06C28E9
:1005000019D0712807D016E02868011D29600068FD
:10051000716A0180EEE02A68101D28601268706A16
:10052000C117C2E90001E5E02868011D29600068E3
:10053000716A0170DEE02868011D29600068716A37
:100540000160D7E02868C01D20F00700286000F196
:1005500008022A60D0E90023CDE90023002B04D54E
:10056000F068421CF2602D220DE0308E820704D527
:10057000F068421CF2602B2205E0C00705D5F06848
:10058000421CF260202200F80820F06811AA8018AE
:10059000706000A800F0E2F9ACE09DF83A006C2829
:1005A00008BF2A6811D0712808BF2A6802D02A68BB
:1005B0006A280AD1D21D22F007022A60144604F1EB
:1005C00008022A60D4E9002303E0131D2B600023F6
:1005D0001268CDE90023682808BF92B207D06228CC
:1005E00008BFD2B203D0742818BF7A2802D10023E2
:1005F000CDE9002396F8300000075FD5DDE9002340
:10060000002B08BF002A59D041F02000782855D18E
:10061000F068302200F80820401C421CF26000F80C
:1006200008104BE09DF83A0062280CD0682810D0E2
:100630006A281AD06C2823D0712816D074281FD0AD
:100640007A280CD01CE02868021D2A6090F900204E
:100650001AE02868021D2A60B0F9002014E028681A
:10066000021D2A60002302680FE02868C01D20F0E8
:100670000700286000F108022A60D0E9002304E0A6
:100680002868021D2A600268D317CDE90023002BD9
:1006900004DAF068421CF2602D220DE0308E8207F1
:1006A00004D5F068421CF2602B2205E0C00705D596
:1006B000F068421CF260202200F80820F06811AABD
:1006C0008018706000A800F0C0F813E0F068411CCA
:1006D000F16029680A1D2A60096809E0F068421C77
:1006E000F260252200F8082021B1F068421CF26077
:1006F00000F80810F06AF168401AB169401A3169CF
:10070000401AF169401A7169401A316AA0EB010977
:1007100096F830007F1C400710D420208DF8400050
:10072000002409E0012310AA00A9504600F03EFC75
:10073000002840F08580641C4C45F3DBF4680DF123
:10074000440B0AE01BF8011B0298D04702900028D6
:1007500076D0706A401C7062641E002CF2D130208A
:100760008DF840004FF0000BB46909E0012310AA96
:1007700000A9504600F01AFC002861D10BF1010BD2
:10078000A345F3DB3469D6F804B00AE01BF8011B7B
:100790000298D0470290002852D0706A401C7062C4
:1007A000641E002CF2D130208DF840004FF0000B79
:1007B000F46909E0012310AA00A9504600F0F6FBF5
:1007C00000283DD10BF1010BA345F3DB30697168C3
:1007D000746900EB010B09E01BF8011B0298D0477C
:1007E000029068B3706A401C7062641E002CF3D1E2
:1007F00030208DF840004FF0000B346A08E00123F0
:1008000010AA00A9504600F0D1FBC8B90BF1010BAA
:10081000A345F4DB96F8300040077FF589AD202032
:100820008DF84000002400E0641C4C45BFF680AD0C
:10083000012310AA00A9504600F0B8FB0028F3D00D
:100840004FF0FF3021B0BDE8F08F2DE9FA470646A2
:1008500082B035690A466F2A08BF082705D041F0E3
:100860002000782814BF0A271027D6E900013C246D
:1008700080468946642A18BF692A05D1002903DA0F
:10088000D8F1000869EB4909B9F1000F08BFB8F1C8
:10089000000F0CD1306B50B9082F3BD196F83800BF
:1008A000000737D530203B2485F83B0032E0CDE906
:1008B0000089FB17404649463A4600F005FCB84619
:1008C000A8FB0023DDE90089A8EB02023032A4F185
:1008D000010AD2B254463A2A03DB9DF80830513B54
:1008E0009A180AF8052080465FEA010908BFB8F1A6
:1008F000000F03D0F06861198842D8D3082F09D1BE
:1009000096F83800000705D5605D302802D0641ED7
:1009100030206055C4F13C00B0616119F160316B69
:10092000884207DA081A30624FF6EF71308F0840BC
:10093000308710E000290ED596F8381001F0140128
:10094000102908D1716B7269891A326A891A081ADA
:100950000128A8BF306204B0BDE8F0872DE9F24F4E
:1009600004468EB0D4E90001CDE9020104AE9DF841
:10097000380040F02000009061280AD0206B002849
:1009800048BF062004D404BF0098672801D1012085
:1009900020636168C1F30A5040F2FF7290421CD19B
:1009A000080304BF2068002809D10320A0619DF836
:1009B000380061381A2836D30FF2346108E003207A
:1009C000A0619DF8380061381A2829D30FF2186108
:1009D000E068032200F0F0FBB5E1012816DA2046BA
:1009E00000F025FC012811DB002700200099612977
:1009F00020D1E168302201F8012B4A1CE2609DF809
:100A00003820612A0CBF782258220FE0626840F239
:100A1000FE3161F31E52471A62604FF0FF30E5E786
:100A20000FF2C051D4E70FF2C451D1E70A706169E7
:100A3000891C616110B9002500277BE100986128BD
:100A400040F09680206B00284CBF2125451CDDE935
:100A500002012DB26E1CD4E900890022002300F0AF
:100A600007FC3ABF89F00040CDE90280CDE9028958
:100A70003F1F8DF810200DF1110801E000F207086A
:100A8000012E32DBDDE902010022002300F008FC28
:100A90002BD21C2102A800F01BFCDDE9020100F0B2
:100AA0009DFCF61F8146012E09DB00F0C3FC0246C7
:100AB0000B46DDE9020100F0D5FCCDE9020108F2A8
:100AC0000700072105E009F00F0200F8012D4FEAA9
:100AD0002919B9F1010F01DB491EF4D5491E5CBF8C
:100AE000002200F8012DF9D5C8E70DF11100A8EB9F
:100AF00000010DF11106A942B8BF0D462DB2280024
:100B00002FD4884206DA04A9411849780829A8BFD9
:100B10000F2100DA002104AA821800E06D1E12F8ED
:100B20000139401E8B42F9D00F2904D104A9411884
:100B30004A78521C4A70002802D504AE6D1C3F1D35
:100B40002DB2681E0DD481190A783032D2B23A2AF9
:100B500003DB9DF838303A3B9A1801F80129401E12
:100B6000F2D5206B002840F1E580681E2063E1E0AB
:100B7000DDE902010022002300F07AFB3CBF81F096
:100B80000041CDE902013FB247F29750784348490E
:100B9000DFF820B190FBF1F73FB2C7F107069246AC
:100BA000012E19DBDDE90289F00707D552465B46C5
:100BB0004046494600F016FD80468946761050466C
:100BC000594652465B4600F00DFD82468B46002E8C
:100BD000EAD1CDE9028921E076429046DFF8D8904B
:100BE00012E0F00707D552465B464046494600F002
:100BF000F9FC8046894676105046594652465B4677
:100C000000F0F0FC82468B46002EEAD1DDE90201BD
:100C100042464B4600F0B8FDCDE902010098662837
:100C20000CBF07F10A000620216B4518142DA8BF40
:100C3000132530208DF810000DF11106DFF87C909F
:100C4000012D3DDBDDE9020100F0DEFB06F10801CC
:100C500004220A23B0FBF3F303EB8306A0EB460068
:100C6000303001F8010D0A20B3FBF0F000EB8006F4
:100C7000A3EB4603303301F8013D521EE9D1083D94
:100C800001F10806012DDBDBDDE9020100F0BCFB10
:100C900000F0DAFB02460B46DDE9020100F0E2FB60
:100CA00000224B4600F09EFCCDE90201CAE700BFDE
:100CB000A0860100000024400000F03F84D7974147
:100CC0000DF11100301A0DF1110602E0401E7F1ED9
:100CD000761C31783029F9D00099662902D13FB2CB
:100CE000791C03E065290CBF01210021226B8D18BE
:100CF0002DB2A842B8BF05462DB229001AD48142B0
:100D000004DA885D3528A8BF392000DA30208A1936
:100D1000521E00E06D1E12F80139491E8342F9D0BF
:100D2000392802D1885D401C8855002902D5761EDD
:100D30006D1C7F1C3FB29DF8381000972BB23246D5
:100D4000204600F003F80FB0BDE8F08F2DE9F04326
:100D5000054685B01E46D5F8308089461746012ED7
:100D600002DA01260FF28C2749F02000BDF930404D
:100D7000662808BF641C17D0672840F0818014F1F2
:100D8000040FC0F28380444580F2808095F83800DB
:100D9000641C000702D44645B8BFB04624B2B8EB85
:100DA000040848BF4FF00008E868A96924B2012C84
:100DB00025DA30234A1C0B54B8F1010F03DA95F8F9
:100DC0003810090702D52E211154521CAA6118EBC4
:100DD000040FB8BFC8F1000424B26142A0446962A4
:100DE000B045B8BF464636B2EE613246AB693946C9
:100DF000181800F0E1F9A8EB0600A862BFE0081897
:100E0000A64218DA3246394600F0D6F9A9697118B7
:100E1000A961A01B6862B8F1010F03DA95F83800E8
:100E2000000705D5E8682E220A54E869401CE861ED
:100E3000C5F82880A3E02246394600F0BDF9A8692C
:100E40002018361BB8F1010F03DA95F8381009079E
:100E500003D5E9682E224254401C36B2A861B04541
:100E6000B8BF4646EB6836B23246E119C01800F00A
:100E7000A3F9A8693018A861A8EB060068627EE0B3
:100E80004846612816D14FF0700917E0464504DA4C
:100E900095F83810090758BFB046B8F1010848BFA7
:100EA0004FF00008B9F1670F14BF4FF045094FF03C
:100EB000650903E0412808BF4FF05009A969E868B7
:100EC00017F8013B0B544A1CB8F1010F05DA95F8ED
:100ED0003810090758BFAA6117D52E211154531C89
:100EE000AB61B8F1010F10DB761E36B2B045B8BF6A
:100EF000464636B232463946181800F05DF9A86900
:100F00003018A861A8EB06006862A869E96847186C
:100F1000200007F8019B03D42B2007F8010B03E006
:100F20002D2107F8011B444200260DF1080808E0B6
:100F30000A2200A800F04BFD019808F8010B761C6E
:100F4000009C21B20129F3DA022E06DA49F02000D2
:100F5000652804BF302007F8010B4EB9302007F890
:100F6000010B07E0761E02A8305C303007F8010B59
:100F7000012EF7DAA869E9684018381AE86195F88F
:100F8000380000F0140010280DD16869A96908180C
:100F9000696A0818E9690818A96A0818696B88421B
:100FA000BCBF081A286205B0BDE8F083F8B5044656
:100FB0000D4616461F46002004E0E86A401CE86221
:100FC0007F1E002047B116F8011BA868A047A86043
:100FD0000028F2D14FF0FF30F2BD0000686A6C7457
:100FE0007A4C00006E616E004E414E00696E6600E4
:100FF000494E4600300050F8041B61B150F8042BF4
:10100000D30744BFA9F101039A18002342F8043B17
:10101000091FFAD1EFE770470278C9B28A421AB1C4
:101020001CBF10F8012FF9E718BF002070470268B5
:10103000531C03601170704700F10103810704D055
:1010400010F8011B89B18107FAD10268B2F10131B0
:10105000914311F0803F04BF50F8042FF6E710F8D9
:10106000011B11B110F8011BFBE7C01A704700000B
:10107000C9B2830706D0521E22D310F8013B994211
:10108000F7D11FE0083A13D302F1040241EA01212B
:1010900041EA014150F8043B121F21BF4B40A3F12C
:1010A000013C2CEA030C1CF0803FF3D0C9B2001FB6
:1010B000083210F8013B521E28BF91EA030FF8D8FE
:1010C00018BF0120401E70471B4213D1094236D180
:1010D0002AB18446B0FBF2F002FB10C2704700F068
:1010E0007DBCFCD30022002370470B0002000021CE
:1010F00000207047904271EB030CF6D370B5B1FA43
:1011000081F4B3FA83F52C1BA340C4F1200532FA15
:1011100005F63343A2405FF00046E64002E05B087C
:101120005FEA3202841A71EB030524BF2046294688
:101130007641F4D302000B003000002170BD012A7B
:10114000CFD970B5140C20D0B1FA81F4B2FA82F57F
:10115000C4F120046419B4F12006D6D3B2405FF084
:101160000044F440002502E052085FEA3303C61A47
:1011700071EB020E24BF3046714664416D41F3D3DA
:1011800002000B002000290070BD0C46B1FBF2F1FB
:1011900002FB11452D0445EA1045B5FBF2F402FBB4
:1011A000145580B240EA0545B5FBF2F002FB10523F
:1011B00040EA044070BD000062B38B0708D0521EA5
:1011C00011F8013B00F8013B00F024808B07F6D1B9
:1011D000830740F0208000BF103A07D330B4B1E855
:1011E0003810103AA0E83810F9D230BC530724BFA9
:1011F000B1E80810A0E8081044BF51F8043B40F8DB
:10120000043BD20724BF31F8022B20F8022B44BF45
:101210000B7803707047083A07D3B1E80810083A12
:1012200040F8043B40F804CBF7D25307E4E730B46E
:10123000436803F0004201211B031B0B436004BF02
:101240000368002B08D10DE00368DD0F45EA440474
:1012500044605B000360491E4468E302F4D5230345
:101260001B0B436043681A434260084630BC70471A
:101270004FF4001C1CEB410F94BF1CEB430F09E023
:1012800041EA030C50EA4C0C52EA0C0C03D299428E
:1012900008BF9042704714BF8B42824270470000E3
:1012A0004FF4001C1CEB410F94BF1CEB430F09E0F3
:1012B00041EA030C50EA4C0C52EA0C0C03D28B426C
:1012C00008BF8242704714BF9942904270470000A5
:1012D00070B504460D466068C0F30A5040F2FF71D5
:1012E000884207D16068000304BF2068002817D037
:1012F000022070BD20B92046FFF799FF012867DA68
:10130000012D0FDB40F2FF71091A8D420AD360688C
:10131000002847BF00202F4900202F49C4E90001C1
:10132000012070BD4142A942616806DA6FF31E5187
:10133000401941EA0050606041E0401E63680122AC
:10134000451962F31F5305F1350001F00041636058
:10135000352803D361600020206070BD002215F1A4
:101360001F0F04DA22682360002020356060684285
:1013700013D0521E25689241C0F12003D2439D40F4
:1013800045EAD27225686668C54006FA03F32B4326
:101390002360636823FA00F060606068084360605F
:1013A000B2F1004F03D80DD12078C0070AD52068CC
:1013B000401C2060206828B96068401C60604FF0C5
:1013C000FF3070BD6068884204BF20680028F6D1F5
:1013D000002070BD0000F0FF0000F07FF446400DDB
:1013E00040EAC120490006D200F014F8004248BF8C
:1013F0006FF00040604700F00DF84FF00041884268
:101400008CBF084640426047400D40EAC120490079
:1014100080F00D8040F00040490DA1F58061491C2D
:1014200005D4D1F11F0154BFC840C01770474FF019
:1014300000007047010040F10980F446404200F08E
:1014400005F851F000416047010000BF09D0B0FA33
:1014500080F18840C91CC1F58461090501EBD021E8
:101460004005704770B44FF0004591EA030F44BF48
:101470006B4000F0B5BA00BF841A71EB030604D2CA
:101480006E40001BB141121973414FF4001C1CEB5C
:10149000410F34BF7CEB430684E00C0DA4EB1356E4
:1014A000362E7DDC012E43DC45EAC32343EA52534A
:1014B00012BFD20292025B08240545EAC12141EA2B
:1014C0005051D2EBC020994125D407D1B0FA80F613
:1014D00010FA06F164D00020203608E0B1FA81F657
:1014E000B140C6F1200220FA02F21143B0404FEAA7
:1014F000F474B4EB465434F001064FEA74040AD88D
:10150000D6F50016760D04F00044F04061FA06F2BC
:101510005040F1404840C00A40EA415021F00041AB
:1015200028BF5FEA500550F1000044EBD12137E0BD
:1015300045EAC323DB0A45EAC121C90AB6F1200501
:101540000EDD42EA0242120CC5F1200603FA06F64D
:10155000EB4042EA06056D42984161F100010DE061
:1015600062FA06F5F240554063FA06FC82EA0C0284
:10157000F3405A406D42904161EB030111F4801F2A
:1015800005D1641E620502D06D004041494121F43D
:101590008011430875F1004350F1000041EB045104
:1015A00070BC70471CEB410F15D223F0004352EA88
:1015B00043060BD04FEA4C0CBCEB410F04D80C0D8A
:1015C000661E342EB7DDEBE7801A994150EA4106DA
:1015D00008BF0021E4E708BF1CEB430F28BF6FF0F2
:1015E0000001DDE7B0B581EA030C0CF0004C40F2DD
:1015F000FF7515EA11541DBF15EA1357AC42AF42EF
:1016000039E0E41923EA455343F48013C90241F059
:10161000004141EA505EC7021100A7FB0202002808
:101620004FF00000EEFB01204FF00001E3FB07212B
:1016300018BF42F00102401800214941E3FB0E01AE
:10164000A4F580640F0302D252004041494154F195
:1016500001046CDD470872F1004250F1000051EBCB
:101660000451A1F580115CBF41EA0C01B0BD4CEA08
:1016700005510020B0BD05EA1357AC4214BFAF427C
:1016800041E050EA410E1CBF52EA430E02E06146BF
:101690000020B0BD24423C441BD15FEA070EF6D0C7
:1016A000090302BF01460020AEF1140EB1FA81F722
:1016B000AEEB070401FA07FE0C37C7F1200100FA70
:1016C00007F7C8404EEA000E23EA455343F480135F
:1016D000A2E733F00043B3FA83F704BFB2FA82FE05
:1016E00077440B3FE41BB7F1200E2FBF02FA0EF335
:1016F000BB40C7F1200E22FA0EFE38BF43EA0E03AC
:10170000BA40641C82E750EA410E14BF52EA430E0D
:101710006FF000014FF4001717EB430F8ABF194613
:1017200017EB410FB5E74CEA05510020B0BDD4F1ED
:101730000104B4F120070FDAC4F12007520828BFD2
:1017400042F0010210FA07F501FA07F7E1BF2A4358
:10175000E0403843E1400FE0352C98DCC7F120042D
:1017600052EA400220FA07F218BF42F0010231FAB1
:1017700007F0A1400A43002172F1004250F100003D
:1017800051EB0C01B0BD0000F0B540F2FF7581EAED
:10179000030C0CF0004C15EA11541DBF15EA135749
:1017A000AC42AF42E5E0BC41C1F31301C3F3130304
:1017B000801A994143F4801304D2641E40004941C9
:1017C00080185941C90241EA5051B1FBF3F603FBBD
:1017D0001611A2FB0675D7EBC020A94102D2761ED6
:1017E00080185941C90241EA5051B1FBF3FE03FB95
:1017F0001E11A2FB0E75D7EBC020A94103D2AEF19A
:10180000010E80185941890241EA9051760546EA55
:101810008E2EB1FBF3F603FB1611A2FB0675D7EB78
:101820008020A94102D2761E80185941C90241EA9E
:1018300050514EEA060EB1FBF3F603FB1611A2FB64
:101840000675D7EBC020A94102D2761E80185941F7
:10185000C90241EA5051B1FBF3F703FB1711A2FB98
:101860000735D3EBC020A94167F100070CBF004248
:1018700047F0010766F3D5274FEA1E31B80814F583
:10188000806412DDBD0775F1004250EB0E5051EB44
:10189000045111F5801F5CBF41EA0C01F0BD4CF012
:1018A0007F6141F0E0410020F0BDBD076D0840EAD6
:1018B0000E5041F48011D4F10104B4F120060ADA8B
:1018C000C4F120060200E04001FA06F3E1401843AB
:1018D000B24015430EE0342C13DCC6F1200445EA77
:1018E00040056D0820FA06F2154321FA06F0A140E2
:1018F0000D43002175F1004250F1000051EB0C0145
:10190000F0BD00205FEA0C01F0BDCFB992185B4139
:10191000B3FA83F704BFB2FA82F6BF190B3FB7F1EF
:1019200020062FBF02FA06F3BB40C7F1200622FAB9
:1019300006F638BF3343BA401CB1E419641E33E7DE
:101940007F4231F00041B1FA81F404BFB0FA80F671
:10195000A4190B3CB4F120062FBF00FA06F1A140F8
:10196000C4F1200620FA06F638BF3143A0403C1BE4
:101970001AE7AC421ABF05EA1357AF4212E050EA29
:1019800041061CBF52EA4306BFE750EA4107304612
:1019900061461CBF41EA0551F0BD52EA430C08BF45
:1019A000C143F0BD00204FF4001616EB410F98BF65
:1019B00016EB430F08BF16EB410F24BFC14305E0F0
:1019C00016EB430F0CBF61464CEA0551F0BD91FB8D
:1019D000F2F303FB1211C0E90031704770470000B9
:1019E000841A71EB030603D2001BB1411219734133
:1019F0004FF4001C1CEB410F34BF7CEB430443E06D
:101A00000C0DA4EB1356352E50DC45EAC323DB0A3C
:101A100045EAC121C912B6F120050DDD63FA05F6CC
:101A2000EB4086EA0305124218BF45F00105C018D5
:101A300051F100010CD213E062FA06F5F240554074
:101A4000F3415A40B340F3405A408018594107D3FC
:101A500049085FEA30005FEA350528BF45F0010517
:101A600001F58011420875F1004250F1000041EB90
:101A7000045170BC4FF4001C1CEB410F38BF704781
:101A80000020090D090570471CEB410F10D252EAE6
:101A900043060BD0BCEB410F05D80C0DAB43661EC3
:101AA000342EB5DD02E0AB438018594170BC70475D
:101AB00070BC70470000000001004944494F4D418F
:101AC0000000000000000000000000000000000016
:101AD000000000000000000000004E554D00000016
:101AE000000000000100464C41475F425632300082
:101AF00000000000000000000000000000000000E6
:101B00000000000000004E554D00000003000000E2
:101B100001005449504F5F4E4F54415300000000A4
:101B200000000000000000000000000000000000B5
:101B300000004E554D0000000A0000000400564110
:101B40004C4F525F5049504F43410000000000008D
:101B500000000000000000000000000000004E55E2
:101B60004D000000000000000100464C41475F4D61
:101B700044425F42494C4C0000000000000000005D
:101B8000000000000000000000004E554D00000065
:101B9000000000000100464C41475F4D44425F4356
:101BA0004F494E000000000000000000000000004F
:101BB0000000000000004E554D0000000000000035
:101BC0000100464C41475F4D44425F43534800008B
:101BD0000000000000000000000000000000000005
:101BE00000004E554D0000000A0000000400424174
:101BF00055445F5052494E544552000000000000C9
:101C000000000000000000000000000000004E5531
:101C10004D0000000A000000040056414C4F525F86
:101C200050554C534F5F4D4F45440000000000009D
:101C3000000000000000000000004E554D000000B4
:101C40000A000000040056414C4F525F50554C535F
:101C50004F5F4E4F540000000000000000000000E5
:101C60000000000000004E554D0000000000000084
:101C70000400434F4E544147454D5F504152434944
:101C8000414C0000000000000000000000000000C7
:101C900000004E554D000000000000000400434FBE
:101CA0004E544147454D5F544F54414C0000000095
:101CB00000000000000000000000000000004E5581
:101CC0004D0000000000000004004D4F4544415FFE
:101CD0005041524349414C00000000000000000008
:101CE000000000000000000000004E554D00000004
:101CF0000000000004004D4F4544415F544F5441E3
:101D00004C00000000000000000000000000000087
:101D10000000000000004E554D00000000000000D3
:101D2000040043415254414F5F5041524349414C9A
:101D300000000000000000000000000000000000A3
:101D400000004E554D00000000000000040043411B
:101D50005254414F5F544F54414C0000000000006A
:101D600000000000000000000000000000004E55D0
:101D70004D000000000000000400554E495F434143
:101D80005254414F5F5041524349414C00000000C2
:101D9000000000000000000000004E554D00000053
:101DA000000000000400554E495F43415254414F2A
:101DB0005F544F54414C0000000000000000000040
:101DC0000000000000004E554D0000000000000023
:101DD0000400494E4943494F5F4D55534943410023
:101DE00000000000000000000000000000000000F3
:101DF00000004E554D000000000000000400494E58
:101E00004943494F5F50524F504147414E44410072
:101E100000000000000000000000000000004E551F
:101E20004D000000000000000400494E4943494FA6
:101E30005F504547415F5041434F5445000000000B
:101E4000000000000000000000004E554D000000A2
:101E5000000000000400494E4943494F5F5049507B
:101E60004F4341535F50524F4E54415300000000C6
:101E70000000000000004E554D0000000000000072
:101E8000040054414D414E484F5F424C4F434F5F19
:101E90004D55534943410000000000000000000080
:101EA00000004E554D0000000000000004005441A9
:101EB0004D414E484F5F4C4F435543414F5F505249
:101EC0004F500000000000000000000000004E55D0
:101ED0004D00000000000000040054414D414E48F8
:101EE0004F5F504547415F5041434F54450000000C
:101EF000000000000000000000004E554D000000F2
:101F000000000000040054414D414E484F5F5049CD
:101F1000504F4341535F50524F4E544153000000C5
:101F20000000000000004E554D00000000000000C1
:101F3000040054454D50455241545552415F505252
:101F4000455041524F00000000000000000000001A
:101F500000004E554D0000000000000004005645F2
:101F60004C4F4349444144455F50524550415241D2
:101F70004F000000000000000000000000004E556F
:101F80004D00000000000000040054454D504F5F1C
:101F90004D4F544F525F454D42414C4147454D00D6
:101FA000000000000000000000004E554D00000041
:101FB000000000000400564F4C554D455F4D5553F1
:101FC0004943410000000000000000000000000044
:101FD0000000000000004E554D0000000000000011
:101FE0000400564F4C554D455F4C4F435543414FB0
:101FF00000000000000000000000000000000000E1
:1020000000004E554D000000000000000400494E45
:1020100054455256414C4F5F50524F500000000003
:1020200000000000000000000000000000004E550D
:102030004D00000000000000010046524545000030
:102040000000000000000000000000000000000090
:10205000000000000000000000004E554D00000090
:10206000000000000100464954415F4C4544000017
:102070000000000000000000000000000000000060
:102080000000000000004E554D0000000000000060
:10209000010054524F434F5F4D4F454441000000F3
:1020A0000000000000000000000000000000000030
:1020B00000004E554D000000000000000400534594
:1020C0004E48415F41444D494E0000000000000071
:1020D00000000000000000000000000000004E555D
:1020E0004D0000000000000004004E554D45524FC9
:1020F0005F53455249450000000000000000000009
:10210000000000000000000000004E554D000000DF
:10211000000000000400434F4D495353414F5F50AE
:102120004F4E544F0000000000000000000000006F
:102130000000000000004E554D00000000000000AF
:102140000100464C475F444553554D49440000004B
:10215000000000000000000000000000000000007F
:1021600000004E554D000000000000000400636EAA
:10217000745F7069705F74657374650000000000BF
:1021800000000000000000000000000000004E55AC
:102190004D000000000000000000000000000000F2
:1021A000000000000000000000000000000000002F
:1021B000000000000000000000000000000000001F
:1021C000000000000000000000000000000000000F
:1021D00000000000000000000000000000000000FF
:102500000000000070D50000100053475F434C49A5
:10251000454E54455F3031000000000000000000CF
:1025200000000000000000000000545854000000AB
:1025300070D50000100053475F434C49454E544549
:102540005F303200000000000000000000000000CA
:1025500000000000000054585400000070D5000036
:10256000100053475F434C49454E54455F3033009C
:10257000000000000000000000000000000000005B
:10258000000054585400000070D50000100053475C
:102590005F434C49454E54455F3034000000000015
:1025A000000000000000000000000000000054587F
:1025B00054000000000000000100434F4D505F45F3
:1025C00052524F5F4D4F544F520000000000000028
:1025D000000000000000000000004E554D0000000B
:1025E0001CB500F011F9040000F0BDF801A90320AA
:1025F00000F038FD0DF10101202000F033FD00A9AD
:10260000222000F02FFD0DF10201262000F02AFD0E
:1026100040F6B83000F00FFE2000C0B201F0A4FB7D
:102620000022002100206DF015FD012001F0FDFECB
:10263000002001F017FF00F0A4FA02F09FF802F06A
:10264000E2F8002002F01BF925E02000C0B200F003
:1026500020F99DF80000002803D02000C0B200F04F
:10266000F9FA00F062FB00F0ADFB9DF800202100BC
:10267000C9B2019800F078F90221022001F0D1FEE0
:1026800000F0D4F800F0E9FB322000F0D4FD9DF812
:10269000020000F019FC01A9032000F0E3FC0DF199
:1026A0000101202000F0DEFC00A9222000F0DAFC6D
:1026B00002F0A5F9C0B2012838D040D3032805D0D4
:1026C00003D3052833D002D339E038E037E000F0F7
:1026D00085F8002001F0A9FE02F00CFA012001F0BB
:1026E000A4FE00F091F8040001A9032000F0BAFC58
:1026F0000DF10101202000F0B5FC00A9222000F01E
:10270000B1FCDFF85408DFF85418016000F072F8EB
:102710000022002100206DF073FC0421082002F04B
:1027200035FA0421082002F05DFB08E007E09DF87F
:102730000100002803D0019880B202F002F89DF851
:10274000010000283FF481AFE4B2DFF8140810EB79
:10275000C4004268E4B2DFF8080850F834100120E1
:102760006DF078FC81E710B500240421082002F008
:102770000DFA0421082002F035FBE4B2DFF8E4078B
:1027800010EBC4004268E4B2DFF8D80750F8341008
:1027900000206DF035FCE4B2DFF8CC0710EBC4008C
:1027A0004268E4B2DFF8C00750F8341000206DF042
:1027B00051FC0021012002F02FFDDFF8B017086066
:1027C000DFF8A8070068002807D0002300220021B6
:1027D000DFF89807006802F057FD10BD80B50023B0
:1027E00001220021DFF88407006802F0B5FD00280F
:1027F000F5D001BD80B5002300220021DFF86C0771
:10280000006802F041FD01BD80B500208DF8000098
:1028100000A9002000F026FC9DF80000082802DB3B
:1028200000208DF800009DF8000002BD70B586B054
:1028300002F01AFF040003F0C7F9A4B2230002005B
:10284000DFF82C1701A803F035FA002201A90120B6
:102850006DF0D6FB01F092FF0400642501F08EFFBD
:10286000060002F036FF94FBF5F105FB11410091E3
:10287000642196FBF1F380B20200DFF8F81601A89C
:1028800003F018FA01AA002101206DF0B9FB06B08F
:1028900070BD10B586B0040000A9032000F0E2FB73
:1028A00000986421B0FBF1F201FB1203009864214F
:1028B000B0FBF1F2E4B2DFF8C00650F8241001A832
:1028C00003F0F8F9002201A901206DF0C3FB01F02B
:1028D00055FF002815D06421B0FBF1F201FB120373
:1028E0006421B0FBF1F2E4B2DFF8900650F8241056
:1028F00001A803F0DFF901AA002101206DF0AAFB75
:1029000021E0DFF87C060068002810D1DFF87406AB
:102910000078401C042190FBF1F202FB1102DFF869
:1029200064060270DFF8580642F21071016001A9D6
:10293000DFF8500600783C3000F094FB01AA00213B
:1029400001206DF087FB06B010BD80B5DFF83806BA
:1029500003F009FB002805D0DFF82C068078192148
:10296000484300E0002002BD70B582B005000C00B5
:10297000160001F003FFA842C0F08B80F6B2002ED3
:1029800003D0FFF7E2FFA8427AD3012100A800F0AC
:10299000A9FF002806D0022843D032D3042860D0F3
:1029A0004FD36DE0280001F02EFFF6B2FF2E13D1B9
:1029B00001F0E4FE00280FD0E4B2DFF8D00510EB00
:1029C000C4004268E4B2DFF8C40550F834100020B7
:1029D0006DF040FB00F098F82000C0B201F0A0F9C3
:1029E0000022002100206DF035FB002001F047FFA0
:1029F0000421082002F0CAF80421082002F0F2F9AC
:102A00003EE0DFF88C25E4B2DFF8880550F82410AA
:102A100000206DF01FFB00F04AF8002001F02FFFAE
:102A20002EE0DFF87425E4B2DFF8680550F82410D2
:102A300000206DF00FFB00F03AF8002001F01FFFBE
:102A40001EE0DFF85825E4B2DFF8480550F82410FE
:102A500000206DF0FFFA00F02AF8002001F00FFFCF
:102A60000EE0DFF83C25E4B2DFF8280550F824102A
:102A700000206DF0EFFA00F01AF8002001F0FFFEE0
:102A80000022002100206DF0BBFA002001F0EAFCDA
:102A90000CE0F6B2FF2E09D101F00BFF002805D1A2
:102AA00001F06CFE002801D000F02EF873BD80B557
:102AB0000221062001F0B5FC00F026F8012001F00B
:102AC000DEFE10E0FFF78AFE002001F0AEFC02F00F
:102AD00011F8012001F0A9FCFFF78CFE0022002173
:102AE00000206DF08DFAFFF7A1FE01F088FFC0B263
:102AF000012806D0F7D3032805D003D30428E1D05A
:102B0000F1E7F0E7EFE7EEE77FB501F037FE04000D
:102B10002500002001F0B3FE4FF4FA7000F08BFBAB
:102B200000A803F020FA002828D01920B4FBF0F404
:102B3000280001F068FE0F20B4FBF0F50F20B4FB75
:102B4000F0F100FB1144002608E00F21022003F001
:102B5000F1F941F2883000F06EFB761CF6B2EDB26E
:102B6000AE42F2D3E4B2002C08D02100C9B2022058
:102B700003F0E0F941F2883000F05DFB012004B081
:102B800070BD38B503F040FA0400FFF73DFE0500C4
:102B9000E4B2002C01D1012032BDE4B2012C0AD0F4
:102BA0002DD3032C1DD011D3052C1CD01AD3072CE8
:102BB0001BD019D323E0DFF8EC23EDB2DFF8D40308
:102BC00050F8251000206DF045FA18E0DFF8C82312
:102BD000EDB2DFF8C00350F8251000206DF03AFA8E
:102BE0000DE00CE00BE00AE009E0DFF8B423EDB201
:102BF000DFF8A00350F8251000206DF02BFA01201B
:102C000001F03DFE062001F010FC01E0FFF70EFE92
:102C100001F0F5FEC0B201281AD0F7D30328F5D091
:102C200017D30428F2D1FFF7D9FD002001F0FDFBF6
:102C300001F060FF012001F0F8FBFFF7E5FD050062
:102C4000FFF7D8FD0022002100206DF0D9F9DDE763
:102C5000DCE7DBE738B50400002500A9022000F01E
:102C600001FA9DF80000C00700D564259DF800001A
:102C7000800700D5C8259DF80000400701D54FF416
:102C8000FA759DF80000000701D54FF47A759DF89C
:102C90000000C00601D54FF4FA65FFF756FEA842C2
:102CA00042D20221062001F0BCFB012001F0E7FD29
:102CB000E4B2BD4810EBC4004268E4B2BA4850F830
:102CC000341000206DF0C6F901E0FFF7AFFDFFF70B
:102CD0003CFEA8421BD201F092FEC0B20128F4D003
:102CE0000428F2D1FFF77AFD002001F09EFB01F0ED
:102CF00001FF012001F099FBFFF786FD0400FFF7BB
:102D000079FD0022002100206DF07AF9DDE7002036
:102D100001F0B5FD002001F088FB012001F085FBEA
:102D20000221022001F07DFB31BD10B5FFF76CFDE3
:102D3000040003F040F9002803D002280FD001D38B
:102D400019E010BDE4B2994810EBC4004268E4B247
:102D5000964850F8341000206DF07CF90BE0E4B296
:102D6000934810EBC4004268E4B2914850F8341024
:102D700000206DF06FF905E0FFF758FD4FF4FA7091
:102D800000F059FA03F017F90028DAD001F037FE05
:102D9000C0B20128F0D00428EED1FFF71FFD0020BB
:102DA00001F043FB01F0A6FE012001F03EFBFFF71E
:102DB0002BFD0400FFF71EFD0022002100206DF016
:102DC0001FF9D9E710B582B000A9012000F04AF937
:102DD0009DF80000002800D113BDFFF715FD040089
:102DE00003F094FBC0B20328F6D1E4B2714810EBB3
:102DF000C4004268E4B26F4850F8341000206DF00F
:102E000029F905E0FFF712FD4FF4FA7000F013FA0C
:102E100003F07CFBC0B20328DED101F0F0FDC0B2AC
:102E20000128EFD00428EDD101F029FBFFF7D6FCF3
:102E3000002001F0FAFA01F05DFE012001F0F5FA40
:102E4000FFF7E2FC0400FFF7D5FC00220021002080
:102E50006DF0D6F801F013FBD4E780B503F040F92C
:102E6000002803D002280AD001D30FE00EE0524A16
:102E7000524900206DF0EEF800F009F806E0504AE3
:102E8000504900206DF0E6F800F001F801BD10B5E2
:102E9000012402E00024FFF7C9FCE4B2002C09D0B1
:102EA00001F0ADFDC0B20128F4D00428F3D101F047
:102EB00021FEF0E7444A454900206DF0A1F840F6B4
:102EC000B83000F0B8F910BD10B5C0B2002842D03B
:102ED0002148006800283ED147F230543C4A3D4921
:102EE00000206DF08DF83A4A3A4900206DF0B2F8B2
:102EF000012002F01AFD41F2707002F030FE3C2019
:102F000003F067FB40F6B83000F095F902E00120CD
:102F100000F091F92000441E00280ED002F054FE6B
:102F2000B0F57A7FF3D2002003F053FB002002F0CB
:102F300016FE002002F0F9FC0DE0002003F049FB32
:102F4000002002F00CFE002002F0EFFCFFF719FE5B
:102F500001480249016010BD3403001040771B0096
:102F6000AC1000100C0E0010440E0010B4760010CF
:102F7000A8D40000BCD400007816001094160010ED
:102F8000B876001040770010207600103C1000103A
:102F9000CCD5000058170010DCD5000010D7000079
:102FA000ECD500001CD7000074100010E4100010D5
:102FB0001C1100105411001034D7000028D7000055
:102FC0004CD7000040D7000064D7000058D700005D
:102FD000FCD5000070D7000080B503F005FB01BDF3
:102FE00010B40021002207E02C23464C03FB0243CF
:102FF0009B889B1C5918521C8242F5D3080010BCB8
:10300000704710B504002C203E4A00FB0420828843
:103010003D4803F0C3FB2C203A4900FB0410828892
:103020000021394803F0CDFB2C21364A01FB042155
:103030008988354A80B2030A8B542C21314A01FB1E
:1030400004218988304A891848702000FFF7C8FF9A
:103050002C212C4A01FB042189888A1C2A4903F06F
:1030600042FB10BD70B504000D002000FFF7B8FF53
:103070002C21244A01FB042189888A1C234903F05E
:103080004EFB2C201F4900FB0410828800211F48A2
:1030900003F097FB80B22C211A4A01FB0421898896
:1030A000194A891891F840102C22164B02FB043261
:1030B0009288154BD21892F8412052EA0121884299
:1030C00009D12C200F4900FB041082880F492800E9
:1030D00003F064FB14E02C200A4900FB04100021DB
:1030E00004E0C9B2C9B20A5C4A55491C0A00D2B20E
:1030F0002C23044E03FB04639B8892B29A42F0D3C4
:1031000070BD0000B41A000070730010B07300109E
:103110002DE9F84F06000F00904699460C99DDF80E
:1031200034A0404680B200F02DFB05000A9C002D23
:103130006DD01FFA88F8286B10EB8800B0F1040BF3
:103140005FEADB0B5FEACB0B1FFA88F8CDF8008053
:10315000534622003900280000F0A4FA4A46310004
:10316000584603F0C7FC28600B98002800D0056083
:1031700003F0E8FCDFF814070068401CDFF80C17C8
:103180000860DFF80C07006800280AD1DFF80007A4
:103190000560DFF8F8060068012810D100F09FFAFA
:1031A0000DE0DFF8F0060068002808D1DFF8E0063F
:1031B0000068C06A844202D3DFF8D4060560DFF8F5
:1031C000D8060068E96A884203D2E86ADFF8C816C0
:1031D0000860DFF8C8060068401CDFF8C016086009
:1031E000DFF8BC060068E96A884203D2E86ADFF8C3
:1031F000B0160860291DE86A1422DFF8A83602FB21
:10320000003003F0EBFC012503F0A5FC01E05FF0CA
:10321000FF35012D0CD1DFF87C060068002807D0AF
:10322000DFF86C060068C06AA04201D203F085FC9A
:103230002800BDE8F28F10B504000020002C29D032
:1032400000F04FF8DFF8680600682418DFF8400641
:103250000068001D03F0EBFCDFF8340600684460F2
:10326000DFF84C060068844209D2DFF824060068C3
:10327000011DDFF84006006803F0BEFC08E0DFF83F
:1032800010060068011DDFF83006006803F0B4FC8A
:1032900000F02FF8002801D103F04FFC10BD00B55D
:1032A00085B00020039000200290002001900020B3
:1032B000009000235022DFF810160FF2E130FFF7E4
:1032C00027FF01280BD103F0E3FCDFF8C80501213B
:1032D0000160DFF8DC050021016003F018FC05B097
:1032E00000BDDFF8E0050068401CDFF8D815086075
:1032F000704770B5002403F025FCDFF8C8050068AE
:10330000401EDFF8C0150860DFF8B8050068002827
:1033100058D1DFF878050068002853D0002521E057
:1033200016F1180003F083FC301D03F080FCDFF879
:1033300070050068F16A884203D2F06ADFF8601510
:103340000860311DF06A1422DFF8583502FB0030A6
:1033500003F044FCF06ADFF838150968C96A88424E
:1033600000D30125DFF858050068002804D0DFF8F5
:103370005005C068C66800E00026002ED0D1DFF8F6
:103380004C050068002809D10EE000F01FF8DFF8B6
:103390003C050068401EDFF834150860DFF82C0596
:1033A00000680028F1D10125012D04D0DFF82005A7
:1033B0000068012806D10124DFF81405002101600E
:1033C00003F0BBFB03F0C7FB200070BD10B5DFF8B6
:1033D000F4040068002852D1DFF8D4040068401CCF
:1033E000DFF8CC140860DFF8C8040068002812D1A8
:1033F000DFF8C4040068DFF8C014DFF8B8241268EE
:103400000A60DFF8B0140860DFF8C8040068401CE8
:10341000DFF8C01408601CE0201D03F008FCA06A5F
:10342000002803D014F1180003F001FCDFF8700449
:103430000068E16A884203D2E06ADFF86414086039
:10344000211DE06A1422DFF85C3402FB003003F037
:10345000C5FBDFF8640400680068002805D0DFF8C9
:1034600058040068C068C46800E00024002C0DD037
:10347000DFF83C04006861688842CDD206E0DFF8DE
:103480004C040068401CDFF84414086010BD80B58F
:10349000DFF830040068002804D0DFF8340401218C
:1034A000016053E0DFF8E8030068006BDFF8E01329
:1034B00009680968884209D3DFF8D403006810F16D
:1034C0003401DFF8CC03006803F036FD1422DFF886
:1034D0000814DFF8BC030068006B03F02FFD002820
:1034E00011D0DFF8AC03006810F13401DFF8A0035D
:1034F000006803F021FD06E0DFF8A4030068401E29
:10350000DFF89C130860DFF8980300681421DFF8E7
:10351000942301FB002000680028EDD0DFF8800331
:1035200000681421DFF87C2301FB00204168496812
:103530004160416810F10802914202D14168496836
:1035400041604068C068DFF84813086001BD10B5ED
:103550000C00DFF83C130968183103F04DFBDFF86D
:1035600030030068001D03F062FB14F1010F08D165
:10357000DFF81C030068011DDFF8400303F02EFB99
:103580001CE0DFF82C0300682018DFF8041309683A
:103590004860DFF81C130968884208D2BC480068FC
:1035A000011DDFF81003006803F026FB06E0B848B1
:1035B0000068011DC048006803F01EFB10BD10B577
:1035C0000168002902D0C068C46800E0002414F13A
:1035D000180003F02CFBBB480068002813D1201D05
:1035E00003F025FBAE480068E16A884202D2E06A37
:1035F000AB490860211DE06A1422AA4B02FB00308F
:1036000003F0ECFA04E014F11801AD4803F0E6FA17
:10361000E06A9F490968C96A884201D3012000E035
:10362000002010BDAB4909680160A14909684160EB
:10363000704738B504000D0003F084FA286810F1D3
:10364000010F01D100241FE0A248006821688842D0
:1036500006D0974800686168884201D3012413E0CE
:10366000934800686168401A296888420BD228682C
:103670008F490968401A6168081828602000FFF720
:10368000D1FF002400E0012403F065FA200032BDE0
:103690008F480121016070470000000080B500F0F4
:1036A00040F8FCE738B5040015000C2214F1340092
:1036B00003F076FC002084F83F00052D00D304259C
:1036C000E562A564201D03F086FA14F1180003F0EA
:1036D00082FA2461D5F10500A061646231BD10B5A4
:1036E000002406E014206F4900FB041003F064FA84
:1036F000641C052CF6D3794803F05EFA784803F091
:103700005BFA6F4803F058FA674803F055FA6B48C4
:1037100003F052FA684871490160664870490160D7
:1037200010BD10B56148006800282AD0FFF7D9FD08
:103730005D480068002801D1012400E00024E4B2C3
:10374000FFF7D7FD002C1CD103F0FCF956480068A8
:10375000002803D05448C068C46800E00024201D3D
:1037600003F065FA49480068401E484908604F4820
:103770000068401E4D49086003F0EDF9200000F09C
:1037800023F810BD70B504000D004C2003F03EFC82
:103790000600002E16D0002D05D1A4B2A00003F023
:1037A00035FC0500FFE73563306B002804D130009D
:1037B00003F053FC002605E0A4B2A200A521306B63
:1037C00003F050FC300070BD10B50400206B03F016
:1037D00044FC200003F041FC10BD2D4800687047F8
:1037E00010B50400E06A2A490968C96A884229D2EA
:1037F00027480068C06AD0F10500A0616069E16AED
:103800001422284B02FB0131884217D1201D03F0FE
:103810000EFA1F480068C06AE06221480068E16A49
:10382000884202D2E06A1E490860211DE06A142223
:103830001C4B02FB003003F0D1F903E01448006890
:10384000C06AE06210BD10B50400002C1CD0E06A14
:10385000A16C884218D0201D03F0E9F9A06CE06249
:10386000E06AD0F10500A0610D480068E16A884275
:1038700002D2E06A0A490860211DE06A1422094B5D
:1038800002FB003003F0AAF910BD0000DC76001046
:10389000CC760010EC760010E47600100077001073
:1038A000E8760010F0730010E8750010D87600106C
:1038B000E0760010D4760010D0760010FC75001071
:1038C000D4750010F0760010CCD90000F47600100A
:1038D000F8760010FC76001084D50000AC7500105E
:1038E000C075001070B586B00C000025012000F0F6
:1038F000C6FF00A90020FFF7B5FB01A91A20FFF7BA
:10390000B1FB02A91B20FFF7ADFB03A91C20FFF7A9
:10391000A9FB04A90320FFF7A5FB0DF1010140203D
:10392000FFF7A0FB0198AB2801D355200190029826
:1039300042F23511884202D341F24460029003986A
:1039400042F21171884202D20398002802D141F25A
:10395000680003900121022000F063FDDFF85404A9
:10396000006800280BD0DFF850040068052806D254
:10397000DFF844040068401CDFF83C140860DFF8FE
:103980003404DFF8381401600198DFF82C1409685A
:10399000081801909DF80000DFF8241411EBC00016
:1039A00042689DF80000DFF8181451F8301000202C
:1039B0006CF050FB9DF80000DFF8041411EBC00020
:1039C00042689DF80000DFF8F81351F8301000202D
:1039D0006CF016FB012001F0A8FF4FF4FA70FFF71E
:1039E0002AFC9DF80100002804D040F6C41002F023
:1039F000B6F803E04FF47A6002F0B1F8DFF8C403E0
:103A0000DFF8C413016000F016F9002807D1002088
:103A100002F0A5F8002001F088FF0120EAE00198FB
:103A200080B202F0D6FD4EF6602604E00120FFF7DA
:103A300002FCFEF7FBFE01F017FE80B201998842FE
:103A400002D2761E002EF1D1002E0AD1002002F003
:103A500086F8002001F069FF002002F0BAFD022084
:103A6000C8E000F011F900280AD1002002F077F830
:103A7000002001F05AFF002002F0ABFD0320B9E066
:103A8000029802F06CF89DF80100002805D002F0C1
:103A90009BF80299884207D2F9E702F095F802995B
:103AA000B1F57A718842F8D30221032000F0B9FC05
:103AB000039803F0E1FA0021002003F085FB03F0F6
:103AC0001CFC0028FBD10022002100206CF0C2FA6F
:103AD0000022002100206CF093FABC4840F6B83177
:103AE0000160B848B84901600021012003F06CFB77
:103AF00007E00121032000F094FC0221042000F0E3
:103B000090FCB0480068002838D0AE4801689DF8A5
:103B1000000000F071F800F0A2F802F055F8B0F5DE
:103B20007A7F0AD2002002F01AF8002001F0FDFE90
:103B3000002002F04EFD01205CE0A448006800284F
:103B40000DD1EDB2142D00DA6D1C0198EDB22818DC
:103B500080B202F03EFD9D4840F6B83101609948C0
:103B600000684CF251318842C3D20121042000F098
:103B700058FC0221052000F054FCC2E70121052079
:103B800000F04FFC002001F0EAFF002001F0CDFE24
:103B9000002002F01EFD9DF8000000F0A1F803F0E7
:103BA0004DFB4FF4FA70FFF746FB0021022003F0B3
:103BB0000BFB03F0A2FB0028FBD14FF4FA70FFF7D8
:103BC0003AFBE4B2012C0CD1012003F0FBFB04987A
:103BD00003F007FC012003F013FC049803F01FFC22
:103BE00001E003F033FC002000F01FFC012000F096
:103BF0001CFC002006B070BD10B586B004007148F2
:103C000000684FF47A71B0FBF1F23C20B2FBF0F1A6
:103C100000FB11233C20B2FBF0F26D4900A802F03A
:103C200049F800AAE4B26B4850F8241001206CF067
:103C300011FA06B010BD10B54CF2503401F0C4FFBB
:103C4000B0F57A7F01D9012008E00120FFF7F3FAEF
:103C50002000441E80B20028F0D1002010BD10B515
:103C600086B001F001FD040001F0AEFFA4B2230014
:103C70000200594900A802F01DF8002200A9012005
:103C80006CF0BEF906B010BD10B54FF4FA64012017
:103C900000F0A5FA02E00120FFF7CDFA022000F0C3
:103CA00071FA002803D02000441E0028F3D143F607
:103CB0009824022000F066FAC0B2002804D0002048
:103CC00000F08DFA01200AE00120FFF7B4FA20008D
:103CD000441E0028EDD1002000F081FA002010BD24
:103CE00010B50400012001F020FE43F2C82001F0CD
:103CF00036FFE4B2394810EBC4004268E4B23748FA
:103D000050F8341000206CF0A5F941F65830FFF758
:103D100092FA002001F023FF002001F006FE10BD02
:103D200010B50400012001F000FE4FF4FA70FFF717
:103D300082FA41F2707001F012FFE4B2284810EBF1
:103D4000C4004268E4B2264850F8341000206CF0F9
:103D500081F947F23050FFF76EFA002001F0FFFEC4
:103D6000002001F0E2FD10BD10B50400012001F0BB
:103D7000DCFD4FF4FA70FFF75EFA42F6E06001F006
:103D8000EEFEE4B2174810EBC4004268E4B21548F6
:103D900050F8341000206CF05DF941F65830FFF710
:103DA0004AFA002001F0DBFE002001F0BEFD10BD4C
:103DB00000000000A0760010A4760010C0D401001E
:103DC000240F001098760010803801009C760010B7
:103DD000ACD500005C160010BCD50000B40E00107D
:103DE000EC0E00105C0F001080B5DFF8A406006830
:103DF00050F00100DFF89816086002F0D7FC00F0E0
:103E000081FB012000F03BFD002000F0E8F9DFF825
:103E10008006006850F07040DFF874160860DFF824
:103E20007406006850F07040DFF868160860DFF82C
:103E30006006006850F00100DFF854160860DFF8F3
:103E40005006006850F48030DFF844160860FFF731
:103E5000C3F801F0A9FB01F05DFC02F091FB03F057
:103E600003FB01F041FFDFF83006006850F04050DE
:103E7000DFF82416086003F03FF903F059FB002037
:103E800003F063FB01BD10B5002401F088FD00F0D4
:103E900035FD03F093FB03F0DFFB02F078FB00F04D
:103EA000A5FBDFF8F8050068002806D0DFF8EC0570
:103EB0000068401EDFF8E4150860DFF8E4050068DC
:103EC000002806D0DFF8D8050068401EDFF8D015BE
:103ED0000860DFF8D0050068002806D0DFF8C405C8
:103EE0000068401EDFF8BC150860DFF8BC050068FC
:103EF000002806D0DFF8B0050068401EDFF8A815DE
:103F00000860DFF8A8050068002806D0DFF89C05E7
:103F10000068401EDFF894150860DFF8940500681B
:103F2000002806D0DFF888050068401EDFF88015FD
:103F30000860DFF880050068002806D0DFF8740507
:103F40000068401EDFF86C150860DFF86C0500683B
:103F5000002806D0DFF860050068401EDFF858151D
:103F60000860DFF858050068002806D0DFF84C0527
:103F70000068401EDFF844150860DFF8440500685B
:103F8000002806D0DFF838050068401EDFF830153D
:103F90000860DFF830050068002806D0DFF8240547
:103FA0000068401EDFF81C150860DFF81C0500687B
:103FB000002811D1DFF81005DFF810150160DFF8D7
:103FC0001005006800280ED0DFF804050068401EC8
:103FD000DFF8FC14086006E0DFF8EC040068401E1F
:103FE000DFF8E4140860DFF8EC040068401CDFF838
:103FF000E4140860DFF8E0040068C0F3C03010F09B
:10400000010090F00100C0B204436400DFF8C8046E
:104010000068C0F3400010F0010090F00100C0B251
:1040200004436400DFF8B4040068C0F3406010F09B
:10403000010090F00100C0B20443DFF8A40400784E
:10404000DFF8A01421F81040DFF894040078401C39
:10405000102190FBF1F202FB1102DFF884040270E0
:1040600010BD10B582B00024DFF87C141F20FEF7CD
:10407000F9FFDFF8740400683D2803D3DFF8680413
:104080003C21016000A92120FEF7ECFF23E0DFF8CE
:104090000404006850F48030DFF8F8130860FA2058
:1040A000FFF7C9F800F0FAF8DFF80004006800280C
:1040B00011D1DFF834040068002803D00021032068
:1040C00003F082F8DFF8200400684EF660214843D0
:1040D000DFF8D813086094F0FF049DF80000002872
:1040E00034D0E4B2002C18D0DFF80004006850F49B
:1040F0008030DFF8F8130860DFF8F403006850F050
:104100008050DFF8EC130860DFF8E803006850F037
:104110000050DFF8E0130860C1E7DFF878030068BB
:1041200050F48030DFF86C130860DFF8C8030068D3
:1041300050F08050DFF8BC130860DFF8B40300686B
:1041400050F00050DFF8A8130860A8E7DFF8A403D8
:10415000006850F08050DFF89C130860DFF894038B
:10416000006850F00050DFF88C130860E4B2002CB7
:104170008DD0DFF87803006850F48030DFF86C13DE
:1041800008608CE710B4002100220AE0D2B2DFF808
:10419000543333F8123001248440234200D0491CA8
:1041A000521CD2B2102AF1DBC9B2092901DB01206D
:1041B00000E0002010BC7047C0B2002808D0DFF833
:1041C0002C03006850F00100DFF82013086005E0C0
:1041D000B048006850F00100AE490860704780B5F3
:1041E000C0B2002803D0022836D019D34FE0A94826
:1041F000006850F08050A7490860A648006850F059
:104200000050A4490860A348006850F08040A149CC
:104210000860A048006850F000409E49086036E001
:104220009C48006850F080409A49086099480068AE
:1042300050F00050974908603220FEF7FCFFAB4871
:10424000006850F08050A9490860A848006850F004
:104250000040A64908601AE08E48006850F080507F
:104260008C4908608B48006850F00040894908601C
:104270003220FEF7E0FF9D48006850F080409B49E7
:1042800008609A48006850F000509849086001BDE5
:1042900082490860704781480068704780B5964839
:1042A0000078002800F0BC809448007890F0FF006F
:1042B0009249087092488078002804D10021022099
:1042C00003F017F90DE08E488078012804D1012110
:1042D000022003F00EF904E088480178022003F080
:1042E00008F98748C078002804D10021032003F092
:1042F00000F90DE08248C078012804D10121032093
:1043000003F0F7F804E07D480178032003F0F1F8AA
:104310007B480079002804D10021042003F0E9F84B
:104320000DE077480079012804D10121042003F031
:10433000E0F804E071480178042003F0DAF87048EE
:104340004079002804D10021052003F0D2F80DE0C7
:104350006B484079012804D10121052003F0C9F8F8
:1043600004E066480178052003F0C3F864488079CA
:10437000002804D10021062003F0BBF80DE06048BE
:104380008079012804D10121062003F0B2F804E06D
:104390005A480178062003F0ACF8594840780028C4
:1043A00004D10021012003F0A4F80DE05448407826
:1043B000012804D10121012003F09BF804E04F48BB
:1043C0000178012003F095F84D480078002804D1C9
:1043D0000021002003F08DF80DE049480078012805
:1043E00004D10121002003F084F804E0434801785F
:1043F000002003F07EF841480078002808D0012111
:10440000012003F076F80021002003F072F807E0A5
:104410000021012003F06DF80121002003F069F86C
:1044200001BDC0B2364A8154704738B5040000253A
:1044300005E000212800C0B203F05BF86D1CEDB26E
:10444000082DF6DBE4B2002C09D1002004E0C0B254
:104450002B4900224254401CC0B20828F7DB2648F2
:10446000047031BD002807D11F4800684EF6602156
:1044700048430E49086001E00C49086070471A483B
:1044800000684EF660214843084908607047000004
:1044900020C009203CC0092080C0092058760010A7
:1044A000987600109C7600106876001028030010A3
:1044B00060760010B0760010A07600103403001073
:1044C000C8760010B876001064760010C0D40100E1
:1044D000A47600100477001034C0092014C009200D
:1044E0002B7700106C7500105C76001038C0092026
:1044F00098C009209CC009204E0300102C770010A2
:104500003076001080B5DFF8B003006850F080709E
:10451000DFF8A4130860DFF8A003006850F0007013
:10452000DFF8941308600120DFF89013096860F346
:104530001961DFF888030160DFF88403006850F038
:104540000400DFF87C130860DFF87803006850F09F
:104550000400DFF870130860DFF86C03006850F4A3
:104560008010DFF8641308600120DFF85013096839
:1045700060F39B61DFF844030160DFF844030068E7
:1045800050F00800DFF838130860DFF838030068DF
:1045900050F00800DFF82C130860DFF82C030068E7
:1045A00050F40010DFF820130860DFF820030068E3
:1045B00050F08070DFF814130860DFF81003006813
:1045C00050F00070C14908600021012000F024FE75
:1045D000BF490860BE480068002806D000230022BA
:1045E0000021BB48006800F04FFE01BDB9480088BB
:1045F000002804D0B7480088401EB6490880B64855
:104600000088002804D0B4480088401EB2490880C1
:10461000704710B503F0C2F840F6B830FEF70BFE55
:1046200003F0D4F801F037FF0400002C09D0642017
:1046300000FB04F080B200F084F8200080B201F0AA
:1046400041FF0A20FEF7F7FDEAE7A24800880028AC
:1046500007D1A24800881930A04908809D4832211E
:1046600001809F48006850F004009D4908609D4803
:10467000006850F480109B49086070479748008894
:1046800070479649098880B2884205D393490988C2
:10469000081A9249088002E0904800210180704782
:1046A000C0B2002806D08948006850F08070874961
:1046B000086005E08C48006850F080708A49086006
:1046C00070478A48006800280BD18348008800287A
:1046D00007D1874800886430854908807E483221A8
:1046E00001807F48006850F008007D4908607D48DF
:1046F000006850F400107B4908607047C0B2002881
:1047000006D07248006850F000707049086005E0FB
:104710007548006850F0007073490860704774482D
:10472000008870477249098880B2814205D2704979
:104730000988081A6E49088002E06D48002101804E
:10474000704710B504000023012200216048006872
:1047500000F002FE0028F6D066480068A4B22018D7
:104760006449086064484EF660210160002300221D
:1047700000215748006800F087FD10BD30B583B0B8
:104780000023012200215248006800F0E5FD0028C6
:10479000F6D057480088002824D05548058801A93C
:1047A0000E20FEF75FFC00A90F20FEF75BFC0198CE
:1047B0002818019000982818009001A90E20FEF7F3
:1047C00020FC00A90F20FEF71CFC494800880419B2
:1047D0004848006828184749086045480088401B39
:1047E00043490880434804683C48008804193B4812
:1047F000002101800023002200213548006800F0DC
:1048000043FD20003EBD10B504000023012200211D
:104810002F48006800F0A0FD0028F6D03548006859
:10482000A04205D333480068001B3249086002E00B
:104830003048002101602F480068002802D52D482B
:10484000002101600023002200212148006800F0BF
:104850001BFD10BD10B504000023012200211C48DF
:10486000006800F079FD0028F6D02248046000239B
:10487000002200211648006800F006FD10BD10B5AA
:1048800004001A48E4B204602000C0B2FFF708FF39
:104890002000C0B2FFF732FFE4B2200002F0C6FFF2
:1048A000E4B2200003F054FA2000C0B201F040FE50
:1048B00010BD11480068704720C0092010C0024098
:1048C00048C10F404CC10F4000E100E038C0092052
:1048D000707600100C770010107700100A77001027
:1048E00040C10F4080E200E03CC009202C030010D2
:1048F0000E7700106C76001068760010754800681E
:10490000002804D073480068401E7249086072484D
:104910000088002804D070480088401E6E49088036
:104920006E480088002805D06C480088401E6B49FE
:10493000088063E06A4800786A4900224254684867
:1049400000786849405C68490968C1F3002111F0AA
:10495000010191F00101C9B2084361490978614A36
:10496000885461480068800501D5002000E00220DD
:104970005B4909785B4A895C084359490978594A77
:10498000885459480068400501D5002000E0042003
:1049900053490978534A895C084351490978514A77
:1049A000885451480068400401D5002000E00820E8
:1049B0004B4909784B4A895C084349490978494A77
:1049C00088544A480068800101D5002000E010208A
:1049D00043490978434A895C084341490978414A77
:1049E00088543F480078401C082190FBF1F202FBFC
:1049F00011023B480270394806210180704710B40B
:104A00000021002008E0C0B2364A825C12F00902A0
:104A1000092A00D1491C401CC0B20828F3DBC9B2E6
:104A2000052901DB08204FE0002000E0401CC0B257
:104A3000052845DA0021002208E0D2B2294BD35CD8
:104A400001248440234200D0491C521CD2B2082ABF
:104A5000F3DBC9B20529E9DB1F49098800291BD10D
:104A60002349097800290DD0214900220A701A49EA
:104A70004FF4FA620A8017494EF660220A60401C21
:104A8000C0B221E0144932220A8012494EF6602257
:104A90000A60401CC0B217E01549097800290DD002
:104AA000134900220A700C494FF4FA620A8009493E
:104AB0004EF660220A60401CC0B205E0002003E010
:104AC0000B4801210170002010BC704701480068AC
:104AD00070470000AC760010460300104803001039
:104AE0003C7700104076001034C0092074C00920C3
:104AF0003D77001010B5FDF787FE1F4B0A22C0B2AC
:104B000028211E4C01FB0041C0B21D4C54F820006E
:104B100003F01CFA10BDE0B501A80021002206C078
:104B20000838FDF771FE8DF800009DF80000082898
:104B300002DB00208DF800009DF8000001A9FF2293
:104B40004254072301AA0F490F4803F071FA0020CD
:104B50008DF80000002007E0C0B201A9415C0029E7
:104B600001D08DF80000401CC0B20728F4DB00A97A
:104B70000020FEF746FA07BD84D20000D4060010DC
:104B8000A4120010AC090010A0D7000070B50400FA
:104B90000D008D48006850F010008B4908608A486D
:104BA000006850F00200884908608848006850F0AA
:104BB0002000864908608548006850F0100083494D
:104BC00008608248006850F00070804908607F48A3
:104BD000006850F000707D4908607B48006850F420
:104BE0000030794908604FF4FA70FEF724FB002684
:104BF00006E0032000F032F86420FEF71CFB761C70
:104C0000F6B2032EF5DB022000F028F81420FEF7A0
:104C100012FB54F02001C9B2002000F074F81420F7
:104C2000FEF709FB55F00801C9B2002000F06BF84F
:104C30001420FEF700FB55F00800654908701021AC
:104C4000002000F060F80A20FEF7F5FA06210020A7
:104C500000F059F80A20FEF7EEFA70BD5D490968C8
:104C600051F400315B4A116000BF00BF00BF00BFBC
:104C700000BF00BFC10706D55649096851F01001B1
:104C8000544A116005E05449096851F01001524A34
:104C90001160810706D54F49096851F002014D4A5C
:104CA000116005E04C49096851F002014A4A11605F
:104CB000410706D54949096851F02001474A11606A
:104CC00005E04749096851F02001454A1160000795
:104CD00006D54248006850F010004049086005E0E1
:104CE0003F48006850F010003D49086000BF00BF19
:104CF00000BF00BF00BF00BF3748006850F400305D
:104D000035490860704710B50C00C0B2002806D0C5
:104D10003248006850F000703049086005E03048C3
:104D2000006850F000702E490860E4B22009FFF7D7
:104D300095FF2000C0B2FFF791FF0220FEF77BFA3B
:104D400010BD80B5C0B2102809DAC9B2002906D159
:104D5000B0F18001C9B20020FFF7D5FF08E0C9B269
:104D6000012905D1B0F14001C9B20020FFF7CBFF06
:104D70000420FEF760FA01BD80B5C0B201000A2927
:104D80000CD00C2902D00D2908D00CE00121002004
:104D9000FFF7B9FF0C20FEF74EFA09E002210120CF
:104DA000FFF7B1FF04E00100C9B20120FFF7ABFF3C
:104DB00001BD10B5040003E02078FFF7DDFF641C9F
:104DC00020780028F8D110BD20C0092000C009209B
:104DD0003E77001038C009203CC0092018C00920C7
:104DE0001CC0092070B504000D00DFF8180400682D
:104DF00050F48070DFF80C140860DFF808040068D5
:104E000050F08000DFF8FC130860DFF8F80300685A
:104E100050F04000DFF8EC130860DFF8E8030068AA
:104E200050F40070DFF8DC130860DFF8D803006886
:104E300050F02000DFF8CC130860DFF8C8030068EA
:104E400050F02000DFF8BC130860DFF8B8030068FA
:104E500050F01000DFF8AC1308604FF4FA70FEF762
:104E6000EAF9002606E0032000F033F86420FEF79C
:104E7000E2F9761CF6B2032EF5DB022000F029F8E9
:104E80001420FEF7D8F954F02001C9B2002000F038
:104E90001CF91420FEF7CFF955F00801C9B2002023
:104EA00000F013F91420FEF7C6F955F00800DFF8FA
:104EB000581308701021002000F007F90A20FEF7AF
:104EC000BAF90621002000F000F90A20FEF7B3F934
:104ED00070BD00BF00BF00BF00BF00BF00BF00BF6C
:104EE00000BF00BF00BF00BF00BF00BF00BF00BFCA
:104EF00000BF00BF00BF00BF00BF00BF00BF00BFBA
:104F000000BF00BF00BF00BF00BF00BF00BF00BFA9
:104F100000BF00BF00BF00BF00BF00BF00BF00BF99
:104F200000BF00BF00BF00BF00BFC10708D5DFF84A
:104F3000DC12096851F48071DFF8D022116006E0BC
:104F4000DFF8CC12096851F48071B14A1160810711
:104F500006D5AE49096851F08001AC4A116005E000
:104F6000AB49096851F08001A94A1160410706D593
:104F7000A649096851F04001A44A116005E0A4491E
:104F8000096851F04001A24A1160000706D59F4808
:104F9000006850F400709D49086005E09C48006876
:104FA00050F400709A49086000BF00BF00BF00BF06
:104FB00000BF00BF00BF00BF00BF00BF00BF00BFF9
:104FC00000BF00BF00BF00BF00BF00BF00BF00BFE9
:104FD00000BF00BF00BF00BF00BF00BF00BF00BFD9
:104FE00000BF00BF00BF00BF00BF00BF00BF00BFC9
:104FF00000BF00BF00BF00BF00BF00BF00BF00BFB9
:105000008248006850F010008049086000BF00BF6F
:1050100000BF00BF00BF00BF00BF00BF00BF00BF98
:1050200000BF00BF00BF00BF00BF00BF00BF00BF88
:1050300000BF00BF00BF00BF00BF00BF00BF00BF78
:1050400000BF00BF00BF00BF00BF00BF00BF00BF68
:1050500000BF00BF00BF00BF00BF00BF00BF00BF58
:1050600000BF00BF6A48006850F01000684908603F
:1050700000BF00BF00BF00BF00BF00BF00BF00BF38
:1050800000BF00BF00BF00BF00BF00BF00BF00BF28
:1050900000BF00BF00BF00BF00BF00BF00BF00BF18
:1050A00000BF00BF00BF00BF00BF00BF00BF00BF08
:1050B00000BF00BF00BF00BF00BF00BF00BF00BFF8
:1050C00000BF00BF00BF00BF704710B50C00C0B2EA
:1050D000002806D04D48006850F020004B49086079
:1050E00005E04B48006850F0200049490860E4B2F0
:1050F0002009FFF7EEFE00BF00BF00BF00BF00BFEA
:1051000000BF00BF00BF00BF00BF00BF00BF00BFA7
:1051100000BF00BF00BF00BF00BF00BF00BF00BF97
:1051200000BF00BF00BF00BF00BF00BF00BF00BF87
:1051300000BF00BF00BF00BF00BF00BF00BF00BF77
:1051400000BF00BF00BF00BF00BF00BF00BF200006
:10515000C0B2FFF7BEFE0220FEF76DF810BD80B5AD
:10516000C0B2102809DAC9B2002906D1B0F1800115
:10517000C9B20020FFF7A9FF08E0C9B2012905D193
:10518000B0F14001C9B20020FFF79FFF0420FEF7F5
:1051900052F801BD80B5C0B201000A290CD00C291B
:1051A00002D00D2908D00CE001210020FFF78DFF6F
:1051B0000C20FEF740F809E002210120FFF785FFEF
:1051C00004E00100C9B20120FFF77FFF01BD10B567
:1051D00004001048006800280FD10E4847F23051F3
:1051E000016004210820FFF7FDFD0C20FFF7D2FF2E
:1051F00003E02078FFF7CEFF641C20780028F8D168
:1052000010BD000040C009203F77001058C00920A1
:105210005CC00920B076001070B504000D00002CB1
:1052200030D04C2001F0F2FE0600002E2AD005FB03
:1052300004F0401C01F0EAFE3060306800281ED007
:10524000306805FB040070600020B0633068B06017
:10525000601E316805FB0010F060F46335645FF098
:10526000FF3070645FF0FF30B06416F1100001F0A1
:10527000A3FC16F1240001F09FFC300003E0300095
:1052800001F0EBFE002070BDF7B504000D001E001C
:10529000002704E0200000F032F9FEF72AF801F0C0
:1052A00051FCA06BE16B884213D232002900200030
:1052B00000F0DBF8606A002807D014F12400FEF744
:1052C0007EF9012801D101F038FC01F044FC0120F5
:1052D00041E00298002803D101F03DFC00203AE0B3
:1052E000002F03D100A8FEF79DF9012701F033FC40
:1052F000FDF7F7FF01F026FC606C10F1010F01D102
:1053000000206064A06C10F1010F01D10020A064A6
:1053100001F021FC02A900A8FEF78BF9002813D1A7
:10532000200000F030F90028B4D0029914F11000E8
:10533000FEF70DF9200000F0E2F8FDF7DAFF002893
:10534000ADD101F0FAFBAAE7200000F0D8F8FDF794
:10535000D0FF01000020FEBDF7B504000D001E00C7
:10536000002704E0200000F0CAF8FDF7C2FF01F0BA
:10537000E9FBA06B00282BD0E7682900200000F093
:10538000A9F8002E14D1A06B401EA063206800284D
:1053900002D1FEF722FA60602069002814D014F1CF
:1053A0001000FEF70CF901280ED101F0C6FB0BE04E
:1053B000E760606A002807D014F12400FEF7FFF8C8
:1053C000002801D001F0B9FB01F0C5FB01204BE042
:1053D0000298002803D101F0BEFB002044E0002F1A
:1053E00003D100A8FEF71EF9012701F0B4FBFDF779
:1053F00078FF01F0A7FB606C10F1010F01D10020D4
:105400006064A06C10F1010F01D10020A06401F0D4
:10541000A2FB02A900A8FEF70CF900281DD120006C
:1054200000F0A2F800289DD02068002806D101F0E5
:1054300089FB6068FEF7D4F901F08DFB029914F145
:105440002400FEF784F8200000F059F8FDF751FF22
:1054500000288CD101F071FB89E7200000F04FF8A3
:10546000FDF747FF01000020FEBD10B50400206CD1
:10547000002808D12068002828D16068FEF7E3F9E9
:105480000020606022E0002A0ED1226CA06801F0AA
:1054900085F9206CA1684018A060A0686168884206
:1054A00014D32068A06011E0226CE06801F076F966
:1054B000206C4042E1684018E060E0682168884262
:1054C00004D2206C404261684018E060A06B401C30
:1054D000A06310BD80B503000800196800290DD035
:1054E000196CDA688918D960D9685A68914201D371
:1054F0001968D9601A6CD96801F050F901BD10B56E
:10550000040001F01FFB0AE014F12400FEF757F835
:10551000002801D0FEF7BCF8A06C401EA064A06C6F
:10552000012802DB606A0028EED15FF0FF30A06442
:1055300001F011FB01F006FB0AE014F11000FEF788
:105540003EF8002801D0FEF7A3F8606C401E6064AE
:10555000606C012802DB20690028EED15FF0FF308B
:10556000606401F0F8FA10BD10B5040001F0EAFA29
:10557000A06B002801D1012400E00024E4B201F076
:10558000EAFA200010BD10B5040001F0DBFAA06BB0
:10559000E16B884201D1012400E00024E4B201F073
:1055A000DAFA200010BD00005148006850F4805025
:1055B0004F49086001204F49096860F319614D485F
:1055C000016001204C49096860F38F314A4801604D
:1055D00001204949096860F3114147480160474883
:1055E0000068000A0002454908600A20434909682A
:1055F00060F30F21414801604048006830F480307A
:105600003E4908603D48006850F400103B4908607E
:1056100001203A49096860F31A613848016070470F
:105620000020002105E0C9B2354A32F811201018D7
:10563000491CC9B21029F6DB80B20009704780B559
:10564000FFF7EEFF40F2263148432E49091A40F297
:10565000F310B1FBF0F12B4840F2E63202FB1100EF
:10566000B0FBF1F080B202BD80B5FFF7E8FF80B279
:1056700042F21171884201DB192029E0002100E08B
:10568000491C89B2B32921DA89B21F4A32F81120A4
:1056900080B2824207D389B21B4A12EB4102528880
:1056A00080B282420ED389B2184A32F8112080B2F9
:1056B0008242E5D389B2144A12EB4102528880B289
:1056C0008242DDD211F11C0080B201E04FF4FA7089
:1056D00002BD0020002105E089B20D4A32F81120F8
:1056E0001018491C89B21029F6DB000980B27047F6
:1056F000C4C00F40A8C10F4004C002400040034096
:105700002C750010A05A3200C4C900005CC800000B
:105710004C75001080B5DFF8E004006850F40020FC
:10572000DFF8D4140860DFF8D404006850F00C00EF
:10573000DFF8C8140860DFF8C804006850F40020DF
:10574000DFF8BC1408600120DFF8B814096860F3C2
:105750009751DFF8B0040160DFF8AC04006850F046
:105760000200DFF8A4140860DFF8A004006850F01D
:105770000200DFF898140860DFF89404006850F421
:105780000020DFF88C140860DFF88804006850F00F
:105790000400DFF880140860DFF87C04006830F44F
:1057A0007F00DFF874140860DFF86404006850F0CC
:1057B0000400DFF85C140860DFF86004006850F053
:1057C0000100DFF858140860DFF85004006850F05A
:1057D0000200DFF848140860DFF84004006830F089
:1057E0000200DFF838140860DFF83404006880082D
:1057F0008000DFF82C140860DFF828044FF496715D
:105800000160DFF82404006850F03000DFF818145D
:105810000860DFF81804006850F00100DFF80C148D
:105820000860DFF80804006830F00200DFF8FC13BD
:105830000860DFF8F803006850F00400DFF8EC13AC
:105840000860DFF8D003006850F48000DFF8C4136C
:1058500008600120DFF8D813096860F30D31DFF824
:10586000D0030160DFF8B00300680002000ADFF82F
:10587000A8130860DFF89803006850F00800DFF80C
:1058800090130860DFF8AC03006850F00100DFF807
:10589000A4130860DFF89C03006850F00200DFF8F2
:1058A00094130860DFF88C03006830F00200DFF822
:1058B00084130860DFF88003006880088000DFF848
:1058C00078130860DFF874034FF496710160DFF815
:1058D0007003006840084000DFF864130860DFF8D8
:1058E0006003006830F00200DFF854130860DFF84E
:1058F0005403006840084000DFF848130860DFF8F0
:105900004403006830F03000DFF838130860DFF837
:105910003803006810F57A70DFF830130860DFF89C
:1059200030134020FDF79EFB01BDC0B2002808D017
:10593000DFF82003006850F40020DFF81813086037
:1059400005E0AF48006850F40020AD49086070479A
:1059500080B5C1480068002810D1C048006850F0E8
:105960000800BE490860BC480621016002F0CAFB7D
:10597000BB480068401CBA49086003E0B648B64915
:1059800009680160B748006850F00200B549086036
:10599000B548006850F40020B349086001BDB34821
:1059A0000088401EB149088080B200280AD1B04862
:1059B000AB4909680160AA4800210160AB484FF477
:1059C000FA710180AB480068002813D0A94800682C
:1059D00001280AD1002005E0C0B2A749002241F801
:1059E0002020401CC0B20228F6DBA2480068401EFE
:1059F000A049086070479E48006880B270479F4881
:105A0000006801009E4A1268824203D29C4A1268D2
:105A1000801A05E05FF0FF32994B1B68D21A10180C
:105A2000974A11609749096851F01001954A116031
:105A30008D49096851F004018B4A11609249086050
:105A40008C484FF47A710160904800688A498E4A08
:105A5000126841F820208D480068401C10F00100B9
:105A60008A49086070478A480068C00711D589488C
:105A7000006850F00800874908608548006850F0C9
:105A80000100834908607848006850F008007649B2
:105A900008607047002904D07F4800210160002081
:105AA00011E07D49096841187B4A11600100002915
:105AB00002D55FF0FF3251437749096840187649B3
:105AC000086075480068704701000020734A12881A
:105AD000734B43F822100B2202FB01006F49098827
:105AE000491C042291FBF2F303FB12136C4951F899
:105AF0002310122202FB110068490988891C042224
:105B000091FBF2F303FB1213654951F823100922AC
:105B100002FB010061490988C91C042291FBF2F3D0
:105B200003FB12135E4951F82310B0EB41005B49AF
:105B30000988491C042291FBF2F303FB1213574915
:105B40000B80062190FBF1F042F6E161884201DB17
:105B500042F6E0605349884200DA5248704710B577
:105B60000400002C03D15048002101700AE0642099
:105B7000FDF761FB4D4804600220FDF75CFB4A48DD
:105B80000121017010BD4FF42F614843C117C00BB4
:105B900040EA4140C91340F6C3120023101A73EBC8
:105BA0000101002904DC01DB962801D296200021A6
:105BB00040F6C5120023994205DB01DC904202D376
:105BC00040F6C4100021704700202F4909680029C1
:105BD00001D100200EE0002105E0C9B2264A52F8AA
:105BE00021201018491CC9B20229F6DB40083049AF
:105BF000B1FBF0F07047000020C0092040C0092030
:105C00003CC0092010C0024048C10F404CC10F40A9
:105C100000E100E0C4C00F4000E400E00480004068
:105C2000708000400C8000400CC002402880004082
:105C3000ACC10F4004000940700009400C0009404D
:105C4000140009403C0009400800094018000940C0
:105C50002F77001038C00920607600105CC0092042
:105C60007876001040C10F4080E200E04003001051
:105C70007C76001084760010387600102C8000406E
:105C80008C76001000800040807600109076001026
:105C90000000094058C009209476001018770010C1
:105CA0001076001020D1FFFF2E77001088760010AC
:105CB000D89830010CB41CB5044604A801900A46DB
:105CC000009401AB00A9074878441830FAF718FB94
:105CD000009900220A7000285CBF0098001B16BCC7
:105CE0005DF80CFB4BB3FFFF80B502F0F9FA01BD84
:105CF00010B40022002303E0DBB21C5CA2185B1C82
:105D0000DBB2C9B28B42F7D31000C0B210BC7047EF
:105D10002DE9F0478046894692461C00089D099E61
:105D200032275FFA8AFA52464946814800F036FD2A
:105D30005146C9B24846FFF7DBFF5FFA8AFA7C4951
:105D40000AF801005FFA8AFA1AF1010292B2784960
:105D50004046C0B202F030FB02F067FB80460120F3
:105D600002F07CFB5FFA88F8B8F1000F04D138002C
:105D7000471E80B20028EFD15FFA88F8B8F1000F13
:105D800045D002F04FFB80465FFA88F8B8F1250F46
:105D900001DB242100E04146C9B2654802F035FB31
:105DA000B8F10101C9B26248FFF7A2FF07005FFA2C
:105DB00088F8B8F1250F01DB242202E05FFA88F8A9
:105DC00042465B49280000F0E9FC5FFA88F8B8F128
:105DD000250F01DB242001E0B8F101003070E4B2AE
:105DE000002C01D000F099F85FFA88F8B8F1000FA4
:105DF00009D15FFA88F84E4818EB000010F8010C42
:105E0000FFB2B84201D1002002E0012000E00220F0
:105E1000BDE8F0872DE9F0478046894692461C0090
:105E2000089D099E4FF4FA675FFA8AFA524649467E
:105E30003F4800F0B3FC5146C9B24846FFF758FF4F
:105E40005FFA8AFA3A490AF801005FFA8AFA1AF107
:105E5000010292B236494046C0B202F0ADFA02F0F9
:105E6000E4FA8046012002F0F9FA5FFA88F8B8F106
:105E7000000F04D13800471E80B20028EFD15FFA2E
:105E800088F8B8F1000F45D002F0CCFA80465FFAEE
:105E900088F8B8F1250F01DB242100E04146C9B2A2
:105EA000234802F0B2FAB8F10101C9B22048FFF765
:105EB0001FFF07005FFA88F8B8F1250F01DB2422E5
:105EC00002E05FFA88F842461949280000F066FCB3
:105ED0005FFA88F8B8F1250F01DB242001E0B8F162
:105EE00001003070E4B2002C01D000F016F85FFA27
:105EF00088F8B8F1010F09D05FFA88F80C4818EB60
:105F0000000010F8010CFFB2B84201D1002002E0FD
:105F1000012000E00220BDE8F08780B504480021A0
:105F2000017001220249002002F046FA01BD000082
:105F30000875001038B504000D0001F060FC40F653
:105F4000B830FDF778F92100C9B22800C0B202F0DC
:105F500009FB040001F05EFCE4B2002C01D1012039
:105F600000E0002032BD70B586B004000A2501F0C3
:105F700046FC01A900A802F0ACFA0600F6B2002E19
:105F800004D06D1E2800C0B20028F2D101F042FCFE
:105F9000F6B2002E0CD1002005E0C0B2C0B201A9BB
:105FA000415C0155401CC0B21028F6DB012000E026
:105FB000002006B070BD80B500A90420FDF752F89E
:105FC0000DF101010520FDF74DF801F018FC9DF8D9
:105FD0000000002807D001F094FE002803D101F052
:105FE00019FC01200EE09DF80100002807D001F007
:105FF0009BFF002803D101F00DFC022002E001F01C
:1060000009FC002002BD000038B5FCF7FDFB0400D0
:10601000E4B2324810EBC4004268E4B22F4850F8B2
:106020003410002069F0ECFFE4B22C4810EBC400FF
:106030004268E4B2294850F8341000206AF00AF8A7
