:10000000D85D0010A5D700002DD9000031D900001F
:1000100035D9000039D900003DD900007A8CFAEFBB
:100020000000000000000000000000002563000048
:1000300045D9000000000000D3620000E961000023
:1000400051D90000CF680000FB4F00006350000052
:1000500061D900006F5E0000000000003B7B0000E3
:100060000F96000075D9000079D900007DD90000F5
:1000700081D9000085D9000089D900008DD9000000
:1000800091D9000095D9000099D900004D4F00008A
:100090003F3C0000B73C0000A9D90000ADD90000EA
:1000A000B1D90000B5D90000B9D90000BDD9000010
:1000B000BDD90000C5D9000000000000CDD9000066
:0400C000D1D9000092
:100300002DE9F04FA1B0824602AE002017461D46EF
:10031000029170620DF144080AE017F8011B02987F
:10032000D0470290002800F08B82706A401C7062F7
:10033000387808B9706A85E22528EED10020F0608F
:1003400030617061B061F061306201E040F0010045
:1003500017F8011F2029F9D023290DD02B2904D00B
:100360002D2906D030290AD00CE040F0020080B2DE
:10037000EEE740F00400FAE740F00800F7E740F04D
:100380001000F4E72A290DD129680A1D2A6009689E
:10039000F162002904D5494240F00400F16280B2C4
:1003A0007F1C13E00021F1620BE0F16A6FF0004363
:1003B000994205D001EB810302EB43013039F16230
:1003C0007F1C3A78A2F130010A29EED339782E2920
:1003D00003D04FF0FF31B1621EE017F8011F2A2948
:1003E00006D129680A1D2A607F1C0968B16213E0E2
:1003F0000021B1620BE0B16A6FF00043994205D071
:1004000001EB810302EB43013039B1627F1C3A7882
:10041000A2F130010A29EED330860FF6C0303978C8
:1004200000F0FAFD08B117F8010B8DF83A009DF8BD
:100430003A00682802BF39786829622005D06C2804
:1004400004BF38786C2803D171208DF83A007F1CE6
:1004500011A8B0603978B1F1250023D01C3871D0D3
:10046000001F02286ED9133800F09780093869D030
:10047000801E00F02B81401E00F0D480401E022818
:1004800060D9001F00F0CE80401F30D0401E00F029
:100490008480401E20D0C01E09D0801E7DD0C01E8A
:1004A0007BD01BE1F068411CF160252120E1286828
:1004B000011D29600068B26A7060002A02D500F050
:1004C000BBFD07E0002100F0D3FD00281ABF7168D2
:1004D000401AB06A30610DE12868011D29600021D1
:1004E0000068CDE9000111A870607821EAE09DF86C
:1004F0003A00622818D0682806D06A280BD06C28E9
:1005000019D0712807D016E02868011D29600068FD
:10051000716A0180EEE02A68101D28601268706A16
:10052000C117C2E90001E5E02868011D29600068E3
:10053000716A0170DEE02868011D29600068716A37
:100540000160D7E02868C01D20F00700286000F196
:1005500008022A60D0E90023CDE90023002B04D54E
:10056000F068421CF2602D220DE0308E820704D527
:10057000F068421CF2602B2205E0C00705D5F06848
:10058000421CF260202200F80820F06811AA8018AE
:10059000706000A800F0E2F9ACE09DF83A006C2829
:1005A00008BF2A6811D0712808BF2A6802D02A68BB
:1005B0006A280AD1D21D22F007022A60144604F1EB
:1005C00008022A60D4E9002303E0131D2B600023F6
:1005D0001268CDE90023682808BF92B207D06228CC
:1005E00008BFD2B203D0742818BF7A2802D10023E2
:1005F000CDE9002396F8300000075FD5DDE9002340
:10060000002B08BF002A59D041F02000782855D18E
:10061000F068302200F80820401C421CF26000F80C
:1006200008104BE09DF83A0062280CD0682810D0E2
:100630006A281AD06C2823D0712816D074281FD0AD
:100640007A280CD01CE02868021D2A6090F900204E
:100650001AE02868021D2A60B0F9002014E028681A
:10066000021D2A60002302680FE02868C01D20F0E8
:100670000700286000F108022A60D0E9002304E0A6
:100680002868021D2A600268D317CDE90023002BD9
:1006900004DAF068421CF2602D220DE0308E8207F1
:1006A00004D5F068421CF2602B2205E0C00705D596
:1006B000F068421CF260202200F80820F06811AABD
:1006C0008018706000A800F0C0F813E0F068411CCA
:1006D000F16029680A1D2A60096809E0F068421C77
:1006E000F260252200F8082021B1F068421CF26077
:1006F00000F80810F06AF168401AB169401A3169CF
:10070000401AF169401A7169401A316AA0EB010977
:1007100096F830007F1C400710D420208DF8400050
:10072000002409E0012310AA00A9504600F03EFC75
:10073000002840F08580641C4C45F3DBF4680DF123
:10074000440B0AE01BF8011B0298D04702900028D6
:1007500076D0706A401C7062641E002CF2D130208A
:100760008DF840004FF0000BB46909E0012310AA96
:1007700000A9504600F01AFC002861D10BF1010BD2
:10078000A345F3DB3469D6F804B00AE01BF8011B7B
:100790000298D0470290002852D0706A401C7062C4
:1007A000641E002CF2D130208DF840004FF0000B79
:1007B000F46909E0012310AA00A9504600F0F6FBF5
:1007C00000283DD10BF1010BA345F3DB30697168C3
:1007D000746900EB010B09E01BF8011B0298D0477C
:1007E000029068B3706A401C7062641E002CF3D1E2
:1007F00030208DF840004FF0000B346A08E00123F0
:1008000010AA00A9504600F0D1FBC8B90BF1010BAA
:10081000A345F4DB96F8300040077FF589AD202032
:100820008DF84000002400E0641C4C45BFF680AD0C
:10083000012310AA00A9504600F0B8FB0028F3D00D
:100840004FF0FF3021B0BDE8F08F2DE9FA470646A2
:1008500082B035690A466F2A08BF082705D041F0E3
:100860002000782814BF0A271027D6E900013C246D
:1008700080468946642A18BF692A05D1002903DA0F
:10088000D8F1000869EB4909B9F1000F08BFB8F1C8
:10089000000F0CD1306B50B9082F3BD196F83800BF
:1008A000000737D530203B2485F83B0032E0CDE906
:1008B0000089FB17404649463A4600F005FCB84619
:1008C000A8FB0023DDE90089A8EB02023032A4F185
:1008D000010AD2B254463A2A03DB9DF80830513B54
:1008E0009A180AF8052080465FEA010908BFB8F1A6
:1008F000000F03D0F06861198842D8D3082F09D1BE
:1009000096F83800000705D5605D302802D0641ED7
:1009100030206055C4F13C00B0616119F160316B69
:10092000884207DA081A30624FF6EF71308F0840BC
:10093000308710E000290ED596F8381001F0140128
:10094000102908D1716B7269891A326A891A081ADA
:100950000128A8BF306204B0BDE8F0872DE9F24F4E
:1009600004468EB0D4E90001CDE9020104AE9DF841
:10097000380040F02000009061280AD0206B002849
:1009800048BF062004D404BF0098672801D1012085
:1009900020636168C1F30A5040F2FF7290421CD19B
:1009A000080304BF2068002809D10320A0619DF836
:1009B000380061381A2836D30FF2346108E003207A
:1009C000A0619DF8380061381A2829D30FF2186108
:1009D000E068032200F0F0FBB5E1012816DA2046BA
:1009E00000F025FC012811DB002700200099612977
:1009F00020D1E168302201F8012B4A1CE2609DF809
:100A00003820612A0CBF782258220FE0626840F239
:100A1000FE3161F31E52471A62604FF0FF30E5E786
:100A20000FF2C051D4E70FF2C451D1E70A706169E7
:100A3000891C616110B9002500277BE100986128BD
:100A400040F09680206B00284CBF2125451CDDE935
:100A500002012DB26E1CD4E900890022002300F0AF
:100A600007FC3ABF89F00040CDE90280CDE9028958
:100A70003F1F8DF810200DF1110801E000F207086A
:100A8000012E32DBDDE902010022002300F008FC28
:100A90002BD21C2102A800F01BFCDDE9020100F0B2
:100AA0009DFCF61F8146012E09DB00F0C3FC0246C7
:100AB0000B46DDE9020100F0D5FCCDE9020108F2A8
:100AC0000700072105E009F00F0200F8012D4FEAA9
:100AD0002919B9F1010F01DB491EF4D5491E5CBF8C
:100AE000002200F8012DF9D5C8E70DF11100A8EB9F
:100AF00000010DF11106A942B8BF0D462DB2280024
:100B00002FD4884206DA04A9411849780829A8BFD9
:100B10000F2100DA002104AA821800E06D1E12F8ED
:100B20000139401E8B42F9D00F2904D104A9411884
:100B30004A78521C4A70002802D504AE6D1C3F1D35
:100B40002DB2681E0DD481190A783032D2B23A2AF9
:100B500003DB9DF838303A3B9A1801F80129401E12
:100B6000F2D5206B002840F1E580681E2063E1E0AB
:100B7000DDE902010022002300F07AFB3CBF81F096
:100B80000041CDE902013FB247F29750784348490E
:100B9000DFF820B190FBF1F73FB2C7F107069246AC
:100BA000012E19DBDDE90289F00707D552465B46C5
:100BB0004046494600F016FD80468946761050466C
:100BC000594652465B4600F00DFD82468B46002E8C
:100BD000EAD1CDE9028921E076429046DFF8D8904B
:100BE00012E0F00707D552465B464046494600F002
:100BF000F9FC8046894676105046594652465B4677
:100C000000F0F0FC82468B46002EEAD1DDE90201BD
:100C100042464B4600F0B8FDCDE902010098662837
:100C20000CBF07F10A000620216B4518142DA8BF40
:100C3000132530208DF810000DF11106DFF87C909F
:100C4000012D3DDBDDE9020100F0DEFB06F10801CC
:100C500004220A23B0FBF3F303EB8306A0EB460068
:100C6000303001F8010D0A20B3FBF0F000EB8006F4
:100C7000A3EB4603303301F8013D521EE9D1083D94
:100C800001F10806012DDBDBDDE9020100F0BCFB10
:100C900000F0DAFB02460B46DDE9020100F0E2FB60
:100CA00000224B4600F09EFCCDE90201CAE700BFDE
:100CB000A0860100000024400000F03F84D7974147
:100CC0000DF11100301A0DF1110602E0401E7F1ED9
:100CD000761C31783029F9D00099662902D13FB2CB
:100CE000791C03E065290CBF01210021226B8D18BE
:100CF0002DB2A842B8BF05462DB229001AD48142B0
:100D000004DA885D3528A8BF392000DA30208A1936
:100D1000521E00E06D1E12F80139491E8342F9D0BF
:100D2000392802D1885D401C8855002902D5761EDD
:100D30006D1C7F1C3FB29DF8381000972BB23246D5
:100D4000204600F003F80FB0BDE8F08F2DE9F04326
:100D5000054685B01E46D5F8308089461746012ED7
:100D600002DA01260FF28C2749F02000BDF930404D
:100D7000662808BF641C17D0672840F0818014F1F2
:100D8000040FC0F28380444580F2808095F83800DB
:100D9000641C000702D44645B8BFB04624B2B8EB85
:100DA000040848BF4FF00008E868A96924B2012C84
:100DB00025DA30234A1C0B54B8F1010F03DA95F8F9
:100DC0003810090702D52E211154521CAA6118EBC4
:100DD000040FB8BFC8F1000424B26142A0446962A4
:100DE000B045B8BF464636B2EE613246AB693946C9
:100DF000181800F0E1F9A8EB0600A862BFE0081897
:100E0000A64218DA3246394600F0D6F9A9697118B7
:100E1000A961A01B6862B8F1010F03DA95F83800E8
:100E2000000705D5E8682E220A54E869401CE861ED
:100E3000C5F82880A3E02246394600F0BDF9A8692C
:100E40002018361BB8F1010F03DA95F8381009079E
:100E500003D5E9682E224254401C36B2A861B04541
:100E6000B8BF4646EB6836B23246E119C01800F00A
:100E7000A3F9A8693018A861A8EB060068627EE0B3
:100E80004846612816D14FF0700917E0464504DA4C
:100E900095F83810090758BFB046B8F1010848BFA7
:100EA0004FF00008B9F1670F14BF4FF045094FF03C
:100EB000650903E0412808BF4FF05009A969E868B7
:100EC00017F8013B0B544A1CB8F1010F05DA95F8ED
:100ED0003810090758BFAA6117D52E211154531C89
:100EE000AB61B8F1010F10DB761E36B2B045B8BF6A
:100EF000464636B232463946181800F05DF9A86900
:100F00003018A861A8EB06006862A869E96847186C
:100F1000200007F8019B03D42B2007F8010B03E006
:100F20002D2107F8011B444200260DF1080808E0B6
:100F30000A2200A800F04BFD019808F8010B761C6E
:100F4000009C21B20129F3DA022E06DA49F02000D2
:100F5000652804BF302007F8010B4EB9302007F890
:100F6000010B07E0761E02A8305C303007F8010B59
:100F7000012EF7DAA869E9684018381AE86195F88F
:100F8000380000F0140010280DD16869A96908180C
:100F9000696A0818E9690818A96A0818696B88421B
:100FA000BCBF081A286205B0BDE8F083F8B5044656
:100FB0000D4616461F46002004E0E86A401CE86221
:100FC0007F1E002047B116F8011BA868A047A86043
:100FD0000028F2D14FF0FF30F2BD0000686A6C7457
:100FE0007A4C00006E616E004E414E00696E6600E4
:100FF000494E4600300050F8041B61B150F8042BF4
:10100000D30744BFA9F101039A18002342F8043B17
:10101000091FFAD1EFE770470278C9B28A421AB1C4
:101020001CBF10F8012FF9E718BF002070470268B5
:10103000531C03601170704700F10103810704D055
:1010400010F8011B89B18107FAD10268B2F10131B0
:10105000914311F0803F04BF50F8042FF6E710F8D9
:10106000011B11B110F8011BFBE7C01A704700000B
:10107000C9B2830706D0521E22D310F8013B994211
:10108000F7D11FE0083A13D302F1040241EA01212B
:1010900041EA014150F8043B121F21BF4B40A3F12C
:1010A000013C2CEA030C1CF0803FF3D0C9B2001FB6
:1010B000083210F8013B521E28BF91EA030FF8D8FE
:1010C00018BF0120401E70471B4213D1094236D180
:1010D0002AB18446B0FBF2F002FB10C2704700F068
:1010E0007DBCFCD30022002370470B0002000021CE
:1010F00000207047904271EB030CF6D370B5B1FA43
:1011000081F4B3FA83F52C1BA340C4F1200532FA15
:1011100005F63343A2405FF00046E64002E05B087C
:101120005FEA3202841A71EB030524BF2046294688
:101130007641F4D302000B003000002170BD012A7B
:10114000CFD970B5140C20D0B1FA81F4B2FA82F57F
:10115000C4F120046419B4F12006D6D3B2405FF084
:101160000044F440002502E052085FEA3303C61A47
:1011700071EB020E24BF3046714664416D41F3D3DA
:1011800002000B002000290070BD0C46B1FBF2F1FB
:1011900002FB11452D0445EA1045B5FBF2F402FBB4
:1011A000145580B240EA0545B5FBF2F002FB10523F
:1011B00040EA044070BD000062B38B0708D0521EA5
:1011C00011F8013B00F8013B00F024808B07F6D1B9
:1011D000830740F0208000BF103A07D330B4B1E855
:1011E0003810103AA0E83810F9D230BC530724BFA9
:1011F000B1E80810A0E8081044BF51F8043B40F8DB
:10120000043BD20724BF31F8022B20F8022B44BF45
:101210000B7803707047083A07D3B1E80810083A12
:1012200040F8043B40F804CBF7D25307E4E730B46E
:10123000436803F0004201211B031B0B436004BF02
:101240000368002B08D10DE00368DD0F45EA440474
:1012500044605B000360491E4468E302F4D5230345
:101260001B0B436043681A434260084630BC70471A
:101270004FF4001C1CEB410F94BF1CEB430F09E023
:1012800041EA030C50EA4C0C52EA0C0C03D299428E
:1012900008BF9042704714BF8B42824270470000E3
:1012A0004FF4001C1CEB410F94BF1CEB430F09E0F3
:1012B00041EA030C50EA4C0C52EA0C0C03D28B426C
:1012C00008BF8242704714BF9942904270470000A5
:1012D00070B504460D466068C0F30A5040F2FF71D5
:1012E000884207D16068000304BF2068002817D037
:1012F000022070BD20B92046FFF799FF012867DA68
:10130000012D0FDB40F2FF71091A8D420AD360688C
:10131000002847BF00202F4900202F49C4E90001C1
:10132000012070BD4142A942616806DA6FF31E5187
:10133000401941EA0050606041E0401E63680122AC
:10134000451962F31F5305F1350001F00041636058
:10135000352803D361600020206070BD002215F1A4
:101360001F0F04DA22682360002020356060684285
:1013700013D0521E25689241C0F12003D2439D40F4
:1013800045EAD27225686668C54006FA03F32B4326
:101390002360636823FA00F060606068084360605F
:1013A000B2F1004F03D80DD12078C0070AD52068CC
:1013B000401C2060206828B96068401C60604FF0C5
:1013C000FF3070BD6068884204BF20680028F6D1F5
:1013D000002070BD0000F0FF0000F07FF446400DDB
:1013E00040EAC120490006D200F014F8004248BF8C
:1013F0006FF00040604700F00DF84FF00041884268
:101400008CBF084640426047400D40EAC120490079
:1014100080F00D8040F00040490DA1F58061491C2D
:1014200005D4D1F11F0154BFC840C01770474FF019
:1014300000007047010040F10980F446404200F08E
:1014400005F851F000416047010000BF09D0B0FA33
:1014500080F18840C91CC1F58461090501EBD021E8
:101460004005704770B44FF0004591EA030F44BF48
:101470006B4000F0B5BA00BF841A71EB030604D2CA
:101480006E40001BB141121973414FF4001C1CEB5C
:10149000410F34BF7CEB430684E00C0DA4EB1356E4
:1014A000362E7DDC012E43DC45EAC32343EA52534A
:1014B00012BFD20292025B08240545EAC12141EA2B
:1014C0005051D2EBC020994125D407D1B0FA80F613
:1014D00010FA06F164D00020203608E0B1FA81F657
:1014E000B140C6F1200220FA02F21143B0404FEAA7
:1014F000F474B4EB465434F001064FEA74040AD88D
:10150000D6F50016760D04F00044F04061FA06F2BC
:101510005040F1404840C00A40EA415021F00041AB
:1015200028BF5FEA500550F1000044EBD12137E0BD
:1015300045EAC323DB0A45EAC121C90AB6F1200501
:101540000EDD42EA0242120CC5F1200603FA06F64D
:10155000EB4042EA06056D42984161F100010DE061
:1015600062FA06F5F240554063FA06FC82EA0C0284
:10157000F3405A406D42904161EB030111F4801F2A
:1015800005D1641E620502D06D004041494121F43D
:101590008011430875F1004350F1000041EB045104
:1015A00070BC70471CEB410F15D223F0004352EA88
:1015B00043060BD04FEA4C0CBCEB410F04D80C0D8A
:1015C000661E342EB7DDEBE7801A994150EA4106DA
:1015D00008BF0021E4E708BF1CEB430F28BF6FF0F2
:1015E0000001DDE7B0B581EA030C0CF0004C40F2DD
:1015F000FF7515EA11541DBF15EA1357AC42AF42EF
:1016000039E0E41923EA455343F48013C90241F059
:10161000004141EA505EC7021100A7FB0202002808
:101620004FF00000EEFB01204FF00001E3FB07212B
:1016300018BF42F00102401800214941E3FB0E01AE
:10164000A4F580640F0302D252004041494154F195
:1016500001046CDD470872F1004250F1000051EBCB
:101660000451A1F580115CBF41EA0C01B0BD4CEA08
:1016700005510020B0BD05EA1357AC4214BFAF427C
:1016800041E050EA410E1CBF52EA430E02E06146BF
:101690000020B0BD24423C441BD15FEA070EF6D0C7
:1016A000090302BF01460020AEF1140EB1FA81F722
:1016B000AEEB070401FA07FE0C37C7F1200100FA70
:1016C00007F7C8404EEA000E23EA455343F480135F
:1016D000A2E733F00043B3FA83F704BFB2FA82FE05
:1016E00077440B3FE41BB7F1200E2FBF02FA0EF335
:1016F000BB40C7F1200E22FA0EFE38BF43EA0E03AC
:10170000BA40641C82E750EA410E14BF52EA430E0D
:101710006FF000014FF4001717EB430F8ABF194613
:1017200017EB410FB5E74CEA05510020B0BDD4F1ED
:101730000104B4F120070FDAC4F12007520828BFD2
:1017400042F0010210FA07F501FA07F7E1BF2A4358
:10175000E0403843E1400FE0352C98DCC7F120042D
:1017600052EA400220FA07F218BF42F0010231FAB1
:1017700007F0A1400A43002172F1004250F100003D
:1017800051EB0C01B0BD0000F0B540F2FF7581EAED
:10179000030C0CF0004C15EA11541DBF15EA135749
:1017A000AC42AF42E5E0BC41C1F31301C3F3130304
:1017B000801A994143F4801304D2641E40004941C9
:1017C00080185941C90241EA5051B1FBF3F603FBBD
:1017D0001611A2FB0675D7EBC020A94102D2761ED6
:1017E00080185941C90241EA5051B1FBF3FE03FB95
:1017F0001E11A2FB0E75D7EBC020A94103D2AEF19A
:10180000010E80185941890241EA9051760546EA55
:101810008E2EB1FBF3F603FB1611A2FB0675D7EB78
:101820008020A94102D2761E80185941C90241EA9E
:1018300050514EEA060EB1FBF3F603FB1611A2FB64
:101840000675D7EBC020A94102D2761E80185941F7
:10185000C90241EA5051B1FBF3F703FB1711A2FB98
:101860000735D3EBC020A94167F100070CBF004248
:1018700047F0010766F3D5274FEA1E31B80814F583
:10188000806412DDBD0775F1004250EB0E5051EB44
:10189000045111F5801F5CBF41EA0C01F0BD4CF012
:1018A0007F6141F0E0410020F0BDBD076D0840EAD6
:1018B0000E5041F48011D4F10104B4F120060ADA8B
:1018C000C4F120060200E04001FA06F3E1401843AB
:1018D000B24015430EE0342C13DCC6F1200445EA77
:1018E00040056D0820FA06F2154321FA06F0A140E2
:1018F0000D43002175F1004250F1000051EB0C0145
:10190000F0BD00205FEA0C01F0BDCFB992185B4139
:10191000B3FA83F704BFB2FA82F6BF190B3FB7F1EF
:1019200020062FBF02FA06F3BB40C7F1200622FAB9
:1019300006F638BF3343BA401CB1E419641E33E7DE
:101940007F4231F00041B1FA81F404BFB0FA80F671
:10195000A4190B3CB4F120062FBF00FA06F1A140F8
:10196000C4F1200620FA06F638BF3143A0403C1BE4
:101970001AE7AC421ABF05EA1357AF4212E050EA29
:1019800041061CBF52EA4306BFE750EA4107304612
:1019900061461CBF41EA0551F0BD52EA430C08BF45
:1019A000C143F0BD00204FF4001616EB410F98BF65
:1019B00016EB430F08BF16EB410F24BFC14305E0F0
:1019C00016EB430F0CBF61464CEA0551F0BD91FB8D
:1019D000F2F303FB1211C0E90031704770470000B9
:1019E000841A71EB030603D2001BB1411219734133
:1019F0004FF4001C1CEB410F34BF7CEB430443E06D
:101A00000C0DA4EB1356352E50DC45EAC323DB0A3C
:101A100045EAC121C912B6F120050DDD63FA05F6CC
:101A2000EB4086EA0305124218BF45F00105C018D5
:101A300051F100010CD213E062FA06F5F240554074
:101A4000F3415A40B340F3405A408018594107D3FC
:101A500049085FEA30005FEA350528BF45F0010517
:101A600001F58011420875F1004250F1000041EB90
:101A7000045170BC4FF4001C1CEB410F38BF704781
:101A80000020090D090570471CEB410F10D252EAE6
:101A900043060BD0BCEB410F05D80C0DAB43661EC3
:101AA000342EB5DD02E0AB438018594170BC70475D
:101AB00070BC70471CB500F013F9040000F0BFF8CB
:101AC00001A9032000F076FD0DF10101202000F0B6
:101AD00071FD00A9222000F06DFD0DF1020126200C
:101AE00000F068FD40F6B83000F093FE2000C0B270
:101AF00001F034FC0022002100206EF0ABFA01203E
:101B000001F08DFF002001F0A7FF00F0A8FA02F01D
:101B10002FF902F072F9002002F0ABF925E0200065
:101B2000C0B200F022F99DF80000002803D0200088
:101B3000C0B200F0FDFA00F069FB00F0C5FB9DF8B3
:101B400000202100C9B2019800F07AF90221022098
:101B500001F061FF00F0D6F800F003FC322000F045
:101B600058FE9DF8020000F033FC01A9032000F0AC
:101B700021FD0DF10101202000F01CFD00A9222013
:101B800000F018FD02F039FAC0B201283AD042D371
:101B9000032805D003D3052835D002D33BE03AE033
:101BA00039E000F087F8002001F039FF02F0A0FAD8
:101BB000012001F034FF00F093F8040001A9032094
:101BC00000F0F8FC0DF10101202000F0F3FC00A969
:101BD000222000F0EFFCDFF8C808DFF8C818016029
:101BE00000F074F80022002100206EF009FA0421B0
:101BF000082002F0C9FA0421082002F0F1FB00F0ED
:101C00002FFC08E007E09DF80100002803D00198B0
:101C100080B202F090F89DF8010000283FF47FAFF9
:101C2000E4B2DFF8840810EBC4004268E4B2DFF8E5
:101C3000780850F8341001206EF00CFA7FE710B5E8
:101C400000240421082002F09FFA0421082002F059
:101C5000C7FBE4B2DFF8540810EBC4004268E4B2FA
:101C6000DFF8480850F8341000206EF0C9F9E4B2EB
:101C7000DFF83C0810EBC4004268E4B2DFF830083B
:101C800050F8341000206EF0E5F90021012002F038
:101C9000C1FDDFF820180860DFF818080068002888
:101CA00007D0002300220021DFF80808006802F0B6
:101CB000E9FD10BD80B5002301220021DFF8F40703
:101CC000006802F047FE0028F5D001BD80B5002372
:101CD00000220021DFF8DC07006802F0D3FD01BD1F
:101CE00080B500208DF8000000A9002000F062FC03
:101CF0009DF80000082802DB00208DF800009DF808
:101D0000000002BD70B586B002F0ACFF040003F025
:101D100059FAA4B223000200DFF89C1701A803F0CF
:101D2000C7FA002201A901206EF06AF902F020F83A
:101D30000400642502F01CF8060002F0C8FF94FBC2
:101D4000F5F105FB11410091642196FBF1F380B29E
:101D50000200DFF8681701A803F0AAFA01AA00211F
:101D600001206EF04DF906B070BD10B586B00400CC
:101D700000A9032000F01EFC00986421B0FBF1F2E2
:101D800001FB120300986421B0FBF1F2E4B2DFF82A
:101D9000300750F8241001A803F08AFA002201A9A4
:101DA00001206EF057F901F0E3FF002815D06421FF
:101DB000B0FBF1F201FB12036421B0FBF1F2E4B2DB
:101DC000DFF8000750F8241001A803F071FA01AA07
:101DD000002101206EF03EF921E0DFF8EC060068FA
:101DE000002810D1DFF8E4060078401C042190FBA5
:101DF000F1F202FB1102DFF8D4060270DFF8C80628
:101E000042F21071016001A9DFF8C00600782830A5
:101E100000F0D0FB01AA002101206EF01BF906B0F2
:101E200010BD80B5DFF8A80603F09BFB002805D0A5
:101E3000DFF89C0680781921484300E0002002BDAD
:101E400070B582B005000C00160001F091FFA842A9
:101E5000C0F08B80F6B2002E03D0FFF7E2FFA8425D
:101E60007AD3012100A801F02BF8002806D002281F
:101E700043D032D3042860D04FD36DE0280001F066
:101E8000BCFFF6B2FF2E13D101F072FF00280FD075
:101E9000E4B2DFF8400610EBC4004268E4B2DFF8B9
:101EA000340650F8341000206EF0D4F800F09AF8A0
:101EB0002000C0B201F02EFA0022002100206EF0B6
:101EC000C9F8002001F0D5FF0421082002F05CF9D8
:101ED0000421082002F084FA3EE0DFF8FC25E4B299
:101EE000DFF8F80550F8241000206EF0B3F800F089
:101EF0004AF8002001F0BDFF2EE0DFF8E425E4B24F
:101F0000DFF8D80550F8241000206EF0A3F800F098
:101F10003AF8002001F0ADFF1EE0DFF8C825E4B27A
:101F2000DFF8B80550F8241000206EF093F800F0A8
:101F30002AF8002001F09DFF0EE0DFF8AC25E4B2A6
:101F4000DFF8980550F8241000206EF083F800F0B8
:101F50001AF8002001F08DFF0022002100206EF011
:101F60004FF8002001F078FD0CE0F6B2FF2E09D109
:101F700001F09DFF002805D101F0FAFE002801D0F4
:101F800000F030F873BD80B50221062001F043FD5A
:101F900000F028F8012001F06CFF12E0FFF78AFE44
:101FA000002001F03CFD02F0A3F8012001F037FD14
:101FB000FFF78CFE0022002100206EF021F800F0D7
:101FC0004FFAFFF79FFE02F018F8C0B2012806D0C2
:101FD000F7D3032805D003D30428DFD0F1E7F0E7D7
:101FE000EFE7EEE77FB501F0C3FE04002500002017
:101FF00001F03FFF4FF4FA7000F00BFC00A803F073
:10200000B0FA002828D01920B4FBF0F4280001F021
:10201000F4FE0F20B4FBF0F50F20B4FBF0F100FB51
:102020001144002608E00F21022003F081FA41F25A
:10203000883000F0EEFB761CF6B2EDB2AE42F2D381
:10204000E4B2002C08D02100C9B2022003F070FADB
:1020500041F2883000F0DDFB012004B070BD38B5DE
:1020600003F0E0FA0400FFF73BFE0500E4B2002CA9
:1020700001D1012032BDE4B2012C0AD02DD3032CB2
:102080001DD011D3052C1CD01AD3072C1BD019D36B
:1020900023E0DFF85824EDB2DFF8400450F82510B3
:1020A00000206DF0D7FF18E0DFF83424EDB2DFF840
:1020B0002C0450F8251000206DF0CCFF0DE00CE052
:1020C0000BE00AE009E0DFF82024EDB2DFF80C04B1
:1020D00050F8251000206DF0BDFF012001F0C9FE71
:1020E000062001F09CFC01E0FFF70CFE01F085FFEB
:1020F000C0B201281AD0F7D30328F5D017D304288B
:10210000F2D1FFF7D7FD002001F089FC01F0F0FFCC
:10211000012001F084FCFFF7E3FD0500FFF7D6FD89
:102120000022002100206DF06BFFDDE7DCE7DBE73C
:1021300038B50400002500A9022000F03BFA9DF804
:102140000000C00700D564259DF80000800700D579
:10215000C8259DF80000400701D54FF4FA759DF899
:102160000000000701D54FF47A759DF80000C00605
:1021700001D54FF4FA65FFF754FEA84245D202217B
:10218000062001F048FC012001F073FEE4B2DFF804
:10219000600310EBC4004268E4B2D54850F8341034
:1021A00000206DF057FF01E0FFF7ACFDFFF739FEAF
:1021B000A8421DD201F021FFC0B20128F4D00428AA
:1021C000F2D1FFF777FD002001F029FC01F090FF2C
:1021D000012001F024FCFFF783FD0400FFF776FDEA
:1021E0000022002100206DF00BFF00F039F9DBE741
:1021F000002001F03EFE002001F011FC012001F062
:102200000EFC0221022001F006FC31BD10B5FFF7E3
:1022100067FD040003F0CDF9002805D0022811D095
:1022200003D303281BD026E010BDE4B2B14810EB65
:10223000C4004268E4B2AF4850F8341000206DF09A
:1022400009FF18E0E4B2AC4810EBC4004268E4B205
:10225000A94850F8341000206DF0FCFE0BE0E4B209
:10226000A64810EBC4004268E4B2A44850F8341009
:1022700000206DF0EFFE05E0FFF744FD4FF4FA702B
:1022800000F0C7FA03F095F90028CDD001F0B5FEB3
:10229000C0B20128F0D00428EED1FFF70BFD0020DA
:1022A00001F0BDFB01F024FF012001F0B8FBFFF7B6
:1022B00017FD0400FFF70AFD0022002100206DF049
:1022C0009FFE00F0CDF8D7E710B582B000A901203D
:1022D00000F070F99DF80000002800D113BDFFF751
:1022E000FFFC040003F020FCC0B20328F6D1E4B2E6
:1022F000834810EBC4004268E4B2814850F83410BF
:1023000000206DF0A7FE05E0FFF7FCFC4FF4FA702B
:1023100000F07FFA03F008FCC0B20328DED101F020
:102320006CFEC0B20128EFD00428EDD101F0A1FB72
:10233000FFF7C0FC002001F072FB01F0D9FE012084
:1023400001F06DFBFFF7CCFC0400FFF7BFFC00229F
:10235000002100206DF054FE01F08BFB00F080F8AE
:10236000D2E780B503F0CAF9002803D002280AD0CA
:1023700001D30FE00EE0634A634900206DF06AFE6E
:1023800000F009F806E0614A614900206DF062FE44
:1023900000F001F801BD10B5012402E00024FFF7B0
:1023A000B1FCE4B2002C09D001F027FEC0B2012834
:1023B000F4D00428F3D101F09BFEF0E7554A5649CA
:1023C00000206DF01DFE40F6B83000F022FA10BD7E
:1023D00010B5C0B2002842D03148006800283ED174
:1023E00047F230544D4A4E4900206DF009FE4B4AE9
:1023F0004B4900206DF02EFE012002F094FD41F2C9
:10240000707002F0AAFE3C2003F0F1FB40F6B830F9
:1024100000F0FFF902E0012000F0FBF92000441E6B
:1024200000280ED002F0CEFEB0F57A7FF3D2002065
:1024300003F0DDFB002002F090FE002002F073FDAF
:102440000DE0002003F0D3FB002002F086FE002008
:1024500002F069FDFFF703FE11481249016010BD4B
:1024600010B5FFF73DFC0400E4B22E4810EBC400A9
:102470004268E4B22B4850F8341000206DF0C0FDE3
:10248000E4B2284810EBC4004268E4B2254850F892
:10249000341000206DF0DEFD03F0B4FB72B6FEE7F1
:1024A0003003001040771B00C4100010240E0010F1
:1024B0005C0E0010405A0010B0D30000C4D30000DE
:1024C000001700101C170010445A0010CD5A0010BD
:1024D000A859001054100010D4D40000E0170010C8
:1024E000E4D4000018D60000F4D4000024D6000084
:1024F0008C100010FC100010341100106C11001032
:10250000A41100103CD6000030D6000054D60000C4
:1025100048D600006CD6000060D6000004D500004C
:1025200078D60000F412001080B503F099FB01BDCD
:1025300010B40021002207E02C23694C03FB024366
:102540009B889B1C5918521C8242F5D3080010BC72
:10255000704710B504002C20614A00FB04208288DB
:10256000604803F057FC2C205D4900FB0410828872
:1025700000215C4803F061FC2C21594A01FB042135
:102580008988584A80B2030A8B542C21544A01FB93
:1025900004218988534A891848702000FFF7C8FF32
:1025A0002C214F4A01FB042189888A1C4D4903F0E4
:1025B000D6FB10BD70B504000D002000FFF7B8FF7A
:1025C0002C21474A01FB042189888A1C464903F0D3
:1025D000E2FB2C20424900FB041082880021424883
:1025E00003F02BFC80B22C213D4A01FB0421898899
:1025F0003C4A891891F840102C22394B02FB0432D6
:102600009288384BD21892F8412052EA0121884230
:1026100009D12C20324900FB04108288324928005D
:1026200003F0F8FB14E02C202D4900FB04100021DE
:1026300004E0C9B2C9B20A5C4A55491C0A00D2B2C8
:102640002C23274E03FB04639B8892B29A42F0D35B
:1026500070BD2E20704770B5040010001D00049E50
:10266000A4B22C221E4B02FB043292880A80102254
:10267000A4B22C211A4B01FB0431891D03F0CAFBC3
:102680000322A4B22C20164900FB041010F12601ED
:10269000280003F0BFFB3100A4B22000FFF78AFF3F
:1026A00070BD38B580B22C230D4C03FB00439B88D2
:1026B000052B10DB491E03E0C9B220238B54491CB3
:1026C0000B00DBB280B22C24054D04FB0054A4881F
:1026D0009BB2A342F0D3110080B2FFF73AFF31BDA5
:1026E000009B0000F8560010385700102DE9F84FF5
:1026F00006000F00904699460C99DDF834A040463C
:1027000080B200F02DFB05000A9C002D6DD01FFA51
:1027100088F8286B10EB8800B0F1040B5FEADB0B44
:102720005FEACB0B1FFA88F8CDF8008053462200F1
:102730003900280000F0A4FA4A463100584603F058
:1027400015FD28600B98002800D0056003F036FDC9
:10275000DFF814070068401CDFF80C170860DFF88A
:102760000C07006800280AD1DFF800070560DFF8D1
:10277000F8060068012810D100F09FFA0DE0DFF89C
:10278000F0060068002808D1DFF8E0060068C06A9B
:10279000844202D3DFF8D4060560DFF8D80600686B
:1027A000E96A884203D2E86ADFF8C8160860DFF8F1
:1027B000C8060068401CDFF8C0160860DFF8BC06D9
:1027C0000068E96A884203D2E86ADFF8B016086058
:1027D000291DE86A1422DFF8A83602FB003003F056
:1027E00039FD012503F0F3FC01E05FF0FF35012D19
:1027F0000CD1DFF87C060068002807D0DFF86C06F3
:102800000068C06AA04201D203F0D3FC2800BDE8F2
:10281000F28F10B504000020002C29D000F04FF8F2
:10282000DFF8680600682418DFF840060068001D1D
:1028300003F039FDDFF8340600684460DFF84C0629
:102840000068844209D2DFF824060068011DDFF821
:102850004006006803F00CFD08E0DFF81006006891
:10286000011DDFF83006006803F002FD00F02FF8CC
:10287000002801D103F09DFC10BD00B585B00020FB
:10288000039000200290002001900020009000237F
:102890005022DFF810160FF2E130FFF727FF012872
:1028A0000BD103F031FDDFF8C80501210160DFF82D
:1028B000DC050021016003F066FC05B000BDDFF817
:1028C000E0050068401CDFF8D8150860704770B557
:1028D000002403F073FCDFF8C8050068401EDFF831
:1028E000C0150860DFF8B8050068002858D1DFF887
:1028F00078050068002853D0002521E016F1180063
:1029000003F0D1FC301D03F0CEFCDFF87005006849
:10291000F16A884203D2F06ADFF860150860311D61
:10292000F06A1422DFF8583502FB003003F092FC05
:10293000F06ADFF838150968C96A884200D30125B2
:10294000DFF858050068002804D0DFF85005C0689B
:10295000C66800E00026002ED0D1DFF84C050068E4
:10296000002809D10EE000F01FF8DFF83C050068F0
:10297000401EDFF834150860DFF82C0500680028D9
:10298000F1D10125012D04D0DFF8200500680128D0
:1029900006D10124DFF814050021016003F009FCD1
:1029A00003F015FC200070BD10B5DFF8F4040068DA
:1029B000002852D1DFF8D4040068401CDFF8CC14A2
:1029C0000860DFF8C8040068002812D1DFF8C404EA
:1029D0000068DFF8C014DFF8B82412680A60DFF876
:1029E000B0140860DFF8C8040068401CDFF8C014A9
:1029F00008601CE0201D03F056FCA06A002803D0EC
:102A000014F1180003F04FFCDFF870040068E16A6D
:102A1000884203D2E06ADFF864140860211DE06A8E
:102A20001422DFF85C3402FB003003F013FCDFF803
:102A3000640400680068002805D0DFF858040068C6
:102A4000C068C46800E00024002C0DD0DFF83C040E
:102A5000006861688842CDD206E0DFF84C04006867
:102A6000401CDFF84414086010BD80B5DFF8300466
:102A70000068002804D0DFF834040121016053E02D
:102A8000DFF8E8030068006BDFF8E0130968096805
:102A9000884209D3DFF8D403006810F13401DFF86D
:102AA000CC03006803F084FD1422DFF80814DFF87B
:102AB000BC030068006B03F07DFD002811D0DFF837
:102AC000AC03006810F13401DFF8A003006803F0E4
:102AD0006FFD06E0DFF8A4030068401EDFF89C13DA
:102AE0000860DFF8980300681421DFF8942301FBE5
:102AF000002000680028EDD0DFF880030068142172
:102B0000DFF87C2301FB002041684968416041688F
:102B100010F10802914202D1416849684160406861
:102B2000C068DFF84813086001BD10B50C00DFF87D
:102B30003C130968183103F09BFBDFF83003006891
:102B4000001D03F0B0FB14F1010F08D1DFF81C03E6
:102B50000068011DDFF8400303F07CFB1CE0DFF898
:102B60002C0300682018DFF8041309684860DFF8B8
:102B70001C130968884208D2BC480068011DDFF8B0
:102B80001003006803F074FB06E0B8480068011DFC
:102B9000C048006803F06CFB10BD10B50168002947
:102BA00002D0C068C46800E0002414F1180003F0EB
:102BB0007AFBBB480068002813D1201D03F073FB8B
:102BC000AE480068E16A884202D2E06AAB49086018
:102BD000211DE06A1422AA4B02FB003003F03AFBED
:102BE00004E014F11801AD4803F034FBE06A9F499A
:102BF0000968C96A884201D3012000E0002010BDA5
:102C0000AB4909680160A14909684160704738B55E
:102C100004000D0003F0D2FA286810F1010F01D171
:102C200000241FE0A24800682168884206D0974827
:102C300000686168884201D3012413E0934800686A
:102C40006168401A296888420BD228688F49096850
:102C5000401A6168081828602000FFF7D1FF00249F
:102C600000E0012403F0B3FA200032BD8F480121B7
:102C7000016070470000000080B500F040F8FCE7FC
:102C800038B5040015000C2214F1340003F0C4FC24
:102C9000002084F83F00052D00D30425E562A564DB
:102CA000201D03F0D4FA14F1180003F0D0FA2461C7
:102CB000D5F10500A061646231BD10B5002406E0C5
:102CC00014206F4900FB041003F0B2FA641C052CB9
:102CD000F6D3794803F0ACFA784803F0A9FA6F48C4
:102CE00003F0A6FA674803F0A3FA6B4803F0A0FAD2
:102CF00068487149016066487049016010BD10B5AF
:102D00006148006800282AD0FFF7D9FD5D480068B7
:102D1000002801D1012400E00024E4B2FFF7D7FD30
:102D2000002C1CD103F04AFA56480068002803D052
:102D30005448C068C46800E00024201D03F0B3FAC2
:102D400049480068401E484908604F480068401ED6
:102D50004D49086003F03BFA200000F023F810BD55
:102D600070B504000D004C2003F08CFC0600002E12
:102D700016D0002D05D1A4B2A00003F083FC0500FD
:102D8000FFE73563306B002804D1300003F0A1FC6D
:102D9000002605E0A4B2A200A521306B03F09EFC42
:102DA000300070BD10B50400206B03F092FC2000D1
:102DB00003F08FFC10BD2D480068704710B504006B
:102DC000E06A2A490968C96A884229D22748006806
:102DD000C06AD0F10500A0616069E16A1422284B45
:102DE00002FB0131884217D1201D03F05CFA1F4815
:102DF0000068C06AE06221480068E16A884202D245
:102E0000E06A1E490860211DE06A14221C4B02FB87
:102E1000003003F01FFA03E014480068C06AE06263
:102E200010BD10B50400002C1CD0E06AA16C8842D3
:102E300018D0201D03F037FAA06CE062E06AD0F1F0
:102E40000500A0610D480068E16A884202D2E06A8C
:102E50000A490860211DE06A1422094B02FB003078
:102E600003F0F8F910BD0000685A0010585A00101D
:102E7000785A0010705A00108C5A0010745A0010C2
:102E80007857001070590010645A00106C5A0010E6
:102E9000605A00105C5A0010845900105C590010F0
:102EA0007C5A0010E8D80000805A0010845A0010A4
:102EB000885A00108CD40000345900104859001072
:102EC00070B586B00C000025012000F0D2FF00A9EB
:102ED0000020FFF76FFB01A91A20FFF76BFB03A986
:102EE0001B20FFF767FB04A91C20FFF763FB05A964
:102EF0000320FFF75FFB0DF101012C20FFF75AFBC8
:102F000002A92D20FFF756FB0198AB2801D35520CD
:102F10000190039842F23511884202D341F2446095
:102F20000390049842F21171884202D2049800285A
:102F300002D141F2680004900121022000F06BFDF3
:102F40000298002801D1012002900298042801D3A0
:102F5000032002900198DFF85014096808180190C6
:102F60009DF80000DFF8441411EBC00042689DF8A2
:102F70000000DFF8381451F8301000206DF06AF8C6
:102F80009DF80000DFF8241411EBC00042689DF8A2
:102F90000000DFF8181451F8301000206DF030F800
:102FA000012001F0C0FF4FF4FA70FFF732FC9DF8EA
:102FB0000100002804D040F6C41002F0CEF803E06F
:102FC0004FF47A6002F0C9F8DFF8E403DFF8E413A5
:102FD000016000F02AF9002807D1002002F0BDF8B6
:102FE000002001F0A0FF0120FEE0019880B202F075
:102FF000FEFD4EF6602604E00120FFF70AFCFEF716
:1030000081FE01F02FFE80B20199884202D2761E25
:10301000002EF1D1002E0AD1002002F09EF80020EF
:1030200001F081FF002002F0E2FD0220DCE000F070
:1030300025F900280AD1002002F08FF8002001F0C5
:1030400072FF002002F0D3FD0320CDE0039802F0D0
:1030500084F89DF80100002805D002F0B3F8039928
:10306000884207D2F9E702F0ADF80399B1F57A7119
:103070008842F8D30221032000F0CDFC049803F02D
:1030800037FB0021002003F0DBFB03F072FC00287B
:10309000FBD10022002100206CF0DCFF0022002187
:1030A00000206CF0ADFFC44840F6B8310160C04864
:1030B000C04901600021012003F0C2FB07E00121AB
:1030C000032000F0A8FC0221042000F0A4FCB84872
:1030D0000068002838D0B64801689DF8000000F06C
:1030E00085F800F0B6F802F06DF8B0F57A7F0AD2F4
:1030F000002002F032F8002001F015FF002002F05D
:1031000076FD012070E0AC48006800280DD1EDB2DA
:10311000142D00DA6D1C0198EDB2281880B202F06F
:1031200066FDA54840F6B8310160A14800684CF240
:1031300051318842C3D20121042000F06CFC0221ED
:10314000052000F068FCC2E70121052000F063FCC7
:10315000002002F002F8002001F0E5FE002002F05D
:1031600046FD9DF8000000F0B5F803F0A3FB4FF416
:10317000FA70FFF74EFB0021022003F061FB03F021
:10318000F8FB0028FBD14FF4FA70FFF742FBE4B2E2
:10319000012C0CD1012003F051FC059803F05DFCDB
:1031A000012003F069FC059803F075FC01E003F0D1
:1031B00089FC8248006800280CD002980521484309
:1031C00079490968884205D3774800680299081848
:1031D0007549086079487A490160002000F01FFCB9
:1031E000012000F01CFC002006B070BD10B586B0B8
:1031F00004006F4800684FF47A71B0FBF1F23C2094
:10320000B2FBF0F100FB11233C20B2FBF0F26D4960
:1032100000A802F04DF800AAE4B26B4850F8241060
:1032200001206CF017FF06B010BD10B54CF2503401
:1032300001F0C8FFB0F57A7F01D9012008E0012034
:10324000FFF7E7FA2000441E80B20028F0D10020EA
:1032500010BD10B586B001F005FD040001F0B2FF0D
:10326000A4B223000200594900A802F021F800226C
:1032700000A901206CF0C4FE06B010BD10B54FF4DB
:10328000FA64012000F0A5FA02E00120FFF7C1FA7C
:10329000022000F071FA002803D02000441E00280C
:1032A000F3D143F69824022000F066FAC0B2002859
:1032B00004D0002000F08DFA01200AE00120FFF781
:1032C000A8FA2000441E0028EDD1002000F081FA69
:1032D000002010BD10B50400012001F024FE43F2CF
:1032E000C82001F03AFFE4B2394810EBC40042684C
:1032F000E4B2374850F8341000206CF0ABFE41F6D1
:103300005830FFF786FA002001F027FF002001F077
:103310000AFE10BD10B50400012001F004FE4FF4B8
:10332000FA70FFF776FA41F2707001F016FFE4B21E
:10333000284810EBC4004268E4B2264850F8341024
:1033400000206CF087FE47F23050FFF762FA002051
:1033500001F003FF002001F0E6FD10BD10B50400F0
:10336000012001F0E0FD4FF4FA70FFF752FA42F647
:10337000E06001F0F2FEE4B2174810EBC4004268CE
:10338000E4B2154850F8341000206CF063FE41F6AA
:103390005830FFF73EFA002001F0DFFE002001F078
:1033A000C2FD10BD00000000305A00103C0F00109C
:1033B000245A001080380100285A00102C5A00109E
:1033C000E0930400B4D40000E4160010C4D400005C
:1033D000CC0E0010040F0010740F001080B5DFF841
:1033E000A406006850F00100DFF89816086002F0AB
:1033F00019FD00F081FB012000F03BFD002000F0F2
:10340000E8F9DFF88006006850F07040DFF87416C5
:103410000860DFF87406006850F07040DFF8681646
:103420000860DFF86006006850F00100DFF854160D
:103430000860DFF85006006850F48030DFF844166A
:103440000860FFF771F801F0ADFB01F061FC02F0DC
:10345000A5FB03F045FB01F045FFDFF830060068EF
:1034600050F04050DFF82416086003F081F903F0B3
:103470009BFB022003F0A5FB01BD10B5002401F069
:103480008CFD00F039FD03F0D5FB03F021FC02F0C8
:103490008CFB00F0A5FBDFF8F8050068002806D0DB
:1034A000DFF8EC050068401EDFF8E4150860DFF87F
:1034B000E4050068002806D0DFF8D8050068401E43
:1034C000DFF8D0150860DFF8D0050068002806D0C6
:1034D000DFF8C4050068401EDFF8BC150860DFF89F
:1034E000BC050068002806D0DFF8B0050068401E63
:1034F000DFF8A8150860DFF8A8050068002806D0E6
:10350000DFF89C050068401EDFF894150860DFF8BE
:1035100094050068002806D0DFF888050068401E82
:10352000DFF880150860DFF880050068002806D005
:10353000DFF874050068401EDFF86C150860DFF8DE
:103540006C050068002806D0DFF860050068401EA2
:10355000DFF858150860DFF858050068002806D025
:10356000DFF84C050068401EDFF844150860DFF8FE
:1035700044050068002806D0DFF838050068401EC2
:10358000DFF830150860DFF830050068002806D045
:10359000DFF824050068401EDFF81C150860DFF81E
:1035A0001C050068002811D1DFF81005DFF81015A0
:1035B0000160DFF81005006800280ED0DFF8040570
:1035C0000068401EDFF8FC14086006E0DFF8EC0439
:1035D0000068401EDFF8E4140860DFF8EC040068BF
:1035E000401CDFF8E4140860DFF8E0040068C0F372
:1035F000C03010F0010090F00100C0B2044364003C
:10360000DFF8C8040068C0F3400010F0010090F03B
:103610000100C0B204436400DFF8B4040068C0F3E2
:10362000406010F0010090F00100C0B20443DFF8E8
:10363000A4040078DFF8A01421F81040DFF8940407
:103640000078401C102190FBF1F202FB1102DFF820
:103650008404027010BD10B582B00024DFF87C1421
:103660001F20FEF7A7FFDFF8740400683D2803D38E
:10367000DFF868043C21016000A92120FEF79AFFD1
:1036800023E0DFF80404006850F48030DFF8F8131A
:103690000860FA20FFF7BDF800F0FAF8DFF8000440
:1036A0000068002811D1DFF834040068002803D036
:1036B0000021032003F0C4F8DFF8200400684EF670
:1036C00060214843DFF8D813086094F0FF049DF8A8
:1036D0000000002834D0E4B2002C18D0DFF8000439
:1036E000006850F48030DFF8F8130860DFF8F40366
:1036F000006850F08050DFF8EC130860DFF8E80352
:10370000006850F00050DFF8E0130860C1E7DFF810
:103710007803006850F48030DFF86C130860DFF83D
:10372000C803006850F08050DFF8BC130860DFF871
:10373000B403006850F00050DFF8A8130860A8E751
:10374000DFF8A403006850F08050DFF89C13086095
:10375000DFF89403006850F00050DFF88C13086025
:10376000E4B2002C8DD0DFF87803006850F480308C
:10377000DFF86C1308608CE710B4002100220AE027
:10378000D2B2DFF8543333F812300124844023429C
:1037900000D0491C521CD2B2102AF1DBC9B209294F
:1037A00001DB012000E0002010BC7047C0B20028FF
:1037B00008D0DFF82C03006850F00100DFF8201378
:1037C000086005E0B048006850F00100AE490860AC
:1037D000704780B5C0B2002803D0022836D019D374
:1037E0004FE0A948006850F08050A7490860A648FB
:1037F000006850F00050A4490860A348006850F0E9
:103800008040A1490860A048006850F000409E49EF
:10381000086036E09C48006850F080409A49086093
:103820009948006850F00050974908603220FEF730
:10383000F0FFAB48006850F08050A9490860A848E4
:10384000006850F00040A64908601AE08E48006801
:1038500050F080508C4908608B48006850F0004060
:10386000894908603220FEF7D4FF9D48006850F077
:1038700080409B4908609A48006850F00050984981
:10388000086001BD82490860704781480068704740
:1038900080B596480078002800F0BC8094480078F5
:1038A00090F0FF009249087092488078002804D177
:1038B0000021022003F059F90DE08E48807801289C
:1038C00004D10121022003F050F904E08848017876
:1038D000022003F04AF98748C078002804D100216B
:1038E000032003F042F90DE08248C078012804D19A
:1038F0000121032003F039F904E07D480178032019
:1039000003F033F97B480079002804D1002104201A
:1039100003F02BF90DE077480079012804D101214B
:10392000042003F022F904E071480178042003F038
:103930001CF970484079002804D10021052003F0CB
:1039400014F90DE06B484079012804D101210520CC
:1039500003F00BF904E066480178052003F005F94F
:1039600064488079002804D10021062003F0FDF886
:103970000DE060488079012804D10121062003F080
:10398000F4F804E05A480178062003F0EEF85948AC
:103990004078002804D10021012003F0E6F80DE072
:1039A00054484078012804D10121012003F0DDF8BA
:1039B00004E04F480178012003F0D7F84D48007823
:1039C000002804D10021002003F0CFF80DE0494881
:1039D0000078012804D10121002003F0C6F804E09A
:1039E00043480178002003F0C0F8414800780028DF
:1039F00008D00121012003F0B8F80021002003F0D5
:103A0000B4F807E00021012003F0AFF80121002005
:103A100003F0ABF801BDC0B2364A8154704738B5E7
:103A20000400002505E000212800C0B203F09DF845
:103A30006D1CEDB2082DF6DBE4B2002C09D100209C
:103A400004E0C0B22B4900224254401CC0B20828F6
:103A5000F7DB2648047031BD002807D11F480068F5
:103A60004EF6602148430E49086001E00C490860A9
:103A700070471A4800684EF66021484308490860BC
:103A80007047000020C009203CC0092080C00920E8
:103A9000E0590010245A0010285A0010F059001064
:103AA00028030010E85900103C5A00102C5A00104E
:103AB00030030010545A0010445A0010EC59001002
:103AC00020BF0200305A0010905A001034C0092064
:103AD00014C00920B95A0010F4580010E45900101D
:103AE00038C0092098C009209CC009204C03001050
:103AF000BA5A0010B859001080B5DFF8B803006852
:103B000050F08070DFF8AC130860DFF8A80300689D
:103B100050F00070DFF89C1308600120DFF8981364
:103B2000096860F31961DFF890030160DFF88C0326
:103B3000006850F00400DFF884130860DFF88003A9
:103B4000006850F00400DFF878130860DFF87403B1
:103B5000006850F48010DFF86C1308600120DFF873
:103B60005813096860F39B61DFF84C030160DFF8CC
:103B70004C03006850F00800DFF840130860DFF8DD
:103B80004003006850F00800DFF834130860DFF8E5
:103B90003403006850F40010DFF828130860DFF8E1
:103BA0002803006850F08070DFF81C130860DFF80D
:103BB0001803006850F00070C3490860002101201C
:103BC00000F028FEC1490860C0480068002806D0FF
:103BD000002300220021BD48006800F053FE01BD13
:103BE000BB480088002804D0B9480088401EB84966
:103BF0000880B8480088002804D0B6480088401ED5
:103C0000B4490880704710B503F004F940F6B830A5
:103C1000FEF7FFFD03F016F901F04BFF0400002C46
:103C200009D0642000FB04F080B200F084F820008A
:103C300080B201F055FF0A20FEF7EBFDEAE7A44849
:103C40000088002807D1A44800881930A2490880BC
:103C50009F4832210180A148006850F004009F492C
:103C600008609F48006850F480109D4908607047C4
:103C70009948008870479849098880B2884205D3DE
:103C800095490988081A9449088002E09248002161
:103C900001807047C0B2002806D08B48006850F001
:103CA00080708949086005E08E48006850F0807097
:103CB0008C49086070478C48006800280BD1854803
:103CC0000088002807D18948008864308749088027
:103CD0008048322101808148006850F008007F4907
:103CE00008607F48006850F400107D490860704704
:103CF000C0B2002806D07448006850F000707249C5
:103D0000086005E07748006850F000707549086069
:103D100070477648008870477449098880B28142AC
:103D200005D272490988081A7049088002E06F4874
:103D300000210180704710B50400002301220021FA
:103D40006248006800F006FE0028F6D06848006867
:103D5000A4B220186649086066484EF660210160EA
:103D60000023002200215948006800F08BFD10BD9F
:103D700030B583B00023012200215448006800F0D0
:103D8000E9FD0028F6D059480088002824D057487B
:103D9000058801A90E20FEF70DFC00A90F20FEF7F3
:103DA00009FC01982818019000982818009001A992
:103DB0000E20FEF7CEFB00A90F20FEF7CAFB4B48F2
:103DC000008804194A48006828184949086047488B
:103DD0000088401B45490880454804683E480088E3
:103DE00004193D48002101800023002200213748AA
:103DF000006800F047FD20003EBD10B50400002320
:103E0000012200213148006800F0A4FD0028F6D00E
:103E100037480068A04205D335480068001B344984
:103E2000086002E032480021016031480068002843
:103E300002D52F48002101600023002200212348E1
:103E4000006800F01FFD10BD10B504000023012222
:103E500000211E48006800F07DFD0028F6D02448AF
:103E600004600023002200211848006800F00AFDC9
:103E700010BD10B504001C48E4B204602000C0B2BC
:103E8000FFF708FF2000C0B2FFF732FFE4B22000C6
:103E900003F00AF8E4B2200003F098FA2000C0B260
:103EA00001F054FEE4B2200003F05FFC10BD1148A5
:103EB0000068704720C0092010C0024048C10F4070
:103EC0004CC10F4000E100E038C00920F859001053
:103ED000985A00109C5A0010965A001040C10F408A
:103EE00080E200E03CC009202C0300109A5A001028
:103EF000F4590010F059001075480068002804D0EB
:103F000073480068401E72490860724800880028A3
:103F100004D070480088401E6E4908806E480088B2
:103F2000002805D06C480088401E6B49088063E07B
:103F30006A4800786A490022425468480078684913
:103F4000405C68490968C1F3002111F0010191F05A
:103F50000101C9B2084361490978614A885461483E
:103F60000068800501D5002000E002205B49097847
:103F70005B4A895C084359490978594A8854594829
:103F80000068400501D5002000E00420534909786D
:103F9000534A895C084351490978514A8854514829
:103FA0000068400401D5002000E008204B49097852
:103FB0004B4A895C084349490978494A88544A4828
:103FC0000068800101D5002000E0102043490978F5
:103FD000434A895C084341490978414A88543F482B
:103FE0000078401C082190FBF1F202FB11023B48D3
:103FF0000270394806210180704710B4002100206A
:1040000008E0C0B2364A825C12F00902092A00D1E7
:10401000491C401CC0B20828F3DBC9B2052901DBEA
:1040200008204FE0002000E0401CC0B2052845DA1F
:104030000021002208E0D2B2294BD35C0124844045
:10404000234200D0491C521CD2B2082AF3DBC9B269
:104050000529E9DB1F49098800291BD12349097873
:1040600000290DD0214900220A701A494FF4FA6242
:104070000A8017494EF660220A60401CC0B221E057
:10408000144932220A8012494EF660220A60401C0E
:10409000C0B217E01549097800290DD01349002254
:1040A0000A700C494FF4FA620A8009494EF6602200
:1040B0000A60401CC0B205E0002003E00B4801216B
:1040C0000170002010BC7047014800687047000074
:1040D000385A00104203001044030010C95A00105F
:1040E000C859001034C0092074C00920CA5A0010F1
:1040F00010B5FDF7F5FD1F4B0A22C0B228211E4C5A
:1041000001FB0041C0B21D4C54F8200003F040FBFD
:1041100010BDE0B501A80021002206C00838FDF757
:10412000DFFD8DF800009DF80000082802DB00206C
:104130008DF800009DF8000001A9FF2242540723DA
:1041400001AA0F490F4803F095FB00208DF80000ED
:10415000002007E0C0B201A9415C002901D08DF820
:104160000000401CC0B20728F4DB00A90020FEF7C5
:10417000F0F907BDA8CD0000D00600102C130010E8
:10418000C4090010B4D6000070B504000D008D48BD
:10419000006850F010008B4908608A48006850F0B1
:1041A0000200884908608848006850F0200086496D
:1041B00008608548006850F0100083490860824814
:1041C000006850F00070804908607F48006850F037
:1041D00000707D4908607B48006850F400307949E0
:1041E00008604FF4FA70FEF714FB002606E0032087
:1041F00000F032F86420FEF70CFB761CF6B2032EBA
:10420000F5DB022000F028F81420FEF702FB54F042
:104210002001C9B2002000F074F81420FEF7F9FA6A
:1042200055F00801C9B2002000F06BF81420FEF729
:10423000F0FA55F00800654908701021002000F0E0
:1042400060F80A20FEF7E5FA0621002000F059F890
:104250000A20FEF7DEFA70BD5D49096851F40031AD
:104260005B4A116000BF00BF00BF00BF00BF00BFBE
:10427000C10706D55649096851F01001544A11602A
:1042800005E05449096851F01001524A1160810754
:1042900006D54F49096851F002014D4A116005E009
:1042A0004C49096851F002014A4A1160410706D59C
:1042B0004949096851F02001474A116005E0474922
:1042C000096851F02001454A1160000706D54248AF
:1042D000006850F010004049086005E03F48006861
:1042E00050F010003D49086000BF00BF00BF00BF94
:1042F00000BF00BF3748006850F4003035490860FF
:10430000704710B50C00C0B2002806D032480068D3
:1043100050F000703049086005E03048006850F007
:1043200000702E490860E4B22009FFF795FF2000D5
:10433000C0B2FFF791FF0220FEF76BFA10BD80B507
:10434000C0B2102809DAC9B2002906D1B0F1800143
:10435000C9B20020FFF7D5FF08E0C9B2012905D195
:10436000B0F14001C9B20020FFF7CBFF0420FEF7F7
:1043700050FA01BD80B5C0B201000A290CD00C2949
:1043800002D00D2908D00CE001210020FFF7B9FF71
:104390000C20FEF73EFA09E002210120FFF7B1FFF1
:1043A00004E00100C9B20120FFF7ABFF01BD10B569
:1043B000040003E02078FFF7DDFF641C207800286C
:1043C000F8D110BD20C0092000C00920CB5A001030
:1043D00038C009203CC0092018C009201CC0092091
:1043E00070B504000D00DFF81804006850F4807008
:1043F000DFF80C140860DFF80804006850F0800053
:10440000DFF8FC130860DFF8F803006850F04000A4
:10441000DFF8EC130860DFF8E803006850F4007080
:10442000DFF8DC130860DFF8D803006850F02000E4
:10443000DFF8CC130860DFF8C803006850F02000F4
:10444000DFF8BC130860DFF8B803006850F0100014
:10445000DFF8AC1308604FF4FA70FEF7DAF90026C3
:1044600006E0032000F033F86420FEF7D2F9761C52
:10447000F6B2032EF5DB022000F029F81420FEF737
:10448000C8F954F02001C9B2002000F01CF9142032
:10449000FEF7BFF955F00801C9B2002000F013F98A
:1044A0001420FEF7B6F955F00800DFF8581308702D
:1044B0001021002000F007F90A20FEF7AAF90621D2
:1044C000002000F000F90A20FEF7A3F970BD00BF3C
:1044D00000BF00BF00BF00BF00BF00BF00BF00BFE4
:1044E00000BF00BF00BF00BF00BF00BF00BF00BFD4
:1044F00000BF00BF00BF00BF00BF00BF00BF00BFC4
:1045000000BF00BF00BF00BF00BF00BF00BF00BFB3
:1045100000BF00BF00BF00BF00BF00BF00BF00BFA3
:1045200000BF00BF00BFC10708D5DFF8DC12096873
:1045300051F48071DFF8D022116006E0DFF8CC1270
:10454000096851F48071B14A1160810706D5AE49FE
:10455000096851F08001AC4A116005E0AB49096877
:1045600051F08001A94A1160410706D5A6490968A2
:1045700051F04001A44A116005E0A449096851F0D6
:104580004001A24A1160000706D59F48006850F418
:1045900000709D49086005E09C48006850F4007078
:1045A0009A49086000BF00BF00BF00BF00BF00BF46
:1045B00000BF00BF00BF00BF00BF00BF00BF00BF03
:1045C00000BF00BF00BF00BF00BF00BF00BF00BFF3
:1045D00000BF00BF00BF00BF00BF00BF00BF00BFE3
:1045E00000BF00BF00BF00BF00BF00BF00BF00BFD3
:1045F00000BF00BF00BF00BF00BF00BF824800680F
:1046000050F010008049086000BF00BF00BF00BF2D
:1046100000BF00BF00BF00BF00BF00BF00BF00BFA2
:1046200000BF00BF00BF00BF00BF00BF00BF00BF92
:1046300000BF00BF00BF00BF00BF00BF00BF00BF82
:1046400000BF00BF00BF00BF00BF00BF00BF00BF72
:1046500000BF00BF00BF00BF00BF00BF00BF00BF62
:104660006A48006850F010006849086000BF00BF49
:1046700000BF00BF00BF00BF00BF00BF00BF00BF42
:1046800000BF00BF00BF00BF00BF00BF00BF00BF32
:1046900000BF00BF00BF00BF00BF00BF00BF00BF22
:1046A00000BF00BF00BF00BF00BF00BF00BF00BF12
:1046B00000BF00BF00BF00BF00BF00BF00BF00BF02
:1046C00000BF00BF704710B50C00C0B2002806D074
:1046D0004D48006850F020004B49086005E04B4809
:1046E000006850F0200049490860E4B22009FFF753
:1046F000EEFE00BF00BF00BF00BF00BF00BF00BF95
:1047000000BF00BF00BF00BF00BF00BF00BF00BFB1
:1047100000BF00BF00BF00BF00BF00BF00BF00BFA1
:1047200000BF00BF00BF00BF00BF00BF00BF00BF91
:1047300000BF00BF00BF00BF00BF00BF00BF00BF81
:1047400000BF00BF00BF00BF00BF2000C0B2FFF726
:10475000BEFE0220FEF75DF810BD80B5C0B2102885
:1047600009DAC9B2002906D1B0F18001C9B200202E
:10477000FFF7A9FF08E0C9B2012905D1B0F1400156
:10478000C9B20020FFF79FFF0420FEF742F801BDE9
:1047900080B5C0B201000A290CD00C2902D00D2925
:1047A00008D00CE001210020FFF78DFF0C20FEF760
:1047B00030F809E002210120FFF785FF04E0010045
:1047C000C9B20120FFF77FFF01BD10B504001048FA
:1047D000006800280FD10E4847F2305101600421D3
:1047E0000820FFF7FDFD0C20FFF7D2FF03E0207843
:1047F000FFF7CEFF641C20780028F8D110BD000020
:1048000040C00920CC5A001058C009205CC00920C3
:104810003C5A001070B504000D00002C30D04C2024
:1048200001F030FF0600002E2AD005FB04F0401CEA
:1048300001F028FF3060306800281ED0306805FB8A
:10484000040070600020B0633068B060601E3168A2
:1048500005FB0010F060F46335645FF0FF307064B6
:104860005FF0FF30B06416F1100001F0E1FC16F1CA
:10487000240001F0DDFC300003E0300001F029FFEE
:10488000002070BDF7B504000D001E00002704E0F5
:10489000200000F032F9FEF71AF801F08FFCA06B4F
:1048A000E16B884213D232002900200000F0DBF8CF
:1048B000606A002807D014F12400FEF76EF9012881
:1048C00001D101F076FC01F082FC012041E0029868
:1048D000002803D101F07BFC00203AE0002F03D137
:1048E00000A8FEF78DF9012701F071FCFDF7E7FF45
:1048F00001F064FC606C10F1010F01D100206064D4
:10490000A06C10F1010F01D10020A06401F05FFC48
:1049100002A900A8FEF77BF9002813D1200000F0BF
:1049200030F90028B4D0029914F11000FEF7FDF818
:10493000200000F0E2F8FDF7CAFF0028ADD101F039
:1049400038FCAAE7200000F0D8F8FDF7C0FF01000E
:104950000020FEBDF7B504000D001E00002704E096
:10496000200000F0CAF8FDF7B2FF01F027FCA06BB1
:1049700000282BD0E7682900200000F0A9F8002EBD
:1049800014D1A06B401EA0632068002802D1FEF75E
:1049900012FA60602069002814D014F11000FEF7AC
:1049A000FCF801280ED101F004FC0BE0E760606A1E
:1049B000002807D014F12400FEF7EFF8002801D0FA
:1049C00001F0F7FB01F003FC01204BE00298002806
:1049D00003D101F0FCFB002044E0002F03D100A82C
:1049E000FEF70EF9012701F0F2FBFDF768FF01F079
:1049F000E5FB606C10F1010F01D100206064A06C38
:104A000010F1010F01D10020A06401F0E0FB02A928
:104A100000A8FEF7FCF800281DD1200000F0A2F845
:104A200000289DD02068002806D101F0C7FB6068EF
:104A3000FEF7C4F901F0CBFB029914F12400FEF754
:104A400074F8200000F059F8FDF741FF00288CD1E0
:104A500001F0AFFB89E7200000F04FF8FDF737FFCA
:104A600001000020FEBD10B50400206C002808D114
:104A70002068002828D16068FEF7D3F90020606024
:104A800022E0002A0ED1226CA06801F0C3F9206C4C
:104A9000A1684018A060A0686168884214D32068AB
:104AA000A06011E0226CE06801F0B4F9206C404293
:104AB000E1684018E060E0682168884204D2206C18
:104AC000404261684018E060A06B401CA06310BDCC
:104AD00080B503000800196800290DD0196CDA6848
:104AE0008918D960D9685A68914201D31968D96088
:104AF0001A6CD96801F08EF901BD10B5040001F0FF
:104B00005DFB0AE014F12400FEF747F8002801D00D
:104B1000FEF7ACF8A06C401EA064A06C012802DB7C
:104B2000606A0028EED15FF0FF30A06401F04FFB17
:104B300001F044FB0AE014F11000FEF72EF8002803
:104B400001D0FEF793F8606C401E6064606C012831
:104B500002DB20690028EED15FF0FF30606401F0D5
:104B600036FB10BD10B5040001F028FBA06B002837
:104B700001D1012400E00024E4B201F028FB200070
:104B800010BD10B5040001F019FBA06BE16B884269
:104B900001D1012400E00024E4B201F018FB200060
:104BA00010BD00005148006850F480504F49086023
:104BB00001204F49096860F319614D4801600120E7
:104BC0004C49096860F38F314A4801600120494926
:104BD000096860F311414748016047480068000ACE
:104BE0000002454908600A204349096860F30F2123
:104BF000414801604048006830F480303E49086018
:104C00003D48006850F400103B49086001203A49D3
:104C1000096860F31A61384801607047002000217C
:104C200005E0C9B2354A32F811201018491CC9B242
:104C30001029F6DB80B20009704780B5FFF7EEFF60
:104C400040F2263148432E49091A40F2F310B1FBD5
:104C5000F0F12B4840F2E63202FB1100B0FBF1F01C
:104C600080B202BD80B5FFF7E8FF80B242F2117159
:104C7000884201DB192029E0002100E0491C89B2AB
:104C8000B32921DA89B21F4A32F8112080B2824258
:104C900007D389B21B4A12EB4102528880B282428A
:104CA0000ED389B2184A32F8112080B28242E5D37D
:104CB00089B2144A12EB4102528880B28242DDD29C
:104CC00011F11C0080B201E04FF4FA7002BD002027
:104CD000002105E089B20D4A32F811201018491C54
:104CE00089B21029F6DB000980B27047C4C00F40BA
:104CF000A8C10F4004C0024000400340B458001057
:104D0000A05A320028CA0000C0C80000D4580010C1
:104D100080B5DFF8E004006850F40020DFF8D41418
:104D20000860DFF8D404006850F00C00DFF8C81405
:104D30000860DFF8C804006850F40020DFF8BC14F5
:104D400008600120DFF8B814096860F39751DFF8B4
:104D5000B0040160DFF8AC04006850F00200DFF836
:104D6000A4140860DFF8A004006850F00200DFF827
:104D700098140860DFF89404006850F40020DFF80D
:104D80008C140860DFF88804006850F00400DFF835
:104D900080140860DFF87C04006830F47F00DFF8DE
:104DA00074140860DFF86404006850F00400DFF851
:104DB0005C140860DFF86004006850F00100DFF860
:104DC00058140860DFF85004006850F00200DFF863
:104DD00048140860DFF84004006830F00200DFF893
:104DE00038140860DFF83404006880088000DFF8B9
:104DF0002C140860DFF828044FF496710160DFF886
:104E00002404006850F03000DFF818140860DFF860
:104E10001804006850F00100DFF80C140860DFF897
:104E20000804006830F00200DFF8FC130860DFF8C7
:104E3000F803006850F00400DFF8EC130860DFF8B6
:104E4000D003006850F48000DFF8C413086001202C
:104E5000DFF8D813096860F30D31DFF8D003016083
:104E6000DFF8B00300680002000ADFF8A81308604A
:104E7000DFF89803006850F00800DFF8901308602E
:104E8000DFF8AC03006850F00100DFF8A4130860FD
:104E9000DFF89C03006850F00200DFF8941308600C
:104EA000DFF88C03006830F00200DFF8841308603C
:104EB000DFF88003006880088000DFF8781308605E
:104EC000DFF874034FF496710160DFF87003006837
:104ED00040084000DFF864130860DFF860030068F2
:104EE00030F00200DFF854130860DFF85403006864
:104EF00040084000DFF848130860DFF8440300680A
:104F000030F03000DFF838130860DFF8380300684D
:104F100010F57A70DFF830130860DFF830132C20BA
:104F2000FDF748FB01BDC0B2002808D0DFF8200320
:104F3000006850F40020DFF81813086005E0AF485F
:104F4000006850F40020AD490860704780B5C14842
:104F50000068002810D1C048006850F00800BE4921
:104F60000860BC480621016002F0EEFCBB48006806
:104F7000401CBA49086003E0B648B64909680160B8
:104F8000B748006850F00200B5490860B5480068AD
:104F900050F40020B349086001BDB3480088401EAA
:104FA000B149088080B200280AD1B048AB490968ED
:104FB0000160AA4800210160AB484FF4FA710180FA
:104FC000AB480068002813D0A948006801280AD11E
:104FD000002005E0C0B2A749002241F82020401C73
:104FE000C0B20228F6DBA2480068401EA049086053
:104FF00070479E48006880B270479F480068010073
:105000009E4A1268824203D29C4A1268801A05E0C6
:105010005FF0FF32994B1B68D21A1018974A116043
:105020009749096851F01001954A11608D49096846
:1050300051F004018B4A1160924908608C484FF48A
:105040007A710160904800688A498E4A126841F876
:1050500020208D480068401C10F001008A4908603B
:1050600070478A480068C00711D58948006850F029
:105070000800874908608548006850F001008349AE
:1050800008607848006850F008007649086070476A
:10509000002904D07F4800210160002011E07D49F3
:1050A000096841187B4A11600100002902D55FF0B0
:1050B000FF325143774909684018764908607548BE
:1050C0000068704701000020734A1288734B43F850
:1050D00022100B2202FB01006F490988491C04229F
:1050E00091FBF2F303FB12136C4951F823101222C7
:1050F00002FB110068490988891C042291FBF2F324
:1051000003FB1213654951F82310092202FB010029
:1051100061490988C91C042291FBF2F303FB1213B5
:105120005E4951F82310B0EB41005B490988491CE6
:10513000042291FBF2F303FB121357490B80062163
:1051400090FBF1F042F6E161884201DB42F6E0605B
:105150005349884200DA5248704710B50400002CC9
:1051600003D15048002101700AE06420FDF751FB93
:105170004D4804600220FDF74CFB4A4801210170B4
:1051800010BD4FF42F614843C117C00B40EA4140A6
:10519000C91340F6C3120023101A73EB0101002952
:1051A00004DC01DB962801D29620002140F6C512CE
:1051B0000023994205DB01DC904202D340F6C41083
:1051C0000021704700202F490968002901D10020E3
:1051D0000EE0002105E0C9B2264A52F8212010183D
:1051E000491CC9B20229F6DB40083049B1FBF0F096
:1051F0007047000020C0092040C009203CC00920A1
:1052000010C0024048C10F404CC10F4000E100E017
:10521000C4C00F4000E400E0048000407080004003
:105220000C8000400CC0024028800040ACC10F4000
:1052300004000940700009400C00094014000940B6
:105240003C0009400800094018000940BD5A001000
:1052500038C00920E85900105CC00920045A001029
:1052600040C10F4080E200E03C030010085A0010EB
:10527000105A0010C05900102C800040185A00101D
:10528000008000400C5A00101C5A00100000094019
:1052900058C00920205A0010A45A00109859001034
:1052A00020D1FFFFBC5A0010145A0010D8983001CA
:1052B0000CB41CB5044604A801900A46009401AB46
:1052C00000A9074878441830FBF71AF80099002223
:1052D0000A7000285CBF0098001B16BC5DF80CFB30
:1052E0004FBDFFFF80B502F01DFC01BD10B40022D0
:1052F000002303E0DBB21C5CA2185B1CDBB2C9B26A
:105300008B42F7D31000C0B210BC70472DE9F047B4
:105310008046894692461C00089D099E32275FFA06
:105320008AFA52464946814800F074FD5146C9B296
:105330004846FFF7DBFF5FFA8AFA7C490AF801006A
:105340005FFA8AFA1AF1010292B278494046C0B275
:1053500002F054FC02F08BFC8046012002F0A0FC1D
:105360005FFA88F8B8F1000F04D13800471E80B208
:105370000028EFD15FFA88F8B8F1000F45D002F0AD
:1053800073FC80465FFA88F8B8F1250F01DB242111
:1053900000E04146C9B2654802F059FCB8F101018C
:1053A000C9B26248FFF7A2FF07005FFA88F8B8F1B8
:1053B000250F01DB242202E05FFA88F842465B49B0
:1053C000280000F027FD5FFA88F8B8F1250F01DB0F
:1053D000242001E0B8F101003070E4B2002C01D0CB
:1053E00000F099F85FFA88F8B8F1000F09D15FFA78
:1053F00088F84E4818EB000010F8010CFFB2B842D4
:1054000001D1002002E0012000E00220BDE8F08789
:105410002DE9F0478046894692461C00089D099E6A
:105420004FF4FA675FFA8AFA524649463F4800F05D
:10543000F1FC5146C9B24846FFF758FF5FFA8AFAB5
:105440003A490AF801005FFA8AFA1AF1010292B2A7
:1054500036494046C0B202F0D1FB02F008FC80465B
:10546000012002F01DFC5FFA88F8B8F1000F04D1AA
:105470003800471E80B20028EFD15FFA88F8B8F1F3
:10548000000F45D002F0F0FB80465FFA88F8B8F1D3
:10549000250F01DB242100E04146C9B2234802F078
:1054A000D6FBB8F10101C9B22048FFF71FFF070082
:1054B0005FFA88F8B8F1250F01DB242202E05FFAD9
:1054C00088F842461949280000F0A4FC5FFA88F8E1
:1054D000B8F1250F01DB242001E0B8F101003070A4
:1054E000E4B2002C01D000F016F85FFA88F8B8F1A9
:1054F000010F09D05FFA88F80C4818EB000010F88B
:10550000010CFFB2B84201D1002002E0012000E00E
:105510000220BDE8F08780B5044800210170012217
:105520000249002002F06AFB01BD00009058001003
:1055300038B504000D0001F0A0FC40F6B830FDF7CE
:1055400068F92100C9B22800C0B202F02DFC0400A5
:1055500001F09EFCE4B2002C01D1012000E000200B
:1055600032BD70B586B004000A2501F086FC01A9A1
:1055700000A802F0D0FB0600F6B2002E04D06D1E8B
:105580002800C0B20028F2D101F082FCF6B2002E51
:105590000CD1002005E0C0B2C0B201A9415C0155A8
:1055A000401CC0B21028F6DB012000E0002006B04D
:1055B00070BD80B50DF101010420FCF7FBFF0DF17A
:1055C00002010520FCF7F6FF00A90620FCF7F2FF18
:1055D00001F053FC9DF80100002807D001F0CFFE38
:1055E000002803D101F054FC01201AE09DF80200CC
:1055F000002807D001F0D6FF002803D101F048FCB5
:1056000002200EE09DF80000002807D002F0B0F85C
:10561000002803D101F03CFC032002E001F038FC3B
:10562000002002BD38B5FCF75BFB0400E4B2324851
:1056300010EBC4004268E4B22F4850F83410002048
:105640006AF0DEFCE4B22C4810EBC4004268E4B21D
:10565000294850F8341000206AF0FCFC0120FFF7C4
:1056600062FC4FF47A70FDF7D4F841F28830FFF70E
:1056700074FD47F2305402E00120FDF7CAF8FFF74D
:10568000A1FDB0F57A7F02D2641E002CF4D1002C6B
:1056900007D10020FFF747FC0020FFF75EFD012047
:1056A00028E0FFF7DFFA05004EF66024681D80B29F
:1056B00000F09DFA02E00120FDF7ABF8FFF7D2FA07
:1056C000E91C884202D2641E002CF4D10020FFF7AE
:1056D0002AFC0020FFF741FD002000F088FA002C92
:1056E00001D1012006E001F038F8002801D107209F
:1056F00000E0002032BD00001C10001080B501F059
:105700002CF8002801D1012009E0FFF7ABFA0028AE
:1057100002D0B0F5FA7F01D3022000E0002002BDE4
:1057200080B540F6B830FDF774F800F026F8DFF8E1
:1057300034040078002804D0DFF828040078022818
:1057400009D1DFF82404DFF81C1409780170DFF8B0
:10575000140406210170DFF810040078DFF8081443
:105760000978DFF8082452F821108847DFF8F81389
:1057700008703220FDF74DF8D9E780B500210120EF
:10578000FFF748F8DFF8E8130860DFF8E403006883
:10579000002807D0002300220021DFF8D40300688E
:1057A000FFF770F801210320FFF734F8DFF8C41386
:1057B0000860FCF795FADFF8C013087001BD10B55A
:1057C00086B000208DF8000000A90220FCF7F2FE50
:1057D000032401AA0DF10101282000F030FCC0B221
:1057E000002804D121004C1E89B20029F1D1C0B299
:1057F000002801D1002026E003249DF8001089B282
:10580000282000F067FCC0B2002804D121004C1E03
:1058100089B20029F1D1C0B2002801D1002012E0E4
:105820000324FF21282000F073FCC0B2002804D11B
:1058300021004C1E89B20029F3D1C0B2002801D149
:10584000002000E0FF2006B010BD80B5FFF7B7FFD5
:10585000002801D0042000E0032002BDC0B2704740
:1058600010B584B0040000AAC449282000F0E7FB6A
:1058700000280DD0C2480A210170C0480078C149F3
:10588000098880B2884201D005240CE004240AE093
:10589000BB480078002805D0B9480078401EB849B8
:1058A000087000E003242000C0B204B010BD3EB573
:1058B000052400AAB149282000F0C1FBC0B200288D
:1058C00004D1641E2000C0B20028F2D1E4B2002C42
:1058D00001D1032031E0A9480078AA49098880B2A3
:1058E000884229D0A7480088A449097889B288420B
:1058F00005D2A2480078A3490988441A06E0A148C5
:105900000088D0F1FF009D4909780C18002506E0B9
:10591000EDB200A830F8150000F010F86D1C28005A
:10592000C0B280B2A4B2A04202D2EDB2052DEFDB2C
:10593000944892490978018004203EBD70B5040066
:10594000A4B2200AC0B200281DD0401E1CD0401EA8
:10595000012859D9801E00F08080401E00F09F80F1
:10596000401E012840F29C80801E022875D9C01E6E
:10597000042840F29580401F01286ED9801E03281C
:1059800040F28E808CE08BE00A260025282000F073
:1059900087FBC0B2002804D131004E1EC9B20029D5
:1059A000F4D1C0B200282AD000230122002170487F
:1059B0000068FEF7CFFF0028F6D073480088A4B235
:1059C000E1B26D4A12780E23704E03FB026232F888
:1059D000111008186C490880A4B2E0B26649097831
:1059E0000E226A4B02FB013131F810006849088031
:1059F0000023002200215E480068FEF743FF6D1C73
:105A0000C820FCF706FF4BE062480078012823D14C
:105A100000230122002156480068FEF79BFF002862
:105A2000F6D0594800885A490988884207D3564811
:105A3000008857490988401A5349088002E05248B3
:105A40000021018000230022002149480068FEF760
:105A500019FF4F480021018022E04E4815210170B6
:105A600000230122002142480068FEF773FF00284E
:105A7000F6D045480088002806D0434800884449AD
:105A80000988401A40490880002300220021384834
:105A90000068FEF7F7FE3E480021018000E0FFE7C6
:105AA000A4B2200A3B4908703B483A490978017082
:105AB00070BD10B500240023012200212C4800688D
:105AC000FEF748FF0028F6D02F4804880023002264
:105AD000002127480068FEF7D5FE200080B210BDE7
:105AE00010B5040000230122002121480068FEF7C0
:105AF00031FF0028F6D024480088A4B2844205D3A0
:105B000021480088001B2049088002E01E4800212F
:105B1000018000230022002115480068FEF7B2FE34
:105B200010BD1D48007870470F480078704710B5C9
:105B300003240021282000F0CDFAC0B2002803D1B0
:105B40002000441E0028F4D1002010BDC0B200285F
:105B500003D004480021017002E0024802210170D4
:105B6000704700004A03001049030010E8020010CB
:105B7000D8590010DC590010B55A0010B65A001060
:105B80004B03001038030010945A001058CC00004A
:105B90003A030010B85A0010B75A001015480068B0
:105BA00050F0040013490860704780B5124800782F
:105BB000002815D0FFF756F80F49097889B280B24E
:105BC000814206D20D48006850F004000B4908607D
:105BD0000CE00B48006850F004000949086005E03B
:105BE0000648006850F004000449086001BD0249FD
:105BF0000870704740C00920BB5A00105CC00920E3
:105C000058C009205FF08040006850F001005FF04C
:105C1000804108605FF08040006850F002005FF053
:105C2000804108600B4800688008800009490860CE
:105C30000848006850F000400649086006485FF4D4
:105C40007A1101600548AA210160044855210160CC
:105C5000704700BF100000400400004008000040F2
:105C600080B5694802F00EF9012002F0DBF900214D
:105C70000120FEF7CFFD65490860644800680028F0
:105C800006D000230022002160480068FEF7FAFDDC
:105C900001BDF8B504000D0016001F004FF480523E
:105CA0005B49200B000302F05BFA200002F0CDFA02
:105CB000BFB23A002900B6B25548301800F0AAF831
:105CC0004FF480525249200B000302F071FAF1BDEB
:105CD0002DE9F84304000D001600200B4FF480510D
:105CE00001FB1047D7F580585FF00009B6B2F019F4
:105CF000B0F5805F12D233009BB23A0092B2290015
:105D00002000FFF7C6FFBDE8F18300260027B6B2EA
:105D10004FF4805096FBF0F808FB1068B6B2002EE6
