:10000000A0670010B5CF000035D1000039D1000045
:100010003DD1000041D1000045D100007AB2FAEF95
:1000200000000000000000000000000079600000F7
:100030004DD1000000000000276000003D5F00007F
:1000400059D1000023660000514E0000B94E000057
:1000500069D10000C35B000000000000677600006B
:100060006F8D00007DD1000081D1000085D100009E
:1000700089D100008DD1000091D1000095D1000000
:1000800099D100009DD10000A1D10000A34D000036
:10009000D73A00004F3B0000B1D10000B5D10000BD
:1000A000B9D10000BDD10000C1D10000C5D1000010
:1000B000C5D10000CDD1000000000000D5D1000066
:0400C000D9D1000092
:100300002DE9F04FA1B0824602AE002017461D46EF
:10031000029170620DF144080AE017F8011B02987F
:10032000D0470290002800F08B82706A401C7062F7
:10033000387808B9706A85E22528EED10020F0608F
:1003400030617061B061F061306201E040F0010045
:1003500017F8011F2029F9D023290DD02B2904D00B
:100360002D2906D030290AD00CE040F0020080B2DE
:10037000EEE740F00400FAE740F00800F7E740F04D
:100380001000F4E72A290DD129680A1D2A6009689E
:10039000F162002904D5494240F00400F16280B2C4
:1003A0007F1C13E00021F1620BE0F16A6FF0004363
:1003B000994205D001EB810302EB43013039F16230
:1003C0007F1C3A78A2F130010A29EED339782E2920
:1003D00003D04FF0FF31B1621EE017F8011F2A2948
:1003E00006D129680A1D2A607F1C0968B16213E0E2
:1003F0000021B1620BE0B16A6FF00043994205D071
:1004000001EB810302EB43013039B1627F1C3A7882
:10041000A2F130010A29EED330860FF6C0303978C8
:1004200000F0FAFD08B117F8010B8DF83A009DF8BD
:100430003A00682802BF39786829622005D06C2804
:1004400004BF38786C2803D171208DF83A007F1CE6
:1004500011A8B0603978B1F1250023D01C3871D0D3
:10046000001F02286ED9133800F09780093869D030
:10047000801E00F02B81401E00F0D480401E022818
:1004800060D9001F00F0CE80401F30D0401E00F029
:100490008480401E20D0C01E09D0801E7DD0C01E8A
:1004A0007BD01BE1F068411CF160252120E1286828
:1004B000011D29600068B26A7060002A02D500F050
:1004C000BBFD07E0002100F0D3FD00281ABF7168D2
:1004D000401AB06A30610DE12868011D29600021D1
:1004E0000068CDE9000111A870607821EAE09DF86C
:1004F0003A00622818D0682806D06A280BD06C28E9
:1005000019D0712807D016E02868011D29600068FD
:10051000716A0180EEE02A68101D28601268706A16
:10052000C117C2E90001E5E02868011D29600068E3
:10053000716A0170DEE02868011D29600068716A37
:100540000160D7E02868C01D20F00700286000F196
:1005500008022A60D0E90023CDE90023002B04D54E
:10056000F068421CF2602D220DE0308E820704D527
:10057000F068421CF2602B2205E0C00705D5F06848
:10058000421CF260202200F80820F06811AA8018AE
:10059000706000A800F0E2F9ACE09DF83A006C2829
:1005A00008BF2A6811D0712808BF2A6802D02A68BB
:1005B0006A280AD1D21D22F007022A60144604F1EB
:1005C00008022A60D4E9002303E0131D2B600023F6
:1005D0001268CDE90023682808BF92B207D06228CC
:1005E00008BFD2B203D0742818BF7A2802D10023E2
:1005F000CDE9002396F8300000075FD5DDE9002340
:10060000002B08BF002A59D041F02000782855D18E
:10061000F068302200F80820401C421CF26000F80C
:1006200008104BE09DF83A0062280CD0682810D0E2
:100630006A281AD06C2823D0712816D074281FD0AD
:100640007A280CD01CE02868021D2A6090F900204E
:100650001AE02868021D2A60B0F9002014E028681A
:10066000021D2A60002302680FE02868C01D20F0E8
:100670000700286000F108022A60D0E9002304E0A6
:100680002868021D2A600268D317CDE90023002BD9
:1006900004DAF068421CF2602D220DE0308E8207F1
:1006A00004D5F068421CF2602B2205E0C00705D596
:1006B000F068421CF260202200F80820F06811AABD
:1006C0008018706000A800F0C0F813E0F068411CCA
:1006D000F16029680A1D2A60096809E0F068421C77
:1006E000F260252200F8082021B1F068421CF26077
:1006F00000F80810F06AF168401AB169401A3169CF
:10070000401AF169401A7169401A316AA0EB010977
:1007100096F830007F1C400710D420208DF8400050
:10072000002409E0012310AA00A9504600F03EFC75
:10073000002840F08580641C4C45F3DBF4680DF123
:10074000440B0AE01BF8011B0298D04702900028D6
:1007500076D0706A401C7062641E002CF2D130208A
:100760008DF840004FF0000BB46909E0012310AA96
:1007700000A9504600F01AFC002861D10BF1010BD2
:10078000A345F3DB3469D6F804B00AE01BF8011B7B
:100790000298D0470290002852D0706A401C7062C4
:1007A000641E002CF2D130208DF840004FF0000B79
:1007B000F46909E0012310AA00A9504600F0F6FBF5
:1007C00000283DD10BF1010BA345F3DB30697168C3
:1007D000746900EB010B09E01BF8011B0298D0477C
:1007E000029068B3706A401C7062641E002CF3D1E2
:1007F00030208DF840004FF0000B346A08E00123F0
:1008000010AA00A9504600F0D1FBC8B90BF1010BAA
:10081000A345F4DB96F8300040077FF589AD202032
:100820008DF84000002400E0641C4C45BFF680AD0C
:10083000012310AA00A9504600F0B8FB0028F3D00D
:100840004FF0FF3021B0BDE8F08F2DE9FA470646A2
:1008500082B035690A466F2A08BF082705D041F0E3
:100860002000782814BF0A271027D6E900013C246D
:1008700080468946642A18BF692A05D1002903DA0F
:10088000D8F1000869EB4909B9F1000F08BFB8F1C8
:10089000000F0CD1306B50B9082F3BD196F83800BF
:1008A000000737D530203B2485F83B0032E0CDE906
:1008B0000089FB17404649463A4600F005FCB84619
:1008C000A8FB0023DDE90089A8EB02023032A4F185
:1008D000010AD2B254463A2A03DB9DF80830513B54
:1008E0009A180AF8052080465FEA010908BFB8F1A6
:1008F000000F03D0F06861198842D8D3082F09D1BE
:1009000096F83800000705D5605D302802D0641ED7
:1009100030206055C4F13C00B0616119F160316B69
:10092000884207DA081A30624FF6EF71308F0840BC
:10093000308710E000290ED596F8381001F0140128
:10094000102908D1716B7269891A326A891A081ADA
:100950000128A8BF306204B0BDE8F0872DE9F24F4E
:1009600004468EB0D4E90001CDE9020104AE9DF841
:10097000380040F02000009061280AD0206B002849
:1009800048BF062004D404BF0098672801D1012085
:1009900020636168C1F30A5040F2FF7290421CD19B
:1009A000080304BF2068002809D10320A0619DF836
:1009B000380061381A2836D30FF2346108E003207A
:1009C000A0619DF8380061381A2829D30FF2186108
:1009D000E068032200F0F0FBB5E1012816DA2046BA
:1009E00000F025FC012811DB002700200099612977
:1009F00020D1E168302201F8012B4A1CE2609DF809
:100A00003820612A0CBF782258220FE0626840F239
:100A1000FE3161F31E52471A62604FF0FF30E5E786
:100A20000FF2C051D4E70FF2C451D1E70A706169E7
:100A3000891C616110B9002500277BE100986128BD
:100A400040F09680206B00284CBF2125451CDDE935
:100A500002012DB26E1CD4E900890022002300F0AF
:100A600007FC3ABF89F00040CDE90280CDE9028958
:100A70003F1F8DF810200DF1110801E000F207086A
:100A8000012E32DBDDE902010022002300F008FC28
:100A90002BD21C2102A800F01BFCDDE9020100F0B2
:100AA0009DFCF61F8146012E09DB00F0C3FC0246C7
:100AB0000B46DDE9020100F0D5FCCDE9020108F2A8
:100AC0000700072105E009F00F0200F8012D4FEAA9
:100AD0002919B9F1010F01DB491EF4D5491E5CBF8C
:100AE000002200F8012DF9D5C8E70DF11100A8EB9F
:100AF00000010DF11106A942B8BF0D462DB2280024
:100B00002FD4884206DA04A9411849780829A8BFD9
:100B10000F2100DA002104AA821800E06D1E12F8ED
:100B20000139401E8B42F9D00F2904D104A9411884
:100B30004A78521C4A70002802D504AE6D1C3F1D35
:100B40002DB2681E0DD481190A783032D2B23A2AF9
:100B500003DB9DF838303A3B9A1801F80129401E12
:100B6000F2D5206B002840F1E580681E2063E1E0AB
:100B7000DDE902010022002300F07AFB3CBF81F096
:100B80000041CDE902013FB247F29750784348490E
:100B9000DFF820B190FBF1F73FB2C7F107069246AC
:100BA000012E19DBDDE90289F00707D552465B46C5
:100BB0004046494600F016FD80468946761050466C
:100BC000594652465B4600F00DFD82468B46002E8C
:100BD000EAD1CDE9028921E076429046DFF8D8904B
:100BE00012E0F00707D552465B464046494600F002
:100BF000F9FC8046894676105046594652465B4677
:100C000000F0F0FC82468B46002EEAD1DDE90201BD
:100C100042464B4600F0B8FDCDE902010098662837
:100C20000CBF07F10A000620216B4518142DA8BF40
:100C3000132530208DF810000DF11106DFF87C909F
:100C4000012D3DDBDDE9020100F0DEFB06F10801CC
:100C500004220A23B0FBF3F303EB8306A0EB460068
:100C6000303001F8010D0A20B3FBF0F000EB8006F4
:100C7000A3EB4603303301F8013D521EE9D1083D94
:100C800001F10806012DDBDBDDE9020100F0BCFB10
:100C900000F0DAFB02460B46DDE9020100F0E2FB60
:100CA00000224B4600F09EFCCDE90201CAE700BFDE
:100CB000A0860100000024400000F03F84D7974147
:100CC0000DF11100301A0DF1110602E0401E7F1ED9
:100CD000761C31783029F9D00099662902D13FB2CB
:100CE000791C03E065290CBF01210021226B8D18BE
:100CF0002DB2A842B8BF05462DB229001AD48142B0
:100D000004DA885D3528A8BF392000DA30208A1936
:100D1000521E00E06D1E12F80139491E8342F9D0BF
:100D2000392802D1885D401C8855002902D5761EDD
:100D30006D1C7F1C3FB29DF8381000972BB23246D5
:100D4000204600F003F80FB0BDE8F08F2DE9F04326
:100D5000054685B01E46D5F8308089461746012ED7
:100D600002DA01260FF28C2749F02000BDF930404D
:100D7000662808BF641C17D0672840F0818014F1F2
:100D8000040FC0F28380444580F2808095F83800DB
:100D9000641C000702D44645B8BFB04624B2B8EB85
:100DA000040848BF4FF00008E868A96924B2012C84
:100DB00025DA30234A1C0B54B8F1010F03DA95F8F9
:100DC0003810090702D52E211154521CAA6118EBC4
:100DD000040FB8BFC8F1000424B26142A0446962A4
:100DE000B045B8BF464636B2EE613246AB693946C9
:100DF000181800F0E1F9A8EB0600A862BFE0081897
:100E0000A64218DA3246394600F0D6F9A9697118B7
:100E1000A961A01B6862B8F1010F03DA95F83800E8
:100E2000000705D5E8682E220A54E869401CE861ED
:100E3000C5F82880A3E02246394600F0BDF9A8692C
:100E40002018361BB8F1010F03DA95F8381009079E
:100E500003D5E9682E224254401C36B2A861B04541
:100E6000B8BF4646EB6836B23246E119C01800F00A
:100E7000A3F9A8693018A861A8EB060068627EE0B3
:100E80004846612816D14FF0700917E0464504DA4C
:100E900095F83810090758BFB046B8F1010848BFA7
:100EA0004FF00008B9F1670F14BF4FF045094FF03C
:100EB000650903E0412808BF4FF05009A969E868B7
:100EC00017F8013B0B544A1CB8F1010F05DA95F8ED
:100ED0003810090758BFAA6117D52E211154531C89
:100EE000AB61B8F1010F10DB761E36B2B045B8BF6A
:100EF000464636B232463946181800F05DF9A86900
:100F00003018A861A8EB06006862A869E96847186C
:100F1000200007F8019B03D42B2007F8010B03E006
:100F20002D2107F8011B444200260DF1080808E0B6
:100F30000A2200A800F04BFD019808F8010B761C6E
:100F4000009C21B20129F3DA022E06DA49F02000D2
:100F5000652804BF302007F8010B4EB9302007F890
:100F6000010B07E0761E02A8305C303007F8010B59
:100F7000012EF7DAA869E9684018381AE86195F88F
:100F8000380000F0140010280DD16869A96908180C
:100F9000696A0818E9690818A96A0818696B88421B
:100FA000BCBF081A286205B0BDE8F083F8B5044656
:100FB0000D4616461F46002004E0E86A401CE86221
:100FC0007F1E002047B116F8011BA868A047A86043
:100FD0000028F2D14FF0FF30F2BD0000686A6C7457
:100FE0007A4C00006E616E004E414E00696E6600E4
:100FF000494E4600300050F8041B61B150F8042BF4
:10100000D30744BFA9F101039A18002342F8043B17
:10101000091FFAD1EFE770470278C9B28A421AB1C4
:101020001CBF10F8012FF9E718BF002070470268B5
:10103000531C03601170704700F10103810704D055
:1010400010F8011B89B18107FAD10268B2F10131B0
:10105000914311F0803F04BF50F8042FF6E710F8D9
:10106000011B11B110F8011BFBE7C01A704700000B
:10107000C9B2830706D0521E22D310F8013B994211
:10108000F7D11FE0083A13D302F1040241EA01212B
:1010900041EA014150F8043B121F21BF4B40A3F12C
:1010A000013C2CEA030C1CF0803FF3D0C9B2001FB6
:1010B000083210F8013B521E28BF91EA030FF8D8FE
:1010C00018BF0120401E70471B4213D1094236D180
:1010D0002AB18446B0FBF2F002FB10C2704700F068
:1010E0007DBCFCD30022002370470B0002000021CE
:1010F00000207047904271EB030CF6D370B5B1FA43
:1011000081F4B3FA83F52C1BA340C4F1200532FA15
:1011100005F63343A2405FF00046E64002E05B087C
:101120005FEA3202841A71EB030524BF2046294688
:101130007641F4D302000B003000002170BD012A7B
:10114000CFD970B5140C20D0B1FA81F4B2FA82F57F
:10115000C4F120046419B4F12006D6D3B2405FF084
:101160000044F440002502E052085FEA3303C61A47
:1011700071EB020E24BF3046714664416D41F3D3DA
:1011800002000B002000290070BD0C46B1FBF2F1FB
:1011900002FB11452D0445EA1045B5FBF2F402FBB4
:1011A000145580B240EA0545B5FBF2F002FB10523F
:1011B00040EA044070BD000062B38B0708D0521EA5
:1011C00011F8013B00F8013B00F024808B07F6D1B9
:1011D000830740F0208000BF103A07D330B4B1E855
:1011E0003810103AA0E83810F9D230BC530724BFA9
:1011F000B1E80810A0E8081044BF51F8043B40F8DB
:10120000043BD20724BF31F8022B20F8022B44BF45
:101210000B7803707047083A07D3B1E80810083A12
:1012200040F8043B40F804CBF7D25307E4E730B46E
:10123000436803F0004201211B031B0B436004BF02
:101240000368002B08D10DE00368DD0F45EA440474
:1012500044605B000360491E4468E302F4D5230345
:101260001B0B436043681A434260084630BC70471A
:101270004FF4001C1CEB410F94BF1CEB430F09E023
:1012800041EA030C50EA4C0C52EA0C0C03D299428E
:1012900008BF9042704714BF8B42824270470000E3
:1012A0004FF4001C1CEB410F94BF1CEB430F09E0F3
:1012B00041EA030C50EA4C0C52EA0C0C03D28B426C
:1012C00008BF8242704714BF9942904270470000A5
:1012D00070B504460D466068C0F30A5040F2FF71D5
:1012E000884207D16068000304BF2068002817D037
:1012F000022070BD20B92046FFF799FF012867DA68
:10130000012D0FDB40F2FF71091A8D420AD360688C
:10131000002847BF00202F4900202F49C4E90001C1
:10132000012070BD4142A942616806DA6FF31E5187
:10133000401941EA0050606041E0401E63680122AC
:10134000451962F31F5305F1350001F00041636058
:10135000352803D361600020206070BD002215F1A4
:101360001F0F04DA22682360002020356060684285
:1013700013D0521E25689241C0F12003D2439D40F4
:1013800045EAD27225686668C54006FA03F32B4326
:101390002360636823FA00F060606068084360605F
:1013A000B2F1004F03D80DD12078C0070AD52068CC
:1013B000401C2060206828B96068401C60604FF0C5
:1013C000FF3070BD6068884204BF20680028F6D1F5
:1013D000002070BD0000F0FF0000F07FF446400DDB
:1013E00040EAC120490006D200F014F8004248BF8C
:1013F0006FF00040604700F00DF84FF00041884268
:101400008CBF084640426047400D40EAC120490079
:1014100080F00D8040F00040490DA1F58061491C2D
:1014200005D4D1F11F0154BFC840C01770474FF019
:1014300000007047010040F10980F446404200F08E
:1014400005F851F000416047010000BF09D0B0FA33
:1014500080F18840C91CC1F58461090501EBD021E8
:101460004005704770B44FF0004591EA030F44BF48
:101470006B4000F0B5BA00BF841A71EB030604D2CA
:101480006E40001BB141121973414FF4001C1CEB5C
:10149000410F34BF7CEB430684E00C0DA4EB1356E4
:1014A000362E7DDC012E43DC45EAC32343EA52534A
:1014B00012BFD20292025B08240545EAC12141EA2B
:1014C0005051D2EBC020994125D407D1B0FA80F613
:1014D00010FA06F164D00020203608E0B1FA81F657
:1014E000B140C6F1200220FA02F21143B0404FEAA7
:1014F000F474B4EB465434F001064FEA74040AD88D
:10150000D6F50016760D04F00044F04061FA06F2BC
:101510005040F1404840C00A40EA415021F00041AB
:1015200028BF5FEA500550F1000044EBD12137E0BD
:1015300045EAC323DB0A45EAC121C90AB6F1200501
:101540000EDD42EA0242120CC5F1200603FA06F64D
:10155000EB4042EA06056D42984161F100010DE061
:1015600062FA06F5F240554063FA06FC82EA0C0284
:10157000F3405A406D42904161EB030111F4801F2A
:1015800005D1641E620502D06D004041494121F43D
:101590008011430875F1004350F1000041EB045104
:1015A00070BC70471CEB410F15D223F0004352EA88
:1015B00043060BD04FEA4C0CBCEB410F04D80C0D8A
:1015C000661E342EB7DDEBE7801A994150EA4106DA
:1015D00008BF0021E4E708BF1CEB430F28BF6FF0F2
:1015E0000001DDE7B0B581EA030C0CF0004C40F2DD
:1015F000FF7515EA11541DBF15EA1357AC42AF42EF
:1016000039E0E41923EA455343F48013C90241F059
:10161000004141EA505EC7021100A7FB0202002808
:101620004FF00000EEFB01204FF00001E3FB07212B
:1016300018BF42F00102401800214941E3FB0E01AE
:10164000A4F580640F0302D252004041494154F195
:1016500001046CDD470872F1004250F1000051EBCB
:101660000451A1F580115CBF41EA0C01B0BD4CEA08
:1016700005510020B0BD05EA1357AC4214BFAF427C
:1016800041E050EA410E1CBF52EA430E02E06146BF
:101690000020B0BD24423C441BD15FEA070EF6D0C7
:1016A000090302BF01460020AEF1140EB1FA81F722
:1016B000AEEB070401FA07FE0C37C7F1200100FA70
:1016C00007F7C8404EEA000E23EA455343F480135F
:1016D000A2E733F00043B3FA83F704BFB2FA82FE05
:1016E00077440B3FE41BB7F1200E2FBF02FA0EF335
:1016F000BB40C7F1200E22FA0EFE38BF43EA0E03AC
:10170000BA40641C82E750EA410E14BF52EA430E0D
:101710006FF000014FF4001717EB430F8ABF194613
:1017200017EB410FB5E74CEA05510020B0BDD4F1ED
:101730000104B4F120070FDAC4F12007520828BFD2
:1017400042F0010210FA07F501FA07F7E1BF2A4358
:10175000E0403843E1400FE0352C98DCC7F120042D
:1017600052EA400220FA07F218BF42F0010231FAB1
:1017700007F0A1400A43002172F1004250F100003D
:1017800051EB0C01B0BD0000F0B540F2FF7581EAED
:10179000030C0CF0004C15EA11541DBF15EA135749
:1017A000AC42AF42E5E0BC41C1F31301C3F3130304
:1017B000801A994143F4801304D2641E40004941C9
:1017C00080185941C90241EA5051B1FBF3F603FBBD
:1017D0001611A2FB0675D7EBC020A94102D2761ED6
:1017E00080185941C90241EA5051B1FBF3FE03FB95
:1017F0001E11A2FB0E75D7EBC020A94103D2AEF19A
:10180000010E80185941890241EA9051760546EA55
:101810008E2EB1FBF3F603FB1611A2FB0675D7EB78
:101820008020A94102D2761E80185941C90241EA9E
:1018300050514EEA060EB1FBF3F603FB1611A2FB64
:101840000675D7EBC020A94102D2761E80185941F7
:10185000C90241EA5051B1FBF3F703FB1711A2FB98
:101860000735D3EBC020A94167F100070CBF004248
:1018700047F0010766F3D5274FEA1E31B80814F583
:10188000806412DDBD0775F1004250EB0E5051EB44
:10189000045111F5801F5CBF41EA0C01F0BD4CF012
:1018A0007F6141F0E0410020F0BDBD076D0840EAD6
:1018B0000E5041F48011D4F10104B4F120060ADA8B
:1018C000C4F120060200E04001FA06F3E1401843AB
:1018D000B24015430EE0342C13DCC6F1200445EA77
:1018E00040056D0820FA06F2154321FA06F0A140E2
:1018F0000D43002175F1004250F1000051EB0C0145
:10190000F0BD00205FEA0C01F0BDCFB992185B4139
:10191000B3FA83F704BFB2FA82F6BF190B3FB7F1EF
:1019200020062FBF02FA06F3BB40C7F1200622FAB9
:1019300006F638BF3343BA401CB1E419641E33E7DE
:101940007F4231F00041B1FA81F404BFB0FA80F671
:10195000A4190B3CB4F120062FBF00FA06F1A140F8
:10196000C4F1200620FA06F638BF3143A0403C1BE4
:101970001AE7AC421ABF05EA1357AF4212E050EA29
:1019800041061CBF52EA4306BFE750EA4107304612
:1019900061461CBF41EA0551F0BD52EA430C08BF45
:1019A000C143F0BD00204FF4001616EB410F98BF65
:1019B00016EB430F08BF16EB410F24BFC14305E0F0
:1019C00016EB430F0CBF61464CEA0551F0BD91FB8D
:1019D000F2F303FB1211C0E90031704770470000B9
:1019E000841A71EB030603D2001BB1411219734133
:1019F0004FF4001C1CEB410F34BF7CEB430443E06D
:101A00000C0DA4EB1356352E50DC45EAC323DB0A3C
:101A100045EAC121C912B6F120050DDD63FA05F6CC
:101A2000EB4086EA0305124218BF45F00105C018D5
:101A300051F100010CD213E062FA06F5F240554074
:101A4000F3415A40B340F3405A408018594107D3FC
:101A500049085FEA30005FEA350528BF45F0010517
:101A600001F58011420875F1004250F1000041EB90
:101A7000045170BC4FF4001C1CEB410F38BF704781
:101A80000020090D090570471CEB410F10D252EAE6
:101A900043060BD0BCEB410F05D80C0DAB43661EC3
:101AA000342EB5DD02E0AB438018594170BC70475D
:101AB00070BC70471CB500F012F9040000F0BEF8CD
:101AC00001A9032000F032FD0DF10101202000F0FA
:101AD0002DFD00A9222000F029FD0DF10201262094
:101AE00000F024FD40F6B83000F04FFE2000C0B2F8
:101AF00001F0DBFB0022002100206EF0ABFA012098
:101B000001F0DAFE002001F0F4FE00F09DFA02F090
:101B10007BF802F0BEF8002002F0F7F825E0200084
:101B2000C0B200F021F99DF80000002803D0200089
:101B3000C0B200F0F2FA00F05BFB00F0A6FB9DF8EB
:101B400000202100C9B2019800F079F90221022099
:101B500001F0AEFE00F0D5F800F0E2FB322000F01C
:101B600014FE9DF8020000F012FC01A9032000F011
:101B7000DDFC0DF10101202000F0D8FC00A922209D
:101B800000F0D4FC02F081F9C0B2012839D041D371
:101B9000032805D003D3052834D002D33AE039E036
:101BA00038E001F0BBFE00F084F8002001F084FE74
:101BB00002F0E6F9012001F07FFE00F090F8040049
:101BC00001A9032000F0B2FC0DF10101202000F07A
:101BD000ADFC00A9222000F0A9FCDFF84408DFF8E2
:101BE0004418016000F071F80022002100206EF01E
:101BF00007FADFF82C08DFF82C18016001F086FEE8
:101C000008E007E09DF80100002803D0019880B2A9
:101C100001F0DDFF9DF8010000283FF480AFE4B241
:101C2000DFF8040810EBC4004268E4B2DFF8F807FC
:101C300050F8341001206EF00DFA80E710B5002442
:101C40000421082002F0E8F90421082002F010FB2A
:101C5000E4B2DFF8D80710EBC4004268E4B2DFF862
:101C6000CC0750F8341000206EF0CAF9E4B2DFF867
:101C7000C00710EBC4004268E4B2DFF8B40750F8C4
:101C8000341000206EF0E6F90021012002F00AFD78
:101C9000DFF8A0170860DFF89C070068002807D06D
:101CA000002300220021DFF88C07006802F032FDDB
:101CB00010BD80B5002301220021DFF878070068FD
:101CC00002F090FD0028F5D001BD80B50023002270
:101CD0000021DFF86007006802F01CFD01BD80B53F
:101CE00000208DF8000000A9002000F01FFC9DF8E6
:101CF0000000082802DB00208DF800009DF800009D
:101D000002BD70B586B002F0F5FE040003F047F99D
:101D1000A4B223000200DFF8201701A803F0B0F9F5
:101D2000002201A901206EF06BF901F06DFF0400A3
:101D3000642501F069FF060002F011FF94FBF5F144
:101D400005FB11410091642196FBF1F380B2020082
:101D5000DFF8E81601A803F093F901AA0021012099
:101D60006EF04EF906B070BD10B586B0040000A943
:101D7000032000F0DBFB00986421B0FBF1F201FBD3
:101D8000120300986421B0FBF1F2E4B2DFF8B00670
:101D900050F8241001A803F073F9002201A90120D2
:101DA0006EF058F901F030FF002815D06421B0FB27
:101DB000F1F201FB12036421B0FBF1F2E4B2DFF8AF
:101DC000840650F8241001A803F05AF901AA002152
:101DD00001206EF03FF921E0DFF86C060068002872
:101DE00010D1DFF868060078401C042190FBF1F266
:101DF00002FB1102DFF854060270DFF84C0642F2D3
:101E00001071016001A9DFF844060078283000F065
:101E10008DFB01AA002101206EF01CF906B010BD57
:101E200080B5DFF82C0603F084FA002805D0DFF82F
:101E3000200680781921484300E0002002BD70B5DB
:101E400082B005000C00160001F0DEFEA842C0F0D2
:101E50008380F6B2002E03D0FFF7E2FFA84272D3D0
:101E6000012100A800F0E8FF002806D002283BD09E
:101E70002AD3042858D047D365E0280001F009FF91
:101E8000F6B2FF2E13D101F0BFFE00280FD0E4B24E
:101E9000DFF8C00510EBC4004268E4B2DFF8B40517
:101EA00050F8341000206EF0D5F800F090F82000C3
:101EB000C0B201F0D6F90022002100206EF0CAF86D
:101EC000002001F022FF3EE0DFF88C25E4B2DFF8CD
:101ED0008C0550F8241000206EF0BCF800F04AF891
:101EE000002001F012FF2EE0DFF87425E4B2DFF8E5
:101EF0006C0550F8241000206EF0ACF800F03AF8B1
:101F0000002001F002FF1EE0DFF85825E4B2DFF800
:101F10004C0550F8241000206EF09CF800F02AF8D0
:101F2000002001F0F2FE0EE0DFF83C25E4B2DFF81D
:101F30002C0550F8241000206EF08CF800F01AF8F0
:101F4000002001F0E2FE0022002100206EF058F88F
:101F5000002001F0CEFC0CE0F6B2FF2E09D101F01A
:101F6000EEFE002805D101F04FFE002801D000F060
:101F70002EF873BD80B50221062001F099FC00F017
:101F800026F8012001F0C1FE10E0FFF792FE0020CC
:101F900001F092FC01F0F4FF012001F08DFCFFF74D
:101FA00094FE0022002100206EF02AF8FFF7A9FE1F
:101FB00001F06BFFC0B2012806D0F7D3032805D08B
:101FC00003D30428E1D0F1E7F0E7EFE7EEE77FB5D0
:101FD00001F01AFE04002500002001F096FE4FF4E7
:101FE000FA7000F0D2FB00A803F0A3F9002828D073
:101FF0001920B4FBF0F4280001F04BFE0F20B4FBD5
:10200000F0F50F20B4FBF0F100FB1144002608E0CE
:102010000F21022003F074F941F2883000F0B5FB83
:10202000761CF6B2EDB2AE42F2D3E4B2002C08D088
:102030002100C9B2022003F063F941F2883000F0B8
:10204000A4FB012004B070BD38B503F0C3F904004F
:10205000FFF745FE0500E4B2002C01D1012032BD9E
:10206000E4B2012C0AD02DD3032C1DD011D3052CA2
:102070001CD01AD3072C1BD019D323E0DFF8EC2394
:10208000EDB2DFF8D80350F8251000206DF0E2FF24
:1020900018E0DFF8CC23EDB2DFF8C00350F82510CC
:1020A00000206DF0D7FF0DE00CE00BE00AE009E046
:1020B000DFF8B423EDB2DFF8A40350F825100020B8
:1020C0006DF0C8FF012001F020FE062001F0F4FBB6
:1020D00001E0FFF716FE01F0D8FEC0B201281AD0C9
:1020E000F7D30328F5D017D30428F2D1FFF7E1FD89
:1020F000002001F0E1FB01F043FF012001F0DCFBD7
:10210000FFF7EDFD0500FFF7E0FD002200210020B4
:102110006DF076FFDDE7DCE7DBE738B5040000258E
:1021200000A9022000F002FA9DF80000C00700D5C7
:1021300064259DF80000800700D5C8259DF80000A3
:10214000400701D54FF4FA759DF80000000701D54E
:102150004FF47A759DF80000C00601D54FF4FA657A
:10216000FFF75EFEA84242D20221062001F0A0FB4A
:10217000012001F0CAFDE4B2BD4810EBC400426882
:10218000E4B2BB4850F8341000206DF063FF01E06A
:10219000FFF7B7FDFFF744FEA8421BD201F075FE22
:1021A000C0B20128F4D00428F2D1FFF782FD00204C
:1021B00001F082FB01F0E4FE012001F07DFBFFF75E
:1021C0008EFD0400FFF781FD0022002100206DF04C
:1021D00017FFDDE7002001F098FD002001F06CFB07
:1021E000012001F069FB0221022001F061FB31BDF9
:1021F00010B5FFF774FD040003F0C3F8002803D006
:1022000002280FD001D319E010BDE4B2994810EBB9
:10221000C4004268E4B2974850F8341000206DF0D2
:1022200019FF0BE0E4B2944810EBC4004268E4B23A
:10223000914850F8341000206DF00CFF05E0FFF7D6
:1022400060FD4FF4FA7000F0A0FA03F09AF800284D
:10225000DAD001F01AFEC0B20128F0D00428EED185
:10226000FFF727FD002001F027FB01F089FE012088
:1022700001F022FBFFF733FD0400FFF726FD0022EB
:10228000002100206DF0BCFED9E710B582B000A996
:10229000012000F04BF99DF80000002800D113BD8B
:1022A000FFF71DFD040003F017FBC0B20328F6D1B1
:1022B000E4B2724810EBC4004268E4B26F4850F8D0
:1022C000341000206DF0C6FE05E0FFF71AFD4FF454
:1022D000FA7000F05AFA03F0FFFAC0B20328DED118
:1022E00001F0D3FDC0B20128EFD00428EDD101F0F8
:1022F0000DFBFFF7DEFC002001F0DEFA01F040FEEE
:10230000012001F0D9FAFFF7EAFC0400FFF7DDFC39
:102310000022002100206DF073FE01F0F7FAD4E7EF
:1023200080B503F0C3F8002803D002280AD001D3F7
:102330000FE00EE0524A534900206DF08BFE00F092
:1023400009F806E0504A514900206DF083FE00F084
:1023500001F801BD10B5012402E00024FFF7D1FC13
:10236000E4B2002C09D001F090FDC0B20128F4D0F5
:102370000428F3D101F004FEF0E7454A4549002066
:102380006DF03EFE40F6B83000F0FFF910BD10B51C
:10239000C0B2002842D02248006800283ED147F24F
:1023A00030543D4A3D4900206DF02AFE3A4A3B49EF
:1023B00000206DF04FFE012002F0E2FC41F270704F
:1023C00002F0B8FD3C2003F0EAFA40F6B83000F025
:1023D000DCF902E0012000F0D8F92000441E0028BA
:1023E0000ED002F0DCFDB0F57A7FF3D2002003F0CE
:1023F000D6FA002002F09EFD002002F0C1FC0DE0A4
:10240000002003F0CCFA002002F094FD002002F03E
:10241000B7FCFFF719FE02480249016010BD000039
:102420003403001040771B0090100010F00D0010D6
:10243000280E00100C640010D8CB0000ECCB00007C
:102440005C160010781600101064001095640010DF
:102450007863001020100010FCCC00003C17001026
:102460000CCD000040CE00001CCD00004CCE000082
:1024700058100010C8100010001100103811001082
:1024800064CE000058CE00007CCE000070CE00006C
:1024900094CE000088CE00002CCD0000A0CE00001D
:1024A00080B503F087FA01BD10B40021002207E0D7
:1024B0002C23694C03FB02439B889B1C5918521C1C
:1024C0008242F5D3080010BC704710B504002C20E0
:1024D000614A00FB04208288604803F045FB2C2001
:1024E0005D4900FB0410828800215C4803F04FFB2B
:1024F0002C21594A01FB04218988584A80B2030AD9
:102500008B542C21544A01FB04218988534A891891
:1025100048702000FFF7C8FF2C214F4A01FB04211F
:1025200089888A1C4D4903F0C4FA10BD70B50400B7
:102530000D002000FFF7B8FF2C21474A01FB0421C2
:1025400089888A1C464903F0D0FA2C20424900FBB6
:10255000041082880021424803F019FB80B22C212C
:102560003D4A01FB042189883C4A891891F84010B2
:102570002C22394B02FB04329288384BD21892F845
:10258000412052EA0121884209D12C20324900FB26
:10259000041082883249280003F0E6FA14E02C2067
:1025A0002D4900FB0410002104E0C9B2C9B20A5C45
:1025B0004A55491C0A00D2B22C23274E03FB046360
:1025C0009B8892B29A42F0D370BD2C20704770B5B0
:1025D000040010001D00049EA4B22C221E4B02FB1E
:1025E000043292880A801022A4B22C211A4B01FBDB
:1025F0000431891D03F0B8FA0322A4B22C20164935
:1026000000FB041010F12601280003F0ADFA3100A0
:10261000A4B22000FFF78AFF70BD38B580B22C232A
:102620000D4C03FB00439B88052B10DB491E03E088
:10263000C9B220238B54491C0B00DBB280B22C247E
:10264000054D04FB0054A4889BB2A342F0D31100B3
:1026500080B2FFF73AFF31BD78910000D8600010DA
:10266000186100102DE9F84F06000F0090469946BA
:102670000C99DDF834A0404680B200F02DFB050037
:102680000A9C002D6DD01FFA88F8286B10EB88008B
:10269000B0F1040B5FEADB0B5FEACB0B1FFA88F8A3
:1026A000CDF80080534622003900280000F0A4FA3B
:1026B0004A463100584603F003FC28600B98002876
:1026C00000D0056003F024FCDFF814070068401C0C
:1026D000DFF80C170860DFF80C07006800280AD143
:1026E000DFF800070560DFF8F8060068012810D160
:1026F00000F09FFA0DE0DFF8F0060068002808D12E
:10270000DFF8E0060068C06A844202D3DFF8D4062E
:102710000560DFF8D8060068E96A884203D2E86AF3
:10272000DFF8C8160860DFF8C8060068401CDFF84C
:10273000C0160860DFF8BC060068E96A884203D268
:10274000E86ADFF8B0160860291DE86A1422DFF88D
:10275000A83602FB003003F027FC012503F0E1FB63
:1027600001E05FF0FF35012D0CD1DFF87C06006839
:10277000002807D0DFF86C060068C06AA04201D2CA
:1027800003F0C1FB2800BDE8F28F10B50400002063
:10279000002C29D000F04FF8DFF8680600682418F4
:1027A000DFF840060068001D03F027FCDFF8340660
:1027B00000684460DFF84C060068844209D2DFF804
:1027C00024060068011DDFF84006006803F0FAFBEC
:1027D00008E0DFF810060068011DDFF83006006829
:1027E00003F0F0FB00F02FF8002801D103F08BFB81
:1027F00010BD00B585B0002003900020029000209D
:1028000001900020009000235022DFF810160FF2F4
:10281000E130FFF727FF01280BD103F01FFCDFF8A1
:10282000C80501210160DFF8DC050021016003F02B
:1028300054FB05B000BDDFF8E0050068401CDFF880
:10284000D8150860704770B5002403F061FBDFF80D
:10285000C8050068401EDFF8C0150860DFF8B8053D
:102860000068002858D1DFF878050068002853D0A8
:10287000002521E016F1180003F0BFFB301D03F026
:10288000BCFBDFF870050068F16A884203D2F06A89
:10289000DFF860150860311DF06A1422DFF8583542
:1028A00002FB003003F080FBF06ADFF8381509689E
:1028B000C96A884200D30125DFF85805006800285E
:1028C00004D0DFF85005C068C66800E00026002E7E
:1028D000D0D1DFF84C050068002809D10EE000F0E7
:1028E0001FF8DFF83C050068401EDFF8341508606B
:1028F000DFF82C0500680028F1D10125012D04D056
:10290000DFF820050068012806D10124DFF814054E
:102910000021016003F0F7FA03F003FB200070BD13
:1029200010B5DFF8F4040068002852D1DFF8D404B1
:102930000068401CDFF8CC140860DFF8C8040068A9
:10294000002812D1DFF8C4040068DFF8C014DFF8F3
:10295000B82412680A60DFF8B0140860DFF8C80411
:102960000068401CDFF8C01408601CE0201D03F064
:1029700044FBA06A002803D014F1180003F03DFBCB
:10298000DFF870040068E16A884203D2E06ADFF889
:1029900064140860211DE06A1422DFF85C3402FB35
:1029A000003003F001FBDFF86404006800680028D1
:1029B00005D0DFF858040068C068C46800E000244F
:1029C000002C0DD0DFF83C04006861688842CDD24D
:1029D00006E0DFF84C040068401CDFF8441408608F
:1029E00010BD80B5DFF830040068002804D0DFF89F
:1029F00034040121016053E0DFF8E8030068006B54
:102A0000DFF8E01309680968884209D3DFF8D403C6
:102A1000006810F13401DFF8CC03006803F072FCA9
:102A20001422DFF80814DFF8BC030068006B03F021
:102A30006BFC002811D0DFF8AC03006810F1340102
:102A4000DFF8A003006803F05DFC06E0DFF8A403F4
:102A50000068401EDFF89C130860DFF898030068E8
:102A60001421DFF8942301FB002000680028EDD03A
:102A7000DFF8800300681421DFF87C2301FB0020CD
:102A8000416849684160416810F10802914202D1F1
:102A90004168496841604068C068DFF848130860D1
:102AA00001BD10B50C00DFF83C130968183103F0C4
:102AB00089FADFF830030068001D03F09EFA14F174
:102AC000010F08D1DFF81C030068011DDFF8400387
:102AD00003F06AFA1CE0DFF82C0300682018DFF826
:102AE000041309684860DFF81C130968884208D29B
:102AF000BC480068011DDFF81003006803F062FAAB
:102B000006E0B8480068011DC048006803F05AFAA2
:102B100010BD10B50168002902D0C068C46800E08B
:102B2000002414F1180003F068FABB48006800287C
:102B300013D1201D03F061FAAE480068E16A8842B3
:102B400002D2E06AAB490860211DE06A1422AA4B58
:102B500002FB003003F028FA04E014F11801AD483C
:102B600003F022FAE06A9F490968C96A884201D3E2
:102B7000012000E0002010BDAB4909680160A149B7
:102B800009684160704738B504000D0003F0C0F9D2
:102B9000286810F1010F01D100241FE0A24800684D
:102BA0002168884206D0974800686168884201D34E
:102BB000012413E0934800686168401A296888423C
:102BC0000BD228688F490968401A61680818286084
:102BD0002000FFF7D1FF002400E0012403F0A1F959
:102BE000200032BD8F4801210160704700000000C5
:102BF00080B500F040F8FCE738B5040015000C2261
:102C000014F1340003F0B2FB002084F83F00052DDE
:102C100000D30425E562A564201D03F0C2F914F178
:102C2000180003F0BEF92461D5F10500A0616462CB
:102C300031BD10B5002406E014206F4900FB0410DC
:102C400003F0A0F9641C052CF6D3794803F09AF937
:102C5000784803F097F96F4803F094F9674803F058
:102C600091F96B4803F08EF9684871490160664834
:102C70007049016010BD10B56148006800282AD075
:102C8000FFF7D9FD5D480068002801D1012400E06C
:102C90000024E4B2FFF7D7FD002C1CD103F038F973
:102CA00056480068002803D05448C068C46800E053
:102CB0000024201D03F0A1F949480068401E48493E
:102CC00008604F480068401E4D49086003F029F92C
:102CD000200000F023F810BD70B504000D004C205A
:102CE00003F07AFB0600002E16D0002D05D1A4B209
:102CF000A00003F071FB0500FFE73563306B00288F
:102D000004D1300003F08FFB002605E0A4B2A2003E
:102D1000A521306B03F08CFB300070BD10B50400B2
:102D2000206B03F080FB200003F07DFB10BD2D48DD
:102D30000068704710B50400E06A2A490968C96A4A
:102D4000884229D227480068C06AD0F10500A061F6
:102D50006069E16A1422284B02FB0131884217D1D5
:102D6000201D03F04AF91F480068C06AE06221484C
:102D70000068E16A884202D2E06A1E490860211DAB
:102D8000E06A14221C4B02FB003003F00DF903E053
:102D900014480068C06AE06210BD10B50400002C41
:102DA0001CD0E06AA16C884218D0201D03F025F9E0
:102DB000A06CE062E06AD0F10500A0610D480068F7
:102DC000E16A884202D2E06A0A490860211DE06A8D
:102DD0001422094B02FB003003F0E6F810BD00009E
:102DE0003464001024640010446400103C6400103B
:102DF00058640010406400105861001050630010C7
:102E000030640010386400102C6400102864001036
:102E1000646300103C63001048640010F0D00000B0
:102E20004C6400105064001054640010B4CC0000D6
:102E3000146300102863001070B586B00C000025E4
:102E4000012000F062FF01A90020FFF76FFB00A93D
:102E50001A20FFF76BFB03A91B20FFF767FB02A9F2
:102E60001C20FFF763FB04A90320FFF75FFB00981A
:102E7000AB2801D355200090039842F235118842C7
:102E800002D341F244600390029842F211718842E9
:102E900002D20298002802D141F26800029001217A
:102EA000022000F005FDDFF84C04006800280CD07B
:102EB000DFF844040068052813D2DFF83C040068FA
:102EC000401CDFF8341408600BE0DFF82C040068C5
:102ED000002806D0DFF820040068401EDFF8181430
:102EE0000860DFF81004DFF8141401600098DFF8C0
:102EF00008140968081800909DF80400DFF8001411
:102F000011EBC00042689DF80400DFF8F41351F89B
:102F1000301000206DF09EF89DF80400DFF8E013FB
:102F200011EBC00042689DF80400DFF8D41351F89B
:102F3000301000206DF064F8012001F021FF4FF403
:102F4000FA70FFF722FC039801F0F4FFDFF8B403F6
:102F5000DFF8B413016000F00FF9002807D100205A
:102F600001F0E8FF002001F00BFF0120E3E00098F2
:102F700080B202F014FD4EF6602604E00120FFF757
:102F800004FCFEF7BEFE01F0B5FD80B20099884258
:102F900002D2761E002EF1D1002E0AD1002001F0BF
:102FA000C9FF002001F0ECFE002002F0F8FC022036
:102FB000C1E04FF47A6001F0BDFF01F0F0FF41F293
:102FC00069018842F9D200F000F900280AD10020F6
:102FD00001F0B0FF002001F0D3FE002002F0DFFC82
:102FE0000320A8E0039801F0A5FF0221032000F0D0
:102FF0005FFC029803F026FA0021002003F0CAFAD1
:1030000003F061FB0028FBD10022002100206DF0BD
:1030100021F80022002100206CF0F2FFBB4840F6AE
:10302000B8310160B748B84901600021012003F0C0
:10303000B1FA07E00121032000F03AFC022104204C
:1030400000F036FCAF480068002838D0AD48016871
:103050009DF8040000F071F800F0A2F801F09FFF65
:10306000B0F57A7F0AD2002001F064FF002001F061
:1030700087FE002002F093FC01205CE0A34800687A
:1030800000280DD1EDB2142D00DA6D1C0098EDB2C0
:10309000281880B202F083FC9C4840F6B8310160E9
:1030A000984800684CF251318842C3D20121042073
:1030B00000F0FEFB0221052000F0FAFBC2E701212F
:1030C000052000F0F5FB002001F034FF002001F0A6
:1030D00057FE002002F063FC9DF8040000F0A1F808
:1030E00003F092FA4FF4FA70FFF74FFB0021022031
:1030F00003F050FA03F0E7FA0028FBD14FF4FA701E
:10310000FFF743FBE4B2012C0CD1012003F040FB9C
:10311000049803F04CFB012003F058FB049803F0E3
:1031200064FB01E003F078FB002000F0C5FB012008
:1031300000F0C2FB002006B070BD10B586B00400E0
:10314000704800684FF47A71B0FBF1F23C20B2FB9A
:10315000F0F100FB11233C20B2FBF0F26C4900A817
:1031600001F08EFF00AAE4B26A4850F82410012052
:103170006CF070FF06B010BD10B54CF2503401F089
:103180000EFFB0F57A7F01D9012008E00120FFF79A
:10319000FCFA2000441E80B20028F0D1002010BDAF
:1031A00010B586B001F0A6FC040001F0F8FEA4B250
:1031B00023000200584900A801F062FF002200A984
:1031C00001206CF01DFF06B010BD10B54FF4FA647D
:1031D000012000F079FA02E00120FFF7D6FA022080
:1031E00000F048FA002803D02000441E0028F3D144
:1031F00043F69824022000F03DFAC0B2002804D023
:10320000002000F061FA01200AE00120FFF7BDFA7A
:103210002000441E0028EDD1002000F055FA0020C7
:1032200010BD10B50400012001F0AAFD43F2C82032
:1032300001F080FEE4B2394810EBC4004268E4B209
:10324000364850F8341000206CF004FF41F6583036
:10325000FFF79BFA002001F06DFE002001F090FDC9
:1032600010BD10B50400012001F08AFD4FF4FA7082
:10327000FFF78BFA41F2707001F05CFEE4B228486F
:1032800010EBC4004268E4B2254850F83410002026
:103290006CF0E0FE47F23050FFF777FA002001F0C3
:1032A00049FE002001F06CFD10BD10B504000120A6
:1032B00001F066FD4FF4FA70FFF767FA42F6E0603E
:1032C00001F038FEE4B2174810EBC4004268E4B2E3
:1032D000144850F8341000206CF0BCFE41F6583011
:1032E000FFF753FA002001F025FE002001F048FD11
:1032F00010BD0000F8630010FC630010C0D4010092
:10330000080F0010F063001080380100F463001013
:10331000DCCC000040160010ECCC0000980E001031
:10332000D00E0010400F001080B502F025FC00F018
:103330002FFB012000F0E9FC002000F0C5F9DFF8C8
:10334000E805006850F07040DFF8DC150860DFF831
:10335000DC05006850F07040DFF8D0150860DFF839
:10336000C805006850F00100DFF8BC150860DFF800
:10337000B805006850F48030DFF8AC150860FFF73E
:103380008FF801F057FB01F00BFC02F0DFFA03F0BD
:1033900051FA01F08FFEDFF89805006850F04050B8
:1033A000DFF88C15086003F08DF803F0A7FA02200F
:1033B00003F0B1FA01BD10B5002401F019FD00F0D1
:1033C000E3FC03F0E1FA03F02DFB02F0C6FA00F093
:1033D00053FBDFF860050068002806D0DFF85405CD
:1033E0000068401EDFF84C150860DFF84C050068E7
:1033F000002806D0DFF840050068401EDFF83815C9
:103400000860DFF838050068002806D0DFF82C05D2
:103410000068401EDFF824150860DFF82405006806
:10342000002806D0DFF818050068401EDFF81015E8
:103430000860DFF810050068002806D0DFF80405F2
:103440000068401EDFF8FC140860DFF8FC04006828
:10345000002806D0DFF8F0040068401EDFF8E8140A
:103460000860DFF8E8040068002806D0DFF8DC0414
:103470000068401EDFF8D4140860DFF8D404006848
:10348000002806D0DFF8C8040068401EDFF8C0142A
:103490000860DFF8C0040068002806D0DFF8B40434
:1034A0000068401EDFF8AC140860DFF8AC04006868
:1034B000002806D0DFF8A0040068401EDFF898144A
:1034C0000860DFF898040068002806D0DFF88C0454
:1034D0000068401EDFF884140860DFF88404006888
:1034E000401CDFF87C140860DFF878040068C0F343
:1034F000C03010F0010090F00100C0B2044364003D
:10350000DFF860040068C0F3400010F0010090F0A4
:103510000100C0B204436400DFF84C040068C0F34B
:10352000406010F0010090F00100C0B20443DFF8E9
:103530003C040078DFF8381421F81040DFF82C0440
:103540000078401C102190FBF1F202FB1102DFF821
:103550001C04027010BD10B582B00024DFF81414F2
:103560001F20FEF7E3FFDFF80C0400683D2803D3BB
:10357000DFF800043C21016000A92120FEF7D6FFFE
:1035800023E0DFF8A803006850F48030DFF89C13D4
:103590000860FA20FFF7F9F800F0F5F8DFF8A40367
:1035A0000068002811D1DFF8CC030068002803D0A0
:1035B0000021032002F0EEFFDFF8B80300684EF6AA
:1035C00060214843DFF87C13086094F0FF049DF805
:1035D0000000002834D0E4B2002C18D0DFF89803A3
:1035E000006850F48030DFF890130860DFF88C0337
:1035F000006850F08050DFF884130860DFF8800323
:10360000006850F00050DFF878130860C1E7DFF879
:103610001C03006850F48030DFF810130860DFF8F6
:103620006003006850F08050DFF854130860DFF842
:103630004C03006850F00050DFF840130860A8E722
:10364000DFF83C03006850F08050DFF83413086066
:10365000DFF82C03006850F00050DFF824130860F6
:10366000E4B2002C8DD0C448006850F48030C249C8
:1036700008608EE710B40021002209E0D2B2BC4BF2
:1036800033F8123001248440234200D0491C521CDC
:10369000D2B2102AF2DBC9B2092901DB012000E015
:1036A000002010BC7047C0B2002806D0B2480068A5
:1036B00050F00100B049086005E09C48006850F0F7
:1036C00001009A490860704780B5C0B2002803D055
:1036D000022836D019D34FE09448006850F080504B
:1036E000924908609148006850F000508F49086086
:1036F0008E48006850F080408C4908608B48006814
:1037000050F000408949086036E08848006850F071
:103710008040864908608548006850F00050834921
:1037200008603220FFF731F89348006850F080506D
:10373000914908609048006850F000408E49086048
:103740001AE07A48006850F080507849086077485D
:10375000006850F00040754908603220FFF715F806
:103760008548006850F080408349086082480068BE
:1037700050F000508049086001BD6E4908607047F4
:103780006C480068704780B57E480078002800F0DB
:103790008E807D48007890F0FF007B4908707B4860
:1037A0008078002804D10021022003F088F80DE081
:1037B00076488078012804D10121022003F07FF8A7
:1037C00004E071480178022003F079F86F48C0786E
:1037D000002804D10021032003F071F80DE06B48AC
:1037E000C078012804D10121032003F068F804E027
:1037F00065480178032003F062F8644800790028E6
:1038000004D10021042003F05AF80DE05F4800794C
:10381000012804D10121042003F051F804E05A48A2
:103820000178042003F04BF858484079002804D16F
:103830000021052003F043F80DE0544840790128A9
:1038400004D10121052003F03AF804E04E48017844
:10385000052003F034F84D488079002804D1002178
:10386000062003F02CF80DE048488079012804D1A7
:103870000121062003F023F804E0434801780620E4
:1038800003F01DF840480078002808D001210120ED
:1038900003F015F80021002003F011F807E00021E3
:1038A000012003F00CF80121002003F008F801BD0D
:1038B000C0B2364A8154704738B50400002505E08F
:1038C00000212800C0B202F0FAFF6D1CEDB2082DF5
:1038D000F6DBE4B2002C09D1002004E0C0B22B4991
:1038E00000224254401CC0B20828F7DB254804706F
:1038F00031BD002807D11F4800684EF660214843BB
:103900001049086001E00F490860704719480068D5
:103910004EF6602148430B490860704709485FF044
:10392000FF3101607047000020C009203CC0092021
:1039300080C00920B0630010F0630010F463001031
:10394000BC63001028030010B86300100864001066
:10395000F86300103403001020640010106400109D
:103960005C64001034C0092014C009208164001078
:10397000D4620010B463001038C0092098C0092038
:103980009CC009204E030010826400108863001060
:1039900080B5DFF8B003006850F08070DFF8A41342
:1039A0000860DFF8A003006850F00070DFF894139F
:1039B00008600120DFF89013096860F31961DFF8EF
:1039C00088030160DFF88403006850F00400DFF82A
:1039D0007C130860DFF87803006850F00400DFF81B
:1039E00070130860DFF86C03006850F48010DFF893
:1039F000641308600120DFF85013096860F39B61CD
:103A0000DFF844030160DFF84403006850F0080069
:103A1000DFF838130860DFF83803006850F008005A
:103A2000DFF82C130860DFF82C03006850F4001056
:103A3000DFF820130860DFF82003006850F0807082
:103A4000DFF814130860DFF81003006850F000700E
:103A5000C14908600021012000F024FEBF49086030
:103A6000BE480068002806D0002300220021BB4881
:103A7000006800F04FFE01BDB9480088002804D05E
:103A8000B7480088401EB6490880B648008800281C
:103A900004D0B4480088401EB2490880704710B571
:103AA00003F062F840F6B830FEF76FFE03F074F8EA
:103AB00001F0D7FE0400002C09D0642000FB04F0C4
:103AC00080B200F084F8200080B201F0E1FE0A200C
:103AD000FEF75BFEEAE7A2480088002807D1A2486B
:103AE00000881930A04908809D48322101809F48F4
:103AF000006850F004009D4908609D48006850F43B
:103B000080109B4908607047974800887047964925
:103B1000098880B2884205D393490988081A9249D6
:103B2000088002E09048002101807047C0B2002860
:103B300006D08948006850F080708749086005E029
:103B40008C48006850F080708A49086070478A4845
:103B5000006800280BD183480088002807D18748D7
:103B600000886430854908807E48322101807F4882
:103B7000006850F008007D4908607D48006850F4F6
:103B800000107B4908607047C0B2002806D0724818
:103B9000006850F000707049086005E075480068E2
:103BA00050F000707349086070477448008870478F
:103BB0007249098880B2814205D270490988081A81
:103BC0006E49088002E06D4800210180704710B501
:103BD00004000023012200216048006800F002FE7A
:103BE0000028F6D066480068A4B22018644908602E
:103BF00064484EF6602101600023002200215748EE
:103C0000006800F087FD10BD30B583B000230122AD
:103C100000215248006800F0E5FD0028F6D0574822
:103C20000088002824D05548058801A90E20FEF7F9
:103C30007DFC00A90F20FEF779FC0198281801905F
:103C400000982818009001A90E20FEF73EFC00A95C
:103C50000F20FEF73AFC49480088041948480068DC
:103C600028184749086045480088401B4349088098
:103C7000434804683C48008804193B4800210180FF
:103C80000023002200213548006800F043FD200099
:103C90003EBD10B504000023012200212F4800681A
:103CA00000F0A0FD0028F6D035480068A04205D3FA
:103CB00033480068001B3249086002E030480021A8
:103CC00001602F480068002802D52D4800210160BE
:103CD0000023002200212148006800F01BFD10BDD8
:103CE00010B504000023012200211C48006800F0E8
:103CF00079FD0028F6D0224804600023002200212C
:103D00001648006800F006FD10BD10B504001A4802
:103D1000E4B204602000C0B2FFF708FF2000C0B288
:103D2000FFF732FFE4B2200002F066FFE4B22000A9
:103D300003F0F4F92000C0B201F0E0FD10BD11481D
:103D40000068704720C0092010C0024048C10F40E1
:103D50004CC10F4000E100E038C00920C4630010EE
:103D600064640010686400106264001040C10F4079
:103D700080E200E03CC009202C03001066640010C3
:103D8000C0630010BC63001075480068002804D0B0
:103D900073480068401E7249086072480088002815
:103DA00004D070480088401E6E4908806E48008824
:103DB000002805D06C480088401E6B49088063E0ED
:103DC0006A4800786A490022425468480078684985
:103DD000405C68490968C1F3002111F0010191F0CC
:103DE0000101C9B2084361490978614A88546148B0
:103DF0000068800501D5002000E002205B490978B9
:103E00005B4A895C084359490978594A885459489A
:103E10000068400501D5002000E0042053490978DE
:103E2000534A895C084351490978514A885451489A
:103E30000068400401D5002000E008204B490978C3
:103E40004B4A895C084349490978494A88544A4899
:103E50000068800101D5002000E010204349097866
:103E6000434A895C084341490978414A88543F489C
:103E70000078401C082190FBF1F202FB11023B4844
:103E80000270394806210180704710B400210020DB
:103E900008E0C0B2364A825C12F00902092A00D159
:103EA000491C401CC0B20828F3DBC9B2052901DB5C
:103EB00008204FE0002000E0401CC0B2052845DA91
:103EC0000021002208E0D2B2294BD35C01248440B7
:103ED000234200D0491C521CD2B2082AF3DBC9B2DB
:103EE0000529E9DB1F49098800291BD123490978E5
:103EF00000290DD0214900220A701A494FF4FA62B4
:103F00000A8017494EF660220A60401CC0B221E0C8
:103F1000144932220A8012494EF660220A60401C7F
:103F2000C0B217E01549097800290DD013490022C5
:103F30000A700C494FF4FA620A8009494EF6602271
:103F40000A60401CC0B205E0002003E00B480121DC
:103F50000170002010BC70470148006870470000E5
:103F60000464001046030010480300109164001020
:103F70009863001034C0092074C0092092640010B6
:103F800010B5FDF7ACFE1F4B0A22C0B228211E4C13
:103F900001FB0041C0B21D4C54F8200003F0B8F9F9
:103FA00010BDE0B501A80021002206C00838FDF7C9
:103FB00096FE8DF800009DF80000082802DB002026
:103FC0008DF800009DF8000001A9FF22425407234C
:103FD00001AA0F490F4803F00DFA00208DF80000E8
:103FE000002007E0C0B201A9415C002901D08DF892
:103FF0000000401CC0B20728F4DB00A90020FEF737
:1040000064FA07BDA4C90000D4060010881200108D
:10401000CC080010C4CE000070B504000D008D481F
:10402000006850F010008B4908608A48006850F022
:104030000200884908608848006850F020008649DE
:1040400008608548006850F0100083490860824885
:10405000006850F00070804908607F48006850F0A8
:1040600000707D4908607B48006850F40030794951
:1040700008604FF4FA70FEF788FB002606E0032084
:1040800000F032F86420FEF780FB761CF6B2032EB7
:10409000F5DB022000F028F81420FEF776FB54F040
:1040A0002001C9B2002000F074F81420FEF76DFB67
:1040B00055F00801C9B2002000F06BF81420FEF79B
:1040C00064FB55F00800654908701021002000F0DD
:1040D00060F80A20FEF759FB0621002000F059F88D
:1040E0000A20FEF752FB70BD5D49096851F40031AA
:1040F0005B4A116000BF00BF00BF00BF00BF00BF30
:10410000C10706D55649096851F01001544A11609B
:1041100005E05449096851F01001524A11608107C5
:1041200006D54F49096851F002014D4A116005E07A
:104130004C49096851F002014A4A1160410706D50D
:104140004949096851F02001474A116005E0474993
:10415000096851F02001454A1160000706D5424820
:10416000006850F010004049086005E03F480068D2
:1041700050F010003D49086000BF00BF00BF00BF05
:1041800000BF00BF3748006850F400303549086070
:10419000704710B50C00C0B2002806D03248006845
:1041A00050F000703049086005E03048006850F079
:1041B00000702E490860E4B22009FFF795FF200047
:1041C000C0B2FFF791FF0220FEF7DFFA10BD80B505
:1041D000C0B2102809DAC9B2002906D1B0F18001B5
:1041E000C9B20020FFF7D5FF08E0C9B2012905D107
:1041F000B0F14001C9B20020FFF7CBFF0420FEF769
:10420000C4FA01BD80B5C0B201000A290CD00C2946
:1042100002D00D2908D00CE001210020FFF7B9FFE2
:104220000C20FEF7B2FA09E002210120FFF7B1FFEE
:1042300004E00100C9B20120FFF7ABFF01BD10B5DA
:10424000040003E02078FFF7DDFF641C20780028DD
:10425000F8D110BD20C0092000C0092093640010CF
:1042600038C009203CC0092018C009201CC0092002
:1042700070B504000D00DFF81804006850F4807079
:10428000DFF80C140860DFF80804006850F08000C4
:10429000DFF8FC130860DFF8F803006850F0400016
:1042A000DFF8EC130860DFF8E803006850F40070F2
:1042B000DFF8DC130860DFF8D803006850F0200056
:1042C000DFF8CC130860DFF8C803006850F0200066
:1042D000DFF8BC130860DFF8B803006850F0100086
:1042E000DFF8AC1308604FF4FA70FEF74EFA0026C0
:1042F00006E0032000F033F86420FEF746FA761C4F
:10430000F6B2032EF5DB022000F029F81420FEF7A8
:104310003CFA54F02001C9B2002000F01CF914202E
:10432000FEF733FA55F00801C9B2002000F013F986
:104330001420FEF72AFA55F00800DFF85813087029
:104340001021002000F007F90A20FEF71EFA0621CE
:10435000002000F000F90A20FEF717FA70BD00BF38
:1043600000BF00BF00BF00BF00BF00BF00BF00BF55
:1043700000BF00BF00BF00BF00BF00BF00BF00BF45
:1043800000BF00BF00BF00BF00BF00BF00BF00BF35
:1043900000BF00BF00BF00BF00BF00BF00BF00BF25
:1043A00000BF00BF00BF00BF00BF00BF00BF00BF15
:1043B00000BF00BF00BFC10708D5DFF8DC120968E5
:1043C00051F48071DFF8D022116006E0DFF8CC12E2
:1043D000096851F48071B14A1160810706D5AE4970
:1043E000096851F08001AC4A116005E0AB490968E9
:1043F00051F08001A94A1160410706D5A649096814
:1044000051F04001A44A116005E0A449096851F047
:104410004001A24A1160000706D59F48006850F489
:1044200000709D49086005E09C48006850F40070E9
:104430009A49086000BF00BF00BF00BF00BF00BFB7
:1044400000BF00BF00BF00BF00BF00BF00BF00BF74
:1044500000BF00BF00BF00BF00BF00BF00BF00BF64
:1044600000BF00BF00BF00BF00BF00BF00BF00BF54
:1044700000BF00BF00BF00BF00BF00BF00BF00BF44
:1044800000BF00BF00BF00BF00BF00BF8248006880
:1044900050F010008049086000BF00BF00BF00BF9F
:1044A00000BF00BF00BF00BF00BF00BF00BF00BF14
:1044B00000BF00BF00BF00BF00BF00BF00BF00BF04
:1044C00000BF00BF00BF00BF00BF00BF00BF00BFF4
:1044D00000BF00BF00BF00BF00BF00BF00BF00BFE4
:1044E00000BF00BF00BF00BF00BF00BF00BF00BFD4
:1044F0006A48006850F010006849086000BF00BFBB
:1045000000BF00BF00BF00BF00BF00BF00BF00BFB3
:1045100000BF00BF00BF00BF00BF00BF00BF00BFA3
:1045200000BF00BF00BF00BF00BF00BF00BF00BF93
:1045300000BF00BF00BF00BF00BF00BF00BF00BF83
:1045400000BF00BF00BF00BF00BF00BF00BF00BF73
:1045500000BF00BF704710B50C00C0B2002806D0E5
:104560004D48006850F020004B49086005E04B487A
:10457000006850F0200049490860E4B22009FFF7C4
:10458000EEFE00BF00BF00BF00BF00BF00BF00BF06
:1045900000BF00BF00BF00BF00BF00BF00BF00BF23
:1045A00000BF00BF00BF00BF00BF00BF00BF00BF13
:1045B00000BF00BF00BF00BF00BF00BF00BF00BF03
:1045C00000BF00BF00BF00BF00BF00BF00BF00BFF3
:1045D00000BF00BF00BF00BF00BF2000C0B2FFF798
:1045E000BEFE0220FEF7D1F810BD80B5C0B2102883
:1045F00009DAC9B2002906D1B0F18001C9B20020A0
:10460000FFF7A9FF08E0C9B2012905D1B0F14001C7
:10461000C9B20020FFF79FFF0420FEF7B6F801BDE6
:1046200080B5C0B201000A290CD00C2902D00D2996
:1046300008D00CE001210020FFF78DFF0C20FEF7D1
:10464000A4F809E002210120FFF785FF04E0010042
:10465000C9B20120FFF77FFF01BD10B5040010486B
:10466000006800280FD10E4847F230510160042144
:104670000820FFF7FDFD0C20FFF7D2FF03E02078B4
:10468000FFF7CEFF641C20780028F8D110BD000091
:1046900040C009209464001058C009205CC0092063
:1046A0000864001070B504000D00002C30D04C20C0
:1046B00001F092FE0600002E2AD005FB04F0401CFB
:1046C00001F08AFE3060306800281ED0306805FB9B
:1046D000040070600020B0633068B060601E316814
:1046E00005FB0010F060F46335645FF0FF30706428
:1046F0005FF0FF30B06416F1100001F043FC16F1DA
:10470000240001F03FFC300003E0300001F08BFE9C
:10471000002070BDF7B504000D001E00002704E066
:10472000200000F032F9FEF78EF801F0F1FBA06BEB
:10473000E16B884213D232002900200000F0DBF840
:10474000606A002807D014F12400FEF7E2F901287E
:1047500001D101F0D8FB01F0E4FB012041E0029817
:10476000002803D101F0DDFB00203AE0002F03D147
:1047700000A8FEF701FA012701F0D3FBFEF75BF872
:1047800001F0C6FB606C10F1010F01D100206064E4
:10479000A06C10F1010F01D10020A06401F0C1FB59
:1047A00002A900A8FEF7EFF9002813D1200000F0BD
:1047B00030F90028B4D0029914F11000FEF771F915
:1047C000200000F0E2F8FEF73EF80028ADD101F03D
:1047D0009AFBAAE7200000F0D8F8FEF734F80100B1
:1047E0000020FEBDF7B504000D001E00002704E008
:1047F000200000F0CAF8FEF726F801F089FBA06B54
:1048000000282BD0E7682900200000F0A9F8002E2E
:1048100014D1A06B401EA0632068002802D1FEF7CF
:1048200086FA60602069002814D014F11000FEF7A9
:1048300070F901280ED101F066FB0BE0E760606AB9
:10484000002807D014F12400FEF763F9002801D0F6
:1048500001F059FB01F065FB01204BE002980028B4
:1048600003D101F05EFB002044E0002F03D100A83B
:10487000FEF782F9012701F054FBFDF7DCFF01F0A0
:1048800047FB606C10F1010F01D100206064A06C47
:1048900010F1010F01D10020A06401F042FB02A938
:1048A00000A8FEF770F900281DD1200000F0A2F842
:1048B00000289DD02068002806D101F029FB6068FF
:1048C000FEF738FA01F02DFB029914F12400FEF7EF
:1048D000E8F8200000F059F8FDF7B5FF00288CD16A
:1048E00001F011FB89E7200000F04FF8FDF7ABFF66
:1048F00001000020FEBD10B50400206C002808D186
:104900002068002828D16068FEF747FA0020606020
:1049100022E0002A0ED1226CA06801F025F9206C5B
:10492000A1684018A060A0686168884214D320681C
:10493000A06011E0226CE06801F016F9206C4042A2
:10494000E1684018E060E0682168884204D2206C89
:10495000404261684018E060A06B401CA06310BD3D
:1049600080B503000800196800290DD0196CDA68B9
:104970008918D960D9685A68914201D31968D960F9
:104980001A6CD96801F0F0F801BD10B5040001F00F
:10499000BFFA0AE014F12400FEF7BBF8002801D0AA
:1049A000FEF720F9A06C401EA064A06C012802DB79
:1049B000606A0028EED15FF0FF30A06401F0B1FA28
:1049C00001F0A6FA0AE014F11000FEF7A2F80028A0
:1049D00001D0FEF707F9606C401E6064606C01282E
:1049E00002DB20690028EED15FF0FF30606401F047
:1049F00098FA10BD10B5040001F08AFAA06B0028E7
:104A000001D1012400E00024E4B201F08AFA200080
:104A100010BD10B5040001F07BFAA06BE16B884279
:104A200001D1012400E00024E4B201F07AFA200070
:104A300010BD00005148006850F480504F49086094
:104A400001204F49096860F319614D480160012058
:104A50004C49096860F38F314A4801600120494997
:104A6000096860F311414748016047480068000A3F
:104A70000002454908600A204349096860F30F2194
:104A8000414801604048006830F480303E49086089
:104A90003D48006850F400103B49086001203A4945
:104AA000096860F31A6138480160704700200021EE
:104AB00005E0C9B2354A32F811201018491CC9B2B4
:104AC0001029F6DB80B20009704780B5FFF7EEFFD2
:104AD00040F2263148432E49091A40F2F310B1FB47
:104AE000F0F12B4840F2E63202FB1100B0FBF1F08E
:104AF00080B202BD80B5FFF7E8FF80B242F21171CB
:104B0000884201DB192029E0002100E0491C89B21C
:104B1000B32921DA89B21F4A32F8112080B28242C9
:104B200007D389B21B4A12EB4102528880B28242FB
:104B30000ED389B2184A32F8112080B28242E5D3EE
:104B400089B2144A12EB4102528880B28242DDD20D
:104B500011F11C0080B201E04FF4FA7002BD002098
:104B6000002105E089B20D4A32F811201018491CC5
:104B700089B21029F6DB000980B27047C4C00F402B
:104B8000A8C10F4004C002400040034094620010DE
:104B9000A05A3200E4C000007CBF0000B4620010E4
:104BA000DFF82804006850F40020DFF820140860C3
:104BB000DFF81C04006850F00C00DFF814140860E3
:104BC000DFF81004006850F40020DFF808140860D3
:104BD0000120DFF80414096860F39751DFF8F80347
:104BE0000160DFF8F803006850F00200DFF8EC1312
:104BF0000860DFF8EC03006850F00200DFF8E01313
:104C00000860DFF8E003006850F40020DFF8D413F8
:104C10000860DFF8D403006850F00400DFF8C81320
:104C20000860DFF8C803006830F47F00DFF8BC13C9
:104C30000860DFF8B003006850F00400DFF8A41348
:104C40000860DFF8AC03006850F00100DFF8A01343
:104C50000860DFF89C03006850F00200DFF8901352
:104C60000860DFF88C03006830F00200DFF8801382
:104C70000860DFF88003006880088000DFF87413A4
:104C80000860DFF874034FF496710160DFF86C037D
:104C9000006850F03000DFF864130860DFF860034C
:104CA000006850F00100DFF858130860DFF8500387
:104CB000006830F00200DFF848130860DFF84003B6
:104CC000006850F00400DFF838130860DFF81803BC
:104CD000006850F48000DFF8101308600120DFF84E
:104CE0002413096860F30D31DFF818030160DFF861
:104CF000FC0200680002000ABC490860B94800686C
:104D000050F00800B7490860DFF8FC02006850F076
:104D10000100BD490860BC48006850F00200BA4973
:104D20000860B948006830F00200B7490860B74829
:104D3000006880088000B5490860B5484FF4967156
:104D40000160B448006840084000B2490860B148BA
:104D5000006830F00200AF490860AF4800684008C2
:104D60004000AD490860AC48006830F03000AA4906
:104D70000860AA48006810F57A70A9490860704771
:104D8000C0B2002806D0A748006850F40020A5490A
:104D9000086005E08F48006850F400208D490860E5
:104DA000704780B5A0480068002810D19F4800686F
:104DB00050F008009D4908609B480621016002F000
:104DC00083FB9B480068401C9949086003E09648B3
:104DD0009549096801609748006850F002009549BC
:104DE00008609548006850F400209349086001BDB0
:104DF00092480088401E9149088080B200280AD15C
:104E00008F488B49096801608948002101608B48FF
:104E10004FF4FA7101808B480068002813D089484C
:104E2000006801280AD1002005E0C0B286490022AE
:104E300041F82020401CC0B20228F6DB81480068FF
:104E4000401E8049086070477D48006880B2704706
:104E50007E48006801007E4A1268824203D27C4A82
:104E60001268801A05E05FF0FF32794B1B68D21A96
:104E70001018774A11607749096851F01001754A96
:104E800011606D49096851F004016B4A1160724963
:104E900008606C484FF47A710160704800686A4994
:104EA0006D4A126841F820206C480068401C10F0E0
:104EB00001006A490860704769480068C00711D559
:104EC0006848006850F00800664908606448006857
:104ED00050F00100624908605748006850F008002F
:104EE000554908607047002904D05F4800210160DF
:104EF000002018E05C49096841185B4A1160010014
:104F0000002902D55FF0FF325143584A914205DA39
:104F10005549096840185449086002E05248002188
:104F2000016051480068704751490968401A50496A
:104F30000860704710B50400002C03D14D480021D3
:104F400001700AE06420FDF720FC4B480460022059
:104F5000FDF71BFC47480121017010BD41F23411DF
:104F60004843C117C00B40EA4140C91340F6C31281
:104F70000023101A73EB0101002904DC01DB9628E1
:104F800001D29620002140F6C5120023994205DB8C
:104F900001DC904202D340F6C4100021704700208B
:104FA0002D490968002901D100200EE0002105E00B
:104FB000C9B2254A52F821201018491CC9B2022949
:104FC000F6DB40082D49B1FBF0F0704720C0092006
:104FD00040C009203CC0092010C0024048C10F4019
:104FE0004CC10F4000E100E0C4C00F4000E400E00D
:104FF00004800040708000400C8000400CC00240E3
:1050000028800040ACC10F400400094070000940F6
:105010000C000940140009403C0009400800094008
:105020001800094038C00920B86300105CC009208E
:10503000CC63001040C10F4080E200E0400300104C
:10504000D0630010D8630010906300102C800040E3
:10505000E063001000800040D4630010E46300109F
:105060000000094058C00920E8630010A086010034
:10507000EC63001084640010DC630010D8983001E9
:105080000CB41CB5044604A801900A46009401AB78
:1050900000A9074878441830FBF732F9009900223C
:1050A0000A7000285CBF0098001B16BC5DF80CFB62
:1050B0007FBFFFFF80B502F0CBFA01BD10B4002224
:1050C000002303E0DBB21C5CA2185B1CDBB2C9B29C
:1050D0008B42F7D31000C0B210BC70472DE9F047E7
:1050E0008046894692461C00089D099E32275FFA39
:1050F0008AFA52464946814800F036FD5146C9B207
:105100004846FFF7DBFF5FFA8AFA7C490AF801009C
:105110005FFA8AFA1AF1010292B278494046C0B2A7
:1051200002F002FB02F039FB8046012002F04EFB48
:105130005FFA88F8B8F1000F04D13800471E80B23A
:105140000028EFD15FFA88F8B8F1000F45D002F0DF
:1051500021FB80465FFA88F8B8F1250F01DB242196
:1051600000E04146C9B2654802F007FBB8F1010111
:10517000C9B26248FFF7A2FF07005FFA88F8B8F1EA
:10518000250F01DB242202E05FFA88F842465B49E2
:10519000280000F0E9FC5FFA88F8B8F1250F01DB80
:1051A000242001E0B8F101003070E4B2002C01D0FD
:1051B00000F099F85FFA88F8B8F1000F09D15FFAAA
:1051C00088F84E4818EB000010F8010CFFB2B84206
:1051D00001D1002002E0012000E00220BDE8F087BC
:1051E0002DE9F0478046894692461C00089D099E9D
:1051F0004FF4FA675FFA8AFA524649463F4800F090
:10520000B3FC5146C9B24846FFF758FF5FFA8AFA25
:105210003A490AF801005FFA8AFA1AF1010292B2D9
:1052200036494046C0B202F07FFA02F0B6FA804634
:10523000012002F0CBFA5FFA88F8B8F1000F04D130
:105240003800471E80B20028EFD15FFA88F8B8F125
:10525000000F45D002F09EFA80465FFA88F8B8F158
:10526000250F01DB242100E04146C9B2234802F0AA
:1052700084FAB8F10101C9B22048FFF71FFF070007
:105280005FFA88F8B8F1250F01DB242202E05FFA0B
:1052900088F842461949280000F066FC5FFA88F851
:1052A000B8F1250F01DB242001E0B8F101003070D6
:1052B000E4B2002C01D000F016F85FFA88F8B8F1DB
:1052C000010F09D05FFA88F80C4818EB000010F8BD
:1052D000010CFFB2B84201D1002002E0012000E041
:1052E0000220BDE8F08780B504480021017001224A
:1052F0000249002002F018FA01BD0000706200109F
:1053000038B504000D0001F060FC40F6B830FDF740
:105310003CFA2100C9B22800C0B202F0DBFA040056
:1053200001F05EFCE4B2002C01D1012000E000207D
:1053300032BD70B586B004000A2501F046FC01A913
:1053400000A802F07EFA0600F6B2002E04D06D1E10
:105350002800C0B20028F2D101F042FCF6B2002EC3
:105360000CD1002005E0C0B2C0B201A9415C0155DA
:10537000401CC0B21028F6DB012000E0002006B07F
:1053800070BD80B500A90420FDF7D0F80DF1010132
:105390000520FDF7CBF801F018FC9DF8000000286F
:1053A00007D001F094FE002803D101F019FC012080
:1053B0000EE09DF80100002807D001F097FF0028BB
:1053C00003D101F00DFC022002E001F009FC0020F5
:1053D00002BD000038B5FCF782FC0400E4B232489C
:1053E00010EBC4004268E4B22F4850F8341000209B
:1053F0006AF006FEE4B22C4810EBC4004268E4B246
:10540000294850F8341000206AF024FE0120FFF7EC
:10541000B7FC4FF47A70FDF7B8F941F28830FFF726
:1054200089FD47F2305402E00120FDF7AEF9FFF7A5
:10543000B6FDB0F57A7F02D2641E002CF4D1002CA8
:1054400007D10020FFF79CFC0020FFF773FD01202F
:1054500028E0FFF74FFB05004EF66024681D80B280
:1054600000F09DFA02E00120FDF78FF9FFF742FB03
:10547000E91C884202D2641E002CF4D10020FFF700
:105480007FFC0020FFF756FD002000F088FA002C7A
:1054900001D1012006E001F00AF8002801D107201F
:1054A00000E0002032BD0000E80F001080B500F0E1
:1054B000FEFF002801D1012009E0FFF71BFB0028B7
:1054C00002D0B0F5FA7F01D3022000E0002002BD37
:1054D00080B540F6B830FDF758F900F026F8DFF84F
:1054E00034040078002804D0DFF82804007802286B
:1054F00009D1DFF82404DFF81C1409780170DFF803
:10550000140406210170DFF810040078DFF8081495
:105510000978DFF8082452F821108847DFF8F813DB
:1055200008703220FDF731F9D9E780B5002101205C
:10553000FFF7B8F8DFF8E8130860DFF8E403006865
:10554000002807D0002300220021DFF8D4030068E0
:10555000FFF7E0F801210320FFF7A4F8DFF8C413F8
:105560000860FCF7BCFBDFF8C013087001BD10B584
:1055700086B000208DF8000000A90220FCF7D6FFBD
:10558000032401AA0DF10101282000F002FCC0B2A1
:10559000002804D121004C1E89B20029F1D1C0B2EB
:1055A000002801D1002026E003249DF8001089B2D4
:1055B000282000F039FCC0B2002804D121004C1E84
:1055C00089B20029F1D1C0B2002801D1002012E037
:1055D0000324FF21282000F045FCC0B2002804D19C
:1055E00021004C1E89B20029F3D1C0B2002801D19C
:1055F000002000E0FF2006B010BD80B5FFF7B7FF28
:10560000002801D0042000E0032002BDC0B2704792
:1056100010B584B0040000AAC449282000F0B9FBEA
:1056200000280DD0C2480A210170C0480078C14945
:10563000098880B2884201D005240CE004240AE0E5
:10564000BB480078002805D0B9480078401EB8490A
:10565000087000E003242000C0B204B010BD3EB5C5
:10566000052400AAB149282000F093FBC0B200280D
:1056700004D1641E2000C0B20028F2D1E4B2002C94
:1056800001D1032031E0A9480078AA49098880B2F5
:10569000884229D0A7480088A449097889B288425D
:1056A00005D2A2480078A3490988441A06E0A14817
:1056B0000088D0F1FF009D4909780C18002506E00C
:1056C000EDB200A830F8150000F010F86D1C2800AD
:1056D000C0B280B2A4B2A04202D2EDB2052DEFDB7F
:1056E000944892490978018004203EBD70B50400B9
:1056F000A4B2200AC0B200281DD0401E1CD0401EFB
:10570000012859D9801E00F08080401E00F09F8043
:10571000401E012840F29C80801E022875D9C01EC0
:10572000042840F29580401F01286ED9801E03286E
:1057300040F28E808CE08BE00A260025282000F0C5
:1057400059FBC0B2002804D131004E1EC9B2002955
:10575000F4D1C0B200282AD00023012200217048D1
:105760000068FFF73FF80028F6D073480088A4B21D
:10577000E1B26D4A12780E23704E03FB026232F8DA
:10578000111008186C490880A4B2E0B26649097883
:105790000E226A4B02FB013131F810006849088083
:1057A0000023002200215E480068FEF7B3FF6D1C55
:1057B000C820FCF7EAFF4BE062480078012823D1BB
:1057C00000230122002156480068FFF70BF800284B
:1057D000F6D0594800885A490988884207D3564864
:1057E000008857490988401A5349088002E0524806
:1057F0000021018000230022002149480068FEF7B3
:1058000089FF4F480021018022E04E481521017098
:1058100000230122002142480068FEF7E3FF002830
:10582000F6D045480088002806D0434800884449FF
:105830000988401A40490880002300220021384886
:105840000068FEF767FF3E480021018000E0FFE7A7
:10585000A4B2200A3B4908703B483A4909780170D4
:1058600070BD10B500240023012200212C480068DF
:10587000FEF7B8FF0028F6D02F4804880023002246
:10588000002127480068FEF745FF200080B210BDC8
:1058900010B5040000230122002121480068FEF712
:1058A000A1FF0028F6D024480088A4B2844205D382
:1058B00021480088001B2049088002E01E48002182
:1058C000018000230022002115480068FEF722FF16
:1058D00010BD1D48007870470F480078704710B51C
:1058E00003240021282000F09FFAC0B2002803D131
:1058F0002000441E0028F4D1002010BDC0B20028B2
:1059000003D004480021017002E002480221017026
:10591000704700004C0300104B030010E802001019
:10592000A8630010AC6300107D6400107E6400105A
:105930004D0300103C0300106064001014C300000D
:105940003E030010806400107F640010154800685A
:1059500050F0040013490860704780B51248007881
:10596000002815D0FFF7C6F80F49097889B280B230
:10597000814206D20D48006850F004000B490860CF
:105980000CE00B48006850F004000949086005E08D
:105990000648006850F004000449086001BD02494F
:1059A0000870704740C00920836400105CC0092063
:1059B00058C0092080B5694801F0FAFF012002F0C3
:1059C000C7F800210120FEF76DFE654908606448B4
:1059D0000068002806D000230022002160480068EB
:1059E000FEF798FE01BDF8B504000D0016001F007B
:1059F0004FF480525B49200B000302F047F920006E
:105A000002F0B9F9BFB23A002900B6B255483018D1
:105A100000F0AAF84FF480525249200B000302F024
:105A20005DF9F1BD2DE9F84304000D001600200BCF
:105A30004FF4805101FB1047D7F580585FF0000903
:105A4000B6B2F019B0F5805F12D233009BB23A00C3
:105A500092B229002000FFF7C6FFBDE8F1830026BF
:105A60000027B6B24FF4805096FBF0F808FB1068A0
:105A7000B6B2002EF1D043469BB23A0092B219EB77
:105A800005012000FFF7AFFF18EB040418EB09092C
:105A9000002F02D0B6EB0806E2E7B6B2B6F5805F9B
:105AA000DDDDB6F58056DBE780B592B202F0EEF8A8
:105AB00001BD70B504000D00160000230122002175
:105AC00027480068FEF78EFE0028F6D0320092B21A
:105AD00029002000FFF7A6FF002300220021204814
:105AE0000068FEF717FE002070BD70B504000D00C1
:105AF000160000230122002119480068FEF772FEFB
:105B00000028F6D0320092B229002000FFF7CCFF27
:105B100000230022002112480068FEF7FBFD002050
:105B200070BD80B5012200A9FFF7BEFF9DF80000FF
:105B300002BD80B500230122002109480068FEF75C
:105B400051FE0028F6D001BD80B5002300220021BF
:105B500003480068FEF7DEFD01BD00008014EF037E
:105B60001C6400105848001010B504002000FBF71A
:105B700023FB200010BD000080B500200090002312
:105B800000224FF41651002002F038F901BD70B424
:105B9000002300240DE01D00ADB2A4B289B20E199D
:105BA000365C96EA2525BC4E36F8155095EA032357
:105BB000641CA4B292B29442EDD3180080B270BCBF
:105BC0007047B6480068400810F00700012806D06A
:105BD000022819D0032827D006282BD02AE0B04865
:105BE000007800280FD0AF480078AF49405CAF493B
:105BF0000870AC480078401CAA490870A848007892
:105C0000401EA749087015E0A8480078A8490978FF
:105C10003F2908DAA6490978A64A8854A44800789A
:105C2000401CA349087005E0A34800789F49097803
:105C30000800FFE7A148006850F020009F49086075
:105C400070479B4900220A70401E9549087095488C
:105C50000121017095489449097801707047F8B5A1
:105C600006000F001400FFB23A0092B2002130008B
:105C7000FFF78DFFFFB2BD1C8B4932780A708A494D
:105C800072784A70884988708749B278CA70002152
:105C900007E089B28A19D27889B2834BCB181A717E
:105CA000491C727889B292B29142F2D371787E4ADD
:105CB000891880B2000A0871FFB2B81C80B2FFF7E1
:105CC000C0FF02E00120FCF760FD75480078002865
:105CD000F8D13220FCF759FD4FF4FA6602E00120BA
:105CE000FCF753FD72480078002804D13000461EAE
:105CF00080B20028F3D16E480078002847D0ADB2BA
:105D00006C48285C012842D1ADB26A482818C07896
:105D100000283CD1664800786649401810F8010C0C
