:10000000387C00108DF9000015FB000019FB000082
:100010001DFB000021FB000025FB0000AAA2F9EF58
:1000200000000000000000000000000041980000F7
:100030002DFB000000000000EF9700000597000076
:1000400039FB0000478A00003173000099730000FB
:1000500049FB00002385000000000000639F0000B2
:1000600093BB00005DFB000061FB000065FB00002E
:1000700069FB00006DFB000071FB000075FB0000D8
:1000800079FB00007DFB000081FB00008372000013
:10009000DB5700005358000091FB000095FB000067
:1000A00099FB00009DFB0000A1FB0000A5FB0000E8
:1000B000A5FB0000ADFB000000000000B5FB000048
:0400C000B9FB000088
:1003000003E00B780370491C401C13005A1E002B9D
:10031000F7D1704701E00170401C13005A1E002BFA
:10032000F9D1704710B400231400621E002C06D0CF
:1003300003780C781B1B491C401C002BF4D01800C0
:1003400010BC704700E0401C0278002A02D00278FE
:100350008A42F8D100787047F8B504000D00E66ACB
:10036000AE4231D02079002820D00123320014F190
:100370003001607801F0B2FB002801D0012024E0B8
:1003800000202071206AE169081886420ED2E778C1
:1003900009E0E06986190123320014F13001607828
:1003A00001F09CFB7F1EFFB2022FF2DA002D0BD072
:1003B00001232A0014F13001607801F081FB00284C
:1003C00001D0012001E0E5620020F2BD38B5040053
:1003D00000212000FFF7C0FF0500EDB2002D5DD128
:1003E0002078032852D1607900284FD00020E062A5
:1003F0004FF40072002114F13000FFF78BFF5520FD
:1004000084F82E02AA2084F82F02522084F83000AB
:10041000522084F83100612084F83200412084F8B1
:100420003300722084F81402722084F815024120EF
:1004300084F81602612084F81702206984F81802F3
:10044000206980B2000A84F819022069000C84F83F
:100450001A022069000E84F81B02E06884F81C026E
:10046000E06880B2000A84F81D02E068000C84F89D
:100470001E02E068000E84F81F020123626914F175
:100480003001607801F02AFB002060710022002119
:10049000607801F031FB002800D001252800C0B2AF
:1004A00032BD891E8269921E914201D3002003E071
:1004B0008278806A02FB01007047F8B504000D00E5
:1004C000022D02D3A069854201D3012014E02078D7
:1004D000012804D00ED303284AD032D30AE02E00DC
:1004E00016EB5606206A10EB56212000FFF734FF6A
:1004F000002802D05FF0FF30F2BD4FF40070B6FB71
:10050000F0F101FB1061081990F83070761C206A38
:1005100010EB56212000FFF71FFF0028EAD14FF40F
:100520000070B6FBF0F101FB1061081990F8300083
:1005300057EA0027E80701D5380901E03805000D22
:10054000DAE7206A10EB15212000FFF705FF0028ED
:10055000D0D168004FF40071B0FBF1F202FB110240
:10056000101930304178007850EA012080B2C3E79A
:10057000206A10EBD5112000FFF7EEFE0028B9D15C
:10058000A8004FF40071B0FBF1F202FB1102101948
:100590003030C1788278120452EA0161427851EA1F
:1005A00002210078084300010009A5E7F8B504001E
:1005B0000D001600022D02D3A069854201D302204E
:1005C00082E02078012804D07BD3032858D040D380
:1005D00077E02F0017EB5707206A10EB5721200018
:1005E000FFF7BAFEC0B200286CD14FF40070B7FB21
:1005F000F0F101FB1071081910F13001E80705D581
:10060000087810F00F0050EA061000E03000087083
:100610007F1C01202071206A10EB57212000FFF77A
:100620009BFEC0B200284DD14FF40071B7FBF1F230
:1006300002FB117211193031EA0701D5320906E0C7
:100640000A7812F0F002330A13F00F031A430A700B
:1006500038E0206A10EB15212000FFF77DFEC0B2C4
:1006600000282FD169004FF40072B1FBF2F303FBB5
:100670001213191930310E70B6B2320A4A7021E0E5
:10068000206A10EBD5112000FFF766FEC0B20028EB
:1006900018D1A9004FF40072B1FBF2F303FB12135F
:1006A00019193031CA78120612F0704216430E70D2
:1006B000320092B2120A4A70320C8A70320ECA703C
:1006C00000E0022001212171C0B2F2BDF8B50400A2
:1006D0000E00022E02D3A069864201D3022527E034
:1006E000002509E0206910F1010F04D02069401CA9
:1006F0002061012060713E00A069864218D231005D
:100700002000FFF7DAFE0700002F11D0012F01D1E2
:1007100002250DE017F1010F01D1012508E00022AB
:1007200031002000FFF742FF0500EDB2002DD9D0C7
:100730002800C0B2F2BDF8B504000E00002E07D1AB
:10074000E768002F02D0A06987420DD301270BE094
:1007500031002000FFF7B1FE022801D2012043E062
:10076000A169884240D337003D006D1CA0698542D5
:1007700004D30225AF4201D2002035E02900200039
:10078000FFF79BFE00281DD17FF07042290020005A
:10079000FFF70CFFC0B2002806D1002E04D02A00BB
:1007A00031002000FFF702FFC0B2002814D1E5603D
:1007B000206910F1010F16D02069401E2061012030
:1007C000607110E010F1010F01D0012800D10BE0A1
:1007D000BD42CAD1002007E0C0B2012802D15FF0BB
:1007E000FF3500E001252800F2BD70B504000D00C2
:1007F000E580A068012803D021688969884201D377
:10080000022048E0002805D121680978032901D198
:100810002068406A00280ED1E06020680089ADB2EF
:10082000854201D3022036E02068406AADB210EB69
:100830001510206123E02168897889B20E0100E05B
:10084000AD1BADB2B6B2B54210D301002068FFF7C0
:1008500034FE10F1010F01D101201CE0022803D366
:10086000216889698842EBD3022014E0E06001002E
:100870002068FFF716FEADB210EB15102061ADB287
:100880001020B5FBF0F101FB1051206810EB411076
:1008900030306061002070BDF8B504000D00E088C4
:1008A000461CB6B2002E02D02069002801D10420D7
:1008B00089E0B6B21020B6FBF0F101FB106100290F
:1008C00074D12069401C2061E068002806D12068AE
:1008D0000089B6B2864269D3042074E0B6B22068BB
:1008E0008078401E10EA161F60D1E1682068FFF78B
:1008F000E4FD0700022F01D2022064E017F1010F8E
:1009000001D101205FE020688069874248D3002D33
:1009100001D1042057E0E1682068FFF70CFF0700D1
:10092000002F01D107204EE0012F01D102204AE023
:1009300017F1010F01D1012045E000212068FFF7E8
:100940000BFD002801D001203DE04FF40072002192
:1009500020683030FFF7DEFC39002068FFF7A1FD8A
:100960002168C862002505E02068C06A401C216833
:10097000C8626D1C20688078EDB285420AD220687A
:100980000121017100212068FFF7E6FC0028EBD06F
:10099000012018E02068C06AEDB2401B2168C862DF
:1009A000E76039002068FFF77CFD2061E680B6B281
:1009B0001020B6FBF0F101FB1061206810EB411034
:1009C000303060610020F2BD2DE9F04104000D00DF
:1009D000287830F04000401E0D2101FB00F6002772
:1009E0005FF00108DFF82408385C40194078DFF830
:1009F0001C18795C495D51EA00201FFA88F8B8F1AB
:100A0000000F11D080B201F039F88046FF2E09D2D4
:100A100034F8160001F032F8761C1FFA88F880B21C
:100A2000804508D0002018E080B24FF6FF71884260
:100A300001D0002011E07F1C0D2FD3D32878400671
:100A40000AD51FFA88F8B8F1000F05D034F816005F
:100A5000002801D0002000E00120BDE8F081F0B4C2
:100A60004B730F23CB7200230B7300238B76002371
:100A7000CB76D2B2531E0D24634300242500A4B2CA
:100A8000ADB24FF6FF76B54202D030F813505B1C82
:100A9000DFF87867A65D7554DFF87067A65D761895
:100AA000ADB22F0A7770ADB2002D01D14FF6FF75B0
:100AB000641C0D2CE4D3ADB24FF6FF74A54203D0F5
:100AC00030F81300002801D152F040020A70F0BC47
:100AD00070477CB5040016001D000B222000FFF7B4
:100AE0000FFCADB2062D09DBADB2E80310EB5500EB
:100AF00031880D18B61C30880028F5D10720ADB21A
:100B0000102195FBF1F202FB115212F13001C9B232
:100B10003A2900DBC91D00AA8154401EADB2102144
:100B200095FBF1F5ADB2002DE9D100A97E2242542A
:100B3000002101E0491C491C81420DD20A5D202A96
:100B40000AD00A5D813A1F2A03D30A5DE03A1D2AC2
:100B5000F1D2421E9142EDD10A00511C082803D265
:100B600000ABC35C401C00E0202313550829F3D3DD
:100B700073BD00210B22C9B2CB0113EB51010378E5
:100B80005918401C521E002AF5D10800C0B2704707
:100B90002DE9F041050000212800FFF726FE0400A2
:100BA000E4B2002C02D02000C0B226E0FF27B846F5
:100BB00029692868FFF7D0FB0400E4B2002C1AD1A1
:100BC0006E693078C0B2002801D1042413E0F17AB4
:100BD00011F03F01C0B2E52804D00A070FD5C9B211
:100BE0000F290CD0FF2700212800FFF755FE040035
:100BF000E4B2002CDCD02000C0B2BDE8F081C9B264
:100C00000F291ED1E9690029EDD0410606D596F8D5
:100C10000D8010F0BF000700E9882984C0B2FFB240
:100C2000B8420CD1707B5FFA88F8804507D131005B
:100C3000E869FFF7C9FE002801D07F1E00E0FF270A
:100C4000D1E7FFB2002F06D13000FFF792FF5FFA25
:100C500088F88045CFD0FF274FF6FF702884A86919
:100C6000C07AC007BFD40B22A9693000FFF75AFB36
:100C70000028B8D1BFE72DE9F04184B00400A7698E
:100C8000E6690C22390000A8FFF73AFB9DF80B003B
:100C9000C0072CD50020F8720020E0615FF0010849
:100CA00001E018F101081FFA88F8B8F1640F0DDAB5
:100CB00043469BB2320000A93800FFF70AFF20002C
:100CC000FFF766FF0500EDB2002DEAD01FFA88F8A5
:100CD000B8F1640F01D10720A7E0EDB2042D02D0D6
:100CE0002800C0B2A1E09DF80B00F872E6619DF803
:100CF0000B0080070ED5002700E07F1CBFB236F83E
:100D000017000028F9D1BFB217F119000D2190FB8F
:100D1000F1F700E0012700212000FFF766FD050044
:100D2000EDB2002D02D02800C0B27EE05FF00008D6
:100D3000464621692068FFF70FFB0500EDB2002D44
:100D40001FD160690078C0B2E52802D0C0B2002887
:100D50000DD11FFA88F8B8F1000F00D1E68818F11C
:100D60000108404680B2BFB2B84202D109E05FF04C
:100D7000000801212000FFF78FFD0500EDB2002DD6
:100D8000D7D0EDB2002D30D1BFB2022F2DDB310014
:100D900089B22000FFF729FD0500EDB2002D24D116
:100DA000A069FFF7E6FE06007F1E21692068FFF7B5
:100DB000D3FA0500EDB2002D17D13300DBB23A00B3
:100DC000D2B26169E069FFF74AFE20680121017132
:100DD00000212000FFF760FD0500EDB2002D04D1D9
:100DE0007F1E380080B20028DFD1EDB2002D1AD16D
:100DF00021692068FFF7B0FA0500EDB2002D12D18D
:100E00006669202200213000FFF784FA0B22A169D5
:100E10003000FFF775FAA069C07A10F0180030733F
:100E20002068012101712800C0B204B0BDE8F08142
:100E30002DE9F14F8946D9F800A001E01AF1010A25
:100E40009AF800002F28F9D09AF800005C28F5D015
:100E50000098C76900252E0002E027F81680761C4E
:100E600015F80A806D1C1FFA88F8B8F1200F09DB0D
:100E70001FFA88F8B8F12F0F04D01FFA88F8B8F1DC
:100E80005C0F0BD115EB0A00C9F800001FFA88F8B7
:100E9000B8F1200F43DA5FF0040942E0FF2E01D3DE
:100EA0000620B5E05FFA88F84046C0B281381F28B6
:100EB00004D34046C0B2E0381D2813D215F80A40CA
:100EC0006D1CE4B2B4F140003F2806D3E4B2B4F1A3
:100ED00080007D2801D306209AE01FFA88F8E4B24A
:100EE00014EB08280121404680B200F0D4FD804672
:100EF0001FFA88F8B8F1000F01D1062088E01FFA28
:100F000088F8B8F1800FA8DA1FFA88F84146DFF8B0
:100F10004C08FFF717FA00289FD0062078E05FF012
:100F2000000900E0761E002E0DD017EB460030F8C9
:100F3000028C1FFA88F8B8F1200FF3D01FFA88F856
:100F4000B8F12E0FEED0002E01D1062060E0002077
:100F500027F816000B22202100988069FFF7DAF9A4
:100F6000002500E06D1C37F815002028FAD037F86E
:100F700015002E28F6D0002D03D059F0030900E00B
:100F8000761E002E05D017EB460030F8020C2E28F6
:100F9000F6D15FF0000B5C465FF0080A01E059F003
:100FA000030937F815806D1C1FFA88F8B8F1000F97
:100FB00030D1009880690078E52803D100988069D5
:100FC00005210170BAF1080F00D1A400E4B214F0B9
:100FD0000C000C2804D0E4B214F00300032801D163
:100FE00059F002095FEA89700DD4E4B214F00300ED
:100FF000012801D159F01009E4B214F00C000428C2
:1010000001D159F008090098806980F80B90002000
:10101000BDE8F28F1FFA88F8B8F1200FBFD01FFA91
:1010200088F8B8F12E0F01D1B542B8D1D34501D21D
:10103000B54212D1BAF10B0F02D159F00309B8E74A
:10104000B54201D059F00309AE42B2D335005FF08A
:10105000080B5FF00B0AA400A3E71FFA88F8B8F1A9
:10106000800F0ADB404680B200F008FD002180B20C
:1010700000F011FD804659F002091FFA88F8B8F116
:10108000FF0F12DDBAF10100834503D359F00309C4
:10109000D34686E7009880691FFA88F85FEA18212E
:1010A0000BF800101BF1010B25E01FFA88F8B8F1CE
:1010B000000F08D01FFA88F84146DFF8A406FFF7B2
:1010C00041F9002804D05FF05F0859F0030912E0ED
:1010D0001FFA88F8B8F141001A2802D254F002042D
:1010E00009E01FFA88F8B8F161001A2803D254F019
:1010F0000104B8F12008009880690BF800801BF10A
:10110000010B4EE713B50400019800782F2803D097
:10111000019800785C2802D10198401C01900020C1
:10112000A06001980078202813D200212000FFF74A
:101130005CFB0021616129E0417D027D52EA0121D1
:1011400089B2C27E807E50EA022080B250EA01401D
:10115000A06001A92000FFF76BFEC0B2002815D1E6
:101160002000FFF715FDA169C97AC0B2002806D09A
:10117000C0B204280AD1490700D4052006E0490777
:1011800004D46069C17AC906D6D40520C0B216BDA0
:1011900010B5040001230A0014F13001607800F05A
:1011A0008FFC002801D003202DE094F82F0294F842
:1011B0002E1251EA002080B24AF65521884201D011
:1011C000022020E094F8680094F86710090251EAC0
:1011D000004094F866100843DFF88818884201D16F
:1011E000002010E094F8840094F88310090251EA7A
:1011F000004094F882100843DFF86818884201D153
:10120000002000E0012010BD0000000034F70000C5
:10121000F8B5150002681378B3F130060A2E05D22E
:1012200053783A2B02D1921C026000E00026022E75
:1012300001D30B2094E1DFF8300850F826400C6011
:10124000002C01D10C208BE1207800280DD0607893
:1012500000F02DFCC10708D4EDB2002D03D04007EB
:1012600001D50A207CE100207AE100202070667020
:10127000607800F012FCC10701D5032070E1EDB2E7
:10128000002D03D0400701D50A2069E1002529007F
:101290002000FFF77DFF0600F6B2012E14D104F204
:1012A000EE10017900290FD0C17A827A120452EA35
:1012B0000161427A51EA0221007A50EA01052900CF
:1012C0002000FFF765FF0600F6B2032E01D10120D2
:1012D00046E1F6B2002E01D00D2041E194F83C0029
:1012E00094F83B1051EA002080B2B0F5007F01D0A5
:1012F0000D2035E194F8470094F8461051EA00209B
:1013000080B200280DD194F8570094F856100904C3
:1013100051EA006094F8551050EA012094F85410F6
:101320000843E06194F84010E170C9B2012904D08B
:10133000C9B2022901D00D2012E1C9B2484394F884
:101340003D10A170C9B2002903D04A1EC9B2114292
:1013500001D00D2004E194F8421094F8412052EAA3
:101360000121218121891022B1FBF2F303FB121329
:10137000002B01D00D20F3E094F8441094F84320A2
:1013800052EA012292B2002A0DD194F8531094F837
:101390005220120452EA016194F8512051EA0221CC
:1013A00094F850200A4394F83F1094F83E3053EAE2
:1013B000012189B2002901D10D20D1E089B2431861
:1013C000268913EB16139A4201D20D20C8E0D21AD7
:1013D000A678B2FBF6F2002A01D10D20C0E001266A
:1013E00040F6F677BA4200D302264FF6F677BA42B5
:1013F00000D30326921CA2615A19A26289B249192C
:101400002162F6B2032E16D12089002801D00D20CA
:10141000A6E094F85F0094F85E10090451EA0060B9
:1014200094F85D1050EA012094F85C100843606263
:10143000A069800015E02189002901D10D208FE0ED
:10144000216A40186062F6B2022E02D1A069400003
:1014500007E0A06903214843217E11F0010111EB4F
:101460005000E16900F2FF10B1EB502F01D20D20C6
:1014700076E05FF0FF3020610020E060F6B2032EDE
:1014800060D10020607194F8610094F8601051EA16
:10149000002080B2401960610123626914F13001BB
:1014A000607800F00DFB00284CD194F82F0294F8DE
:1014B0002E1251EA002080B24AF65521884241D1CD
:1014C00094F8330094F83210090451EA006094F85B
:1014D000311050EA012094F830100843DFF88C15E1
:1014E00088422FD194F8170294F81612090451EA91
:1014F000006094F8151250EA012094F81412084381
:10150000DFF86C1588421DD194F81F0294F81E1262
:10151000090451EA006094F81D1250EA012094F881
:101520001C120843E06094F81B0294F81A12090494
:1015300051EA006094F8191250EA012094F8181248
:10154000084320612670DFF82C050088401CDFF876
:1015500024150880E0800020E06200202071002037
:10156000F2BD80B5002806D00278002A03D0C288D8
:1015700089B28A4201D0092007E0407800F097FA4A
:10158000C00701D5032000E0002002BDC0B2022840
:1015900001DB0B2012E0C0B2DFF8CC2452F820208F
:1015A000002A01D000231370002901D000220A7004
:1015B000C0B2DFF8B42442F82010002070472DE9B3
:1015C000F2438CB0040015000020206015F01F05C8
:1015D00015F0FE0200A90CA8FFF71AFE060009A8E4
:1015E0000690DFF894040790F6B2002E04D10C990F
:1015F00000A8FFF787FD0600059FF6B2002E02D176
:10160000002F00D106261C20054263D0F6B2002E22
:101610000AD0F6B2042E03D100A8FFF72CFB060077
:1016200055F00805059F08E0F87A1121084201D01D
:10163000072602E0680700D50826F6B2002E57D12B
:10164000280755D500F065FA804687F80E80404699
:1016500080B2000AF8735FEA184038745FEA1860D5
:1016600078740020F8720020387700207877002006
:10167000B8770020F877787D397D51EA002080B274
:10168000F97EBA7E52EA012189B251EA004900206E
:10169000B8760020F876002038750020787500981C
:1016A00001210171B9F1000F22D00098D0F82C80EF
:1016B00049460098FFF70AF80600F6B2002E17D147
:1016C0000098B9F10101C16041460098FEF744FE5F
:1016D00006000DE0F6B2002E0AD1F87AC00601D558
:1016E000042605E0A80703D5F87AC00700D5072629
:1016F000F6B2002E07D1280701D555F02005009835
:10170000C06AE0612762F6B2002E21D1A571787D12
:10171000397D51EA002080B2F97EBA7E52EA012179
:1017200089B251EA00402061F87FB97F090451EA8B
:101730000060797F50EA0120397F0843E060002093
:10174000A0600020A061009820600098C088A08060
:101750003000C0B20DB0BDE8F083000078F80000A2
:10176000C0F900002DE9F047050016001F000C002D
:1017700000203860A9882868FFF7F3FEC0B200286F
:1017800001D0C0B270E0A879000601D502206BE05C
:10179000A879800701D4072066E0E8683018E96876
:1017A00088422DD200262BE0C5F81890A8684FF487
:1017B0000071B0FBF1F202FB1102D2F50078464550
:1017C00000D2B04642462100A8684FF40073B0FB37
:1017D000F3FC0CFB130C1CEB05002430FEF790FD12
:1017E000A87950F04000A87118EB0404A86818EB21
:1017F0000000A860386818EB00003860B6EB0806F7
:10180000002E26D0A8684FF40071B0FBF1F202FB65
:101810001102002ACAD1A868400A29688978491E9D
:1018200011EA00085FFA88F8B8F1000F30D1A86813
:10183000002808D12869002809D100212868FEF76E
:101840007AFF286103E069692868FEF774FF0028C1
:101850000CD1E868A968884201D2A868E860A87934
:1018600050F02000A8710020BDE8F087012805D1C4
:10187000A87950F08000A8710220F5E710F1010F5F
:1018800005D1A87950F08000A8710120ECE76861CB
:10189000A879400613D50123AA6915F12401286807
:1018A000407800F01BF9002805D0A87950F080009E
:1018B000A8710120D8E7A87910F0BF00A871696964
:1018C0002868FEF7EEFD8146B9F1000F05D1A87931
:1018D00050F08000A8710220C6E75FFA88F818EB84
:1018E00009095FEA562ABAF1000F38D028688078D3
:1018F0005FFA88F81AEB0801884205D228688078D8
:101900005FFA88F8B0EB080A5346DBB24A4621007A
:101910002868407800F0E2F8002805D0A87950F057
:101920008000A87101209FE7A869B0EB090050452D
:1019300010D24FF40072A869B0EB09004FF40071A7
:1019400001FB004115F12400FEF7DAFCA87910F044
:10195000BF00A8714FF4007000FB0AF844E7A869C3
:1019600048453FF421AFA868E9688842BFF41CAF3E
:1019700001234A4615F124012868407800F0A0F8B8
:1019800000283FF411AFA87950F08000A871012021
:101990006AE738B50400A1882068FFF7E2FDC0B20D
:1019A000002850D1A17989064DD5A07940060FD5E0
:1019B0000123A26914F124012068407800F08EF818
:1019C000002801D001203FE0A07910F0BF00A071F5
:1019D000E1692068FEF7C0FCC0B2002833D1256A57
:1019E000E87A50F02000E872E0682877E06880B27A
:1019F000000A6877E068000CA877E068000EE877D6
:101A00002069A876206980B2000AE8762069000C77
:101A100028752069000C80B2000A687500F079F81A
:101A2000A875010089B2090AE975010C2976000E32
:101A30006876A07910F0DF00A071206801210171A3
:101A40002068FEF7C3FCC0B232BD10B50400200010
:101A5000FFF79FFFC0B2002801D100212160C0B272
:101A600010BD0000464154002078001052526141E0
:101A7000727241610A79001058700010010089B239
:101A8000B1F161001A2803D22039080080B201E0C8
:101A9000080080B2704780B2704780B5C0B200289D
:101AA00003D100F0ADF8C0B200E0012002BD80B566
:101AB000C0B2002802D100F0B8F800E0012002BD59
:101AC00010B50C0011001A00C0B2002804D1D2B227
:101AD000200000F0AFF800E0032010BD10B50C00AE
:101AE00011001A00C0B2002804D1D2B2200000F0C8
:101AF000AEF800E0032010BD80B50B001100C0B2AD
:101B0000002804D11800C0B200F0AEF800E00320B5
:101B100002BD10B586B0002404A8019002A8009070
:101B20000DF10A030DF109020DF10B0103A800F0FC
:101B3000C9F80498B0F5FA6F04D90498B0F5FA60C2
:101B4000049001E020200490049810F07F0004909D
:101B5000049C9DF808000D2802DB0C208DF808007D
:101B60009DF8080010F00F008DF8080024019DF882
:101B7000080004439DF80A00202802DB1F208DF88E
:101B80000A0064019DF80A0004439DF80C0018281F
:101B900002DB17208DF80C0064019DF80C00044353
:101BA0009DF80B003C2802DB3B208DF80B00640104
:101BB0009DF80B0004439DF809003C2802DB3B2004
:101BC0008DF809009DF80900C0B240088DF80900A1
:101BD00024019DF809000443200006B010BD50F810
:101BE000041B61B150F8042BD30744BFA9F10103D2
:101BF0009A18002342F8043B091FFAD1EFE7704717
:101C000080B500F087F8002807D00948007810F068
:101C1000FE0007490870002006E00548007850F0F3
:101C2000010003490870012002BD01480078704797
:101C30005303001080B50B00D2B20100180000F071
:101C4000AEF9002801D0002000E0012002BD80B5DF
:101C50000B00D2B20100180000F0E6F9002801D014
:101C6000002000E0012002BDC0B2032802D14FF4E1
:101C700000700860012070471E48006850F4007032
:101C80001C4908601C48002101601B48006850F096
:101C9000010019490860704770B4039C049D174EF9
:101CA000D2B23260164AC9B211601649C0B2086099
:101CB0001548DBB203601548E4B2046014480560BF
:101CC00070BC704770B4039D049C0C4E366816704F
:101CD0000B4A12680A700B49096801700A480068CB
:101CE00018700A480068287009480068206070BCB5
:101CF00070470000C4C00F4008400240204002402E
:101D000024400240284002402C400240384002401B
:101D10003C40024010B582B0DFF840040021017061
:101D200000F022FA00F070FA00F09EFADFF83004BA
:101D300000F054FA002403E0FF2000F06CFA641C69
:101D40000A2CF9D3002300220021002000F0BCF867
:101D5000012840F09480042300AA4FF4D571082094
:101D600000F0B2F8010600F18A80DFF8E81364227F
:101D70000A60C0B2012832D19DF80200012803D1C7
:101D80009DF80300AA2800D079E0002300225FF02C
:101D90008041292000F0EBF8C0B2002807D0C0B283
:101DA00002286CDADFF8AC0300680028EDD1DFF818
:101DB000A4030068002846D0042300AA00213A208A
:101DC00000F082F800283ED19DF80000400601D5C1
:101DD000042000E00320DFF88413087033E00023C0
:101DE00000220021372000F06FF8400711D5DFF8FE
:101DF0006C0301210170DFF85C030068002819D032
:101E0000002300220021012000F05EF80028F2D11A
:101E100010E0DFF8480302210170DFF838030068A2
:101E2000002807D0002300220021292000F09FF87D
:101E30000028F2D1DFF81C030068002803D1DFF886
:101E40001C0300210170DFF814030078012809D079
:101E5000DFF808030078022804D0DFF800030078D8
:101E600003280CD1002300224FF40071102000F051
:101E70002BF8002803D0DFF8E4020021017000F005
:101E8000C3F900F0F1F9DFF8D4020078002801D19D
:101E9000002004E0DFF8CC0200F0A0F9012016BD1C
:101EA00080B5DFF8B4023221016000F0DDF900F006
:101EB000DBF9FF2801D1012005E0DFF89C02006872
:101EC0000028F4D1002002BD2DE9F84304000D00E4
:101ED00016001F0000F091F9FFF7E2FF002801D182
:101EE000812042E0E4B2002C02D15FF0950907E0C6
:101EF000E4B2082C02D15FF0870901E05FF001092C
:101F000054F04000C0B200F086F9280EC0B200F0D4
:101F100082F9280CC0B200F07EF9280AC0B200F0A5
:101F20007AF92800C0B200F076F94846C0B200F055
:101F300072F9082400E0641E002C05D000F094F92A
:101F40008046B8F1FF0FF6D0002C01D182200CE0C2
:101F5000002E08D0002F06D000F086F93070761CD5
:101F60007F1E002FF8D14046C0B2BDE8F283F8B51D
:101F700004000D0016001F0000230022002137205E
:101F8000FFF7A2FFC0B2022801DBC0B206E03B00AF
:101F9000320029002000C0B2FFF796FFF2BD70B5F5
:101FA0000C001500DFF8B4110978042900D04002B4
:101FB0000026022D21D30023002201001220FFF76A
:101FC00083FF002829D14FF40071200000F06FF842
:101FD000002804D014F500746D1E002DF3D10023E9
:101FE000002200210C20FFF76FFFFFF759FF0028A8
:101FF00013D0002D11D101260FE000230022010093
:102000001120FFF761FF002807D14FF40071200075
:1020100000F04DF8012800D1012600F0F5F800F09D
:1020200023F93000C0B270BD70B50C0015004B49EB
:102030000978042900D040020026022D1FD3002376
:10204000002201001920FFF73FFF002828D14FF49C
:102050000072FC21200000F04CF8002804D014F598
:1020600000746D1E002DF2D1FD2000F0D4F8FFF7B2
:1020700017FF002814D0002D12D1012610E00023F4
:10208000002201001820FFF71FFF002808D14FF49D
:102090000072FE21200000F02CF8012800D101265A
:1020A00000F0B2F800F0E0F83000C0B270BD70B5DA
:1020B00004000D0027480A21016000F0D5F8C0B2E5
:1020C000FE2803D0234909680029F6D1C0B2FE28B2
:1020D00001D000200CE0002603E000F0C5F83055E8
:1020E000761CAE42F9D300F0BFF800F0BDF8012035
:1020F00070BD70B5040008001500C0B200F08BF888
:10210000002603E0305D00F086F8761CAE42F9D37D
:10211000FF2000F080F8FF2000F07DF800F0A4F828
:1021200010F00F00052801D0002011E0094814210B
:10213000016000F099F8C0B2FF2803D00549096892
:102140000029F6D1C0B2FF2801D1012000E0002013
:1021500070BD0000887800108C7800101C79001089
:1021600000093D0040787D0180B53248006850F498
:102170008060304908603048006850F040002E49C7
:1021800008602E48006850F040002C49086002208A
:102190002B49096860F38F312948016002202849E2
:1021A000096860F31141264801600220244909684A
:1021B00060F39341224801602248006830F44010E7
:1021C0002049086020480721016020480221016061
:1021D0001F4800F003F800F017F801BD1D49B1FBDE
:1021E000F0F0400840000102174A126832F47F42C2
:1021F000154B1A60184A106070471848006850F074
:1022000040001649086070470C48006850F04000D4
:102210000A4908607047124909688907FBD51149C6
:10222000C0B208600E4800684007FBD50D48006842
:10223000C0B27047C4C00F4000C0092018C00920B8
:1022400000C00240A8C10F4000000340040003404A
:1022500000093D000090D003100003401CC009207D
:102260000C0003400800034080B5FF20FFF7D3FFB8
:1022700002BD0268531C0360117070472DE9F04FD6
:10228000A1B0824602AE002017461D460291706240
:102290000DF144080AE017F8011B0298D04702909C
:1022A000002800F08B82706A401C7062387808B990
:1022B000706A85E22528EED10020F06030617061FF
:1022C000B061F061306201E040F0010017F8011FD9
:1022D0002029F9D023290DD02B2904D02D2906D06F
:1022E00030290AD00CE040F0020080B2EEE740F066
:1022F0000400FAE740F00800F7E740F01000F4E7C8
:102300002A290DD129680A1D2A600968F16200296D
:1023100004D5494240F00400F16280B27F1C13E012
:102320000021F1620BE0F16A6FF00043994205D0A1
:1023300001EB810302EB43013039F1627F1C3A78F3
:10234000A2F130010A29EED339782E2903D04FF0BB
:10235000FF31B1621EE017F8011F2A2906D1296852
:102360000A1D2A607F1C0968B16213E00021B16276
:102370000BE0B16A6FF00043994205D001EB810395
:1023800002EB43013039B1627F1C3A78A2F130018F
:102390000A29EED330860FF6C030397800F0EAFD16
:1023A00008B117F8010B8DF83A009DF83A0068283B
:1023B00002BF39786829622005D06C2804BF3878BC
:1023C0006C2803D171208DF83A007F1C11A8B060F1
:1023D0003978B1F1250023D01C3871D0001F0228B4
:1023E0006ED9133800F09780093869D0801E00F04C
:1023F0002B81401E00F0D480401E022860D9001FAF
:1024000000F0CE80401F30D0401E00F08480401E7F
:1024100020D0C01E09D0801E7DD0C01E7BD01BE105
:10242000F068411CF160252120E12868011D296028
:102430000068B26A7060002A02D500F0A7FD07E0CC
:10244000002100F0BFFD00281ABF7168401AB06A71
:1024500030610DE12868011D296000210068CDE987
:10246000000111A870607821EAE09DF83A00622826
:1024700018D0682806D06A280BD06C2819D071288B
:1024800007D016E02868011D29600068716A018084
:10249000EEE02A68101D28601268706AC117C2E950
:1024A0000001E5E02868011D29600068716A01707B
:1024B000DEE02868011D29600068716A0160D7E0CC
:1024C0002868C01D20F00700286000F108022A607B
:1024D000D0E90023CDE90023002B04D5F068421C8D
:1024E000F2602D220DE0308E820704D5F068421C88
:1024F000F2602B2205E0C00705D5F068421CF260AF
:10250000202200F80820F06811AA8018706000A846
:1025100000F0E2F9ACE09DF83A006C2808BF2A68A8
:1025200011D0712808BF2A6802D02A686A280AD107
:10253000D21D22F007022A60144604F108022A6024
:10254000D4E9002303E0131D2B6000231268CDE9BA
:102550000023682808BF92B207D0622808BFD2B211
:1025600003D0742818BF7A2802D10023CDE90023B4
:1025700096F8300000075FD5DDE90023002B08BF87
:10258000002A59D041F02000782855D1F068302237
:1025900000F80820401C421CF26000F808104BE0D4
:1025A0009DF83A0062280CD0682810D06A281AD00A
:1025B0006C2823D0712816D074281FD07A280CD00C
:1025C0001CE02868021D2A6090F900201AE02868A3
:1025D000021D2A60B0F9002014E02868021D2A605C
:1025E000002302680FE02868C01D20F00700286063
:1025F00000F108022A60D0E9002304E02868021DE7
:102600002A600268D317CDE90023002B04DAF068B2
:10261000421CF2602D220DE0308E820704D5F06856
:10262000421CF2602B2205E0C00705D5F068421C71
:10263000F260202200F80820F06811AA801870606B
:1026400000A800F0C0F813E0F068411CF1602968B0
:102650000A1D2A60096809E0F068421CF260252220
:1026600000F8082021B1F068421CF26000F8081060
:10267000F06AF168401AB169401A3169401AF1698B
:10268000401A7169401A316AA0EB010996F83000CE
:102690007F1C400710D420208DF84000002409E062
:1026A000012310AA00A9504600F03EFC002840F08B
:1026B0008580641C4C45F3DBF4680DF1440B0AE0A3
:1026C0001BF8011B0298D0470290002876D0706A50
:1026D000401C7062641E002CF2D130208DF8400046
:1026E0004FF0000BB46909E0012310AA00A950467D
:1026F00000F01AFC002861D10BF1010BA345F3DBBC
:102700003469D6F804B00AE01BF8011B0298D047E0
:102710000290002852D0706A401C7062641E002C27
:10272000F2D130208DF840004FF0000BF46909E041
:10273000012310AA00A9504600F0F6FB00283DD165
:102740000BF1010BA345F3DB30697168746900EB91
:10275000010B09E01BF8011B0298D047029068B3F7
:10276000706A401C7062641E002CF3D130208DF81A
:1027700040004FF0000B346A08E0012310AA00A9C2
:10278000504600F0D1FBC8B90BF1010BA345F4DBB7
:1027900096F8300040077FF589AD20208DF8400085
:1027A000002400E0641C4C45BFF680AD012310AA54
:1027B00000A9504600F0B8FB0028F3D04FF0FF30DE
:1027C00021B0BDE8F08F2DE9FA47064682B03569A1
:1027D0000A466F2A08BF082705D041F02000782854
:1027E00014BF0A271027D6E900013C2480468946F9
:1027F000642A18BF692A05D1002903DAD8F1000834
:1028000069EB4909B9F1000F08BFB8F1000F0CD10D
:10281000306B50B9082F3BD196F83800000737D5F8
:1028200030203B2485F83B0032E0CDE90089FB17DE
:10283000404649463A4600F0F1FBB846A8FB002363
:10284000DDE90089A8EB02023032A4F1010AD2B21C
:1028500054463A2A03DB9DF80830513B9A180AF88F
:10286000052080465FEA010908BFB8F1000F03D0D8
:10287000F06861198842D8D3082F09D196F838003A
:10288000000705D5605D302802D0641E30206055F9
:10289000C4F13C00B0616119F160316B884207DA24
:1028A000081A30624FF6EF71308F0840308710E021
:1028B00000290ED596F8381001F01401102908D11E
:1028C000716B7269891A326A891A081A0128A8BFBD
:1028D000306204B0BDE8F0872DE9F24F04468EB0B7
:1028E000D4E90001CDE9020104AE9DF8380040F0C2
:1028F0002000009061280AD0206B002848BF0620E5
:1029000004D404BF0098672801D1012020636168C6
:10291000C1F30A5040F2FF7290421CD1080304BF79
:102920002068002809D10320A0619DF83800613893
:102930001A2836D30FF2346108E00320A0619DF815
:10294000380061381A2829D30FF21861E068032291
:1029500000F0DCFBB5E1012816DA204600F011FC9E
:10296000012811DB002700200099612920D1E168AE
:10297000302201F8012B4A1CE2609DF83820612AC0
:102980000CBF782258220FE0626840F2FE3161F3FA
:102990001E52471A62604FF0FF30E5E70FF2C05158
:1029A000D4E70FF2C451D1E70A706169891C6161F3
:1029B00010B9002500277BE10098612840F096803F
:1029C000206B00284CBF2125451CDDE902012DB2FA
:1029D0006E1CD4E900890022002300F0F3FB3ABF0B
:1029E00089F00040CDE90280CDE902893F1F8DF8D2
:1029F00010200DF1110801E000F20708012E32DB72
:102A0000DDE902010022002300F0F4FB2BD21C219F
:102A100002A800F007FCDDE9020100F089FCF61FC6
:102A20008146012E09DB00F0AFFC02460B46DDE9D2
:102A3000020100F0C1FCCDE9020108F20700072104
:102A400005E009F00F0200F8012D4FEA2919B9F14C
:102A5000010F01DB491EF4D5491E5CBF002200F8BE
:102A6000012DF9D5C8E70DF11100A8EB00010DF11A
:102A70001106A942B8BF0D462DB228002FD48842B6
:102A800006DA04A9411849780829A8BF0F2100DAFD
:102A9000002104AA821800E06D1E12F80139401EC0
:102AA0008B42F9D00F2904D104A941184A78521C4D
:102AB0004A70002802D504AE6D1C3F1D2DB2681E61
:102AC0000DD481190A783032D2B23A2A03DB9DF84C
:102AD00038303A3B9A1801F80129401EF2D5206B94
:102AE000002840F1E580681E2063E1E0DDE9020195
:102AF0000022002300F066FB3CBF81F00041CDE9DD
:102B000002013FB247F2975078434849DFF820B1BD
:102B100090FBF1F73FB2C7F107069246012E19DB91
:102B2000DDE90289F00707D552465B464046494633
:102B300000F002FD804689467610504659465246BE
:102B40005B4600F0F9FC82468B46002EEAD1CDE9C7
:102B5000028921E076429046DFF8D89012E0F00733
:102B600007D552465B464046494600F0E5FC8046A4
:102B7000894676105046594652465B4600F0DCFCCA
:102B800082468B46002EEAD1DDE9020142464B46E1
:102B900000F0A4FDCDE90201009866280CBF07F102
:102BA0000A000620216B4518142DA8BF13253020DC
:102BB0008DF810000DF11106DFF87C90012D3DDB42
:102BC000DDE9020100F0CAFB06F1080104220A2334
:102BD000B0FBF3F303EB8306A0EB4600303001F8C3
:102BE000010D0A20B3FBF0F000EB8006A3EB4603D7
:102BF000303301F8013D521EE9D1083D01F10806CC
:102C0000012DDBDBDDE9020100F0A8FB00F0C6FBD3
:102C100002460B46DDE9020100F0CEFB00224B46E6
:102C200000F08AFCCDE90201CAE700BFA0860100DE
:102C3000000024400000F03F84D797410DF11100BF
:102C4000301A0DF1110602E0401E7F1E761C31780D
:102C50003029F9D00099662902D13FB2791C03E0EE
:102C600065290CBF01210021226B8D182DB2A842CD
:102C7000B8BF05462DB229001AD4814204DA885D16
:102C80003528A8BF392000DA30208A19521E00E00A
:102C90006D1E12F80139491E8342F9D0392802D13C
:102CA000885D401C8855002902D5761E6D1C7F1C4E
:102CB0003FB29DF8381000972BB23246204600F004
:102CC00003F80FB0BDE8F08F2DE9F043054685B05D
:102CD0001E46D5F8308089461746012E02DA0126B5
:102CE0000FF28C2749F02000BDF93040662808BF5C
:102CF000641C17D0672840F0818014F1040FC0F2E3
:102D00008380444580F2808095F83800641C000779
:102D100002D44645B8BFB04624B2B8EB040848BF59
:102D20004FF00008E868A96924B2012C25DA3023A5
:102D30004A1C0B54B8F1010F03DA95F83810090753
:102D400002D52E211154521CAA6118EB040FB8BFF2
:102D5000C8F1000424B26142A0446962B045B8BF22
:102D6000464636B2EE613246AB693946181800F075
:102D7000CDF9A8EB0600A862BFE00818A64218DA51
:102D80003246394600F0C2F9A9697118A961A01B41
:102D90006862B8F1010F03DA95F83800000705D52D
:102DA000E8682E220A54E869401CE861C5F82880CA
:102DB000A3E02246394600F0A9F9A8692018361B7D
:102DC000B8F1010F03DA95F83810090703D5E9685F
:102DD0002E224254401C36B2A861B045B8BF4646C8
:102DE000EB6836B23246E119C01800F08FF9A869D5
:102DF0003018A861A8EB060068627EE048466128AA
:102E000016D14FF0700917E0464504DA95F83810EE
:102E1000090758BFB046B8F1010848BF4FF0000895
:102E2000B9F1670F14BF4FF045094FF0650903E092
:102E3000412808BF4FF05009A969E86817F8013B1D
:102E40000B544A1CB8F1010F05DA95F83810090740
:102E500058BFAA6117D52E211154531CAB61B8F18C
:102E6000010F10DB761E36B2B045B8BF464636B20B
:102E700032463946181800F049F9A8693018A86197
:102E8000A8EB06006862A869E9684718200007F8FF
:102E9000019B03D42B2007F8010B03E02D2107F839
:102EA000011B444200260DF1080808E00A2200A890
:102EB00000F037FD019808F8010B761C009C21B248
:102EC0000129F3DA022E06DA49F02000652804BF52
:102ED000302007F8010B4EB9302007F8010B07E04E
:102EE000761E02A8305C303007F8010B012EF7DAAD
:102EF000A869E9684018381AE86195F8380000F0C8
:102F0000140010280DD16869A9690818696A0818A1
:102F1000E9690818A96A0818696B8842BCBF081AD1
:102F2000286205B0BDE8F083F8B504460D461646A4
:102F30001F46002004E0E86A401CE8627F1E002073
:102F400047B116F8011BA868A047A8600028F2D175
:102F50004FF0FF30F2BD0000686A6C747A4C0000DC
:102F60006E616E004E414E00696E6600494E46002D
:102F7000300000000278C9B28A421AB11CBF10F8B2
:102F8000012FF9E718BF00207047000000F101038E
:102F9000810704D010F8011B89B18107FAD10268BA
:102FA000B2F10131914311F0803F04BF50F8042F7A
:102FB000F6E710F8011B11B110F8011BFBE7C01A6E
:102FC00070470000C9B2830706D0521E22D310F802
:102FD000013B9942F7D11FE0083A13D302F10402F2
:102FE00041EA012141EA014150F8043B121F21BF8F
:102FF0004B40A3F1013C2CEA030C1CF0803FF3D0C2
:10300000C9B2001F083210F8013B521E28BF91EAD6
:10301000030FF8D818BF0120401E70471B4213D180
:10302000094236D12AB18446B0FBF2F002FB10C24D
:10303000704700F07DBCFCD30022002370470B00DA
:103040000200002100207047904271EB030CF6D380
:1030500070B5B1FA81F4B3FA83F52C1BA340C4F127
:10306000200532FA05F63343A2405FF00046E64001
:1030700002E05B085FEA3202841A71EB030524BFA9
:10308000204629467641F4D302000B00300000218F
:1030900070BD012ACFD970B5140C20D0B1FA81F4DB
:1030A000B2FA82F5C4F120046419B4F12006D6D333
:1030B000B2405FF00044F440002502E052085FEAAD
:1030C0003303C61A71EB020E24BF304671466441C9
:1030D0006D41F3D302000B002000290070BD0C46A7
:1030E000B1FBF2F102FB11452D0445EA1045B5FB99
:1030F000F2F402FB145580B240EA0545B5FBF2F04C
:1031000002FB105240EA044070BD000062B38B071E
:1031100008D0521E11F8013B00F8013B00F024805A
:103120008B07F6D1830740F0208000BF103A07D309
:1031300030B4B1E83810103AA0E83810F9D230BCF9
:10314000530724BFB1E80810A0E8081044BF51F8A5
:10315000043B40F8043BD20724BF31F8022B20F88F
:10316000022B44BF0B7803707047083A07D3B1E8CD
:103170000810083A40F8043B40F804CBF7D2530754
:10318000E4E730B4436803F0004201211B031B0B4A
:10319000436004BF0368002B08D10DE00368DD0F16
:1031A00045EA440444605B000360491E4468E3024E
:1031B000F4D523031B0B436043681A43426008465F
:1031C00030BC70474FF4001C1CEB410F94BF1CEB4C
:1031D000430F09E041EA030C50EA4C0C52EA0C0C94
:1031E00003D2994208BF9042704714BF8B4282427B
:1031F000704700004FF4001C1CEB410F94BF1CEB08
:10320000430F09E041EA030C50EA4C0C52EA0C0C63
:1032100003D28B4208BF8242704714BF994290424A
:103220007047000070B504460D466068C0F30A5050
:1032300040F2FF71884207D16068000304BF206834
:10324000002817D0022070BD20B92046FFF799FF53
:10325000012867DA012D0FDB40F2FF71091A8D4258
:103260000AD36068002847BF00202F4900202F495B
:10327000C4E90001012070BD4142A942616806DA3B
:103280006FF31E51401941EA0050606041E0401E5A
:1032900063680122451962F31F5305F1350001F0FF
:1032A00000416360352803D361600020206070BD59
:1032B000002215F11F0F04DA226823600020203558
:1032C0006060684213D0521E25689241C0F120030D
:1032D000D2439D4045EAD27225686668C54006FA29
:1032E00003F32B432360636823FA00F06060606897
:1032F00008436060B2F1004F03D80DD12078C007B9
:103300000AD52068401C2060206828B96068401CED
:1033100060604FF0FF3070BD6068884204BF206875
:103320000028F6D1002070BD0000F0FF0000F07F03
:10333000F446400D40EAC120490006D200F014F8DE
:10334000004248BF6FF00040604700F00DF84FF0BA
:10335000004188428CBF084640426047400D40EA29
:10336000C120490080F00D8040F00040490DA1F5DA
:103370008061491C05D4D1F11F0154BFC840C0175A
:1033800070474FF000007047010040F10980F4469B
:10339000404200F005F851F000416047010000BFD5
:1033A00009D0B0FA80F18840C91CC1F584610905D3
:1033B00001EBD0214005704770B44FF0004591EA11
:1033C000030F44BF6B4000F0B5BA00BF841A71EB25
:1033D000030604D26E40001BB141121973414FF431
:1033E000001C1CEB410F34BF7CEB430684E00C0D4A
:1033F000A4EB1356362E7DDC012E43DC45EAC323B5
:1034000043EA525312BFD20292025B08240545EAF6
:10341000C12141EA5051D2EBC020994125D407D1B6
:10342000B0FA80F610FA06F164D00020203608E0E9
:10343000B1FA81F6B140C6F1200220FA02F211433E
:10344000B0404FEAF474B4EB465434F001064FEA4E
:1034500074040AD8D6F50016760D04F00044F04046
:1034600061FA06F25040F1404840C00A40EA41503B
:1034700021F0004128BF5FEA500550F1000044EB05
:10348000D12137E045EAC323DB0A45EAC121C90A55
:10349000B6F120050EDD42EA0242120CC5F120060B
:1034A00003FA06F6EB4042EA06056D42984161F1E7
:1034B00000010DE062FA06F5F240554063FA06FCA1
:1034C00082EA0C02F3405A406D42904161EB0301E5
:1034D00011F4801F05D1641E620502D06D004041C9
:1034E000494121F48011430875F1004350F1000077
:1034F00041EB045170BC70471CEB410F15D223F017
:10350000004352EA43060BD04FEA4C0CBCEB410F90
:1035100004D80C0D661E342EB7DDEBE7801A9941F6
:1035200050EA410608BF0021E4E708BF1CEB430F47
:1035300028BF6FF00001DDE7B0B581EA030C0CF0A5
:10354000004C40F2FF7515EA11541DBF15EA1357E0
:10355000AC42AF4239E0E41923EA455343F4801307
:10356000C90241F0004141EA505EC7021100A7FBC9
:10357000020200284FF00000EEFB01204FF0000196
:10358000E3FB072118BF42F0010240180021494126
:10359000E3FB0E01A4F580640F0302D25200404108
:1035A000494154F101046CDD470872F1004250F1C9
:1035B000000051EB0451A1F580115CBF41EA0C0100
:1035C000B0BD4CEA05510020B0BD05EA1357AC422E
:1035D00014BFAF4241E050EA410E1CBF52EA430E15
:1035E00002E061460020B0BD24423C441BD15FEAAA
:1035F000070EF6D0090302BF01460020AEF1140EFB
:10360000B1FA81F7AEEB070401FA07FE0C37C7F1F8
:10361000200100FA07F7C8404EEA000E23EA45539E
:1036200043F48013A2E733F00043B3FA83F704BFF7
:10363000B2FA82FE77440B3FE41BB7F1200E2FBF96
:1036400002FA0EF3BB40C7F1200E22FA0EFE38BF7D
:1036500043EA0E03BA40641C82E750EA410E14BFED
:1036600052EA430E6FF000014FF4001717EB430FBF
:103670008ABF194617EB410FB5E74CEA0551002008
:10368000B0BDD4F10104B4F120070FDAC4F1200772
:10369000520828BF42F0010210FA07F501FA07F7B5
:1036A000E1BF2A43E0403843E1400FE0352C98DC8D
:1036B000C7F1200452EA400220FA07F218BF42F094
:1036C000010231FA07F0A1400A43002172F10042E1
:1036D00050F1000051EB0C01B0BD0000F0B540F21C
:1036E000FF7581EA030C0CF0004C15EA11541DBF64
:1036F00015EA1357AC42AF42E5E0BC41C1F31301F8
:10370000C3F31303801A994143F4801304D2641E57
:103710004000494180185941C90241EA5051B1FB6A
:10372000F3F603FB1611A2FB0675D7EBC020A941E7
:1037300002D2761E80185941C90241EA5051B1FBAC
:10374000F3FE03FB1E11A2FB0E75D7EBC020A941AF
:1037500003D2AEF1010E80185941890241EA90511D
:10376000760546EA8E2EB1FBF3F603FB1611A2FB9B
:103770000675D7EB8020A94102D2761E80185941E8
:10378000C90241EA50514EEA060EB1FBF3F603FBC3
:103790001611A2FB0675D7EBC020A94102D2761EF6
:1037A00080185941C90241EA5051B1FBF3F703FBBC
:1037B0001711A2FB0735D3EBC020A94167F1000721
:1037C0000CBF004247F0010766F3D5274FEA1E31D0
:1037D000B80814F5806412DDBD0775F1004250EBA6
:1037E0000E5051EB045111F5801F5CBF41EA0C01F2
:1037F000F0BD4CF07F6141F0E0410020F0BDBD071D
:103800006D0840EA0E5041F48011D4F10104B4F186
:1038100020060ADAC4F120060200E04001FA06F3AD
:10382000E1401843B24015430EE0342C13DCC6F1DE
:10383000200445EA40056D0820FA06F2154321FAF6
:1038400006F0A1400D43002175F1004250F1000047
:1038500051EB0C01F0BD00205FEA0C01F0BDCFB9C7
:1038600092185B41B3FA83F704BFB2FA82F6BF192C
:103870000B3FB7F120062FBF02FA06F3BB40C7F19A
:10388000200622FA06F638BF3343BA401CB1E419C9
:10389000641E33E77F4231F00041B1FA81F404BF86
:1038A000B0FA80F6A4190B3CB4F120062FBF00FA41
:1038B00006F1A140C4F1200620FA06F638BF3143D4
:1038C000A0403C1B1AE7AC421ABF05EA1357AF42AF
:1038D00012E050EA41061CBF52EA4306BFE750EA35
:1038E0004107304661461CBF41EA0551F0BD52EA2E
:1038F000430C08BFC143F0BD00204FF4001616EB87
:10390000410F98BF16EB430F08BF16EB410F24BFC2
:10391000C14305E016EB430F0CBF61464CEA05516D
:10392000F0BD91FBF2F303FB1211C0E900317047C7
:1039300070470000841A71EB030603D2001BB141EB
:10394000121973414FF4001C1CEB410F34BF7CEB88
:10395000430443E00C0DA4EB1356352E50DC45EA2E
:10396000C323DB0A45EAC121C912B6F120050DDDEA
:1039700063FA05F6EB4086EA0305124218BF45F0EC
:103980000105C01851F100010CD213E062FA06F5EE
:10399000F2405540F3415A40B340F3405A4080183A
:1039A000594107D349085FEA30005FEA350528BF6F
:1039B00045F0010501F58011420875F1004250F112
:1039C000000041EB045170BC4FF4001C1CEB410F94
:1039D00038BF70470020090D090570471CEB410FE7
:1039E00010D252EA43060BD0BCEB410F05D80C0DA8
:1039F000AB43661E342EB5DD02E0AB43801859415F
:103A000070BC704770BC7047000000000100494462
:103A1000494F4D4100000000000000000000000080
:103A200000000000000000000000000000004E55F3
:103A30004D000000000000000100464C41475F427D
:103A400056323000000000000000000000000000BE
:103A5000000000000000000000004E554D00000076
:103A60000300000001005449504F5F4E4F54415332
:103A70000000000000000000000000000000000046
:103A80000000000000004E554D0000000A0000003C
:103A9000040056414C4F525F5049504F4341000083
:103AA0000000000000000000000000000000000016
:103AB00000004E554D000000000000000100464C83
:103AC00041475F4D44425F42494C4C0000000000BA
:103AD00000000000000000000000000000004E5543
:103AE0004D000000000000000100464C41475F4DC2
:103AF00044425F434F494E000000000000000000B8
:103B0000000000000000000000004E554D000000C5
:103B1000000000000100464C41475F4D44425F43B6
:103B200053480000000000000000000000000000FA
:103B30000000000000004E554D0000000A0000008B
:103B40000400424155445F5052494E5445520000D2
:103B50000000000000000000000000000000000065
:103B600000004E554D0000000A00000004005641C0
:103B70004C4F525F50554C534F5F4D4F45440000E2
:103B800000000000000000000000000000004E5592
:103B90004D0000000A000000040056414C4F525FE7
:103BA00050554C534F5F4E4F540000000000000032
:103BB000000000000000000000004E554D00000015
:103BC000000000000400434F4E544147454D5F50F4
:103BD00041524349414C0000000000000000000039
:103BE0000000000000004E554D00000000000000E5
:103BF0000400434F4E544147454D5F544F54414C90
:103C000000000000000000000000000000000000B4
:103C100000004E554D0000000000000004004D4F14
:103C20004544415F5041524349414C00000000006F
:103C300000000000000000000000000000004E55E1
:103C40004D0000000000000004004D4F4544415F5E
:103C5000544F54414C0000000000000000000000E0
:103C6000000000000000000000004E554D00000064
:103C700000000000040043415254414F5F50415244
:103C80004349414C0000000000000000000000001B
:103C90000000000000004E554D0000000000000034
:103CA000040043415254414F5F544F54414C000073
:103CB0000000000000000000000000000000000004
:103CC00000004E554D000000000000000400554E5D
:103CD000495F43415254414F5F5041524349414C27
:103CE00000000000000000000000000000004E5531
:103CF0004D000000000000000400554E495F4341A4
:103D00005254414F5F544F54414C0000000000009A
:103D1000000000000000000000004E554D000000B3
:103D2000000000000400494E4943494F5F4D555380
:103D300049434100000000000000000000000000B6
:103D40000000000000004E554D0000000000000083
:103D50000400494E4943494F5F50524F504147413B
:103D60004E44410000000000000000000000000080
:103D700000004E554D000000000000000400494EB8
:103D80004943494F5F504547415F5041434F544578
:103D900000000000000000000000000000004E5580
:103DA0004D000000000000000400494E4943494F07
:103DB0005F5049504F4341535F50524F4E5441530F
:103DC000000000000000000000004E554D00000003
:103DD00000000000040054414D414E484F5F424CEA
:103DE0004F434F5F4D5553494341000000000000D1
:103DF0000000000000004E554D00000000000000D3
:103E0000040054414D414E484F5F4C4F4355434190
:103E10004F5F50524F5000000000000000000000B3
:103E200000004E554D000000000000000400544109
:103E30004D414E484F5F504547415F5041434F54BD
:103E400045000000000000000000000000004E558A
:103E50004D00000000000000040054414D414E4858
:103E60004F5F5049504F4341535F50524F4E544162
:103E7000530000000000000000004E554D000000FF
:103E800000000000040054454D5045524154555225
:103E9000415F5052455041524F0000000000000069
:103EA0000000000000004E554D0000000000000022
:103EB000040056454C4F4349444144455F505245E8
:103EC000504152414F00000000000000000000007F
:103ED00000004E554D000000000000000400544555
:103EE0004D504F5F4D4F544F525F454D42414C41F5
:103EF00047454D00000000000000000000004E5546
:103F00004D000000000000000400564F4C554D4588
:103F10005F4D555349434100000000000000000080
:103F2000000000000000000000004E554D000000A1
:103F3000000000000400564F4C554D455F4C4F4368
:103F40005543414F00000000000000000000000049
:103F50000000000000004E554D0000000000000071
:103F60000400494E54455256414C4F5F50524F50F9
:103F70000000000000000000000000000000000041
:103F800000004E554D0000000000000001004652A8
:103F90004545000000000000000000000000000097
:103FA00000000000000000000000000000004E556E
:103FB0004D000000000000000100464954415F4CE4
:103FC0004544000000000000000000000000000068
:103FD000000000000000000000004E554D000000F1
:103FE00000000000010054524F434F5F4D4F4544C5
:103FF0004100000000000000000000000000000080
:104000000000000000004E554D00000000000000C0
:10401000040053454E48415F41444D494E00000065
:104020000000000000000000000000000000000090
:1040300000004E554D0000000000000004004E55E9
:104040004D45524F5F534552494500000000000066
:1040500000000000000000000000000000004E55BD
:104060004D000000000000000400434F4D49535331
:10407000414F5F504F4E544F0000000000000000C1
:10408000000000000000000000004E554D00000040
:10409000000000000100464C475F444553554D4920
:1040A00044000000000000000000000000000000CC
:1040B0000000000000004E554D0000000000000010
:1040C0000400636E745F7069705F7465737465007B
:1040D00000000000000000000000000000000000E0
:1040E00000004E554D0000000000000000000000E0
:1040F00000000000000000000000000000000000C0
:1041000000000000000000000000000000000000AF
:10411000000000000000000000000000000000009F
:10412000000000000000000000000000000000008F
:10445000000000000000000088F600001000534734
:104460005F434C49454E54455F3031000000000029
:104470000000000000000000000000000000545890
:104480005400000088F60000100053475F434C4979
:10449000454E54455F30320000000000000000002F
:1044A000000000000000000000005458540000000C
:1044B00088F60000100053475F434C49454E544571
:1044C0005F3033000000000000000000000000002A
:1044D00000000000000054585400000088F600005E
:1044E000100053475F434C49454E54455F303400FC
:1044F00000000000000000000000000000000000BC
:1045000000005458540000001CB500F0FEF80400F0
:1045100000F0AAF801A9032000F002FD0DF101014D
:10452000202000F0FDFC00A9222000F0F9FC0DF194
:104530000201262000F0F4FC0022002100206BF094
:1045400089FD012001F03FF8002001F059F801F049
:10455000DDF901F020FA002001F059FA23E02000F3
:10456000C0B200F017F99DF80000002803D0200029
:10457000C0B200F0E8FA00F051FB00F09CFB9DF89F
:1045800000202100C9B2019800F06FF90221022039
:1045900001F015F800F0CBF8322001F00EFB9DF889
:1045A000020000F0D3FB01A9032000F0B9FC0DF1DB
:1045B0000101202000F0B4FC00A9222000F0B0FC92
:1045C00001F0D3FEC0B2012832D03AD3032807D07D
:1045D00003D305282DD004D333E000F0FFFB30E0F7
:1045E0002FE000F07CF8002000F0EDFF01F038FF34
:1045F000012000F0E8FF00F088F8040001A9032082
:1046000000F08EFC0DF10101202000F089FC00A9D2
:10461000222000F085FCDFF80C08DFF80C180160A0
:1046200000F069F80022002100206BF0E9FC08E0AE
:1046300007E09DF80100002803D0019880B201F046
:1046400048F99DF80100002889D0E4B2DFF8DC07C2
:1046500010EBC4004268E4B2DFF8D00750F8341021
:1046600001206BF0F7FC8AE710B500240421082034
:1046700001F042FF0421082002F06AF8E4B2DFF8FA
:10468000B00710EBC4004268E4B2DFF8A40750F8AA
:10469000341000206BF0B4FCE4B2DFF8980710EBA4
:1046A000C4004268E4B2DFF88C0750F834100020F0
:1046B0006BF0D0FC0021012002F064FADFF87817DB
:1046C0000860DFF874070068002807D00023002284
:1046D0000021DFF86407006802F08CFA10BD80B595
:1046E000002301220021DFF85007006802F0EAFAF7
:1046F0000028F5D001BD80B5002300220021DFF89D
:104700003807006802F076FA01BD80B500208DF808
:10471000000000A9002000F003FC9DF8000008281C
:1047200002DB00208DF800009DF8000002BD70B58E
:1047300086B002F04FFC040002F0A1FEA4B22300F8
:104740000200DFF8F81601A802F00AFF002201A912
:1047500001206BF055FC01F0D9F80400642501F04C
:10476000D5F8060002F06BFC94FBF5F105FB114156
:104770000091642196FBF1F380B20200DFF8C016CD
:1047800001A802F0EDFE01AA002101206BF038FC27
:1047900006B070BD10B586B0040000A9032000F07B
:1047A000BFFB00986421B0FBF1F201FB12030098FB
:1047B0006421B0FBF1F2E4B2DFF8880650F824106F
:1047C00001A802F0CDFE002201A901206BF042FCFD
:1047D00001F09CF8002815D06421B0FBF1F201FB38
:1047E00012036421B0FBF1F2E4B2DFF85C0650F88A
:1047F000241001A802F0B4FE01AA002101206BF0F0
:1048000029FC21E0DFF844060068002810D1DFF819
:1048100040060078401C042190FBF1F202FB1102DB
:10482000DFF82C060270DFF8240642F210710160F6
:1048300001A9DFF81C0600783C3000F071FB01AAEA
:10484000002101206BF006FC06B010BD80B5DFF83A
:10485000040602F0DEFF002805D0DFF8F8058078B6
:104860001921484300E0002002BD70B582B0050068
:104870000C00160001F04AF8A842C0F08380F6B29E
:10488000002E03D0FFF7E2FFA84272D3012100A857
:1048900003F010F8002806D002283BD02AD30428C1
:1048A00058D047D365E0280001F075F8F6B2FF2E26
:1048B00013D101F02BF800280FD0E4B2DFF89805EF
:1048C00010EBC4004268E4B2DFF88C0550F83410F5
:1048D00000206BF0BFFB00F090F82000C0B203F0A6
:1048E000FEF90022002100206BF0B4FB002001F053
:1048F0008EF83EE0DFF86425E4B2DFF8640550F896
:10490000241000206BF0A6FB00F04AF8002001F014
:104910007EF82EE0DFF84C25E4B2DFF8440550F8CD
:10492000241000206BF096FB00F03AF8002001F014
:104930006EF81EE0DFF83025E4B2DFF8240550F809
:10494000241000206BF086FB00F02AF8002001F014
:104950005EF80EE0DFF81425E4B2DFF8040550F845
:10496000241000206BF076FB00F01AF8002001F014
:104970004EF80022002100206BF042FB002000F0E6
:104980003FFE0CE0F6B2FF2E09D101F05EF80028E0
:1049900005D100F0BBFF002801D000F02EF873BD58
:1049A00080B50221062000F00AFE00F026F8012062
:1049B00001F02DF810E0FFF792FE002000F003FE5A
:1049C00001F04EFD012000F0FEFDFFF794FE0022F5
:1049D000002100206BF014FBFFF7A9FE01F0C5FCDD
:1049E000C0B2012806D0F7D3032805D003D304288A
:1049F000E1D0F1E7F0E7EFE7EEE77FB500F086FF03
:104A000004002500002001F002F84FF4FA7001F0D4
:104A1000D4F800A802F0FDFE002828D01920B4FB2D
:104A2000F0F4280000F0B7FF0F20B4FBF0F50F20E2
:104A3000B4FBF0F100FB1144002608E00F21022036
:104A400002F0CEFE41F2883001F0B7F8761CF6B2E3
:104A5000EDB2AE42F2D3E4B2002C08D02100C9B2CC
:104A6000022002F0BDFE41F2883001F0A6F80120DC
:104A700004B070BD38B503F06FF90400FFF745FED0
:104A80000500E4B2002C01D1012032BDE4B2012CBA
:104A90000AD02DD3032C1DD011D3052C1CD01AD332
:104AA000072C1BD019D323E0DFF8C423EDB2DFF8C5
:104AB000B00350F8251000206BF0CCFA18E0DFF8B6
:104AC000A423EDB2DFF8980350F8251000206BF016
:104AD000C1FA0DE00CE00BE00AE009E0DFF88C23FE
:104AE000EDB2DFF87C0350F8251000206BF0B2FA2D
:104AF000012000F08CFF062000F065FD01E0FFF7CB
:104B000016FE01F032FCC0B201281AD0F7D30328F8
:104B1000F5D017D30428F2D1FFF7E1FD002000F013
:104B200052FD01F09DFC012000F04DFDFFF7EDFD71
:104B30000500FFF7E0FD0022002100206BF060FA85
:104B4000DDE7DCE7DBE738B50400002500A902203B
:104B500000F0E6F99DF80000C00700D564259DF837
:104B60000000800700D5C8259DF80000400701D54A
:104B70004FF4FA759DF80000000701D54FF47A75DF
:104B80009DF80000C00601D54FF4FA65FFF75EFE00
:104B9000A84242D20221062000F011FD012000F0BF
:104BA00036FFE4B2B34810EBC4004268E4B2B14847
:104BB00050F8341000206BF04DFA01E0FFF7B7FD1C
:104BC000FFF744FEA8421BD201F0CFFBC0B2012880
:104BD000F4D00428F2D1FFF782FD002000F0F3FCAE
:104BE00001F03EFC012000F0EEFCFFF78EFD04001A
:104BF000FFF781FD0022002100206BF001FADDE7C4
:104C0000002000F004FF002000F0DDFC012000F097
:104C1000DAFC0221022000F0D2FC31BD10B5FFF712
:104C200074FD040002F01DFE002803D002280FD0FE
:104C300001D319E010BDE4B28F4810EBC400426804
:104C4000E4B28D4850F8341000206BF003FA0BE00A
:104C5000E4B28A4810EBC4004268E4B2874850F8D6
:104C6000341000206BF0F6F905E0FFF760FD4FF41B
:104C7000FA7000F0A2FF02F0F4FD0028DAD001F093
:104C800074FBC0B20128F0D00428EED1FFF727FD55
:104C9000002000F098FC01F0E3FB012000F093FC01
:104CA000FFF733FD0400FFF726FD0022002100205E
:104CB0006BF0A6F9D9E710B582B000A9012000F089
:104CC0002FF99DF80000002800D113BDFFF71DFD4E
:104CD000040003F0B1FAC0B20328F6D1E4B2684888
:104CE00010EBC4004268E4B2654850F8341000206C
:104CF0006BF0B0F905E0FFF71AFD4FF4FA7000F021
:104D00005CFF03F099FAC0B20328DED101F02DFB5D
:104D1000C0B20128EFD00428EDD100F07EFCFFF7EF
:104D2000DEFC002000F04FFC01F09AFB012000F0B7
:104D30004AFCFFF7EAFC0400FFF7DDFC002200213B
:104D400000206BF05DF900F068FCD4E710B5C0B24C
:104D5000002842D03348006800283ED147F2305442
:104D6000484A494900206BF04BF9464A4649002021
:104D70006BF070F9012002F073FA41F2707002F0EA
:104D800049FB3C2003F0BBFA40F6B83000F015FFB9
:104D900002E0012000F011FF2000441E00280ED088
:104DA00002F06DFBB0F57A7FF3D2002003F0A7FA92
:104DB000002002F02FFB002002F052FA0DE000204C
:104DC00003F09DFA002002F025FB002002F048FAD3
:104DD000FFF750FE13481449016010BD00B5ADF255
:104DE0007C4D2A4901A802F0BBFB92A90020FCF7E8
:104DF000CDFB132201A909A8FCF7E1FB244901A876
:104E000002F0AEFB01A8FEF7C1F800AB020001A959
:104E100009A8FCF7A7FC09A8FCF717FE0DF27C4DCA
:104E200000BD00003403001040771B0094100010F8
:104E3000F40D00102C0E00109C780010C0F500003E
:104E4000D4F50000601600107C160010A078001049
:104E500028790010F877001024100010E4F6000004
:104E600040170010F4F6000048F8000004F70000B6
:104E700054F800005C100010CC1000100411001059
:104E80003C11001014F7000060F8000024F7000047
:104E90006CF8000080B503F03DFA01BD10B40021AC
:104EA000002207E02C23464C03FB02439B889B1CFB
:104EB0005918521C8242F5D3080010BC704710B537
:104EC00004002C203E4A00FB042082883D4803F069
:104ED000FBFA2C203A4900FB041082880021394853
:104EE00003F005FB2C21364A01FB04218988354A51
:104EF00080B2030A8B542C21314A01FB042189889A
:104F0000304A891848702000FFF7C8FF2C212C4A2E
:104F100001FB042189888A1C2A4903F07AFA10BD12
:104F200070B504000D002000FFF7B8FF2C21244AC3
:104F300001FB042189888A1C234903F086FA2C206E
:104F40001F4900FB0410828800211F4803F0CFFA9C
:104F500080B22C211A4A01FB04218988194A891838
:104F600091F840102C22164B02FB04329288154B0C
:104F7000D21892F8412052EA0121884209D12C200E
:104F80000F4900FB041082880F49280003F09CFAA7
:104F900014E02C200A4900FB0410002104E0C9B2EF
:104FA000C9B20A5C4A55491C0A00D2B22C23044EED
:104FB00003FB04639B8892B29A42F0D370BD000059
:104FC000083A0000587500109875001080B503F07D
:104FD00083FA00F05FFB012000F019FD002000F0D3
:104FE000CCF9DFF84806006850F07040DFF83C1656
:104FF0000860DFF83C06006850F07040DFF83016BB
:105000000860DFF82806006850F00100DFF81C1681
:105010000860DFF81806006850F48030DFF80C16DE
:105020000860FFF737FF01F075FF02F029F803F081
:105030003DF903F0F5FB02F0ADFADFF8F805006882
:1050400050F04050DFF8EC15086003F04DFC03F021
:1050500081FDFCF7D5FD002003F089FD01BD10B5F1
:10506000002402F035F901F0FFF8FCF705FE03F02B
:10507000B7FD03F022F900F081FBDFF8BC05006802
:10508000002806D0DFF8B0050068401EDFF8A8153C
:105090000860DFF8A8050068002806D0DFF89C0546
:1050A0000068401EDFF894150860DFF8940500687A
:1050B000002806D0DFF888050068401EDFF880155C
:1050C0000860DFF880050068002806D0DFF8740566
:1050D0000068401EDFF86C150860DFF86C0500689A
:1050E000002806D0DFF860050068401EDFF858157C
:1050F0000860DFF858050068002806D0DFF84C0586
:105100000068401EDFF844150860DFF844050068B9
:10511000002806D0DFF838050068401EDFF830159B
:105120000860DFF830050068002806D0DFF82405A5
:105130000068401EDFF81C150860DFF81C050068D9
:10514000002806D0DFF810050068401EDFF80815BB
:105150000860DFF808050068002806D0DFF8FC04C6
:105160000068401EDFF8F4140860DFF8F4040068FB
:10517000002806D0DFF8E8040068401EDFF8E014DD
:105180000860DFF8E0040068401CDFF8D81408600D
:10519000DFF8D4040068C0F3C03010F0010090F0D4
:1051A0000100C0B204436400DFF8BC040068C0F32F
:1051B000400010F0010090F00100C0B20443640010
:1051C000DFF8A8040068C0F3406010F0010090F020
:1051D0000100C0B20443DFF898040078DFF89414AB
:1051E00021F81040DFF888040078401C102190FB63
:1051F000F1F202FB1102DFF87804027010BD10B565
:1052000082B00024DFF870141F20FFF789FEDFF85A
:10521000680400683D2803D3DFF85C043C2101608A
:1052200000A92120FFF77CFE23E0DFF804040068DA
:1052300050F48030DFF8F8130860FA2000F0BDFC6D
:1052400000F0FAF8DFF800040068002811D1DFF858
:1052500028040068002803D00021032003F0ACFBE1
:10526000DFF8140400684EF660214843DFF8D813D5
:10527000086094F0FF049DF80000002834D0E4B2E8
:10528000002C18D0DFF8F403006850F48030DFF809
:10529000EC130860DFF8E803006850F08050DFF896
:1052A000E0130860DFF8DC03006850F00050DFF81E
:1052B000D4130860C1E7DFF87803006850F4803049
:1052C000DFF86C130860DFF8BC03006850F0805012
:1052D000DFF8B0130860DFF8A803006850F0005052
:1052E000DFF89C130860A8E7DFF89803006850F027
:1052F0008050DFF890130860DFF88803006850F0F2
:105300000050DFF880130860E4B2002C8DD0DFF885
:105310006C03006850F48030DFF8601308608CE79D
:1053200010B4002100220AE0D2B2DFF8483333F88B
:10533000123001248440234200D0491C521CD2B2B6
:10534000102AF1DBC9B2092901DB012000E00020AD
:1053500010BC7047C0B2002808D0DFF820030068F6
:1053600050F00100DFF81413086005E0B048006851
:1053700050F00100AE490860704780B5C0B2002807
:1053800003D0022836D019D34FE0A948006850F066
:105390008050A7490860A648006850F00050A44912
:1053A0000860A348006850F08040A1490860A04808
:1053B000006850F000409E49086036E09C48006854
:1053C00050F080409A4908609948006850F00050B9
:1053D00097490860322000F0F0FBA848006850F0C0
:1053E0008050A6490860A548006850F00040A349D5
:1053F00008601AE08E48006850F080508C490860C0
:105400008B48006850F0004089490860322000F065
:10541000D4FB9A48006850F080409849086097484B
:10542000006850F000509549086001BD824908604D
:10543000704781480068704780B59348007800281D
:1054400000F0BC809148007890F0FF008F49087010
:105450008F488078002804D10021022003F025FA2B
:105460000DE08B488078012804D10121022003F04F
:105470001CFA04E085480178022003F016FA8448FB
:10548000C078002804D10021032003F00EFA0DE0BB
:105490007F48C078012804D10121032003F005FAD8
:1054A00004E07A480178032003F0FFF97848007996
:1054B000002804D10021042003F0F7F90DE074481E
:1054C0000079012804D10121042003F0EEF904E061
:1054D0006E480178042003F0E8F96D48407900280F
:1054E00004D10021052003F0E0F90DE0684840797F
:1054F000012804D10121052003F0D7F904E0634815
:105500000178052003F0D1F961488079002804D1A1
:105510000021062003F0C9F90DE05D4880790128DB
:1055200004D10121062003F0C0F904E057480178B6
:10553000062003F0BAF956484078002804D100212B
:10554000012003F0B2F90DE051484078012804D160
:105550000121012003F0A9F904E04C480178012061
:1055600003F0A3F94A480078002804D10021002064
:1055700003F09BF90DE046480078012804D1012191
:10558000002003F092F904E040480178002003F085
:105590008CF93E480078002808D00121012003F052
:1055A00084F90021002003F080F907E000210120A8
:1055B00003F07BF90121002003F077F901BDC0B2AF
:1055C000334A8154704738B50400002505E00021B6
:1055D0002800C0B203F069F96D1CEDB2082DF6DBAE
:1055E000E4B2002C09D1002004E0C0B22849002216
:1055F0004254401CC0B20828F7DB2348047031BD78
:10560000002807D11C4800684EF6602148430E4927
:10561000086001E00C4908607047174800684EF6C2
:1056200060214843084908607047000020C00920F5
:105630003CC0092080C0092038780010787800101C
:105640007C78001044780010280300104078001087
:10565000987800108078001034030010B0780010A3
:10566000A0780010EC78001034C0092014C0092084
:1056700013790010547700103C78001038C00920CE
:1056800098C009209CC00920500300101479001014
:105690000878001080B5DFF8B803006850F080701B
:1056A000DFF8AC130860DFF8A803006850F0007062
:1056B000DFF89C1308600120DFF89813096860F395
:1056C0001961DFF890030160DFF88C03006850F087
:1056D0000400DFF884130860DFF88003006850F0EE
:1056E0000400DFF878130860DFF87403006850F4F2
:1056F0008010DFF86C1308600120DFF85813096888
:1057000060F39B61DFF84C030160DFF84C03006835
:1057100050F00800DFF840130860DFF8400300682D
:1057200050F00800DFF834130860DFF83403006835
:1057300050F40010DFF828130860DFF82803006831
:1057400050F08070DFF81C130860DFF81803006861
:1057500050F00070C34908600021012001F012FAE6
:10576000C1490860C0480068002806D00023002214
:105770000021BD48006801F03DFA01BDBB4800882A
:10578000002804D0B9480088401EB8490880B848AD
:105790000088002804D0B6480088401EB44908801C
:1057A000704710B503F0BEFA40F6B83000F005FAC5
:1057B00003F0D0FA02F005FD0400002C09D06420AB
:1057C00000FB04F080B200F084F8200080B202F008
:1057D0000FFD0A2000F0F1F9EAE7A448008800284C
:1057E00007D1A44800881930A24908809F48322177
:1057F0000180A148006850F004009F4908609F485C
:10580000006850F480109D490860704799480088EE
:1058100070479849098880B2884205D3954909881C
:10582000081A9449088002E09248002101807047DC
:10583000C0B2002806D08B48006850F080708949BB
:10584000086005E08E48006850F080708C49086060
:1058500070478C48006800280BD1854800880028D4
:1058600007D1894800886430874908808048322100
:1058700001808148006850F008007F4908607F4837
:10588000006850F400107D4908607047C0B20028DD
:1058900006D07448006850F000707249086005E056
:1058A0007748006850F00070754908607047764886
:1058B000008870477449098880B2814205D27249D4
:1058C0000988081A7049088002E06F4800210180A9
:1058D000704710B5040000230122002162480068CF
:1058E00001F0F0F90028F6D068480068A4B220184A
:1058F0006649086066484EF6602101600023002278
:1059000000215948006801F075F910BD30B583B029
:105910000023012200215448006801F0D3F9002837
:10592000F6D059480088002824D05748058801A996
:105930000E20FFF7F5FA00A90F20FFF7F1FA019802
:105940002818019000982818009001A90E20FFF750
:10595000B6FA00A90F20FFF7B2FA4B4800880419E5
:105960004A48006828184949086047480088401B91
:1059700045490880454804683E48008804193D4868
:10598000002101800023002200213748006801F037
:1059900031F920003EBD10B5040000230122002192
:1059A0003148006801F08EF90028F6D037480068C9
:1059B000A04205D335480068001B3449086002E066
:1059C00032480021016031480068002802D52F4884
:1059D000002101600023002200212348006801F01B
:1059E00009F910BD10B504000023012200211E4852
:1059F000006801F067F90028F6D02448046000230D
:105A0000002200211848006801F0F4F810BD10B51C
:105A100004001C48E4B204602000C0B2FFF708FF95
:105A20002000C0B2FFF732FFE4B2200003F0C4F957
:105A3000E4B2200003F052FC2000C0B202F00EFCE1
:105A4000E4B2200003F015FE10BD11480068704755
:105A500020C0092010C0024048C10F404CC10F4077
:105A600000E100E038C009204C780010F478001004
:105A7000F8780010F278001040C10F4080E200E09A
:105A80003CC009202C030010F67800104878001064
:105A9000447800102DE9F84F06000F009046994613
:105AA0000C99DDF834A0404680B200F02DFB0500D3
:105AB0000A9C002D6DD01FFA88F8286B10EB880027
:105AC000B0F1040B5FEADB0B5FEACB0B1FFA88F83F
:105AD000CDF80080534622003900280000F0A4FAD7
:105AE0004A463100584603F0CFFD28600B98002845
:105AF00000D0056003F0F0FDDFF814070068401CDB
:105B0000DFF80C170860DFF80C07006800280AD1DE
:105B1000DFF800070560DFF8F8060068012810D1FB
:105B200000F09FFA0DE0DFF8F0060068002808D1C9
:105B3000DFF8E0060068C06A844202D3DFF8D406CA
:105B40000560DFF8D8060068E96A884203D2E86A8F
:105B5000DFF8C8160860DFF8C8060068401CDFF8E8
:105B6000C0160860DFF8BC060068E96A884203D204
:105B7000E86ADFF8B0160860291DE86A1422DFF829
:105B8000A83602FB003003F0F3FD012503F0ADFD64
:105B900001E05FF0FF35012D0CD1DFF87C060068D5
:105BA000002807D0DFF86C060068C06AA04201D266
:105BB00003F08DFD2800BDE8F28F10B50400002031
:105BC000002C29D000F04FF8DFF868060068241890
:105BD000DFF840060068001D03F0F3FDDFF834062F
:105BE00000684460DFF84C060068844209D2DFF8A0
:105BF00024060068011DDFF84006006803F0C6FDBA
:105C000008E0DFF810060068011DDFF830060068C4
:105C100003F0BCFD00F02FF8002801D103F057FD80
:105C200010BD00B585B00020039000200290002038
:105C300001900020009000235022DFF810160FF290
:105C4000E130FFF727FF01280BD103F0EBFDDFF870
:105C5000C80501210160DFF8DC050021016003F0C7
:105C600020FD05B000BDDFF8E0050068401CDFF84E
:105C7000D8150860704770B5002403F02DFDDFF8DB
:105C8000C8050068401EDFF8C0150860DFF8B805D9
:105C90000068002858D1DFF878050068002853D044
:105CA000002521E016F1180003F08BFD301D03F0F4
:105CB00088FDDFF870050068F16A884203D2F06A57
:105CC000DFF860150860311DF06A1422DFF85835DE
:105CD00002FB003003F04CFDF06ADFF8381509686C
:105CE000C96A884200D30125DFF8580500680028FA
:105CF00004D0DFF85005C068C66800E00026002E1A
:105D0000D0D1DFF84C050068002809D10EE000F082
:105D10001FF8DFF83C050068401EDFF83415086006
:105D2000DFF82C0500680028F1D10125012D04D0F1
:105D3000DFF820050068012806D10124DFF81405EA
:105D40000021016003F0C3FC03F0CFFC200070BD14
:105D500010B5DFF8F4040068002852D1DFF8D4044D
:105D60000068401CDFF8CC140860DFF8C804006845
:105D7000002812D1DFF8C4040068DFF8C014DFF88F
:105D8000B82412680A60DFF8B0140860DFF8C804AD
:105D90000068401CDFF8C01408601CE0201D03F000
:105DA00010FDA06A002803D014F1180003F009FDCB
:105DB000DFF870040068E16A884203D2E06ADFF825
:105DC00064140860211DE06A1422DFF85C3402FBD1
:105DD000003003F0CDFCDFF86404006800680028A0
:105DE00005D0DFF858040068C068C46800E00024EB
:105DF000002C0DD0DFF83C04006861688842CDD2E9
:105E000006E0DFF84C040068401CDFF8441408602A
:105E100010BD80B5DFF830040068002804D0DFF83A
:105E200034040121016053E0DFF8E8030068006BEF
:105E3000DFF8E01309680968884209D3DFF8D40362
:105E4000006810F13401DFF8CC03006803F03EFE77
:105E50001422DFF80814DFF8BC030068006B03F0BD
:105E600037FE002811D0DFF8AC03006810F13401D0
:105E7000DFF8A003006803F029FE06E0DFF8A403C2
:105E80000068401EDFF89C130860DFF89803006884
:105E90001421DFF8942301FB002000680028EDD0D6
:105EA000DFF8800300681421DFF87C2301FB002069
:105EB000416849684160416810F10802914202D18D
:105EC0004168496841604068C068DFF8481308606D
:105ED00001BD10B50C00DFF83C130968183103F060
:105EE00055FCDFF830030068001D03F06AFC14F174
:105EF000010F08D1DFF81C030068011DDFF8400323
:105F000003F036FC1CE0DFF82C0300682018DFF8F3
:105F1000041309684860DFF81C130968884208D236
:105F2000BC480068011DDFF81003006803F02EFC78
:105F300006E0B8480068011DC048006803F026FC70
:105F400010BD10B50168002902D0C068C46800E027
:105F5000002414F1180003F034FCBB48006800284A
:105F600013D1201D03F02DFCAE480068E16A884281
:105F700002D2E06AAB490860211DE06A1422AA4BF4
:105F800002FB003003F0F4FB04E014F11801AD480B
:105F900003F0EEFBE06A9F490968C96A884201D3B1
:105FA000012000E0002010BDAB4909680160A14953
:105FB00009684160704738B504000D0003F08CFBA0
:105FC000286810F1010F01D100241FE0A2480068E9
:105FD0002168884206D0974800686168884201D3EA
:105FE000012413E0934800686168401A29688842D8
:105FF0000BD228688F490968401A61680818286020
:106000002000FFF7D1FF002400E0012403F06DFB26
:10601000200032BD8F480121016070470000000060
:1060200080B500F040F8FCE738B5040015000C22FC
:1060300014F1340003F07EFD002084F83F00052DAC
