:10000000B87A001095E6000015E8000019E8000035
:100010001DE8000021E8000025E800002216FAEFA4
:10002000000000000000000000000000A5820000A9
:100030002DE800000000000053820000498100000C
:1000400039E80000B373000091560000FF5600002D
:1000500049E80000496E000000000000938800009D
:10006000D7A500005DE8000061E8000065E8000039
:1000700069E800006DE8000071E8000075E8000024
:1000800079E800007DE8000081E80000DD5500000F
:10009000273A0000A33A000091E8000095E800002C
:1000A00099E800009DE80000A1E80000A5E8000034
:1000B000A5E80000ADE8000000000000B5E8000081
:0400C000B9E800009B
:100300002DE9F04FA1B0824602AE002017461D46EF
:10031000029170620DF144080AE017F8011B02987F
:10032000D0470290002800F08B82706A401C7062F7
:10033000387808B9706A85E22528EED10020F0608F
:1003400030617061B061F061306201E040F0010045
:1003500017F8011F2029F9D023290DD02B2904D00B
:100360002D2906D030290AD00CE040F0020080B2DE
:10037000EEE740F00400FAE740F00800F7E740F04D
:100380001000F4E72A290DD129680A1D2A6009689E
:10039000F162002904D5494240F00400F16280B2C4
:1003A0007F1C13E00021F1620BE0F16A6FF0004363
:1003B000994205D001EB810302EB43013039F16230
:1003C0007F1C3A78A2F130010A29EED339782E2920
:1003D00003D04FF0FF31B1621EE017F8011F2A2948
:1003E00006D129680A1D2A607F1C0968B16213E0E2
:1003F0000021B1620BE0B16A6FF00043994205D071
:1004000001EB810302EB43013039B1627F1C3A7882
:10041000A2F130010A29EED330860FF6C0303978C8
:1004200000F0FAFD08B117F8010B8DF83A009DF8BD
:100430003A00682802BF39786829622005D06C2804
:1004400004BF38786C2803D171208DF83A007F1CE6
:1004500011A8B0603978B1F1250023D01C3871D0D3
:10046000001F02286ED9133800F09780093869D030
:10047000801E00F02B81401E00F0D480401E022818
:1004800060D9001F00F0CE80401F30D0401E00F029
:100490008480401E20D0C01E09D0801E7DD0C01E8A
:1004A0007BD01BE1F068411CF160252120E1286828
:1004B000011D29600068B26A7060002A02D500F050
:1004C000BBFD07E0002100F0D3FD00281ABF7168D2
:1004D000401AB06A30610DE12868011D29600021D1
:1004E0000068CDE9000111A870607821EAE09DF86C
:1004F0003A00622818D0682806D06A280BD06C28E9
:1005000019D0712807D016E02868011D29600068FD
:10051000716A0180EEE02A68101D28601268706A16
:10052000C117C2E90001E5E02868011D29600068E3
:10053000716A0170DEE02868011D29600068716A37
:100540000160D7E02868C01D20F00700286000F196
:1005500008022A60D0E90023CDE90023002B04D54E
:10056000F068421CF2602D220DE0308E820704D527
:10057000F068421CF2602B2205E0C00705D5F06848
:10058000421CF260202200F80820F06811AA8018AE
:10059000706000A800F0E2F9ACE09DF83A006C2829
:1005A00008BF2A6811D0712808BF2A6802D02A68BB
:1005B0006A280AD1D21D22F007022A60144604F1EB
:1005C00008022A60D4E9002303E0131D2B600023F6
:1005D0001268CDE90023682808BF92B207D06228CC
:1005E00008BFD2B203D0742818BF7A2802D10023E2
:1005F000CDE9002396F8300000075FD5DDE9002340
:10060000002B08BF002A59D041F02000782855D18E
:10061000F068302200F80820401C421CF26000F80C
:1006200008104BE09DF83A0062280CD0682810D0E2
:100630006A281AD06C2823D0712816D074281FD0AD
:100640007A280CD01CE02868021D2A6090F900204E
:100650001AE02868021D2A60B0F9002014E028681A
:10066000021D2A60002302680FE02868C01D20F0E8
:100670000700286000F108022A60D0E9002304E0A6
:100680002868021D2A600268D317CDE90023002BD9
:1006900004DAF068421CF2602D220DE0308E8207F1
:1006A00004D5F068421CF2602B2205E0C00705D596
:1006B000F068421CF260202200F80820F06811AABD
:1006C0008018706000A800F0C0F813E0F068411CCA
:1006D000F16029680A1D2A60096809E0F068421C77
:1006E000F260252200F8082021B1F068421CF26077
:1006F00000F80810F06AF168401AB169401A3169CF
:10070000401AF169401A7169401A316AA0EB010977
:1007100096F830007F1C400710D420208DF8400050
:10072000002409E0012310AA00A9504600F03EFC75
:10073000002840F08580641C4C45F3DBF4680DF123
:10074000440B0AE01BF8011B0298D04702900028D6
:1007500076D0706A401C7062641E002CF2D130208A
:100760008DF840004FF0000BB46909E0012310AA96
:1007700000A9504600F01AFC002861D10BF1010BD2
:10078000A345F3DB3469D6F804B00AE01BF8011B7B
:100790000298D0470290002852D0706A401C7062C4
:1007A000641E002CF2D130208DF840004FF0000B79
:1007B000F46909E0012310AA00A9504600F0F6FBF5
:1007C00000283DD10BF1010BA345F3DB30697168C3
:1007D000746900EB010B09E01BF8011B0298D0477C
:1007E000029068B3706A401C7062641E002CF3D1E2
:1007F00030208DF840004FF0000B346A08E00123F0
:1008000010AA00A9504600F0D1FBC8B90BF1010BAA
:10081000A345F4DB96F8300040077FF589AD202032
:100820008DF84000002400E0641C4C45BFF680AD0C
:10083000012310AA00A9504600F0B8FB0028F3D00D
:100840004FF0FF3021B0BDE8F08F2DE9FA470646A2
:1008500082B035690A466F2A08BF082705D041F0E3
:100860002000782814BF0A271027D6E900013C246D
:1008700080468946642A18BF692A05D1002903DA0F
:10088000D8F1000869EB4909B9F1000F08BFB8F1C8
:10089000000F0CD1306B50B9082F3BD196F83800BF
:1008A000000737D530203B2485F83B0032E0CDE906
:1008B0000089FB17404649463A4600F005FCB84619
:1008C000A8FB0023DDE90089A8EB02023032A4F185
:1008D000010AD2B254463A2A03DB9DF80830513B54
:1008E0009A180AF8052080465FEA010908BFB8F1A6
:1008F000000F03D0F06861198842D8D3082F09D1BE
:1009000096F83800000705D5605D302802D0641ED7
:1009100030206055C4F13C00B0616119F160316B69
:10092000884207DA081A30624FF6EF71308F0840BC
:10093000308710E000290ED596F8381001F0140128
:10094000102908D1716B7269891A326A891A081ADA
:100950000128A8BF306204B0BDE8F0872DE9F24F4E
:1009600004468EB0D4E90001CDE9020104AE9DF841
:10097000380040F02000009061280AD0206B002849
:1009800048BF062004D404BF0098672801D1012085
:1009900020636168C1F30A5040F2FF7290421CD19B
:1009A000080304BF2068002809D10320A0619DF836
:1009B000380061381A2836D30FF2346108E003207A
:1009C000A0619DF8380061381A2829D30FF2186108
:1009D000E068032200F0F0FBB5E1012816DA2046BA
:1009E00000F025FC012811DB002700200099612977
:1009F00020D1E168302201F8012B4A1CE2609DF809
:100A00003820612A0CBF782258220FE0626840F239
:100A1000FE3161F31E52471A62604FF0FF30E5E786
:100A20000FF2C051D4E70FF2C451D1E70A706169E7
:100A3000891C616110B9002500277BE100986128BD
:100A400040F09680206B00284CBF2125451CDDE935
:100A500002012DB26E1CD4E900890022002300F0AF
:100A600007FC3ABF89F00040CDE90280CDE9028958
:100A70003F1F8DF810200DF1110801E000F207086A
:100A8000012E32DBDDE902010022002300F008FC28
:100A90002BD21C2102A800F01BFCDDE9020100F0B2
:100AA0009DFCF61F8146012E09DB00F0C3FC0246C7
:100AB0000B46DDE9020100F0D5FCCDE9020108F2A8
:100AC0000700072105E009F00F0200F8012D4FEAA9
:100AD0002919B9F1010F01DB491EF4D5491E5CBF8C
:100AE000002200F8012DF9D5C8E70DF11100A8EB9F
:100AF00000010DF11106A942B8BF0D462DB2280024
:100B00002FD4884206DA04A9411849780829A8BFD9
:100B10000F2100DA002104AA821800E06D1E12F8ED
:100B20000139401E8B42F9D00F2904D104A9411884
:100B30004A78521C4A70002802D504AE6D1C3F1D35
:100B40002DB2681E0DD481190A783032D2B23A2AF9
:100B500003DB9DF838303A3B9A1801F80129401E12
:100B6000F2D5206B002840F1E580681E2063E1E0AB
:100B7000DDE902010022002300F07AFB3CBF81F096
:100B80000041CDE902013FB247F29750784348490E
:100B9000DFF820B190FBF1F73FB2C7F107069246AC
:100BA000012E19DBDDE90289F00707D552465B46C5
:100BB0004046494600F016FD80468946761050466C
:100BC000594652465B4600F00DFD82468B46002E8C
:100BD000EAD1CDE9028921E076429046DFF8D8904B
:100BE00012E0F00707D552465B464046494600F002
:100BF000F9FC8046894676105046594652465B4677
:100C000000F0F0FC82468B46002EEAD1DDE90201BD
:100C100042464B4600F0B8FDCDE902010098662837
:100C20000CBF07F10A000620216B4518142DA8BF40
:100C3000132530208DF810000DF11106DFF87C909F
:100C4000012D3DDBDDE9020100F0DEFB06F10801CC
:100C500004220A23B0FBF3F303EB8306A0EB460068
:100C6000303001F8010D0A20B3FBF0F000EB8006F4
:100C7000A3EB4603303301F8013D521EE9D1083D94
:100C800001F10806012DDBDBDDE9020100F0BCFB10
:100C900000F0DAFB02460B46DDE9020100F0E2FB60
:100CA00000224B4600F09EFCCDE90201CAE700BFDE
:100CB000A0860100000024400000F03F84D7974147
:100CC0000DF11100301A0DF1110602E0401E7F1ED9
:100CD000761C31783029F9D00099662902D13FB2CB
:100CE000791C03E065290CBF01210021226B8D18BE
:100CF0002DB2A842B8BF05462DB229001AD48142B0
:100D000004DA885D3528A8BF392000DA30208A1936
:100D1000521E00E06D1E12F80139491E8342F9D0BF
:100D2000392802D1885D401C8855002902D5761EDD
:100D30006D1C7F1C3FB29DF8381000972BB23246D5
:100D4000204600F003F80FB0BDE8F08F2DE9F04326
:100D5000054685B01E46D5F8308089461746012ED7
:100D600002DA01260FF28C2749F02000BDF930404D
:100D7000662808BF641C17D0672840F0818014F1F2
:100D8000040FC0F28380444580F2808095F83800DB
:100D9000641C000702D44645B8BFB04624B2B8EB85
:100DA000040848BF4FF00008E868A96924B2012C84
:100DB00025DA30234A1C0B54B8F1010F03DA95F8F9
:100DC0003810090702D52E211154521CAA6118EBC4
:100DD000040FB8BFC8F1000424B26142A0446962A4
:100DE000B045B8BF464636B2EE613246AB693946C9
:100DF000181800F0E1F9A8EB0600A862BFE0081897
:100E0000A64218DA3246394600F0D6F9A9697118B7
:100E1000A961A01B6862B8F1010F03DA95F83800E8
:100E2000000705D5E8682E220A54E869401CE861ED
:100E3000C5F82880A3E02246394600F0BDF9A8692C
:100E40002018361BB8F1010F03DA95F8381009079E
:100E500003D5E9682E224254401C36B2A861B04541
:100E6000B8BF4646EB6836B23246E119C01800F00A
:100E7000A3F9A8693018A861A8EB060068627EE0B3
:100E80004846612816D14FF0700917E0464504DA4C
:100E900095F83810090758BFB046B8F1010848BFA7
:100EA0004FF00008B9F1670F14BF4FF045094FF03C
:100EB000650903E0412808BF4FF05009A969E868B7
:100EC00017F8013B0B544A1CB8F1010F05DA95F8ED
:100ED0003810090758BFAA6117D52E211154531C89
:100EE000AB61B8F1010F10DB761E36B2B045B8BF6A
:100EF000464636B232463946181800F05DF9A86900
:100F00003018A861A8EB06006862A869E96847186C
:100F1000200007F8019B03D42B2007F8010B03E006
:100F20002D2107F8011B444200260DF1080808E0B6
:100F30000A2200A800F04BFD019808F8010B761C6E
:100F4000009C21B20129F3DA022E06DA49F02000D2
:100F5000652804BF302007F8010B4EB9302007F890
:100F6000010B07E0761E02A8305C303007F8010B59
:100F7000012EF7DAA869E9684018381AE86195F88F
:100F8000380000F0140010280DD16869A96908180C
:100F9000696A0818E9690818A96A0818696B88421B
:100FA000BCBF081A286205B0BDE8F083F8B5044656
:100FB0000D4616461F46002004E0E86A401CE86221
:100FC0007F1E002047B116F8011BA868A047A86043
:100FD0000028F2D14FF0FF30F2BD0000686A6C7457
:100FE0007A4C00006E616E004E414E00696E6600E4
:100FF000494E4600300050F8041B61B150F8042BF4
:10100000D30744BFA9F101039A18002342F8043B17
:10101000091FFAD1EFE770470278C9B28A421AB1C4
:101020001CBF10F8012FF9E718BF002070470268B5
:10103000531C03601170704700F10103810704D055
:1010400010F8011B89B18107FAD10268B2F10131B0
:10105000914311F0803F04BF50F8042FF6E710F8D9
:10106000011B11B110F8011BFBE7C01A704700000B
:10107000C9B2830706D0521E22D310F8013B994211
:10108000F7D11FE0083A13D302F1040241EA01212B
:1010900041EA014150F8043B121F21BF4B40A3F12C
:1010A000013C2CEA030C1CF0803FF3D0C9B2001FB6
:1010B000083210F8013B521E28BF91EA030FF8D8FE
:1010C00018BF0120401E70471B4213D1094236D180
:1010D0002AB18446B0FBF2F002FB10C2704700F068
:1010E0007DBCFCD30022002370470B0002000021CE
:1010F00000207047904271EB030CF6D370B5B1FA43
:1011000081F4B3FA83F52C1BA340C4F1200532FA15
:1011100005F63343A2405FF00046E64002E05B087C
:101120005FEA3202841A71EB030524BF2046294688
:101130007641F4D302000B003000002170BD012A7B
:10114000CFD970B5140C20D0B1FA81F4B2FA82F57F
:10115000C4F120046419B4F12006D6D3B2405FF084
:101160000044F440002502E052085FEA3303C61A47
:1011700071EB020E24BF3046714664416D41F3D3DA
:1011800002000B002000290070BD0C46B1FBF2F1FB
:1011900002FB11452D0445EA1045B5FBF2F402FBB4
:1011A000145580B240EA0545B5FBF2F002FB10523F
:1011B00040EA044070BD000062B38B0708D0521EA5
:1011C00011F8013B00F8013B00F024808B07F6D1B9
:1011D000830740F0208000BF103A07D330B4B1E855
:1011E0003810103AA0E83810F9D230BC530724BFA9
:1011F000B1E80810A0E8081044BF51F8043B40F8DB
:10120000043BD20724BF31F8022B20F8022B44BF45
:101210000B7803707047083A07D3B1E80810083A12
:1012200040F8043B40F804CBF7D25307E4E730B46E
:10123000436803F0004201211B031B0B436004BF02
:101240000368002B08D10DE00368DD0F45EA440474
:1012500044605B000360491E4468E302F4D5230345
:101260001B0B436043681A434260084630BC70471A
:101270004FF4001C1CEB410F94BF1CEB430F09E023
:1012800041EA030C50EA4C0C52EA0C0C03D299428E
:1012900008BF9042704714BF8B42824270470000E3
:1012A0004FF4001C1CEB410F94BF1CEB430F09E0F3
:1012B00041EA030C50EA4C0C52EA0C0C03D28B426C
:1012C00008BF8242704714BF9942904270470000A5
:1012D00070B504460D466068C0F30A5040F2FF71D5
:1012E000884207D16068000304BF2068002817D037
:1012F000022070BD20B92046FFF799FF012867DA68
:10130000012D0FDB40F2FF71091A8D420AD360688C
:10131000002847BF00202F4900202F49C4E90001C1
:10132000012070BD4142A942616806DA6FF31E5187
:10133000401941EA0050606041E0401E63680122AC
:10134000451962F31F5305F1350001F00041636058
:10135000352803D361600020206070BD002215F1A4
:101360001F0F04DA22682360002020356060684285
:1013700013D0521E25689241C0F12003D2439D40F4
:1013800045EAD27225686668C54006FA03F32B4326
:101390002360636823FA00F060606068084360605F
:1013A000B2F1004F03D80DD12078C0070AD52068CC
:1013B000401C2060206828B96068401C60604FF0C5
:1013C000FF3070BD6068884204BF20680028F6D1F5
:1013D000002070BD0000F0FF0000F07FF446400DDB
:1013E00040EAC120490006D200F014F8004248BF8C
:1013F0006FF00040604700F00DF84FF00041884268
:101400008CBF084640426047400D40EAC120490079
:1014100080F00D8040F00040490DA1F58061491C2D
:1014200005D4D1F11F0154BFC840C01770474FF019
:1014300000007047010040F10980F446404200F08E
:1014400005F851F000416047010000BF09D0B0FA33
:1014500080F18840C91CC1F58461090501EBD021E8
:101460004005704770B44FF0004591EA030F44BF48
:101470006B4000F0B5BA00BF841A71EB030604D2CA
:101480006E40001BB141121973414FF4001C1CEB5C
:10149000410F34BF7CEB430684E00C0DA4EB1356E4
:1014A000362E7DDC012E43DC45EAC32343EA52534A
:1014B00012BFD20292025B08240545EAC12141EA2B
:1014C0005051D2EBC020994125D407D1B0FA80F613
:1014D00010FA06F164D00020203608E0B1FA81F657
:1014E000B140C6F1200220FA02F21143B0404FEAA7
:1014F000F474B4EB465434F001064FEA74040AD88D
:10150000D6F50016760D04F00044F04061FA06F2BC
:101510005040F1404840C00A40EA415021F00041AB
:1015200028BF5FEA500550F1000044EBD12137E0BD
:1015300045EAC323DB0A45EAC121C90AB6F1200501
:101540000EDD42EA0242120CC5F1200603FA06F64D
:10155000EB4042EA06056D42984161F100010DE061
:1015600062FA06F5F240554063FA06FC82EA0C0284
:10157000F3405A406D42904161EB030111F4801F2A
:1015800005D1641E620502D06D004041494121F43D
:101590008011430875F1004350F1000041EB045104
:1015A00070BC70471CEB410F15D223F0004352EA88
:1015B00043060BD04FEA4C0CBCEB410F04D80C0D8A
:1015C000661E342EB7DDEBE7801A994150EA4106DA
:1015D00008BF0021E4E708BF1CEB430F28BF6FF0F2
:1015E0000001DDE7B0B581EA030C0CF0004C40F2DD
:1015F000FF7515EA11541DBF15EA1357AC42AF42EF
:1016000039E0E41923EA455343F48013C90241F059
:10161000004141EA505EC7021100A7FB0202002808
:101620004FF00000EEFB01204FF00001E3FB07212B
:1016300018BF42F00102401800214941E3FB0E01AE
:10164000A4F580640F0302D252004041494154F195
:1016500001046CDD470872F1004250F1000051EBCB
:101660000451A1F580115CBF41EA0C01B0BD4CEA08
:1016700005510020B0BD05EA1357AC4214BFAF427C
:1016800041E050EA410E1CBF52EA430E02E06146BF
:101690000020B0BD24423C441BD15FEA070EF6D0C7
:1016A000090302BF01460020AEF1140EB1FA81F722
:1016B000AEEB070401FA07FE0C37C7F1200100FA70
:1016C00007F7C8404EEA000E23EA455343F480135F
:1016D000A2E733F00043B3FA83F704BFB2FA82FE05
:1016E00077440B3FE41BB7F1200E2FBF02FA0EF335
:1016F000BB40C7F1200E22FA0EFE38BF43EA0E03AC
:10170000BA40641C82E750EA410E14BF52EA430E0D
:101710006FF000014FF4001717EB430F8ABF194613
:1017200017EB410FB5E74CEA05510020B0BDD4F1ED
:101730000104B4F120070FDAC4F12007520828BFD2
:1017400042F0010210FA07F501FA07F7E1BF2A4358
:10175000E0403843E1400FE0352C98DCC7F120042D
:1017600052EA400220FA07F218BF42F0010231FAB1
:1017700007F0A1400A43002172F1004250F100003D
:1017800051EB0C01B0BD0000F0B540F2FF7581EAED
:10179000030C0CF0004C15EA11541DBF15EA135749
:1017A000AC42AF42E5E0BC41C1F31301C3F3130304
:1017B000801A994143F4801304D2641E40004941C9
:1017C00080185941C90241EA5051B1FBF3F603FBBD
:1017D0001611A2FB0675D7EBC020A94102D2761ED6
:1017E00080185941C90241EA5051B1FBF3FE03FB95
:1017F0001E11A2FB0E75D7EBC020A94103D2AEF19A
:10180000010E80185941890241EA9051760546EA55
:101810008E2EB1FBF3F603FB1611A2FB0675D7EB78
:101820008020A94102D2761E80185941C90241EA9E
:1018300050514EEA060EB1FBF3F603FB1611A2FB64
:101840000675D7EBC020A94102D2761E80185941F7
:10185000C90241EA5051B1FBF3F703FB1711A2FB98
:101860000735D3EBC020A94167F100070CBF004248
:1018700047F0010766F3D5274FEA1E31B80814F583
:10188000806412DDBD0775F1004250EB0E5051EB44
:10189000045111F5801F5CBF41EA0C01F0BD4CF012
:1018A0007F6141F0E0410020F0BDBD076D0840EAD6
:1018B0000E5041F48011D4F10104B4F120060ADA8B
:1018C000C4F120060200E04001FA06F3E1401843AB
:1018D000B24015430EE0342C13DCC6F1200445EA77
:1018E00040056D0820FA06F2154321FA06F0A140E2
:1018F0000D43002175F1004250F1000051EB0C0145
:10190000F0BD00205FEA0C01F0BDCFB992185B4139
:10191000B3FA83F704BFB2FA82F6BF190B3FB7F1EF
:1019200020062FBF02FA06F3BB40C7F1200622FAB9
:1019300006F638BF3343BA401CB1E419641E33E7DE
:101940007F4231F00041B1FA81F404BFB0FA80F671
:10195000A4190B3CB4F120062FBF00FA06F1A140F8
:10196000C4F1200620FA06F638BF3143A0403C1BE4
:101970001AE7AC421ABF05EA1357AF4212E050EA29
:1019800041061CBF52EA4306BFE750EA4107304612
:1019900061461CBF41EA0551F0BD52EA430C08BF45
:1019A000C143F0BD00204FF4001616EB410F98BF65
:1019B00016EB430F08BF16EB410F24BFC14305E0F0
:1019C00016EB430F0CBF61464CEA0551F0BD91FB8D
:1019D000F2F303FB1211C0E90031704770470000B9
:1019E000841A71EB030603D2001BB1411219734133
:1019F0004FF4001C1CEB410F34BF7CEB430443E06D
:101A00000C0DA4EB1356352E50DC45EAC323DB0A3C
:101A100045EAC121C912B6F120050DDD63FA05F6CC
:101A2000EB4086EA0305124218BF45F00105C018D5
:101A300051F100010CD213E062FA06F5F240554074
:101A4000F3415A40B340F3405A408018594107D3FC
:101A500049085FEA30005FEA350528BF45F0010517
:101A600001F58011420875F1004250F1000041EB90
:101A7000045170BC4FF4001C1CEB410F38BF704781
:101A80000020090D090570471CEB410F10D252EAE6
:101A900043060BD0BCEB410F05D80C0DAB43661EC3
:101AA000342EB5DD02E0AB438018594170BC70475D
:101AB00070BC70470000000001004944494F4D418F
:101AC0000000000000000000000000000000000016
:101AD000000000000000000000004E554D00000016
:101AE000000000000100464C41475F425632300082
:101AF00000000000000000000000000000000000E6
:101B00000000000000004E554D00000003000000E2
:101B100001005449504F5F4E4F54415300000000A4
:101B200000000000000000000000000000000000B5
:101B300000004E554D0000000A0000000400564110
:101B40004C4F525F5049504F43410000000000008D
:101B500000000000000000000000000000004E55E2
:101B60004D000000000000000100464C41475F4D61
:101B700044425F42494C4C0000000000000000005D
:101B8000000000000000000000004E554D00000065
:101B9000000000000100464C41475F4D44425F4356
:101BA0004F494E000000000000000000000000004F
:101BB0000000000000004E554D0000000000000035
:101BC0000100464C41475F4D44425F43534800008B
:101BD0000000000000000000000000000000000005
:101BE00000004E554D0000000A0000000400424174
:101BF00055445F5052494E544552000000000000C9
:101C000000000000000000000000000000004E5531
:101C10004D0000000A000000040056414C4F525F86
:101C200050554C534F5F4D4F45440000000000009D
:101C3000000000000000000000004E554D000000B4
:101C40000A000000040056414C4F525F50554C535F
:101C50004F5F4E4F540000000000000000000000E5
:101C60000000000000004E554D0000000000000084
:101C70000400434F4E544147454D5F504152434944
:101C8000414C0000000000000000000000000000C7
:101C900000004E554D000000000000000400434FBE
:101CA0004E544147454D5F544F54414C0000000095
:101CB00000000000000000000000000000004E5581
:101CC0004D0000000000000004004D4F4544415FFE
:101CD0005041524349414C00000000000000000008
:101CE000000000000000000000004E554D00000004
:101CF0000000000004004D4F4544415F544F5441E3
:101D00004C00000000000000000000000000000087
:101D10000000000000004E554D00000000000000D3
:101D2000040043415254414F5F5041524349414C9A
:101D300000000000000000000000000000000000A3
:101D400000004E554D00000000000000040043411B
:101D50005254414F5F544F54414C0000000000006A
:101D600000000000000000000000000000004E55D0
:101D70004D000000000000000400554E495F434143
:101D80005254414F5F5041524349414C00000000C2
:101D9000000000000000000000004E554D00000053
:101DA000000000000400554E495F43415254414F2A
:101DB0005F544F54414C0000000000000000000040
:101DC0000000000000004E554D0000000000000023
:101DD0000400494E4943494F5F4D55534943410023
:101DE00000000000000000000000000000000000F3
:101DF00000004E554D000000000000000400494E58
:101E00004943494F5F50524F504147414E44410072
:101E100000000000000000000000000000004E551F
:101E20004D000000000000000400494E4943494FA6
:101E30005F504547415F5041434F5445000000000B
:101E4000000000000000000000004E554D000000A2
:101E5000000000000400494E4943494F5F5049507B
:101E60004F4341535F50524F4E54415300000000C6
:101E70000000000000004E554D0000000000000072
:101E8000040054414D414E484F5F424C4F434F5F19
:101E90004D55534943410000000000000000000080
:101EA00000004E554D0000000000000004005441A9
:101EB0004D414E484F5F4C4F435543414F5F505249
:101EC0004F500000000000000000000000004E55D0
:101ED0004D00000000000000040054414D414E48F8
:101EE0004F5F504547415F5041434F54450000000C
:101EF000000000000000000000004E554D000000F2
:101F000000000000040054414D414E484F5F5049CD
:101F1000504F4341535F50524F4E544153000000C5
:101F20000000000000004E554D00000000000000C1
:101F3000040054454D50455241545552415F505252
:101F4000455041524F00000000000000000000001A
:101F500000004E554D0000000000000004005645F2
:101F60004C4F4349444144455F50524550415241D2
:101F70004F000000000000000000000000004E556F
:101F80004D00000000000000040054454D504F5F1C
:101F90004D4F544F525F454D42414C4147454D00D6
:101FA000000000000000000000004E554D00000041
:101FB000000000000400564F4C554D455F4D5553F1
:101FC0004943410000000000000000000000000044
:101FD0000000000000004E554D0000000000000011
:101FE0000400564F4C554D455F4C4F435543414FB0
:101FF00000000000000000000000000000000000E1
:1020000000004E554D000000000000000400494E45
:1020100054455256414C4F5F50524F500000000003
:1020200000000000000000000000000000004E550D
:102030004D00000000000000010046524545000030
:102040000000000000000000000000000000000090
:10205000000000000000000000004E554D00000090
:10206000000000000100464954415F4C4544000017
:102070000000000000000000000000000000000060
:102080000000000000004E554D0000000000000060
:10209000010054524F434F5F4D4F454441000000F3
:1020A0000000000000000000000000000000000030
:1020B00000004E554D000000000000000400534594
:1020C0004E48415F41444D494E0000000000000071
:1020D00000000000000000000000000000004E555D
:1020E0004D0000000000000004004E554D45524FC9
:1020F0005F53455249450000000000000000000009
:10210000000000000000000000004E554D000000DF
:10211000000000000400434F4D495353414F5F50AE
:102120004F4E544F0000000000000000000000006F
:102130000000000000004E554D00000000000000AF
:102140000100464C475F444553554D49440000004B
:10215000000000000000000000000000000000007F
:1021600000004E554D000000000000000400636EAA
:10217000745F7069705F74657374650000000000BF
:1021800000000000000000000000000000004E55AC
:102190004D000000000000000000000000000000F2
:1021A000000000000000000000000000000000002F
:1021B000000000000000000000000000000000001F
:1021C000000000000000000000000000000000000F
:1021D00000000000000000000000000000000000FF
:102500000000000088E30000100053475F434C497F
:10251000454E54455F3031000000000000000000CF
:1025200000000000000000000000545854000000AB
:1025300088E30000100053475F434C49454E544523
:102540005F303200000000000000000000000000CA
:1025500000000000000054585400000088E3000010
:10256000100053475F434C49454E54455F3033009C
:10257000000000000000000000000000000000005B
:10258000000054585400000088E300001000534736
:102590005F434C49454E54455F3034000000000015
:1025A000000000000000000000000000000054587F
:1025B0005400000088E3000002005449504F535F6C
:1025C0004D4F4E4541444100000000000000000016
:1025D000000000000000000000006931360000002B
:1025E000000000000100434F4D505F4552524F5FC5
:1025F0004D4F544F5200000000000000000000004A
:102600000000000000004E554D00000000000000DA
:102610000400434F4D505F54454D500000000000F2
:1026200000000000000000000000000000000000AA
:1026300000004E554D0000007CB5040000F0FDF890
:10264000060000F0A9F801A9032000F030FD0DF10B
:102650000101202000F02BFD00A9222000F027FD21
:102660000DF10201262000F022FD002200210020B1
:102670006DF0F3FC012001F0A2F8002001F0BCF89D
:1026800001F06EFA01F0B2FA002001F0EBFA01A9B4
:10269000032000F00CFD0DF10101202000F007FDEA
:1026A00000A9222000F003FD01F0A5FB0500EDB21A
:1026B000012D30D038D3032D05D003D3052D2BD0D9
:1026C00002D331E030E02FE000F0A1F8002001F06B
:1026D00076F801F00DFC012001F071F800F0ADF882
:1026E000060001A9032000F0E2FC0DF10101202009
:1026F00000F0DDFC00A9222000F0D9FCDFF8B408CE
:10270000DFF8B418016000F08EF8002200210020EC
:102710006DF076FC08E007E09DF80100002803D08A
:10272000019880B201F0FFF99DF8010000280ED059
:10273000F6B2DFF8880810EBC6004268F6B2DFF8A0
:102740007C0850F8361001206DF087FC0FE0300057
:10275000C0B200F0B7F89DF80000002803D03000A8
:10276000C0B200F0CCFA00F03DFB00F08BFB9DF80E
:1027700000203100C9B2019800F00BF902210220BB
:1027800001F019F800F06BF8322001F09EFC9DF882
:10279000020000F0C6FB7AE710B5002404210820EF
:1027A00002F008F80421082002F048F9E4B2DFF84A
:1027B000100810EBC4004268E4B2DFF8040850F8D7
:1027C000341000206DF01CFCE4B2DFF8F80710EBC9
:1027D000C4004268E4B2DFF8EC0750F8341000207F
:1027E0006DF03BFC0021012002F046FBDFF8D8171A
:1027F0000860DFF8D4070068002807D00023002213
:102800000021DFF8C407006802F070FB10BD80B53E
:10281000002301220021DFF8B007006802F0CFFB9F
:102820000028F5D001BD80B5002300220021DFF88B
:102830009807006802F05AFB01BD80B500208DF8B2
:10284000000000A9002000F032FC9DF800000828DC
:1028500002DB00208DF800009DF8000002BD70B57D
:1028600086B002F046FD040003F00BF8A4B223008A
:102870000200DFF8581701A803F07AF8002201A936
:1028800001206DF0BDFB01F06BF90400642501F03F
:1028900067F9060002F062FD94FBF5F105FB1141BA
:1028A0000091642196FBF1F380B20200DFF820175B
:1028B00001A803F05DF801AA002101206DF0A0FB42
:1028C00006B070BD30B587B0040000A9032000F049
:1028D000EEFB00986421B0FBF1F201FB12030098BB
:1028E0006421B0FBF1F2E4B2DFF8E80650F82410FE
:1028F00001A803F03DF8002201A901206DF0ADFB15
:1029000001F02EF90500002D15D06420B5FBF0F183
:1029100000FB11536420B5FBF0F2E4B2DFF8B80617
:1029200050F8241001A803F023F801AA0021012087
:102930006DF093FB21E0DFF8A4060068002810D1B9
:10294000DFF89C060078401C042190FBF1F202FBAA
:102950001102DFF88C060270DFF8800642F2107177
:10296000016001A9DFF8780600783C3000F09FFB99
:1029700001AA002101206DF070FB07B030BD80B5C9
:1029800000A803F0B9F9002801D0009800E0002069
:1029900002BD70B582B004000D00160001F0E0F831
:1029A000A042C0F08D80F6B2002E03D0FFF7E7FF03
:1029B000A0427CD3012100A803F0E0F9002806D052
:1029C000022845D034D3042862D051D36FE02000D0
:1029D00001F00CF9F6B2FF2E1DD101F0C1F800286C
:1029E00019D00022002100206DF037FB00220021C9
:1029F00000206DF032FBEDB2DFF8E80510EBC5000A
:102A00004268EDB2DFF8DC0550F8351000206DF0BB
:102A100024FB00F090F82800C0B203F0E1FB002294
:102A2000002100206DF019FB002001F01BF93EE0B1
:102A3000DFF8B425EDB2DFF8B40550F8251000201A
:102A40006DF00BFB00F04AF8002001F00BF92EE0CE
:102A5000DFF89C25EDB2DFF8940550F82510002032
:102A60006DF0FBFA00F03AF8002001F0FBF81EE0F0
:102A7000DFF88025EDB2DFF8740550F8251000204E
:102A80006DF0EBFA00F02AF8002001F0EBF80EE010
:102A9000DFF86425EDB2DFF8540550F8251000206A
:102AA0006DF0DBFA00F01AF8002001F0DBF80022EC
:102AB000002100206DF0A4FA002000F09DFE0CE043
:102AC000F6B2FF2E09D101F0E7F8002805D101F098
:102AD00047F8002801D000F02EF873BD10B5022190
:102AE000062000F068FE00F026F8012001F0BAF898
:102AF000FFF7B5FE01F07FF90400E4B2012C17D016
:102B0000F6D3032C16D014D3042CF1D1FFF77FFE9B
:102B1000002000F054FE01F0EBF9012000F04FFE20
:102B2000FFF781FE0022002100206DF069FADFE747
:102B3000DEE7DDE7DCE72DE9F0418AB001F010F8CF
:102B40000400FFF77AFE0600002001F08BF84FF436
:102B5000FA7001F0BAFA0A20070005A900A803F0EC
:102B6000AAF80500EDB2002D02D07F1E002FF4D18F
:102B7000EDB2002D54D1F6B2DFF8800450F82620D3
:102B8000002101206DF069FA03F099FB0A2007008B
:102B90009DF80010200080B203F0EBFC0500EDB2C0
:102BA000002D03D03800471E0028F1D103F092FB1E
:102BB000EDB2002D34D103F082FB0A20070001A8FA
:102BC00003F000FD0500EDB2002D02D07F1E002FA6
:102BD000F5D103F07FFBEDB2002D1DD15FF00008B1
:102BE0000020C0B210280CDAC0B201A9415C9DF8E7
:102BF00000205143C0B205AA825C02FB0188401C40
:102C0000EFE7A04503D1200000F0F0FF04E04046CC
:102C100000F0ECFFB4EB080400F0A2FF0028CAD1DA
:102C200001200AB0BDE8F08170B503F0EFFC0400AC
:102C3000FFF703FE0500E4B2002C01D101205DE0A6
:102C4000E4B2012C0AD02DD3032C1DD011D3052CB6
:102C50001CD01AD3072C1BD019D323E0DFF8A023F4
:102C6000EDB2DFF8880350F8251000206DF0F5F97B
:102C700018E0DFF87C23EDB2DFF8700350F8251080
:102C800000206DF0EAF90DE00CE00BE00AE009E04D
:102C9000DFF86423EDB2DFF8540350F8251000206C
:102CA0006DF0DBF9012000F0DDFF062000F087FD6C
:102CB00001F0A1F80600F6B2012E1AD01BD3032EA4
:102CC00019D017D3042E16D1FFF7A1FD002000F074
:102CD00076FD01F00DF9012000F071FDFFF7ADFD6B
:102CE0000500FFF7A0FD0022002100206DF088F90B
:102CF00001E000E0FFE7FFF7B2FDD9E770BD70B576
:102D000082B00400002500A9022000F0D0F99DF84F
:102D10000000C00701D5642005009DF80000800771
:102D200001D5C82005009DF80000400702D54FF4EA
:102D3000FA7005009DF80000000702D54FF47A7084
:102D400005009DF80000C00602D54FF4FA600500AA
:102D5000FFF715FEA84244D20221062000F02BFD09
:102D6000012000F07FFFE4B2A64810EBC4004268E7
:102D7000E4B2A44850F8341000206DF06EF9FFF76B
:102D8000FEFDA84220D201F036F80600F6B230006F
:102D9000012816D0042814D1FFF739FD002000F0D7
:102DA0000EFD01F0A5F8012000F009FDFFF745FD3B
:102DB0000400FFF738FD0022002100206DF020F90B
:102DC000FFE7FFF74CFDDAE7002000F04BFF0020A3
:102DD00000F0F5FC012000F0F2FC0221022000F0DE
:102DE000EAFC73BD38B5FFF728FD040002F03BFF95
:102DF000002803D002280FD001D319E041E0E4B24B
:102E0000814810EBC4004268E4B27F4850F83410A7
:102E100000206DF022F90BE0E4B27C4810EBC40016
:102E20004268E4B2794850F8341000206DF015F98A
:102E300002F019FF002824D000F0DDFF0500EDB2FC
:102E40002800012816D0042814D1FFF7E0FC002048
:102E500000F0B5FC01F04CF8012000F0B0FCFFF7E9
:102E6000ECFC0400FFF7DFFC0022002100206DF0E5
:102E7000C7F8FFE7FFF7F3FC4FF4FA7001F025F90C
:102E8000D6E731BD70B582B000A9012000F00FF97E
:102E90009DF80000002843D0FFF7CFFC040003F0AA
:102EA00046FE0500EDB2032D3AD1E4B2584810EBCE
:102EB000C4004268E4B2564850F8341000206DF067
:102EC000CCF803F034FE0500EDB2032D28D100F05C
:102ED00092FF0600F6B2300001281AD0042818D15B
:102EE00000F097FCFFF793FC002000F068FC00F076
:102EF000FFFF012000F063FCFFF79FFC0400FFF7D9
:102F000092FC0022002100206DF07AF800F081FC94
:102F1000FFE7FFF7A4FC4FF4FA7001F0D6F8D0E712
:102F200073BD38B50400E4B2002C42D021480068DB
:102F300000283ED147F23055364A374900206DF01F
:102F40005FF8344A344900206DF087F8012002F020
:102F500032FB41F2707002F055FC3C2003F04CFE55
:102F600040F6B83001F0B1F82800451E002812D014
:102F700002F087FCB0F57A7F09D2002003F03CFE16
:102F8000002002F03FFC002002F015FB11E00120C0
:102F900001F09BF8E8E7002003F02EFE002002F08D
:102FA00031FC002002F007FBFFF73EFE014802491A
:102FB000016031BD3C03001040771B00EC10001095
:102FC0004C0E0010840E00101C770010C0E20000B0
:102FD000D4E20000B8160010D416001020770010BC
:102FE000AC7700107C100010E4E30000981700108C
:102FF000F4E3000038E5000004E40000B01800101D
:1030000044E50000B4100010241100105C11001001
:103010009411001014E4000050E5000080B503F0A6
:10302000F7FD01BD10B40100002000228A4208D241
:103030002C23484C03FB02439B889B1C1818521CF2
:10304000F4E710BC704770B504000D002C20414916
:1030500000FB0410828829003F4803F0C3FE2C20A7
:103060003C4900FB0410828800213B4803F0D1FE5C
:1030700006002C20374900FB041080883649B6B280
:10308000320A42542C20334900FB04108088324914
:10309000401846702000FFF7C5FF2C212D4A01FB88
:1030A000042189888A1C2C4903F03EFE70BDF8B5C6
:1030B00004000D002000FFF7B5FF2C21254A01FB7D
:1030C000042189888A1C254903F04AFE2C202149C5
:1030D00000FB041082880021204803F09AFE0600BD
:1030E000B6B22C201B4900FB041080881A494018F6
:1030F00090F840002C21174A01FB04218988164AC8
:10310000891891F8411051EA0020864209D12C20FB
:10311000104900FB041082881049280003F062FE69
:1031200016E028002C210B4A01FB04210022130089
:10313000DBB22C27DFF81CC007FB04C7BF889BB29B
:10314000BB4205D2D2B2D2B2535C1354521CEEE74A
:10315000F1BD0000B41A0000D0730010107400100C
:1031600080B5DFF8C006006850F00100DFF8B41643
:10317000086003F043FE00F091FB012000F072FDB7
:10318000002000F0F5F9DFF89C06006850F0704070
:10319000DFF890160860DFF89006006850F0704085
:1031A000DFF884160860DFF87C06006850F0010044
:1031B000DFF870160860DFF86C06006850F48030A5
:1031C000DFF860160860FFF729FF02F02BF802F025
:1031D000E7F803F0E7FC03F0D9FF02F0E3FBDFF8C8
:1031E0004C06006850F04050DFF84016086004F0CC
:1031F0002FF804F065F9022004F06FF901BD10B555
:10320000002402F015FA00F075FD04F09FF904F0B7
:10321000EBF903F0CEFC00F0D6FBDFF814060068F3
:10322000002806D0DFF808060068401EDFF8001608
:103230000860DFF800060068002806D0DFF8F40513
:103240000068401EDFF8EC150860DFF8EC05006848
:10325000002806D0DFF8E0050068401EDFF8D8152A
:103260000860DFF8D8050068002806D0DFF8CC0534
:103270000068401EDFF8C4150860DFF8C405006868
:10328000002806D0DFF8B8050068401EDFF8B0154A
:103290000860DFF8B0050068002806D0DFF8A40554
:1032A0000068401EDFF89C150860DFF89C05006888
:1032B000002806D0DFF890050068401EDFF888156A
:1032C0000860DFF888050068002806D0DFF87C0574
:1032D0000068401EDFF874150860DFF874050068A8
:1032E000002806D0DFF868050068401EDFF860158A
:1032F0000860DFF860050068002806D0DFF8540594
:103300000068401EDFF84C150860DFF84C050068C7
:10331000002806D0DFF840050068401EDFF83815A9
:103320000860DFF838050068002806D0DFF82C05B3
:103330000068401EDFF824150860DFF824050068E7
:10334000002811D1DFF81805DFF818150160DFF843
:103350001805006800280ED0DFF80C050068401E34
:10336000DFF80415086006E0DFF8F4040068401E8A
:10337000DFF8EC140860DFF8F4040068401CDFF8A4
:10338000EC140860DFF8E8040068C0F3C03010F007
:10339000010090F00100C0B204436400DFF8D004E3
:1033A0000068C0F3400010F0010090F00100C0B2CE
:1033B00004436400DFF8BC040068C0F3406010F010
:1033C000010090F00100C0B20443DFF8AC040078C3
:1033D000DFF8A81421F81040DFF89C040078401CA6
:1033E000102190FBF1F202FB1102DFF88C04027055
:1033F00010BD38B504000025DFF884141F20FFF746
:1034000056FEDFF87C0400683D2803D3DFF8700423
:103410003C21016000A92120FFF749FE95F0FF053E
:103420009DF80000002834D0EDB2002D18D0DFF850
:103430005404006850F48030DFF848140860DFF866
:103440004804006850F08050DFF83C140860DFF852
:103450003C04006850F00050DFF8301408603CE095
:10346000DFF8C403006850F48030DFF8BC13086054
:10347000DFF81804006850F08050DFF8101408607E
:10348000DFF80404006850F00050DFF8FC13086017
:1034900023E0DFF8F803006850F08050DFF8EC1309
:1034A0000860DFF8E803006850F00050DFF8DC1334
:1034B0000860EDB2002D08D0DFF8C803006850F4B2
:1034C0008030DFF8C013086007E0DFF85C030068B5
:1034D00050F48030DFF850130860FA2000F0F5FD5A
:1034E00000F0A6F8DFF858030068002896D1DFF84E
:1034F00090030068002803D00021032003F010FF90
:10350000DFF87C0300684EF660214843DFF8301393
:10351000086083E710B4010000220020C0B2102828
:103520000BDAC0B2DFF8543333F8103001248C408A
:10353000234200D0521C401CF0E7D2B2092A01DB22
:10354000012000E0002010BC7047C0B2002808D065
:10355000DFF83013096851F00101DFF8282311600A
:1035600005E0B149096851F00101AF4A11607047A7
:1035700010B50400E4B2002C03D0022C36D019D3CD
:103580004FE0A948006850F08050A7490860A6485D
:10359000006850F00050A4490860A348006850F04B
:1035A0008040A1490860A048006850F000409E4952
:1035B000086036E09C48006850F080409A490860F6
:1035C0009948006850F0005097490860322000F098
:1035D0007CFDAC48006850F08050AA490860A948BA
:1035E000006850F00040A74908601AE08E48006863
:1035F00050F080508C4908608B48006850F00040C3
:1036000089490860322000F060FD9E48006850F053
:1036100080409C4908609B48006850F000509949E0
:10362000086010BD82490860704781480068704793
:1036300080B597480078002800F0BC809548007855
:1036400090F0FF009349087093488078002804D1D7
:103650000021022003F0E1FD0DE08F488078012871
:1036600004D10121022003F0D8FD04E0894801784B
:10367000022003F0D2FD8848C078002804D1002140
:10368000032003F0CAFD0DE08348C078012804D16F
:103690000121032003F0C1FD04E07E4801780320EE
:1036A00003F0BBFD7C480079002804D100210420F0
:1036B00003F0B3FD0DE078480079012804D1012121
:1036C000042003F0AAFD04E072480178042003F00E
:1036D000A4FD71484079002804D10021052003F0A1
:1036E0009CFD0DE06C484079012804D101210520A2
:1036F00003F093FD04E067480178052003F08DFD99
:1037000065488079002804D10021062003F085FD5A
:103710000DE061488079012804D10121062003F0E1
:103720007CFD04E05B480178062003F076FD5A48F2
:103730004078002804D10021012003F06EFD0DE047
:1037400055484078012804D10121012003F065FD8E
:1037500004E050480178012003F05FFD4E480078F6
:10376000002804D10021002003F057FD0DE04A4855
:103770000078012804D10121002003F04EFD04E06F
:1037800044480178002003F048FD424800780028B2
:1037900008D00121012003F040FD0021002003F0AA
:1037A0003CFD07E00021012003F037FD012100204E
:1037B00003F033FD01BDC0B2374A8154704738B5BC
:1037C00004000025EDB2082D06DA00212800C0B261
:1037D00003F023FD6D1CF5E7E4B2002C09D10020B5
:1037E000C0B2082805DAC0B22B4900224254401C5E
:1037F000F6E72748047031BD002807D12049096841
:103800004EF6602251430E4A116001E00C490860F7
:1038100070471B4800684EF660214843084908601D
:103820007047000020C009203CC0092080C009204A
:10383000B87600100077001004770010C8760010EA
:103840002C030010C07600101877001008770010C5
:103850003C03001030770010207700103803001070
:10386000C476001020BF02000C7700106C770010A7
:1038700034C0092014C0092095770010CC750010C1
:10388000BC76001038C0092098C009209CC00920CF
:1038900058030010967700109076001080B5DFF87E
:1038A0000004006850F08070DFF8F4130860DFF85F
:1038B000F003006850F00070DFF8E41308600120A6
:1038C000DFF8E013096860F31961DFF8D8030160DD
:1038D000DFF8D403006850F00400DFF8CC13086070
:1038E000DFF8C803006850F00400DFF8C013086078
:1038F000DFF8BC03006850F48010DFF8B4130860F0
:103900000120DFF8A013096860F39B61DFF89403DE
:103910000160DFF89403006850F00800DFF88813B6
:103920000860DFF88803006850F00800DFF87C13B7
:103930000860DFF87C03006850F40010DFF87013B3
:103940000860DFF87003006850F08070DFF86413DF
:103950000860DFF86003006850F00070DFF854136F
:1039600008600021012001F087FADFF84C1308609D
:10397000DFF844030068002807D00023002200215C
:10398000DFF83403006801F0B1FADFF830130820E3
:10399000FFF78DFBDFF828130920FFF788FBDFF81E
:1039A0001C030068B0F57A7F04D9DFF810034FF4E8
:1039B0007A710160C2480068C249884202D3C04897
:1039C000C149016001BDC1480088002804D0BF483A
:1039D0000088401EBD490880BD480088002804D0EA
:1039E000BB480088401EBA490880704738B50400BB
:1039F00002F032FC40F6B83000F067FB02F044FC05
:103A000003F059F80500002D09D0642000FB05F0F3
:103A100080B200F088F8280080B203F064F80A2031
:103A200000F053FBEAE7A9480088002809D1A9481B
:103A30000088A24909680818A6490880A3483221CD
:103A40000180A548006850F00400A3490860A3481D
:103A5000006850F48010A149086070479D480088B4
:103A600070479C49098880B2884205D399490988E2
:103A7000091A984A118002E0964900220A8070478C
:103A8000C0B2002806D08B49096851F08071894A7C
:103A9000116005E09249096851F08071904A116007
:103AA00070479048006800280DD189480088002898
:103AB00009D18D4800888249096808188A49088018
:103AC0008348322101808448006850F00800824910
:103AD00008608248006850F4001080490860704710
:103AE000C0B2002806D07349096851F00071714ACC
:103AF000116005E07A49096851F00071784A116057
:103B000070477948008870477749098880B28142B8
:103B100005D275490988091A734A118002E0724971
:103B200000220A80704710B5040000230122002102
:103B30006148006801F043FA0028F6D06B4800683D
:103B4000A4B220186949086069484EF660210160F6
:103B50000023002200215848006801F0C7F910BD79
:103B600030B583B00023012200215348006801F0E2
:103B700026FA0028F6D05C480088002824D05A484D
:103B8000058801A90E20FFF792FA00A90F20FFF780
:103B90008EFA01982818019000982818009001A921
:103BA0000E20FFF750FA00A90F20FFF74CFA4E48FD
:103BB000008804194D48006828184C4908604A4894
:103BC0000088401B48490880484800680400414874
:103BD000008804193F4800210180002300220021B1
:103BE0003548006801F082F920003EBD10B50400A0
:103BF0000023012200213048006801F0E0F900288C
:103C0000F6D03A480068A04205D338480068001B47
:103C10003649086002E035480021016033480068F9
:103C2000002802D531480021016000230022002134
:103C30002148006801F05AF910BD10B504000023B6
:103C4000012200211C48006801F0B9F90028F6D0D3
:103C5000264804600023002200211748006801F074
:103C600045F910BD10B504001E48E4B20460200000
:103C7000C0B2FFF705FF2000C0B2FFF731FFE4B28A
:103C8000200003F055FDE4B2200003F0F3FF200014
:103C9000C0B202F060FF10BD154800687047000018
:103CA00020C0092010C0024048C10F404CC10F4045
:103CB00000E100E038C00920D8760010CC76001072
:103CC000D0760010A1860100A08601007477001054
:103CD000787700107277001040C10F4080E200E05A
:103CE0003CC009203003001076770010D476001015
:103CF000C876001076480068002804D07448006830
:103D0000401E7349086073480088002804D0714839
:103D10000088401E6F4908806F480088002805D041
:103D20006D480088401E6C49088063E06B4800784D
:103D30006B4900224254694800786949405C6949EE
:103D40000968C1F3002111F0010191F00101C9B22C
:103D5000084362490978624A8854624800688005CD
:103D600001D5002000E002205C4909785C4A895CAA
:103D700008435A4909785A4A88545A480068400505
:103D800001D5002000E0042054490978544A895C98
:103D9000084352490978524A8854524800684004FE
:103DA00001D5002000E008204C4909784C4A895C84
:103DB00008434A4909784A4A88544B4800688001B8
:103DC00001D5002000E0102044490978444A895C6C
:103DD000084342490978424A885440480078401CC8
:103DE000082190FBF1F202FB11023C4802703A48B4
:103DF00006210180704710B4002001000020C0B2ED
:103E0000082809DAC0B2364A825C12F00902092A8F
:103E100000D1491C401CF2E7C9B2052901DB08208A
:103E200050E00020C0B2052848DA0022110000222C
:103E3000D2B2082A09DAD2B2294BD35C01248440D9
:103E4000234200D0491C521CF2E7C9B2052933DBDA
:103E5000204A1288002A1BD1244A1278002A0DD049
:103E6000224A002313701B4A4FF4FA631380184A46
:103E70004EF660231360401CC0B223E0154A322383
:103E80001380134A4EF660231360401CC0B219E041
:103E9000164A1278002A0DD0144A002313700D4AD6
:103EA0004FF4FA6313800A4A4EF660231360401CF5
:103EB000C0B207E0002005E0401CB3E70B48012238
:103EC0000270002010BC7047014800687047000075
:103ED000147700104E03001050030010A877001054
:103EE000A076001034C0092074C00920A977001002
:103EF00010B5FEF7A2FC04001F4B0A22E4B22820F2
:103F00001E4900FB0411E4B21D4850F8240003F0E0
:103F1000E5FF10BDE0B501A80021002206C0083869
:103F2000FEF78BFC8DF800009DF80000082802DBEE
:103F300000208DF800009DF8000001A9FF224254E6
:103F4000072301AA0F49104804F03EF800208DF81D
:103F500000000020C0B2072808DAC0B201A9415C05
:103F6000002901D08DF80000401CF3E700A90020D3
:103F7000FFF769F807BD00005CE00000F8060010DC
:103F8000E4120010EC0900108CE500002DE9FB4F55
:103F900082B014000E9D0F9E109FDDF84480390002
:103FA000200080B200F052FB8246BAF1000F75D0BB
:103FB000A4B2DAF8300010EB8400001F83465FEAF9
:103FC000DB0B5FEACB0BA4B2009443462A000399B3
:103FD000504600F0C6FA049A0299584604F076F862
:103FE000CAF80000002E01D0C6F800A004F096F830
:103FF000DFF820070068401CDFF818170860DFF8BA
:104000006007006800280BD1DFF85407C0F800A053
:10401000DFF800070068012811D100F0C3FA0EE0B4
:10402000DFF840070068002809D1DFF8340700688E
:10403000C06A854203D3DFF82807C0F800A0DFF884
:1040400028070068DAF82C10884204D2DAF82C002D
:10405000DFF814170860DFF814070068401CDFF869
:104060000C170860DFF808070068DAF82C1088429F
:1040700004D2DAF82C00DFF8F81608601AF104010F
:10408000DAF82C001422DFF8EC3602FB003004F0E2
:104090009DF80120814604F04AF802E05FF0FF300D
:1040A0008146B9F1010F0CD1DFF8B806006800288D
:1040B00007D0DFF8AC060068C06AA84201D204F05D
:1040C00028F8484605B0BDE8F08F70B5040000261A
:1040D000002C2BD000F050F8DFF8A4060068201860
:1040E0000500DFF87C060068001D04F09CF8DFF88E
:1040F000700600684560DFF888060068854209D2CE
:10410000DFF85C060068011DDFF87806006804F03F
:104110006CF808E0DFF848060068011DDFF8680663
:10412000006804F062F800F02FF80600002E01D1BC
:1041300003F0EFFF70BD1FB5002003900020029038
:10414000002001900020009000235022DFF8481644
:104150000FF20540FFF71AFF0400012C0BD104F009
:1041600093F8DFF8000601210160DFF81406002152
:10417000016003F0B8FF1FBDDFF818060068401C9F
:10418000DFF810160860704770B5002503F0C6FF11
:10419000DFF800060068401EDFF8F8150860DFF859
:1041A000F405006800285BD1DFF868050068002886
:1041B00056D00026DFF8D8050068002804D0DFF8C4
:1041C000D005C068C46800E00024002C23D014F19E
:1041D000180004F028F8201D04F025F8DFF89005F9
:1041E0000068E16A884203D2E06ADFF8841508605B
:1041F000211DE06A1422DFF87C3502FB003003F059
:10420000E5FFE06ADFF858150968C96A8842D1D32A
:1042100001200600CEE7DFF884050068002810D0F2
:10422000DFF878050068002809D000F01DF8DFF8F5
:104230006C050068401EDFF864150860F0E7012097
:104240000600012E04D0DFF858050068012807D1C8
:1042500001200500DFF848050021016003F059FF47
:1042600003F065FF280070BD10B5DFF82805006871
:10427000002852D1DFF808050068401CDFF800155F
:104280000860DFF8FC040068002813D1DFF8F81498
:1042900009680800DFF8F014DFF8E82412680A6003
:1042A000DFF8E0140860DFF8FC140968491CDFF847
:1042B000F4241160DFF8D00400680068002805D0FD
:1042C000DFF8C4040068C068C46800E00024002C63
:1042D0002AD0DFF8AC0400686168884224D3201D2E
:1042E00003F0A1FFA06A002803D014F1180003F026
:1042F0009AFFDFF87C040068E16A884203D2E06A32
:10430000DFF86C140860211DE06A1422DFF86434C1
:1043100002FB003003F05AFFCCE7DFF880040068AE
:10432000401CDFF87814086010BD80B5DFF8640425
:104330000068002804D0DFF868040121016054E01F
:10434000DFF81C040068006BDFF8141409680968C2
:10435000884209D3DFF80804006810F13401DFF85F
:104360000004006804F0E4F81422DFF83C14DFF8DD
:10437000F0030068006B04F0DDF8002809D0DFF8D6
:10438000E003006810F13401DFF8D403006804F0A2
:10439000CFF8DFF8DC0300681421DFF8D82301FB35
:1043A00000200068002807D1DFF8C4030068401E21
:1043B000DFF8BC130860ECE7DFF8B41309681422D7
:1043C000DFF8B03302FB0131080041684968416001
:1043D000416810F10802914202D141684968416088
:1043E0004068C068DFF87813086001BD70B504004C
:1043F0000D00DFF86C03006810F11801200003F0D5
:10440000F4FEDFF85C030068001D03F00CFF15F1FB
:10441000010F08D1DFF848030068011DDFF86C03C5
:1044200003F0D4FE20E0DFF85803006828180600E7
:10443000DFF82C0300684660DFF84403006886421A
:1044400009D2DFF81C030068011DDFF8380300689B
:1044500003F0CBFE08E0DFF808030068011DDFF879
:104460002803006803F0C1FE70BD70B50400206829
:10447000002802D0E068C66800E0002616F11800A7
:1044800003F0D1FEDFF80C030068002813D1301DC3
:1044900003F0C9FEB6480068F16A884202D2F06AA9
:1044A000B3490860311DF06A1422B24B02FB0030A0
:1044B00003F08CFE04E016F11801B54803F086FE07
:1044C000F06AA7490968C96A884202D30120050039
:1044D00001E000200500280070BDB24909680160B4
:1044E000A74909684160704770B504000D0003F0EA
:1044F00015FE286810F1010F02D10020060022E00D
:10450000A84800682168884207D09D480068616813
:10451000884202D30120060015E0994800686168CE
:10452000401A296888420CD2286895490968401ABF
:104530006168081828602000FFF7CFFF0020060000
:1045400001E00120060003F0F2FD300070BD944848
:10455000012101607047000010B5040000F045F82B
:10456000FCE7F8B504000D0016001F000C2229001E
:1045700014F1340004F010F8002084F83F00052EF8
:1045800001D304200600E662A664201D03F01BFE92
:1045900014F1180003F017FE2461D6F10500A061A4
:1045A0006462F1BD10B500200400052C07D2142070
:1045B000704900FB041003F0F7FD641CF5E77B482D
:1045C00003F0F2FD7A4803F0EFFD714803F0ECFDD3
:1045D000694803F0E9FD6D4803F0E6FD6A48734958
:1045E000016068487249016010BD38B563480068D1
:1045F00000282AD0FFF7C0FD5F480068002801D1DD
:10460000012400E00024E4B2FFF7BEFD002C1CD121
:1046100003F084FD58480068002803D05648C0685D
:10462000C56800E00025281D03F0FDFD394800683D
:10463000401E3849086051480068401E4F490860D4
:1046400003F075FD280000F024F831BD70B50400BA
:104650000D004C2003F0D6FF0600002E17D0002DD1
:1046600004D1A4B2A00003F0CDFF00E02800306325
:10467000306B002805D1300003F0ECFF002006006D
:1046800005E0A4B2A200A521306B03F0E9FF3000E1
:1046900070BD10B50400206B03F0DCFF200003F0B8
:1046A000D9FF10BD2E4909680800704738B50400CD
:1046B0002500E86A2A490968C96A884229D2284837
:1046C0000068C06AD0F10500A8616869E96A14222F
:1046D000284B02FB0131884217D1281D03F0A3FDAE
:1046E0001F480068C06AE86221480068E96A884299
:1046F00002D2E86A1E490860291DE86A14221D4B8F
:1047000002FB003003F062FD03E015480068C06A58
:10471000E86231BD4477001038B504002500002C54
:104720001CD0E86AA96C884218D0281D03F07BFDD4
:10473000A86CE862E86AD0F10500A8610C4800683E
:10474000E96A884202D2E86A09490860291DE86AD4
:104750001422084B02FB003003F038FD31BD00008D
:1047600034770010547700104C77001068770010F1
:1047700050770010507400104876001040770010F9
:10478000487700103C770010387700105C760010F6
:104790003476001058770010D0E700005C770010E6
:1047A00060770010647700109CE300000C76001026
:1047B0002076001070B504000D00DFF8600200687C
:1047C00050F01000954908609448006850F00200CD
:1047D000924908609248006850F0200090490860B3
:1047E0008F48006850F010008D4908608C480068C0
:1047F00050F000708A4908608948006850F00070E5
:10480000874908608548006850F400308349086093
:104810004FF4FA70FFF759FC00200600F6B2032EA1
:1048200007DA032000F030F86420FFF74EFC761C16
:10483000F4E7022000F028F81420FFF746FC54F0BB
:104840002001C9B2002000F074F81420FFF73DFCED
:1048500055F00801C9B2002000F06BF81420FFF7F2
:1048600034FC55F008006F4908701021002000F05A
:1048700060F80A20FFF729FC0621002000F059F813
:104880000A20FFF722FC70BD6749096851F4003126
:10489000654A116000BF00BF00BF00BF00BF00BF7E
:1048A000C10706D56049096851F010015E4A1160E0
:1048B00005E05E49096851F010015C4A116081070A
:1048C00006D55949096851F00201574A116005E0BF
:1048D0005649096851F00201544A1160410706D552
:1048E0005349096851F02001514A116005E05149CE
:1048F000096851F020014F4A1160010706D54C4963
:10490000096851F010014A4A116005E049490968F7
:1049100051F01001474A116000BF00BF00BF00BF47
:1049200000BF00BF4149096851F400313F4A11609E
:10493000704738B504000D00E4B2002C06D03C48A6
:10494000006850F000703A49086005E03948006896
:1049500050F0007037490860EDB22809FFF794FF66
:104960002800C0B2FFF790FF0220FFF7AEFB31BD79
:1049700038B504000D00E4B2102C09DAEDB2002DB8
:1049800006D1B4F18001C9B20020FFF7D2FF08E0E0
:10499000EDB2012D05D1B4F14001C9B20020FFF7FD
:1049A000C8FF0420FFF791FB31BD10B50400E4B24D
:1049B00020000A280CD00C2802D00D2808D00CE0CA
:1049C00001210020FFF7B5FF0C20FFF77EFB09E077
:1049D00002210120FFF7ADFF04E02100C9B2012050
:1049E000FFF7A7FF10BD10B50400134800680028AA
:1049F0000AD1114847F23051016004210820FFF725
:104A0000D9FE0C20FFF7D1FF2078002804D02078B1
:104A1000FFF7CBFF641CF7E710BD000020C00920A2
:104A200000C00920AA77001038C009203CC0092026
:104A300018C009201CC009203803001070B50400FC
:104A40000D00DFF82004006850F48070DFF81414C3
:104A50000860DFF81004006850F08000DFF80414EC
:104A60000860DFF80004006850F04000DFF8F4133D
:104A70000860DFF8F003006850F40070DFF8E4131A
:104A80000860DFF8E003006850F02000DFF8D4137E
:104A90000860DFF8D003006850F02000DFF8C4138E
:104AA0000860DFF8C003006850F01000DFF8B413AE
:104AB00008604FF4FA70FFF708FB00200600F6B21A
:104AC000032E07DA032000F031F86420FFF7FDFA27
:104AD000761CF4E7022000F029F81420FFF7F5FA1D
:104AE00054F02001C9B2002000F01CF91420FFF797
:104AF000ECFA55F00801C9B2002000F013F91420B7
:104B0000FFF7E3FA55F00800DFF85C130870102196
:104B1000002000F007F90A20FFF7D7FA062100204D
:104B200000F000F90A20FFF7D0FA70BD00BF00BF07
:104B300000BF00BF00BF00BF00BF00BF00BF00BF7D
:104B400000BF00BF00BF00BF00BF00BF00BF00BF6D
:104B500000BF00BF00BF00BF00BF00BF00BF00BF5D
:104B600000BF00BF00BF00BF00BF00BF00BF00BF4D
:104B700000BF00BF00BF00BF00BF00BF00BF00BF3D
:104B800000BF00BFC10708D5DFF8E012096851F483
:104B90008071DFF8D822116006E0DFF8D4120968CE
:104BA00051F48071B24A1160810706D5AF49096896
:104BB00051F08001AD4A116005E0AD49096851F03E
:104BC0008001AB4A1160410706D5A849096851F038
:104BD0004001A64A116005E0A549096851F040016D
:104BE000A34A1160010706D5A049096851F4007174
:104BF0009E4A116005E09E49096851F400719C4A83
:104C0000116000BF00BF00BF00BF00BF00BF00BFFA
:104C100000BF00BF00BF00BF00BF00BF00BF00BF9C
:104C200000BF00BF00BF00BF00BF00BF00BF00BF8C
:104C300000BF00BF00BF00BF00BF00BF00BF00BF7C
:104C400000BF00BF00BF00BF00BF00BF00BF00BF6C
:104C500000BF00BF00BF00BF00BF8449096851F01A
:104C60001001824A116000BF00BF00BF00BF00BF3B
:104C700000BF00BF00BF00BF00BF00BF00BF00BF3C
:104C800000BF00BF00BF00BF00BF00BF00BF00BF2C
:104C900000BF00BF00BF00BF00BF00BF00BF00BF1C
:104CA00000BF00BF00BF00BF00BF00BF00BF00BF0C
:104CB00000BF00BF00BF00BF00BF00BF00BF6C4906
:104CC000096851F010016A4A116000BF00BF00BFBF
:104CD00000BF00BF00BF00BF00BF00BF00BF00BFDC
:104CE00000BF00BF00BF00BF00BF00BF00BF00BFCC
:104CF00000BF00BF00BF00BF00BF00BF00BF00BFBC
:104D000000BF00BF00BF00BF00BF00BF00BF00BFAB
:104D100000BF00BF00BF00BF00BF00BF00BF00BF9B
:104D200000BF704738B504000D00E4B2002C06D077
:104D30004E48006850F020004C49086005E04C489F
:104D4000006850F020004A490860EDB22809FFF7DA
:104D5000EDFE00BF00BF00BF00BF00BF00BF00BF2F
:104D600000BF00BF00BF00BF00BF00BF00BF00BF4B
:104D700000BF00BF00BF00BF00BF00BF00BF00BF3B
:104D800000BF00BF00BF00BF00BF00BF00BF00BF2B
:104D900000BF00BF00BF00BF00BF00BF00BF00BF1B
:104DA00000BF00BF00BF00BF00BF2800C0B2FFF7B8
:104DB000BDFE0220FFF789F931BD38B504000D00B2
:104DC000E4B2102C09DAEDB2002D06D1B4F1800165
:104DD000C9B20020FFF7A6FF08E0EDB2012D05D112
:104DE000B4F14001C9B20020FFF79CFF0420FFF797
:104DF0006CF931BD10B50400E4B220000A280CD0D3
:104E00000C2802D00D2808D00CE001210020FFF76B
:104E100089FF0C20FFF759F909E002210120FFF773
:104E200081FF04E02100C9B20120FFF77BFF10BD24
:104E300010B504000F48006800280AD10D4847F259
:104E40003051016004210820FFF7F8FD0C20FFF726
:104E5000D1FF2078002804D02078FFF7CBFF641C16
:104E6000F7E710BD40C00920AB77001058C00920FB
:104E70005CC0092018770010F8B504000D00002C64
:104E800032D04C2003F0BEFB0600002E2CD005FBD8
:104E900004F0401C0700380003F0B4FB30603068B9
:104EA00000281ED0306805FB040070600020B0634D
:104EB0003068B060601E316805FB0010F060F4637C
:104EC00035645FF0FF3070645FF0FF30B06416F15E
:104ED000100003F069F916F1240003F065F93000C1
:104EE00003E0300003F0B6FB0020F2BDF7B504008C
:104EF0000D001E00002703F011F9A06BE16B884242
:104F000013D232002900200000F0E9F8606A00287E
:104F100007D014F12400FFF7A8FA012801D103F00B
:104F2000F8F803F004F9012048E00298002803D1C2
:104F300003F0FDF8002041E0002F04D100A8FFF7A6
:104F4000CCFA0120070003F0F2F8FFF715F903F09F
:104F5000E5F8606C10F1010F01D100206064A06CD5
:104F600010F1010F01D10020A06403F0E0F802A9C4
:104F700000A8FFF7B9FA002819D1200000F042F983
:104F800000280ED0029914F11000FFF72FFA20002C
:104F900000F0F4F8FFF7F8F80028ACD103F0B9F806
:104FA000A9E7200000F0EAF8FFF7EEF8A3E72000F9
:104FB00000F0E4F8FFF7E8F801000020FEBD2DE95D
:104FC000F44183B004000D001E00002703F0A6F892
:104FD000A06B00282DD0E06880462900200000F05A
:104FE000B7F8002E14D1A06B401EA06320680028E3
:104FF00002D1FFF757FB60602069002815D014F13B
:105000001000FFF732FA01280FD103F082F80CE00C
:10501000C4F80C80606A002807D014F12400FFF760
:1050200024FA002801D003F074F803F080F801207E
:1050300052E00398002803D103F079F800204BE0F8
:10504000002F04D100A8FFF748FA0120070003F061
:105050006EF8FFF791F803F061F8606C10F1010F42
:1050600001D100206064A06C10F1010F01D100207B
:10507000A06403F05CF803A900A8FFF735FA002844
:1050800023D1200000F0AFF8002818D020680028B5
:1050900006D103F043F86068FFF708FB03F047F818
:1050A000039914F12400FFF7A1F9200000F066F83D
:1050B000FFF76AF8002889D103F02BF886E7200073
:1050C00000F05CF8FFF760F880E7200000F056F889
:1050D000FFF75AF80100002004B0BDE8F08170B578
:1050E00004000D001600206C002808D1206800285C
:1050F0002AD16068FFF710FB0020606024E0002EDA
:105100000FD1226C2900A06801F06CFE206CA16810
:105110004018A060A0686168884215D32068A0602C
:1051200012E0226C2900E06801F05CFE206C404235
:10513000E1684018E060E0682168884204D2206C91
:10514000404261684018E060A06B401CA06370BDE5
:1051500038B504000D00206800280ED0206CE168EE
:105160004018E060E0686168884201D32068E06030
:10517000226CE168280001F035FE31BD10B5040055
:1051800002F0CCFFA06C01280EDB606A00280BD077
:1051900014F12400FFF769F9002801D0FFF7D7F9CF
:1051A000A06C401EA064EDE75FF0FF30A06402F049
:1051B000BEFF02F0B3FF606C01280EDB20690028FF
:1051C0000BD014F11000FFF750F9002801D0FFF7C1
:1051D000BEF9606C401E6064EDE75FF0FF30606414
:1051E00002F0A5FF10BD38B5040002F097FFA06BD8
:1051F000002801D1012500E00025EDB202F097FF63
:10520000280032BD38B5040002F088FFA06BE16BC6
:10521000884201D1012500E00025EDB202F087FFB0
:10522000280032BD5548006850F48050534908604A
:1052300001205349096860F3196151480160012058
:105240005049096860F38F314E48016001204D4993
:10525000096860F311414B4801604B480068000A3F
:105260000002494908600A204749096860F30F2194
:10527000454801604448006830F480304249086085
:105280004148006850F400103F49086001203E4941
:10529000096860F31A613C480160704700200021F2
:1052A000C9B2102906DAC9B2384A32F811201018EA
:1052B000491CF5E780B200097047F8B5FFF7EEFF2B
:1052C000040040F2263000FB04F005003048401B8B
:1052D000070040F2F310B7FBF0F72D4840F2E6313B
:1052E00001FB17000500B5FBF7F00600300080B2A7
:1052F000F2BD80B5FFF7E1FF010089B242F2117003
:10530000814201DB192028E0002080B2B32822DA94
:1053100080B2204A32F8102089B28A4207D380B284
:105320001C4A12EB4002528889B28A420ED380B2E4
:10533000194A32F8102089B28A420AD380B2154A3B
:1053400012EB4002528889B28A4202D21C3080B2EB
:1053500003E0401CD9E74FF4FA7002BD00200021A1
:1053600089B2102906DA89B20C4A32F811201018D5
:10537000491CF5E7000980B270470000C4C00F4027
:10538000A8C10F4004C00240004003408C750010CB
:10539000A05A32009CD7000034D60000AC75001033
:1053A00080B5DFF81005006850F40020DFF8041520
:1053B0000860DFF80405006850F00C00DFF8F8140E
:1053C0000860DFF8F804006850F40020DFF8EC14FF
:1053D00008600120DFF8E814096860F39751DFF8EE
:1053E000E0040160DFF8DC04006850F00200DFF840
:1053F000D4140860DFF8D004006850F00200DFF831
:10540000C8140860DFF8C404006850F40020DFF816
:10541000BC140860DFF8B804006850F00400DFF83E
:10542000B0140860DFF8AC04006830F47F00DFF8E7
:10543000A4140860DFF89404006850F00400DFF85A
:105440008C140860DFF89004006850F00100DFF869
:1054500088140860DFF88004006850F00200DFF86C
:1054600078140860DFF87004006830F00200DFF89C
:1054700068140860DFF86404006880088000DFF8C2
:105480005C140860DFF858044FF496710160DFF88F
:105490005404006850F03000DFF848140860DFF86A
:1054A0004804006850F00100DFF83C140860DFF8A1
:1054B0003804006830F00200DFF82C140860DFF8D0
:1054C0002804006850F00400DFF81C140860DFF8BE
:1054D0000004006850F48000DFF8F4130860012035
:1054E000DFF80814096860F30D31DFF8000401608B
:1054F000DFF8E00300680002000ADFF8D813086054
:10550000DFF8C803006850F00800DFF8C013086037
:10551000DFF8DC03006850F00100DFF8D413086006
:10552000DFF8CC03006850F00200DFF8C413086015
:10553000DFF8BC03006830F00200DFF8B413086045
:10554000DFF8B003006880088000DFF8A813086067
:10555000DFF8A4034FF496710160DFF8A003006840
:1055600040084000DFF894130860DFF890030068FB
:1055700030F00200DFF884130860DFF8840300686D
:1055800040084000DFF878130860DFF87403006813
:1055900030F03000DFF868130860DFF86803006857
:1055A00010F57A70DFF860130860DFF860134120AF
:1055B000FDF77DFD01BDC0B2002808D0DFF8501313
:1055C000096851F40021DFF84823116005E0BB4968
:1055D000096851F40021B94A1160704780B5DFF8BD
:1055E00034030068002812D1DFF82C03006850F063
:1055F0000800DFF824130860C6480621016003F0A4
:105600003BF8C6480068401CC449086003E0C14834
:10561000C04909680160C248006850F00200C049F2
:105620000860C048006850F40020BE49086001BD11
:10563000BD480088401EBC49088080B200280AD1BD
:10564000BA48B64909680160B44800210160B6480B
:105650004FF4FA710180B6480068002813D0B448AE
:10566000006801280AD10020C0B2022806DAC0B2C0
:10567000B049002241F82020401CF5E7AC48006802
:10568000401EAB4908607047A848006880B2704768
:1056900010B4A94A126810001100A84A12688A4280
:1056A00003D2A64A1268891A05E05FF0FF32A34BC5
:1056B0001B68D21A5118A14A1060A14A126852F010
:1056C00010029F4B1A60974A126852F00402954BE1
:1056D0001A609C4A1160964A4FF47A7313609A4A92
:1056E0001268944B974C246843F82240964A1268FB
:1056F000521C12F00102944B1A6010BC7047934880
:105700000068C00711D59248006850F00800904921
:1057100008608E48006850F001008C49086081489C
:10572000006850F008007F490860704710B402001C
:10573000002904D0874800240460002011E0854837
:1057400000681018834C20601300002B02D55FF016
:10575000FF3043437F48006810187E4C20607D482E
:10576000006810BC704710B4010000207A4A12880B
:105770007A4B43F822100B2202FB0100764A128872
:10578000521C042392FBF3F404FB1324734A52F8D3
:105790002420122303FB12006F4A1288921C042358
:1057A00092FBF3F404FB13246C4A52F824200923DF
:1057B00003FB0200684A1288D21C042392FBF3F414
:1057C00004FB1324654A52F82420B0EB4200624ADD
:1057D0001288521C042392FBF3F404FB13245E4A48
:1057E0001480062290FBF2F042F6E162904202DB66
:1057F00042F6E06210005A4A904201DA584A10001C
:1058000010BC704710B50400002C03D1554800218E
:1058100001700AE06420FEF758FC5348046002203F
:10582000FEF753FC4F480121017010BD10B4040075
:105830004FF42F6202FB04F2D31710001900C00BC3
:1058400040EA4140C91340F6C3120023101A73EB1B
:105850000101002906DC01DB962803D296220023F1
:105860001000190040F6C5120023994207DB01DC45
:10587000904204D340F6C41200231000190010BC5B
:10588000704700212F480068002801D100200FE058
:105890000020C0B2022806DAC0B2264A52F8202000
:1058A0005118401CF5E749083048B0FBF1F10800F9
:1058B0007047000020C0092040C009203CC00920DA
:1058C00010C0024048C10F404CC10F4000E100E051
:1058D000C4C00F4000E400E004800040708000403D
:1058E0000C8000400CC0024028800040ACC10F403A
:1058F00004000940700009400C00094014000940F0
:105900003C00094008000940180009409977001040
:1059100038C00920C07600105CC00920E076001075
:1059200040C10F4080E200E048030010E476001020
:10593000EC760010987600102C800040F476001071
:1059400000800040E8760010F87600100000094062
:1059500058C00920FC760010807700107076001087
:1059600020D1FFFF98770010F0760010D898300112
:105970000CB41CB5044604A801900A46009401AB7F
:1059800000A9074878441830FAF7BAFC00990022B9
:105990000A7000285CBF0098001B16BC5DF80CFB69
:1059A0008FB6FFFF80B502F069FF01BD10B40200A1
:1059B00000200023DBB2C9B28B4204D2DBB29C5C74
:1059C00020185B1CF6E7C0B210BC70472DE9F94FF8
:1059D00081B00C0015000C9E0D9F5FF06409EDB2C4
:1059E0002A0021007E4801F0FDF92900C9B22000FB
:1059F000FFF7DCFFEDB27A496854EDB26A1C92B24F
:105A000077499DF8040002F0A7FF02F0DFFF80460F
:105A1000012002F0F5FF5FFA88F8B8F1000F05D118
:105A20004846B0F1010980B20028EED15FFA88F84B
:105A3000B8F1000F47D002F0C6FF82465FFA8AFA3B
:105A4000BAF1250F01DB242100E05146C9B26448B8
:105A500002F0ACFFBAF10101C9B26148FFF7A6FF3D
:105A600083465FFA8AFABAF1250F01DB242202E0AD
:105A70005FFA8AFA52465A49300001F0B3F95FFAE8
:105A80008AFABAF1250F01DB242001E0BAF1010006
:105A900038709DF80800002801D000F097F85FFAF0
:105AA0008AFABAF1000F0AD15FFA8AFA4C481AEB67
:105AB000000010F8010C5FFA8BFB584501D1002063
:105AC00002E0012000E00220BDE8FE8F2DE9F94F41
:105AD00081B00C0015000C9E0D9F42F21079EDB2C2
:105AE0002A0021003E4801F07DF92900C9B22000BA
:105AF000FFF75CFFEDB23A496854EDB26A1C92B20E
:105B000037499DF8040002F027FF02F05FFF80464E
:105B1000012002F075FF5FFA88F8B8F1000F05D197
:105B20004846B0F1010980B20028EED15FFA88F84A
:105B3000B8F1000F47D002F046FF82465FFA8AFABA
:105B4000BAF1250F01DB242100E05146C9B22448F7
:105B500002F02CFFBAF10101C9B22148FFF726FF7C
:105B600083465FFA8AFABAF1250F01DB242202E0AC
:105B70005FFA8AFA52461A49300001F033F95FFAA7
:105B80008AFABAF1250F01DB242001E0BAF1010005
:105B900038709DF80800002801D000F017F85FFA6F
:105BA0008AFABAF1010F0AD05FFA8AFA0C481AEBA6
:105BB000000010F8010C5FFA8BFB584501D1002062
:105BC00002E0012000E00220BDE8FE8F80B504481D
:105BD0000021017001220249002002F0BDFE01BD3A
:105BE0006875001070B504000D0000F068FB40F609
:105BF000B830FEF76AFA2100C9B22800C0B200F03E
:105C000046FC060000F066FBF6B2002E01D1012032
:105C100000E0002070BD70B586B004000A2500F0D9
:105C20004EFB01A900A800F0E3FB0600F6B2002E2F
:105C300004D06D1E2800C0B20028F2D100F04AFB4B
:105C4000F6B2002E0CD10020C0B2102806DAC0B285
:105C5000C0B201A9415C0155401CF5E7012000E0FC
:105C6000002006B070BD80B500A90420FDF71FFA22
:105C70000DF101010520FDF71AFA00F020FB9DF857
:105C80000000002807D001F0CEFF002803D100F06B
:105C900021FB01200EE09DF80100002807D002F052
:105CA00005F9002803D100F015FB022002E000F006
:105CB00011FB002002BDF0B585B004000D000A27DD
:105CC00000F0FDFA01950DF10A00009002AB2200F0
:105CD00003A90DF1090000F03FFB0600F6B2002E0B
:105CE00004D03800471EC0B20028EBD100F0F2FA11
:105CF0003000C0B205B0F0BDF0B589B0040000209E
:105D000020600A20070001A8FFF785FF0600F6B211
:105D1000002E04D17F1E3800C0B20028F3D1F6B2A5
:105D2000002E01D1002027E00A20070005A900A8C5
:105D3000FFF7C1FF0500EDB2002D04D07F1E380033
:105D4000C0B20028F2D1EDB2002D14D10020C0B2B3
:105D500010280EDA2168C0B201AA825CC0B205AB7D
:105D6000C35C5A439DF8003003FB02112160401CC4
:105D7000EDE7FF2000E0002009B0F0BDF0B587B0EE
:105D800004000D0000260120FDF76CFF00A9002093
:105D9000FDF78DF901A91A20FDF789F903A91B2048
:105DA000FDF785F904A91C20FDF781F905A9032059
:105DB000FDF77DF90DF101014120FDF778F902A908
:105DC0004220FDF774F90198AB2801D355200190CA
:105DD000039842F23511884202D341F244600390A5
:105DE000049842F21171884202D20498002802D12C
:105DF00041F26800049001210220FDF7DCFC0298CA
:105E0000002801D1012002900298042801D3032028
:105E100002900198DFF810140968081801909DF8A5
:105E20000000DFF8081411EBC00042689DF8000084
:105E3000DFF8F81351F8301000206AF00EF99DF8E1
:105E40000000DFF8E81311EBC00042689DF8000085
:105E5000DFF8D81351F8301000206AF0D1F8012093
:105E6000FFF7A9FB4FF4FA70FEF72FF99DF8010038
:105E7000002804D040F6C410FFF7C4FC03E04FF440
:105E80007A60FFF7BFFCDFF8A803DFF8A813016012
:105E900000F02FF9002807D10020FFF7B3FC002005
:105EA000FFF789FB0120FEE0019880B200F0A4FE1C
:105EB0004EF66027FFF71DFA80B20199884208D29A
:105EC0007F1E002F05D00120FEF7FFF8FCF7C7FC6E
:105ED000F0E7002F0AD10020FFF794FC0020FFF725
:105EE0006AFB002000F088FE0220DCE000F02AF9C6
:105EF00000280AD10020FFF785FC0020FFF75BFB9C
:105F0000002000F079FE0320CDE00398FFF77AFC33
:105F10009DF80100002805D0FFF7B3FC03998842E3
:105F200007D2F9E7FFF7ADFC0399B1F57A71884222
:105F3000F8D302210320FDF73EFC049802F067FD30
:105F40000021002001F0ECF901F085FA0028FBD1D6
:105F50000022002100206AF080F8002200210020A9
:105F60006AF04EF8B44840F6B8310160B048B14923
:105F700001600021012001F0D3F9AD48006800283C
:105F800041D0AB4801689DF8000000F08EF800F0A9
:105F9000C4F8FFF776FCB0F57A7F0AD20020FFF74D
:105FA00031FC0020FFF707FB002000F025FE012058
:105FB00079E0A148006800280DD1F6B2142E00DA6D
:105FC000761C0198F6B2301880B200F015FE9A489F
:105FD00040F6B8310160964800684CF25131884271
:105FE00008D301210320FDF7E6FB02210420FDF781
:105FF000E2FBC2E701210420FDF7DDFB02210520C1
:10600000FDF7D9FBB9E701210520FDF7D4FB0020FE
:10601000FFF7F8FB0020FFF7CEFA002000F0ECFDC0
:106020009DF8000000F0BCF801F0B6F94FF4FA70EA
:10603000FEF74BF80021022001F072F901F00BFA93
