:10000000D079001089D40000F1D60000F5D60000A8
:10001000F9D60000FDD6000001D70000CA7EFAEF35
:1000200000000000000000000000000095660000D5
:1000300009D7000000000000436600005965000079
:1000400015D70000DF500000294400009144000053
:1000500025D70000076F000000000000C3890000E2
:10006000F77F000039D700003DD7000041D70000DE
:1000700045D7000049D700004DD7000051D70000F8
:1000800055D7000059D700005DD700007B43000022
:10009000FB4B0000734C00006DD7000071D70000CF
:1000A00075D7000079D700007DD7000081D7000008
:1000B00081D7000089D700000000000091D7000020
:0400C00095D70000D0
:100300002DE9F04FA1B0824602AE002017461D46EF
:10031000029170620DF144080AE017F8011B02987F
:10032000D0470290002800F08B82706A401C7062F7
:10033000387808B9706A85E22528EED10020F0608F
:1003400030617061B061F061306201E040F0010045
:1003500017F8011F2029F9D023290DD02B2904D00B
:100360002D2906D030290AD00CE040F0020080B2DE
:10037000EEE740F00400FAE740F00800F7E740F04D
:100380001000F4E72A290DD129680A1D2A6009689E
:10039000F162002904D5494240F00400F16280B2C4
:1003A0007F1C13E00021F1620BE0F16A6FF0004363
:1003B000994205D001EB810302EB43013039F16230
:1003C0007F1C3A78A2F130010A29EED339782E2920
:1003D00003D04FF0FF31B1621EE017F8011F2A2948
:1003E00006D129680A1D2A607F1C0968B16213E0E2
:1003F0000021B1620BE0B16A6FF00043994205D071
:1004000001EB810302EB43013039B1627F1C3A7882
:10041000A2F130010A29EED330860FF6C0303978C8
:1004200000F0FAFD08B117F8010B8DF83A009DF8BD
:100430003A00682802BF39786829622005D06C2804
:1004400004BF38786C2803D171208DF83A007F1CE6
:1004500011A8B0603978B1F1250023D01C3871D0D3
:10046000001F02286ED9133800F09780093869D030
:10047000801E00F02B81401E00F0D480401E022818
:1004800060D9001F00F0CE80401F30D0401E00F029
:100490008480401E20D0C01E09D0801E7DD0C01E8A
:1004A0007BD01BE1F068411CF160252120E1286828
:1004B000011D29600068B26A7060002A02D500F050
:1004C000BBFD07E0002100F0D3FD00281ABF7168D2
:1004D000401AB06A30610DE12868011D29600021D1
:1004E0000068CDE9000111A870607821EAE09DF86C
:1004F0003A00622818D0682806D06A280BD06C28E9
:1005000019D0712807D016E02868011D29600068FD
:10051000716A0180EEE02A68101D28601268706A16
:10052000C117C2E90001E5E02868011D29600068E3
:10053000716A0170DEE02868011D29600068716A37
:100540000160D7E02868C01D20F00700286000F196
:1005500008022A60D0E90023CDE90023002B04D54E
:10056000F068421CF2602D220DE0308E820704D527
:10057000F068421CF2602B2205E0C00705D5F06848
:10058000421CF260202200F80820F06811AA8018AE
:10059000706000A800F0E2F9ACE09DF83A006C2829
:1005A00008BF2A6811D0712808BF2A6802D02A68BB
:1005B0006A280AD1D21D22F007022A60144604F1EB
:1005C00008022A60D4E9002303E0131D2B600023F6
:1005D0001268CDE90023682808BF92B207D06228CC
:1005E00008BFD2B203D0742818BF7A2802D10023E2
:1005F000CDE9002396F8300000075FD5DDE9002340
:10060000002B08BF002A59D041F02000782855D18E
:10061000F068302200F80820401C421CF26000F80C
:1006200008104BE09DF83A0062280CD0682810D0E2
:100630006A281AD06C2823D0712816D074281FD0AD
:100640007A280CD01CE02868021D2A6090F900204E
:100650001AE02868021D2A60B0F9002014E028681A
:10066000021D2A60002302680FE02868C01D20F0E8
:100670000700286000F108022A60D0E9002304E0A6
:100680002868021D2A600268D317CDE90023002BD9
:1006900004DAF068421CF2602D220DE0308E8207F1
:1006A00004D5F068421CF2602B2205E0C00705D596
:1006B000F068421CF260202200F80820F06811AABD
:1006C0008018706000A800F0C0F813E0F068411CCA
:1006D000F16029680A1D2A60096809E0F068421C77
:1006E000F260252200F8082021B1F068421CF26077
:1006F00000F80810F06AF168401AB169401A3169CF
:10070000401AF169401A7169401A316AA0EB010977
:1007100096F830007F1C400710D420208DF8400050
:10072000002409E0012310AA00A9504600F03EFC75
:10073000002840F08580641C4C45F3DBF4680DF123
:10074000440B0AE01BF8011B0298D04702900028D6
:1007500076D0706A401C7062641E002CF2D130208A
:100760008DF840004FF0000BB46909E0012310AA96
:1007700000A9504600F01AFC002861D10BF1010BD2
:10078000A345F3DB3469D6F804B00AE01BF8011B7B
:100790000298D0470290002852D0706A401C7062C4
:1007A000641E002CF2D130208DF840004FF0000B79
:1007B000F46909E0012310AA00A9504600F0F6FBF5
:1007C00000283DD10BF1010BA345F3DB30697168C3
:1007D000746900EB010B09E01BF8011B0298D0477C
:1007E000029068B3706A401C7062641E002CF3D1E2
:1007F00030208DF840004FF0000B346A08E00123F0
:1008000010AA00A9504600F0D1FBC8B90BF1010BAA
:10081000A345F4DB96F8300040077FF589AD202032
:100820008DF84000002400E0641C4C45BFF680AD0C
:10083000012310AA00A9504600F0B8FB0028F3D00D
:100840004FF0FF3021B0BDE8F08F2DE9FA470646A2
:1008500082B035690A466F2A08BF082705D041F0E3
:100860002000782814BF0A271027D6E900013C246D
:1008700080468946642A18BF692A05D1002903DA0F
:10088000D8F1000869EB4909B9F1000F08BFB8F1C8
:10089000000F0CD1306B50B9082F3BD196F83800BF
:1008A000000737D530203B2485F83B0032E0CDE906
:1008B0000089FB17404649463A4600F005FCB84619
:1008C000A8FB0023DDE90089A8EB02023032A4F185
:1008D000010AD2B254463A2A03DB9DF80830513B54
:1008E0009A180AF8052080465FEA010908BFB8F1A6
:1008F000000F03D0F06861198842D8D3082F09D1BE
:1009000096F83800000705D5605D302802D0641ED7
:1009100030206055C4F13C00B0616119F160316B69
:10092000884207DA081A30624FF6EF71308F0840BC
:10093000308710E000290ED596F8381001F0140128
:10094000102908D1716B7269891A326A891A081ADA
:100950000128A8BF306204B0BDE8F0872DE9F24F4E
:1009600004468EB0D4E90001CDE9020104AE9DF841
:10097000380040F02000009061280AD0206B002849
:1009800048BF062004D404BF0098672801D1012085
:1009900020636168C1F30A5040F2FF7290421CD19B
:1009A000080304BF2068002809D10320A0619DF836
:1009B000380061381A2836D30FF2346108E003207A
:1009C000A0619DF8380061381A2829D30FF2186108
:1009D000E068032200F0F0FBB5E1012816DA2046BA
:1009E00000F025FC012811DB002700200099612977
:1009F00020D1E168302201F8012B4A1CE2609DF809
:100A00003820612A0CBF782258220FE0626840F239
:100A1000FE3161F31E52471A62604FF0FF30E5E786
:100A20000FF2C051D4E70FF2C451D1E70A706169E7
:100A3000891C616110B9002500277BE100986128BD
:100A400040F09680206B00284CBF2125451CDDE935
:100A500002012DB26E1CD4E900890022002300F0AF
:100A600007FC3ABF89F00040CDE90280CDE9028958
:100A70003F1F8DF810200DF1110801E000F207086A
:100A8000012E32DBDDE902010022002300F008FC28
:100A90002BD21C2102A800F01BFCDDE9020100F0B2
:100AA0009DFCF61F8146012E09DB00F0C3FC0246C7
:100AB0000B46DDE9020100F0D5FCCDE9020108F2A8
:100AC0000700072105E009F00F0200F8012D4FEAA9
:100AD0002919B9F1010F01DB491EF4D5491E5CBF8C
:100AE000002200F8012DF9D5C8E70DF11100A8EB9F
:100AF00000010DF11106A942B8BF0D462DB2280024
:100B00002FD4884206DA04A9411849780829A8BFD9
:100B10000F2100DA002104AA821800E06D1E12F8ED
:100B20000139401E8B42F9D00F2904D104A9411884
:100B30004A78521C4A70002802D504AE6D1C3F1D35
:100B40002DB2681E0DD481190A783032D2B23A2AF9
:100B500003DB9DF838303A3B9A1801F80129401E12
:100B6000F2D5206B002840F1E580681E2063E1E0AB
:100B7000DDE902010022002300F07AFB3CBF81F096
:100B80000041CDE902013FB247F29750784348490E
:100B9000DFF820B190FBF1F73FB2C7F107069246AC
:100BA000012E19DBDDE90289F00707D552465B46C5
:100BB0004046494600F016FD80468946761050466C
:100BC000594652465B4600F00DFD82468B46002E8C
:100BD000EAD1CDE9028921E076429046DFF8D8904B
:100BE00012E0F00707D552465B464046494600F002
:100BF000F9FC8046894676105046594652465B4677
:100C000000F0F0FC82468B46002EEAD1DDE90201BD
:100C100042464B4600F0B8FDCDE902010098662837
:100C20000CBF07F10A000620216B4518142DA8BF40
:100C3000132530208DF810000DF11106DFF87C909F
:100C4000012D3DDBDDE9020100F0DEFB06F10801CC
:100C500004220A23B0FBF3F303EB8306A0EB460068
:100C6000303001F8010D0A20B3FBF0F000EB8006F4
:100C7000A3EB4603303301F8013D521EE9D1083D94
:100C800001F10806012DDBDBDDE9020100F0BCFB10
:100C900000F0DAFB02460B46DDE9020100F0E2FB60
:100CA00000224B4600F09EFCCDE90201CAE700BFDE
:100CB000A0860100000024400000F03F84D7974147
:100CC0000DF11100301A0DF1110602E0401E7F1ED9
:100CD000761C31783029F9D00099662902D13FB2CB
:100CE000791C03E065290CBF01210021226B8D18BE
:100CF0002DB2A842B8BF05462DB229001AD48142B0
:100D000004DA885D3528A8BF392000DA30208A1936
:100D1000521E00E06D1E12F80139491E8342F9D0BF
:100D2000392802D1885D401C8855002902D5761EDD
:100D30006D1C7F1C3FB29DF8381000972BB23246D5
:100D4000204600F003F80FB0BDE8F08F2DE9F04326
:100D5000054685B01E46D5F8308089461746012ED7
:100D600002DA01260FF28C2749F02000BDF930404D
:100D7000662808BF641C17D0672840F0818014F1F2
:100D8000040FC0F28380444580F2808095F83800DB
:100D9000641C000702D44645B8BFB04624B2B8EB85
:100DA000040848BF4FF00008E868A96924B2012C84
:100DB00025DA30234A1C0B54B8F1010F03DA95F8F9
:100DC0003810090702D52E211154521CAA6118EBC4
:100DD000040FB8BFC8F1000424B26142A0446962A4
:100DE000B045B8BF464636B2EE613246AB693946C9
:100DF000181800F0E1F9A8EB0600A862BFE0081897
:100E0000A64218DA3246394600F0D6F9A9697118B7
:100E1000A961A01B6862B8F1010F03DA95F83800E8
:100E2000000705D5E8682E220A54E869401CE861ED
:100E3000C5F82880A3E02246394600F0BDF9A8692C
:100E40002018361BB8F1010F03DA95F8381009079E
:100E500003D5E9682E224254401C36B2A861B04541
:100E6000B8BF4646EB6836B23246E119C01800F00A
:100E7000A3F9A8693018A861A8EB060068627EE0B3
:100E80004846612816D14FF0700917E0464504DA4C
:100E900095F83810090758BFB046B8F1010848BFA7
:100EA0004FF00008B9F1670F14BF4FF045094FF03C
:100EB000650903E0412808BF4FF05009A969E868B7
:100EC00017F8013B0B544A1CB8F1010F05DA95F8ED
:100ED0003810090758BFAA6117D52E211154531C89
:100EE000AB61B8F1010F10DB761E36B2B045B8BF6A
:100EF000464636B232463946181800F05DF9A86900
:100F00003018A861A8EB06006862A869E96847186C
:100F1000200007F8019B03D42B2007F8010B03E006
:100F20002D2107F8011B444200260DF1080808E0B6
:100F30000A2200A800F04BFD019808F8010B761C6E
:100F4000009C21B20129F3DA022E06DA49F02000D2
:100F5000652804BF302007F8010B4EB9302007F890
:100F6000010B07E0761E02A8305C303007F8010B59
:100F7000012EF7DAA869E9684018381AE86195F88F
:100F8000380000F0140010280DD16869A96908180C
:100F9000696A0818E9690818A96A0818696B88421B
:100FA000BCBF081A286205B0BDE8F083F8B5044656
:100FB0000D4616461F46002004E0E86A401CE86221
:100FC0007F1E002047B116F8011BA868A047A86043
:100FD0000028F2D14FF0FF30F2BD0000686A6C7457
:100FE0007A4C00006E616E004E414E00696E6600E4
:100FF000494E4600300050F8041B61B150F8042BF4
:10100000D30744BFA9F101039A18002342F8043B17
:10101000091FFAD1EFE770470278C9B28A421AB1C4
:101020001CBF10F8012FF9E718BF002070470268B5
:10103000531C03601170704700F10103810704D055
:1010400010F8011B89B18107FAD10268B2F10131B0
:10105000914311F0803F04BF50F8042FF6E710F8D9
:10106000011B11B110F8011BFBE7C01A70472400E7
:10107000C9B2830706D0521E22D310F8013B994211
:10108000F7D11FE0083A13D302F1040241EA01212B
:1010900041EA014150F8043B121F21BF4B40A3F12C
:1010A000013C2CEA030C1CF0803FF3D0C9B2001FB6
:1010B000083210F8013B521E28BF91EA030FF8D8FE
:1010C00018BF0120401E70471B4213D1094236D180
:1010D0002AB18446B0FBF2F002FB10C2704700F068
:1010E0007DBCFCD30022002370470B0002000021CE
:1010F00000207047904271EB030CF6D370B5B1FA43
:1011000081F4B3FA83F52C1BA340C4F1200532FA15
:1011100005F63343A2405FF00046E64002E05B087C
:101120005FEA3202841A71EB030524BF2046294688
:101130007641F4D302000B003000002170BD012A7B
:10114000CFD970B5140C20D0B1FA81F4B2FA82F57F
:10115000C4F120046419B4F12006D6D3B2405FF084
:101160000044F440002502E052085FEA3303C61A47
:1011700071EB020E24BF3046714664416D41F3D3DA
:1011800002000B002000290070BD0C46B1FBF2F1FB
:1011900002FB11452D0445EA1045B5FBF2F402FBB4
:1011A000145580B240EA0545B5FBF2F002FB10523F
:1011B00040EA044070BD000062B38B0708D0521EA5
:1011C00011F8013B00F8013B00F024808B07F6D1B9
:1011D000830740F0208000BF103A07D330B4B1E855
:1011E0003810103AA0E83810F9D230BC530724BFA9
:1011F000B1E80810A0E8081044BF51F8043B40F8DB
:10120000043BD20724BF31F8022B20F8022B44BF45
:101210000B7803707047083A07D3B1E80810083A12
:1012200040F8043B40F804CBF7D25307E4E730B46E
:10123000436803F0004201211B031B0B436004BF02
:101240000368002B08D10DE00368DD0F45EA440474
:1012500044605B000360491E4468E302F4D5230345
:101260001B0B436043681A434260084630BC70471A
:101270004FF4001C1CEB410F94BF1CEB430F09E023
:1012800041EA030C50EA4C0C52EA0C0C03D299428E
:1012900008BF9042704714BF8B42824270470000E3
:1012A0004FF4001C1CEB410F94BF1CEB430F09E0F3
:1012B00041EA030C50EA4C0C52EA0C0C03D28B426C
:1012C00008BF8242704714BF9942904270470000A5
:1012D00070B504460D466068C0F30A5040F2FF71D5
:1012E000884207D16068000304BF2068002817D037
:1012F000022070BD20B92046FFF799FF012867DA68
:10130000012D0FDB40F2FF71091A8D420AD360688C
:10131000002847BF00202F4900202F49C4E90001C1
:10132000012070BD4142A942616806DA6FF31E5187
:10133000401941EA0050606041E0401E63680122AC
:10134000451962F31F5305F1350001F00041636058
:10135000352803D361600020206070BD002215F1A4
:101360001F0F04DA22682360002020356060684285
:1013700013D0521E25689241C0F12003D2439D40F4
:1013800045EAD27225686668C54006FA03F32B4326
:101390002360636823FA00F060606068084360605F
:1013A000B2F1004F03D80DD12078C0070AD52068CC
:1013B000401C2060206828B96068401C60604FF0C5
:1013C000FF3070BD6068884204BF20680028F6D1F5
:1013D000002070BD0000F0FF0000F07FF446400DDB
:1013E00040EAC120490006D200F014F8004248BF8C
:1013F0006FF00040604700F00DF84FF00041884268
:101400008CBF084640426047400D40EAC120490079
:1014100080F00D8040F00040490DA1F58061491C2D
:1014200005D4D1F11F0154BFC840C01770474FF019
:1014300000007047010040F10980F446404200F08E
:1014400005F851F000416047010000BF09D0B0FA33
:1014500080F18840C91CC1F58461090501EBD021E8
:101460004005704770B44FF0004591EA030F44BF48
:101470006B4000F0B5BA00BF841A71EB030604D2CA
:101480006E40001BB141121973414FF4001C1CEB5C
:10149000410F34BF7CEB430684E00C0DA4EB1356E4
:1014A000362E7DDC012E43DC45EAC32343EA52534A
:1014B00012BFD20292025B08240545EAC12141EA2B
:1014C0005051D2EBC020994125D407D1B0FA80F613
:1014D00010FA06F164D00020203608E0B1FA81F657
:1014E000B140C6F1200220FA02F21143B0404FEAA7
:1014F000F474B4EB465434F001064FEA74040AD88D
:10150000D6F50016760D04F00044F04061FA06F2BC
:101510005040F1404840C00A40EA415021F00041AB
:1015200028BF5FEA500550F1000044EBD12137E0BD
:1015300045EAC323DB0A45EAC121C90AB6F1200501
:101540000EDD42EA0242120CC5F1200603FA06F64D
:10155000EB4042EA06056D42984161F100010DE061
:1015600062FA06F5F240554063FA06FC82EA0C0284
:10157000F3405A406D42904161EB030111F4801F2A
:1015800005D1641E620502D06D004041494121F43D
:101590008011430875F1004350F1000041EB045104
:1015A00070BC70471CEB410F15D223F0004352EA88
:1015B00043060BD04FEA4C0CBCEB410F04D80C0D8A
:1015C000661E342EB7DDEBE7801A994150EA4106DA
:1015D00008BF0021E4E708BF1CEB430F28BF6FF0F2
:1015E0000001DDE7B0B581EA030C0CF0004C40F2DD
:1015F000FF7515EA11541DBF15EA1357AC42AF42EF
:1016000039E0E41923EA455343F48013C90241F059
:10161000004141EA505EC7021100A7FB0202002808
:101620004FF00000EEFB01204FF00001E3FB07212B
:1016300018BF42F00102401800214941E3FB0E01AE
:10164000A4F580640F0302D252004041494154F195
:1016500001046CDD470872F1004250F1000051EBCB
:101660000451A1F580115CBF41EA0C01B0BD4CEA08
:1016700005510020B0BD05EA1357AC4214BFAF427C
:1016800041E050EA410E1CBF52EA430E02E06146BF
:101690000020B0BD24423C441BD15FEA070EF6D0C7
:1016A000090302BF01460020AEF1140EB1FA81F722
:1016B000AEEB070401FA07FE0C37C7F1200100FA70
:1016C00007F7C8404EEA000E23EA455343F480135F
:1016D000A2E733F00043B3FA83F704BFB2FA82FE05
:1016E00077440B3FE41BB7F1200E2FBF02FA0EF335
:1016F000BB40C7F1200E22FA0EFE38BF43EA0E03AC
:10170000BA40641C82E750EA410E14BF52EA430E0D
:101710006FF000014FF4001717EB430F8ABF194613
:1017200017EB410FB5E74CEA05510020B0BDD4F1ED
:101730000104B4F120070FDAC4F12007520828BFD2
:1017400042F0010210FA07F501FA07F7E1BF2A4358
:10175000E0403843E1400FE0352C98DCC7F120042D
:1017600052EA400220FA07F218BF42F0010231FAB1
:1017700007F0A1400A43002172F1004250F100003D
:1017800051EB0C01B0BD0000F0B540F2FF7581EAED
:10179000030C0CF0004C15EA11541DBF15EA135749
:1017A000AC42AF42E5E0BC41C1F31301C3F3130304
:1017B000801A994143F4801304D2641E40004941C9
:1017C00080185941C90241EA5051B1FBF3F603FBBD
:1017D0001611A2FB0675D7EBC020A94102D2761ED6
:1017E00080185941C90241EA5051B1FBF3FE03FB95
:1017F0001E11A2FB0E75D7EBC020A94103D2AEF19A
:10180000010E80185941890241EA9051760546EA55
:101810008E2EB1FBF3F603FB1611A2FB0675D7EB78
:101820008020A94102D2761E80185941C90241EA9E
:1018300050514EEA060EB1FBF3F603FB1611A2FB64
:101840000675D7EBC020A94102D2761E80185941F7
:10185000C90241EA5051B1FBF3F703FB1711A2FB98
:101860000735D3EBC020A94167F100070CBF004248
:1018700047F0010766F3D5274FEA1E31B80814F583
:10188000806412DDBD0775F1004250EB0E5051EB44
:10189000045111F5801F5CBF41EA0C01F0BD4CF012
:1018A0007F6141F0E0410020F0BDBD076D0840EAD6
:1018B0000E5041F48011D4F10104B4F120060ADA8B
:1018C000C4F120060200E04001FA06F3E1401843AB
:1018D000B24015430EE0342C13DCC6F1200445EA77
:1018E00040056D0820FA06F2154321FA06F0A140E2
:1018F0000D43002175F1004250F1000051EB0C0145
:10190000F0BD00205FEA0C01F0BDCFB992185B4139
:10191000B3FA83F704BFB2FA82F6BF190B3FB7F1EF
:1019200020062FBF02FA06F3BB40C7F1200622FAB9
:1019300006F638BF3343BA401CB1E419641E33E7DE
:101940007F4231F00041B1FA81F404BFB0FA80F671
:10195000A4190B3CB4F120062FBF00FA06F1A140F8
:10196000C4F1200620FA06F638BF3143A0403C1BE4
:101970001AE7AC421ABF05EA1357AF4212E050EA29
:1019800041061CBF52EA4306BFE750EA4107304612
:1019900061461CBF41EA0551F0BD52EA430C08BF45
:1019A000C143F0BD00204FF4001616EB410F98BF65
:1019B00016EB430F08BF16EB410F24BFC14305E0F0
:1019C00016EB430F0CBF61464CEA0551F0BD91FB8D
:1019D000F2F303FB1211C0E90031704770470000B9
:1019E000841A71EB030603D2001BB1411219734133
:1019F0004FF4001C1CEB410F34BF7CEB430443E06D
:101A00000C0DA4EB1356352E50DC45EAC323DB0A3C
:101A100045EAC121C912B6F120050DDD63FA05F6CC
:101A2000EB4086EA0305124218BF45F00105C018D5
:101A300051F100010CD213E062FA06F5F240554074
:101A4000F3415A40B340F3405A408018594107D3FC
:101A500049085FEA30005FEA350528BF45F0010517
:101A600001F58011420875F1004250F1000041EB90
:101A7000045170BC4FF4001C1CEB410F38BF704781
:101A80000020090D090570471CEB410F10D252EAE6
:101A900043060BD0BCEB410F05D80C0DAB43661EC3
:101AA000342EB5DD02E0AB438018594170BC70475D
:101AB00070BC704710B500F07EFDDFF89C38102236
:101AC000C0B24021DFF8944801FB0041C0B2DFF80A
:101AD000904854F8200001F087F810BD00B58BB095
:101AE00000F069FD0022C0B2DFF8781851F820102C
:101AF000002001F0EBF82AE0002001900020009087
:101B0000002300220021002001F044F904A80190E4
:101B10000DF10B00009003AB02AA0DF109010DF1CC
:101B20000A0001F04DF99DF8080000909DF8093079
:101B30009DF80A20DFF8301805A801F069F905AA18
:101B40000021012001F0C2F8322001F00EFA01F06C
:101B5000E4FDC0B2012806D0D8D30328CCD004D3EA
:101B60000428D3D1D2E70BB000BD002001900020A3
:101B7000009000231E223B21172001F00BF9C5E73E
:101B800000B591B002000800C0B2002805D00228BC
:101B90003AD01BD3032843D04DE0D2B21001DFF876
:101BA000CC1742580021012001F090F8002003E0FA
:101BB000C0B200A94054401CC0B24028F8DB40220B
:101BC00000A9002001F0A3FE012034E0D2B2DFF82A
:101BD0009C0710EB021042680021012001F076F80A
:101BE000402200A9002001F0AEFE0220002107E003
:101BF000C9B200AA8A5CC9B28A4200D00320491C3B
:101C0000C9B24029F4DB16E0D2B2DFF8600710EB6E
:101C1000021082680021012001F058F800200AE03B
:101C2000D2B2DFF8480710EB0210C2680021012091
:101C300001F04CF80020C0B211B000BD70B500F04A
:101C4000BAFC040001250026642001F0BBFE00223E
:101C5000E4B2DFF81C0750F82410002001F036F839
:101C60000FE06D1E2800C0B2002807D10A25310000
:101C7000C9B22000C0B2FFF783FF0600322001F096
:101C800074F901F04AFDC0B2012806D0E9D3032857
:101C9000E7D003D30428E4D1E3E770BDE1E730B532
:101CA00087B000F088FC0022C0B2DFF8C81651F8F7
:101CB0002010002001F00AF80FE00122009023001C
:101CC000DFF8B41601A801F0A3F801AA0021012051
:101CD00000F0FCFF322001F048F901F01EFDC0B217
:101CE000012806D00ED3032809D004D3042809D133
:101CF00008E007B030BD012002F00EF802E000203D
:101D000002F00AF8002001F0EEFF050002F013FADD
:101D10000400012001F0E7FF64214C43240BC0B212
:101D2000002801D0012000E00020EDB2002DC4D138
:101D30000022C3E730B585B000F03DFC040000256B
:101D40000022E4B2DFF8340650F82410002000F03E
:101D5000BDFF1EE0022001F0F0FF0225022001F08D
:101D6000C2FF0200EDB2E4B20C20DFF8141600FB53
:101D7000041050F82530D2B2DFF8081600A801F0A0
:101D800047F800AA0021012000F0A0FF322001F056
:101D9000ECF801F0C2FCC0B201280AD0DED303285F
:101DA000D8D008D30428D9D1002001F0C6FF0025DF
:101DB000D4E705B030BD012001F0BFFF0125CDE71C
:101DC0002DE9F04186B000F0F6FB04004FF47A658F
:101DD0004FF47A660022E4B2DFF8AC0550F8241024
:101DE000002000F073FF012002F0B6FA002001F09D
:101DF000FDFF0DE02A00DFF8941500A801F008F8B7
:101E000000AA0021012000F061FF322001F0ADF8AE
:101E100001F083FCC0B2012808D022D3032818D0D7
:101E20000DD304281DD1002002F070FB002002F029
:101E30006DFB002002F090FA06B0BDE8F08144F29C
:101E40005060854200D2643540F6B83001F0CEFFD4
:101E500007E0B5F57A7F00D9643D40F6B83001F06F
:101E6000C5FF02F0DDFA070002F085FB804601F0B5
:101E7000C0FF0028BED1B54217D0280002F046FBB3
:101E80002E001FFA88F84346BFB23A00DFF800156B
:101E900000A800F0BDFF00AAE4B2DFF8EC0450F89F
:101EA0002410002000F012FFAFE71FFA88F8434625
:101EB000BFB23A00DFF8D81400A800F0A9FF00AACA
:101EC0000021012000F002FF9FE770B586B000F00E
:101ED00072FB002400250022C0B2DFF8B81451F8CC
:101EE0002010002000F0F2FE41F2883002F00EFBDC
:101EF00018E00024002002F0D8FB02F0D2F806001F
:101F000002F0E4F80300E4B200949BB2B6B23200EF
:101F1000DFF8841401A800F07BFF01AA0021012052
:101F200000F0D4FE01F0F9FBC0B201280CD0E4D3DC
:101F30000328DED00DD30428DFD195F0FF0528005B
:101F4000C0B202F009FAD8E7002002F0DFFA06B0CA
:101F500070BD012440F6B83001F048FF3C2002F08B
:101F6000A4FBCAE710B586B000F025FB0022C0B282
:101F7000DFF8281451F82010002000F0A7FE1AE026
:101F800002F053FD80B202F067FD02F086FD04000E
:101F900002F04BFDE4B2230080B20200DFF800142F
:101FA00000A800F035FF00AA0021012000F08EFEFD
:101FB000322000F0DAFF01F0B0FBC0B2012802D0FD
:101FC0000428DDD0E1E706B010BD30B585B000F0E3
:101FD000F2FA00240022C0B2DFF8C81351F8201032
:101FE000002000F073FE17E0DFF8BC5302F01EFE85
:101FF00002002B0092B2DFF8B41300A800F008FF33
:1020000000AA0021012000F061FE2000C0B202F011
:102010001FFE322000F0A9FF01F07FFBC0B20128B3
:102020000BD00FD303280CD009D304280AD102F017
:10203000FDFD80B202F0FDFD04E005B030BD0124DD
:1020400000E00024E4B2002CCED0DFF86453CDE7EA
:1020500030B585B000F0AFFA00240022C0B2DFF83E
:10206000541351F82010002000F030FE15E0CE4D42
:1020700002F029FE02002B0092B2CC4900A800F029
:10208000C7FE00AA0021012000F020FE2000C0B2FF
:1020900002F008FE322000F068FF01F03EFBC0B203
:1020A00001280BD00FD303280CD009D304280AD160
:1020B00002F009FE80B202F009FE04E005B030BD76
:1020C000012400E00024E4B2002CD0D0B84DCFE7CA
:1020D00030B585B000F06FFA00240022C0B2B649D6
:1020E00051F82010002000F0F1FD13E0641E0121E2
:1020F0002000C0B202F0E3FEE4B22200AF4900A823
:1021000000F086FE00AA0021012000F0DFFD322051
:1021100000F02BFF01F001FBC0B2012806D0EBD389
:1021200003281DD004D30428E6D1E5E705B030BD6F
:10213000002505E000212800C0B202F0C0FE6D1CA1
:10214000EDB2082DF6DBE4B2601C082190FBF1F43F
:1021500004FB110401212000C0B202F0B0FECBE765
:10216000002505E000212800C0B202F0A8FE6D1C89
:10217000EDB2082DF6DBE4B2002CB7D00724B6E7A9
:1021800070B586B000F017FA040000A8142102F020
:10219000B5FE202501260022E4B2894850F824101B
:1021A000002000F093FD15E0C0B200A94554401C8A
:1021B000C0B21028F8DB00AA00A9012000F0B0FD91
:1021C000761E3000C0B2002801D10A266D1C3220D4
:1021D00000F0CBFE01F0A1FAC0B2012806D008D36E
:1021E000032806D004D3042803D102E006B070BD52
:1021F000FFE70020DCE710B500F0DDF90400E4B2F1
:10220000704810EBC4004268E4B26E4850F83410D5
:10221000002000F05BFD02E0322000F0A6FE01F09D
:102220007CFAC0B2012816D0F6D30328F4D013D319
:102230000428F1D1644A0021012000F047FD02F09A
:1022400085FEE4B25F4810EBC40042680021012023
:1022500000F03CFDE0E710BDDEE700B585B000F022
:10226000AAF90022C0B2594951F82010002000F00C
:102270002DFD09E0564A574900A800F0C9FD00AA03
:102280000021012000F022FD01F047FAC0B2012830
:1022900010D0042808D102F015FF052000F065FEDB
:1022A0000021012002F0D4FE02F06BFF0028E1D0F3
:1022B000494AE0E702F006FF05B000BD10B586B060
:1022C00000F079F900A9454A13680B600024002248
:1022D000C0B2434951F82010002000F0F7FC0BE099
:1022E0003B4AE4B2631C3F4901A800F091FD01AAFA
:1022F0000021012000F0EAFC01F00FFAC0B2012831
:1023000011D022D303281AD011D304281DD102F0F2
:10231000D9FE052000F029FE0021E4B200A8205CCF
:1023200002F096FE11E002F0CDFE06B010BDE4B260
:10233000601C032190FBF1F201FB120405E0E4B202
:10234000002C01D0641E00E0022402F01AFF0028D5
:10235000C6D0214AC5E700007CB900000002001089
:10236000EC11001008120010F0CA0000840B0010DD
:102370002412001040120010F0BF00005C12001088
:10238000640C001000CB00007812001010CB00008D
:10239000DCC0000094120010F0C0000020130010F8
:1023A00020CB00003C13001084D50000F0CF0000CB
:1023B0007CD500005813001074130010FCCF0000EF
:1023C000FC1400107C0D001004C100001416001055
:1023D0009CD500008CD5000094D50000CCD6000020
:1023E0006816001030CB00001CB500F0E4F80400C3
:1023F00000F090F801A9032002F036FF0DF1010171
:10240000202002F031FF00A9222002F02DFF200041
:10241000C0B203F0B0F900220021002000F080FCDF
:10242000012001F09BFD002001F0B5FD00F054FA01
:1024300002F078FC02F08BFC1FE02000C0B200F03C
:10244000FFF89DF80000002803D02000C0B200F083
:10245000A6FA00F015FB00F060FB9DF800202100BB
:10246000C9B2019800F03BF90221052001F072FD8C
:1024700000F0B3F8322000F078FD01F04EF9C0B260
:1024800001282BD033D3032805D003D3052826D029
:1024900002D32CE02BE02AE000F077F8002001F0D6
:1024A0005DFD03F0A7F9012001F058FD00F083F86D
:1024B000040001A9032002F0D7FE0DF10101202044
:1024C00002F0D2FE00A9222002F0CEFE00F069F850
:1024D00000220021002000F0F9FB08E007E09DF851
:1024E0000100002803D0019880B202F0FEFB9DF8A5
:1024F00001000028A1D0E4B2DFF89C0610EBC40074
:102500004268E4B2DFF8900650F83410012000F081
:1025100007FCA2E710B500240421082003F0B6F957
:102520000421082003F0DEFAE4B2DFF8700610EBB5
:10253000C4004268E4B2DFF8640650F834100020AA
:1025400000F0C4FBE4B2DFF8580610EBC4004268A8
:10255000E4B2DFF84C0650F83410002000F0E0FB45
:102560000021012003F0F6FBDFF838160860DFF8E1
:1025700034060068002807D0002300220021DFF87D
:102580002406006803F01EFC10BD80B50023012264
:102590000021DFF81006006803F07CFC0028F5D06D
:1025A00001BD80B5002300220021DFF8F805006896
:1025B00003F008FC01BD80B500208DF8000000A9E3
:1025C000002002F051FE9DF80000082802DB0020E8
:1025D0008DF800009DF8000002BD70B586B001F0D6
:1025E00075FD040001F0C7FFA4B223000200DFF86C
:1025F000B81501A800F00CFC002201A9012000F090
:1026000065FB02F08FFB0400642502F08BFB0600E3
:1026100001F091FD94FBF5F105FB1141009164215E
:1026200096FBF1F380B20200DFF8801501A800F0FC
:10263000EFFB01AA0021012000F048FB06B070BDAD
:1026400010B586B0040000A9032002F00DFE00982A
:102650006421B0FBF1F201FB120300986421B0FB8E
:10266000F1F2E4B2DFF8480550F8241001A800F0B8
:10267000CFFB002201A9012000F052FB02F052FB27
:10268000002815D06421B0FBF1F201FB1203642194
:10269000B0FBF1F2E4B2DFF81C0550F8241001A8F9
:1026A00000F0B6FB01AA0021012000F039FB05E093
:1026B000DFF804250021012000F032FB06B010BD38
:1026C00080B5DFF8F80403F04CFE002805D0DFF8F1
:1026D000EC0480781921484300E0002002BD70B569
:1026E00082B005000C00160002F01CFBA8427BD350
:1026F000F6B2002E03D0FFF7E3FFA8426BD300A889
:1027000002F008FE002806D0022835D024D3042881
:1027100052D041D35FE0280002F019FB02F002FB27
:1027200000280FD0E4B2DFF8980410EBC400426830
:10273000E4B2DFF88C0450F83410002000F0F0FA16
:1027400000F08DF82000C0B202F0F1FF002200215D
:10275000002000F0E5FA3EE0DFF86824E4B2DFF89C
:10276000680450F82410002000F0DAFA00F04AF86B
:10277000002002F028FB2EE0DFF85024E4B2DFF85E
:10278000480450F82410002000F0CAFA00F03AF88B
:10279000002002F018FB1EE0DFF83424E4B2DFF87A
:1027A000280450F82410002000F0BAFA00F02AF8AB
:1027B000002002F008FB0EE0DFF81824E4B2DFF896
:1027C000080450F82410002000F0AAFA00F01AF8CB
:1027D000002002F0F8FA00220021002000F076FA32
:1027E000002001F0D8FB0CE0F6B2FF2E09D102F078
:1027F000FDFA002805D102F095FA002801D000F07A
:102800002EF873BD80B50221022001F0A3FB00F079
:1028100026F8012002F0D7FA10E0FFF7B6FE0020FC
:1028200001F09CFB02F0E6FF012001F097FBFFF7AF
:10283000B8FE00220021002000F048FAFFF7CDFE8C
:1028400000F06BFFC0B2012806D0F7D3032805D0F3
:1028500003D30428E1D0F1E7F0E7EFE7EEE77FB537
:1028600002F060FA04002500002002F0ACFA4FF4F8
:10287000FA7000F07AFB00A803F073FD002828D05E
:102880001920B4FBF0F4280002F061FA0F20B4FB29
:10289000F0F50F20B4FBF0F100FB1144002608E036
:1028A0000F21022003F044FD41F2883000F05DFB6F
:1028B000761CF6B2EDB2AE42F2D3E4B2002C08D0F0
:1028C0002100C9B2022003F033FD41F2883000F04C
:1028D0004CFB012004B070BD38B503F093FD04003B
:1028E000FFF769FE0500E4B2002C01D1012032BDE2
:1028F000E4B2012C0AD027D3032C19D00FD3052C16
:1029000018D016D3072C17D015D31DE0AD4AEDB261
:10291000AD4850F82510002000F002FA14E0AB4A50
:10292000EDB2A94850F82510002000F0F9F90BE0AD
:102930000AE009E008E007E0A64AEDB2A24850F834
:102940002510002000F0ECF9012002F03CFA0220F2
:1029500001F004FB01E0FFF740FE00F0DEFEC0B234
:1029600001281AD0F7D30328F5D017D30428F2D1C1
:10297000FFF70BFE002001F0F1FA02F03BFF01200F
:1029800001F0ECFAFFF717FE0500FFF70AFE002240
:102990000021002000F09AF9DDE7DCE7DBE738B53D
:1029A0000400002500A9022002F05EFC9DF8000052
:1029B000C00700D564259DF80000800700D5C82514
:1029C0009DF80000400701D54FF4FA759DF800000E
:1029D000000701D54FF47A759DF80000C00601D5B7
:1029E0004FF4FA659DF80000800601D541F2883564
:1029F000FFF766FEA84242D20221022001F0AAFAA5
:102A0000012002F0E0F9E4B2734810EBC400426820
:102A1000E4B2714850F83410002000F081F901E070
:102A2000FFF7DBFDFFF74CFEA8421BD200F075FE5E
:102A3000C0B20128F4D00428F2D1FFF7A6FD00208F
:102A400001F08CFA02F0D6FE012001F087FAFFF7C0
:102A5000B2FD0400FFF7A5FD00220021002000F0D8
:102A600035F9DDE7002002F0AEF9002001F076FA3A
:102A7000012001F073FA0221052001F06BFA31BD4B
:102A800010B5FFF798FD040003F093FC002803D075
:102A900002280FD001D319E010BDE4B24F4810EB6B
:102AA000C4004268E4B24D4850F83410002000F0F1
:102AB00037F90BE0E4B24A4810EBC4004268E4B2D4
:102AC000474850F83410002000F02AF905E0FFF7DD
:102AD00084FD4FF4FA7000F048FA03F06AFC002815
:102AE000DAD000F01AFEC0B20128F0D00428EED1EE
:102AF000FFF74BFD002001F031FA02F07BFE0120D0
:102B000001F02CFAFFF757FD0400FFF74AFD002201
:102B10000021002000F0DAF8D9E710B5FFF74BFDEF
:102B2000040001F0BDFFC0B2032800D010BDE4B224
:102B30002C4810EBC4004268E4B22A4850F8341024
:102B4000002000F0EDF805E0FFF747FD4FF4FA70C4
:102B500000F00BFA01F0A4FFC0B20328E6D100F0A8
:102B6000DCFDC0B20128EFD00428EDD1FFF70DFD48
:102B7000002001F0F3F902F03DFE012001F0EEF932
:102B8000FFF719FD0400FFF70CFD002200210020D3
:102B900000F09CF8D8E70000AC0F00100C0D0010FE
:102BA000440D00104476001078C000008CC0000076
:102BB000A4150010C0150010A0C00000B0750010D2
:102BC0003C0F0010C0CA0000A0160010D0CA0000C0
:102BD00078CF0000E0CA0000740F0010E40F00106E
:102BE0001C100010541000102DE9F84304000D00D3
:102BF00016001F005FF000092000FEF71DFA804656
:102C00000C2002F039FF00215FFA88F8D8F110009B
:102C10004010C0B202F015FF200002F04AFF04E0AD
:102C2000B6F10109322000F0A0F900F0DDFD002826
:102C300049D000215FFA88F8D8F110004010C0B2E6
:102C400002F0FFFE200002F034FF0121002002F01C
:102C5000F8FE1FFA89F955F8290002F02AFF00F062
:102C60005CFDC0B201281BD0DCD3032823D018D3CD
:102C70000428D7D11FFA89F957F82900002808D06D
:102C80001FFA89F957F8290080470C2002F0F4FE5A
:102C9000C8E71FFA89F9B6B2701E8145F8D112E073
:102CA00011E01FFA89F919F10100B6B290FBF6F1B3
:102CB00006FB1109B6E71FFA89F9B9F1000FAFD089
:102CC000B9F10109AEE7BDE8F183000038B50C00A9
:102CD0001500C0B2002802D10C2002F0CDFE002C5D
:102CE0000DD02000FEF7A8F9002180B2D0F110002D
:102CF0004010C0B202F0A5FE200002F0DAFE002D66
:102D00000DD02800FEF798F9012180B2D0F1100013
:102D10004010C0B202F095FE280002F0CAFE31BD9C
:102D200038B50C001500C0B2002802D10C2002F00A
:102D3000CFFF002C0DD02000FEF77EF9002180B2DD
:102D4000D0F110004010C0B202F0A7FF200002F046
:102D5000DCFF002D0DD02800FEF76EF9012180B2B6
:102D6000D0F110004010C0B202F097FF280002F02E
:102D7000CCFF31BD1E48006850F400701C4908604B
:102D80001C48002101601B48006850F001001949EF
:102D90000860704770B4039C049D174ED2B2326035
:102DA000164AC9B211601649C0B208601548DBB2B4
:102DB00003601548E4B204601448056070BC7047B5
:102DC00070B4039D049C0C4E366816700B4A126852
:102DD0000A700B49096801700A48006818700A48AF
:102DE0000068287009480068206070BC70470000C7
:102DF000C4C00F400840024020400240244002402E
:102E0000284002402C400240384002403C400240F2
:102E10000CB41CB5044604A801900A46009401AB0A
:102E200000A9074878441830FDF76AFA0099002293
:102E30000A7000285CBF0098001B16BC5DF80CFBF4
:102E4000EFE1FFFF2DE9F84F06000F00904699468D
:102E50000C99DDF834A0404680B200F02DFB05004F
:102E60000A9C002D6DD01FFA88F8286B10EB8800A3
:102E7000B0F1040B5FEADB0B5FEACB0B1FFA88F8BB
:102E8000CDF80080534622003900280000F0A4FA53
:102E90004A463100584603F021FB28600B98002871
:102EA00000D0056003F042FBDFF814070068401C07
:102EB000DFF80C170860DFF80C07006800280AD15B
:102EC000DFF800070560DFF8F8060068012810D178
:102ED00000F09FFA0DE0DFF8F0060068002808D146
:102EE000DFF8E0060068C06A844202D3DFF8D40647
:102EF0000560DFF8D8060068E96A884203D2E86A0C
:102F0000DFF8C8160860DFF8C8060068401CDFF864
:102F1000C0160860DFF8BC060068E96A884203D280
:102F2000E86ADFF8B0160860291DE86A1422DFF8A5
:102F3000A83602FB003003F045FB012503F0FFFA41
:102F400001E05FF0FF35012D0CD1DFF87C06006851
:102F5000002807D0DFF86C060068C06AA04201D2E2
:102F600003F0DFFA2800BDE8F28F10B5040000205E
:102F7000002C29D000F04FF8DFF86806006824180C
:102F8000DFF840060068001D03F045FBDFF834065B
:102F900000684460DFF84C060068844209D2DFF81C
:102FA00024060068011DDFF84006006803F018FBE6
:102FB00008E0DFF810060068011DDFF83006006841
:102FC00003F00EFB00F02FF8002801D103F0A9FA5E
:102FD00010BD00B585B000200390002002900020B5
:102FE00001900020009000235022DFF810160FF20D
:102FF000E130FFF727FF01280BD103F03DFBDFF89D
:10300000C80501210160DFF8DC050021016003F043
:1030100072FA05B000BDDFF8E0050068401CDFF87B
:10302000D8150860704770B5002403F07FFADFF808
:10303000C8050068401EDFF8C0150860DFF8B80555
:103040000068002858D1DFF878050068002853D0C0
:10305000002521E016F1180003F0DDFA301D03F021
:10306000DAFADFF870050068F16A884203D2F06A84
:10307000DFF860150860311DF06A1422DFF858355A
:1030800002FB003003F09EFAF06ADFF83815096899
:10309000C96A884200D30125DFF858050068002876
:1030A00004D0DFF85005C068C66800E00026002E96
:1030B000D0D1DFF84C050068002809D10EE000F0FF
:1030C0001FF8DFF83C050068401EDFF83415086083
:1030D000DFF82C0500680028F1D10125012D04D06E
:1030E000DFF820050068012806D10124DFF8140567
:1030F0000021016003F015FA03F021FA200070BDF1
:1031000010B5DFF8F4040068002852D1DFF8D404C9
:103110000068401CDFF8CC140860DFF8C8040068C1
:10312000002812D1DFF8C4040068DFF8C014DFF80B
:10313000B82412680A60DFF8B0140860DFF8C80429
:103140000068401CDFF8C01408601CE0201D03F07C
:1031500062FAA06A002803D014F1180003F05BFAA9
:10316000DFF870040068E16A884203D2E06ADFF8A1
:1031700064140860211DE06A1422DFF85C3402FB4D
:10318000003003F01FFADFF86404006800680028CC
:1031900005D0DFF858040068C068C46800E0002467
:1031A000002C0DD0DFF83C04006861688842CDD265
:1031B00006E0DFF84C040068401CDFF844140860A7
:1031C00010BD80B5DFF830040068002804D0DFF8B7
:1031D00034040121016053E0DFF8E8030068006B6C
:1031E000DFF8E01309680968884209D3DFF8D403DF
:1031F000006810F13401DFF8CC03006803F090FBA5
:103200001422DFF80814DFF8BC030068006B03F039
:1032100089FB002811D0DFF8AC03006810F13401FD
:10322000DFF8A003006803F07BFB06E0DFF8A403EF
:103230000068401EDFF89C130860DFF89803006800
:103240001421DFF8942301FB002000680028EDD052
:10325000DFF8800300681421DFF87C2301FB0020E5
:10326000416849684160416810F10802914202D109
:103270004168496841604068C068DFF848130860E9
:1032800001BD10B50C00DFF83C130968183103F0DC
:10329000A7F9DFF830030068001D03F0BCF914F152
:1032A000010F08D1DFF81C030068011DDFF840039F
:1032B00003F088F91CE0DFF82C0300682018DFF821
:1032C000041309684860DFF81C130968884208D2B3
:1032D000BC480068011DDFF81003006803F080F9A6
:1032E00006E0B8480068011DC048006803F078F99E
:1032F00010BD10B50168002902D0C068C46800E0A4
:10330000002414F1180003F086F9BB480068002877
:1033100013D1201D03F07FF9AE480068E16A8842AE
:1033200002D2E06AAB490860211DE06A1422AA4B70
:1033300002FB003003F046F904E014F11801AD4837
:1033400003F040F9E06A9F490968C96A884201D3DD
:10335000012000E0002010BDAB4909680160A149CF
:1033600009684160704738B504000D0003F0DEF8CD
:10337000286810F1010F01D100241FE0A248006865
:103380002168884206D0974800686168884201D366
:10339000012413E0934800686168401A2968884254
:1033A0000BD228688F490968401A6168081828609C
:1033B0002000FFF7D1FF002400E0012403F0BFF854
:1033C000200032BD8F4801210160704700000000DD
:1033D00080B500F040F8FCE738B5040015000C2279
:1033E00014F1340003F0D0FA002084F83F00052DDA
:1033F00000D30425E562A564201D03F0E0F814F174
:10340000180003F0DCF82461D5F10500A0616462C6
:1034100031BD10B5002406E014206F4900FB0410F4
:1034200003F0BEF8641C052CF6D3794803F0B8F815
:10343000784803F0B5F86F4803F0B2F8674803F036
:10344000AFF86B4803F0ACF8684871490160664812
:103450007049016010BD10B56148006800282AD08D
:10346000FFF7D9FD5D480068002801D1012400E084
:103470000024E4B2FFF7D7FD002C1CD103F056F86E
:1034800056480068002803D05448C068C46800E06B
:103490000024201D03F0BFF849480068401E484939
:1034A00008604F480068401E4D49086003F047F827
:1034B000200000F023F810BD70B504000D004C2072
:1034C00003F098FA0600002E16D0002D05D1A4B204
:1034D000A00003F08FFA0500FFE73563306B00288A
:1034E00004D1300003F0ADFA002605E0A4B2A2003A
:1034F000A521306B03F0AAFA300070BD10B50400AE
:10350000206B03F09EFA200003F09BFA10BD2D48BB
:103510000068704710B50400E06A2A490968C96A62
:10352000884229D227480068C06AD0F10500A0610E
:103530006069E16A1422284B02FB0131884217D1ED
:10354000201D03F068F81F480068C06AE062214847
:103550000068E16A884202D2E06A1E490860211DC3
:10356000E06A14221C4B02FB003003F02BF803E04E
:1035700014480068C06AE06210BD10B50400002C59
:103580001CD0E06AA16C884218D0201D03F043F8DB
:10359000A06CE062E06AD0F10500A0610D4800680F
:1035A000E16A884202D2E06A0A490860211DE06AA5
:1035B0001422094B02FB003003F004F810BD000098
:1035C0006476001054760010747600106C7600104B
:1035D00088760010707600108073001088750010D7
:1035E00060760010687600105C7600105876001047
:1035F0009C75001074750010787600108CD6000051
:103600007C760010807600108476001078CA000066
:103610004C7500106075001075480068002804D0D3
:1036200073480068401E724908607248008800288C
:1036300004D070480088401E6E4908806E4800889B
:10364000002805D06C480088401E6B49088063E064
:103650006A4800786A4900224254684800786849FC
:10366000405C68490968C1F3002111F0010191F043
:103670000101C9B2084361490978614A8854614827
:103680000068800501D5002000E002205B49097830
:103690005B4A895C084359490978594A8854594812
:1036A0000068400501D5002000E004205349097856
:1036B000534A895C084351490978514A8854514812
:1036C0000068400401D5002000E008204B4909783B
:1036D0004B4A895C084349490978494A88544A4811
:1036E0000068800101D5002000E0102043490978DE
:1036F000434A895C084341490978414A88543F4814
:103700000078401C082190FBF1F202FB11023B48BB
:103710000270394806210180704710B40021002052
:1037200008E0C0B2364A825C12F00902092A00D1D0
:10373000491C401CC0B20828F3DBC9B2052901DBD3
:1037400008204FE0002000E0401CC0B2052845DA08
:103750000021002208E0D2B2294BD35C012484402E
:10376000234200D0491C521CD2B2082AF3DBC9B252
:103770000529E9DB1F49098800291BD1234909785C
:1037800000290DD0214900220A701A494FF4FA622B
:103790000A8017494EF660220A60401CC0B221E040
:1037A000144932220A8012494EF660220A60401CF7
:1037B000C0B217E01549097800290DD0134900223D
:1037C0000A700C494FF4FA620A8009494EF66022E9
:1037D0000A60401CC0B205E0002003E00B48012154
:1037E0000170002010BC704701480068704700005D
:1037F0003C760010F0170010F2170010C076001091
:10380000D075001034C0092074C00920C1760010A2
:1038100080B5694803F024F9012003F0F1F9002193
:10382000012002F097FA65490860644800680028A2
:1038300006D00023002200216048006802F0C2FA8E
:1038400001BDF8B504000D0016001F004FF48052B2
:103850005B49200B000303F071FA200003F0E3FA48
:10386000BFB23A002900B6B25548301803F01EFB2B
:103870004FF480525249200B000303F087FAF1BD48
:103880002DE9F84304000D001600200B4FF4805181
:1038900001FB1047D7F580585FF00009B6B2F01968
:1038A000B0F5805F12D233009BB23A0092B2290089
:1038B0002000FFF7C6FFBDE8F18300260027B6B25F
:1038C0004FF4805096FBF0F808FB1068B6B2002E5B
:1038D000F1D043469BB23A0092B219EB05012000A9
:1038E000FFF7AFFF18EB040418EB0909002F02D013
:1038F000B6EB0806E2E7B6B2B6F5805FDDDDB6F5F9
:103900008056DBE780B592B203F018FA01BD70B5BE
:1039100004000D0016000023012200212748006842
:1039200002F0B8FA0028F6D0320092B22900200046
:10393000FFF7A6FF0023002200212048006802F0C4
:1039400041FA002070BD70B504000D001600002380
:10395000012200211948006802F09CFA0028F6D0E4
:10396000320092B229002000FFF7CCFF0023002292
:1039700000211248006802F025FA002070BD80B5D1
:10398000012200A9FFF7BEFF9DF8000002BD80B52F
:103990000023012200210948006802F07BFA002878
:1039A000F6D001BD80B50023002200210348006845
:1039B00002F008FA01BD00008014EF0350760010F9
:1039C0000060001010B50446044803F076FA0021A8
:1039D0000170034803F071FA046010BDF80A00108A
:1039E000FC0A001080B503F069FA01F077F80020B6
:1039F00000F0A3F9DFF8B805006850F07040DFF878
:103A0000B0150860DFF8AC05006850F07040DFF8D2
:103A1000A4150860DFF89805006850F00100DFF891
:103A200090150860DFF88805006850F48030DFF8F2
:103A30008015086001F0D2FB00F0E8FA00F09CFB72
:103A400000F00AFE01F0F6F902F04CFBDFF8680521
:103A5000006850F04050DFF86015086001F090FAFF
:103A600003F0D0FB002003F0DAFB01BD10B5002409
:103A700000F0AAFCFFF7D0FDFFF77CF903F008FC8B
:103A800000F0F1FD01F08AF8DFF830050068002849
:103A900006D0DFF828050068401EDFF82015086012
:103AA000DFF81C050068002806D0DFF81405006860
:103AB000401EDFF80C150860DFF8080500680028D4
:103AC00006D0DFF800050068401EDFF8F814086033
:103AD000DFF8F4040068002806D0DFF8EC04006882
:103AE000401EDFF8E4140860DFF8E00400680028F6
:103AF00006D0DFF8D8040068401EDFF8D014086054
:103B0000DFF8CC040068002806D0DFF8C4040068A1
:103B1000401EDFF8BC140860DFF8B8040068002815
:103B200006D0DFF8B0040068401EDFF8A814086073
:103B3000DFF8A4040068002806D0DFF89C040068C1
:103B4000401EDFF894140860DFF890040068401C01
:103B5000DFF888140860DFF888040068C0F3C0301C
:103B600010F0010090F00100C0B204436400DFF8DF
:103B700070040068C0F3400010F0010090F00100F4
:103B8000C0B204436400DFF85C040068C0F3406026
:103B900010F0010090F00100C0B20443DFF84804C7
:103BA0000078DFF8481421F81040DFF83C04007872
:103BB000401C102190FBF1F202FB1102DFF82804F7
:103BC000027010BD10B582B00024DFF824141F204D
:103BD00001F04AFBDFF8180400683D2803D3DFF842
:103BE00010043C21016000A9212001F03DFB23E0ED
:103BF000DFF8C003006850F48030DFF8B8130860C5
:103C0000FA20FFF7B2F900F0F7F8DFF8C003006818
:103C1000002811D1DFF8D8030068002803D0002164
:103C2000032001F015FADFF8C80300684EF66021A2
:103C30004843DFF89813086094F0FF049DF80000F3
:103C4000002834D0E4B2002C18D0DFF8A8030068B4
:103C500050F48030DFF89C130860DFF89C030068A4
:103C600050F08050DFF890130860DFF89003006890
:103C700050F00050DFF884130860C1E7DFF8340328
:103C8000006850F48030DFF82C130860DFF86C0314
:103C9000006850F08050DFF864130860DFF85803C4
:103CA000006850F00050DFF850130860A8E7DFF814
:103CB0004C03006850F08050DFF840130860DFF8D4
:103CC0003C03006850F00050DFF830130860E4B2A5
:103CD000002C8DD0DFF81C03006850F48030DFF832
:103CE000141308608CE710B40021002209E0D2B25E
:103CF000BE4B33F8123001248440234200D0491CCB
:103D0000521CD2B2102AF2DBC9B2092901DB012010
:103D100000E0002010BC7047C0B2002806D0B548B3
:103D2000006850F00100B349086005E0A148006850
:103D300050F001009F490860704780B5C0B200286C
:103D400003D0022836D019D34FE09A48006850F0CB
:103D50008050984908609748006850F00050954995
:103D600008609448006850F080409249086091488B
:103D7000006850F000408F49086036E08D480068C8
:103D800050F080408B4908608A48006850F000502D
:103D9000884908603220FFF7E8F89648006850F03C
:103DA0008050944908609348006850F00040914961
:103DB00008601AE07F48006850F080507D49086034
:103DC0007C48006850F000407A4908603220FFF7D4
:103DD000CCF88848006850F08040864908608548E3
:103DE000006850F000508349086001BD73490860C5
:103DF000704772480068704780B581480078002895
:103E000000F0A7807F48007890F0FF007D4908709F
:103E10007D484079002804D10021052001F04FF8A9
:103E20000DE079484079012804D10121052001F0F5
:103E300046F804E073480178052001F040F8724824
:103E40000079002804D10021042001F038F80DE0A9
:103E50006D480079012804D10121042001F02FF8D8
:103E600004E068480178042001F029F86648807968
:103E7000002804D10021062001F021F80DE062485D
:103E80008079012804D10121062001F018F804E00E
:103E90005C480178062001F012F85B48C0780028E1
:103EA00004D10021032001F00AF80DE05648C07843
:103EB000012804D10121032001F001F804E0514858
:103EC0000178032000F0FBFF4F488078002804D1E0
:103ED0000021022000F0F3FF0DE04B48807801281C
:103EE00004D10121022000F0EAFF04E045480178F6
:103EF000022000F0E4FF44480078002804D10021AB
:103F0000002000F0DCFF0DE03F480078012804D1DC
:103F10000121002000F0D3FF04E03A48017800209E
:103F200000F0CDFF38484078002804D1002101205E
:103F300000F0C5FF0DE034484078012804D101218C
:103F4000012000F0BCFF04E02E480178012000F0C1
:103F5000B6FF01BDC0B22C4A8154704738B5040089
:103F6000002505E000212800C0B200F0A8FF6D1C6C
:103F7000EDB2082DF6DBE4B2002C09D1002004E0FC
:103F8000C0B2214900224254401CC0B20828F7DBCD
:103F90001B48047031BD002807D1154800684EF653
:103FA000602148430949086001E0084908607047FA
:103FB00020C009203CC0092080C00920E8750010FD
:103FC000287600102C760010F4750010DC17001015
:103FD000F075001040760010307600108C760010DE
:103FE00034C0092014C00920AF7600102C750010D1
:103FF000EC75001038C0092098C009209CC0092029
:10400000F7170010B0760010C07500105148006816
:1040100050F480504F49086001204F49096860F30F
:1040200019614D48016001204C49096860F38F31E6
:104030004A48016001204949096860F31141474835
:10404000016047480068000A0002454908600A20EC
:104050004349096860F30F21414801604048006806
:1040600030F480303E4908603D48006850F400104C
:104070003B49086001203A49096860F31A613848F1
:10408000016070470020002105E0C9B2354A32F8CE
:1040900011201018491CC9B21029F6DB80B20009A2
:1040A000704780B5FFF7EEFF40F2263148432E49B6
:1040B000091A40F2F310B1FBF0F12B4840F2E6325E
:1040C00002FB1100B0FBF1F080B202BD80B5FFF73A
:1040D000E8FF80B242F21171884201DB192029E029
:1040E000002100E0491C89B2B32921DA89B21F4AB4
:1040F00032F8112080B2824207D389B21B4A12EBF8
:104100004102528880B282420ED389B2184A32F8F4
:10411000112080B28242E5D389B2144A12EB4102E7
:10412000528880B28242DDD211F11C0080B201E0DF
:104130004FF4FA7002BD0020002105E089B20D4A5B
:1041400032F811201018491C89B21029F6DB000939
:1041500080B27047C4C00F40A8C10F4004C00240E5
:1041600000400340EC740010A05A3200D0B50000AB
:1041700068B400000C750010DFF82804006850F4E3
:104180000020DFF820140860DFF81C04006850F0FD
:104190000C00DFF814140860DFF81004006850F415
:1041A0000020DFF8081408600120DFF80414096813
:1041B00060F39751DFF8F8030160DFF8F803006857
:1041C00050F00200DFF8EC130860DFF8EC03006841
:1041D00050F00200DFF8E0130860DFF8E003006849
:1041E00050F40020DFF8D4130860DFF8D40300682F
:1041F00050F00400DFF8C8130860DFF8C803006857
:1042000030F47F00DFF8BC130860DFF8B00300680B
:1042100050F00400DFF8A4130860DFF8AC03006876
:1042200050F00100DFF8A0130860DFF89C0300687D
:1042300050F00200DFF890130860DFF88C0300688C
:1042400030F00200DFF880130860DFF880030068B8
:1042500080088000DFF874130860DFF874034FF4FF
:1042600096710160DFF86C03006850F03000DFF8F1
:1042700064130860DFF86003006850F00100DFF8A5
:1042800058130860DFF85003006830F00200DFF8D0
:1042900048130860DFF84003006850F00400DFF8BE
:1042A00038130860DFF81803006850F48000DFF866
:1042B000101308600120DFF82413096860F30D3142
:1042C000DFF818030160DFF8FC0200680002000A52
:1042D000BC490860B948006850F00800B749086058
:1042E000DFF8FC02006850F00100BD490860BC48DE
:1042F000006850F00200BA490860B948006830F020
:104300000200B7490860B748006880088000B549D6
:104310000860B5484FF496710160B44800684008E1
:104320004000B2490860B148006830F00200AF496F
:104330000860AF48006840084000AD490860AC48DC
:10434000006830F03000AA490860AA48006810F5FB
:104350007A70A94908607047C0B2002806D0A74803
:10436000006850F40020A549086005E08F48006807
:1043700050F400208D490860704780B5A04800685F
:10438000002810D19F48006850F008009D4908603F
:104390009B480621016003F01DF89B480068401C03
:1043A0009949086003E09648954909680160974873
:1043B000006850F00200954908609548006850F484
:1043C00000209349086001BD92480088401E914931
:1043D000088080B200280AD18F488B4909680160A3
:1043E0008948002101608B484FF4FA7101808B48A5
:1043F0000068002813D08948006801280AD10020ED
:1044000005E0C0B28649002241F82020401CC0B21D
:104410000228F6DB81480068401E8049086070472A
:104420007D48006880B270477E48006801007E4A7F
:104430001268824203D27C4A1268801A05E05FF05B
:10444000FF32794B1B68D21A1018774A11607749EE
:10445000096851F01001754A11606D49096851F001
:1044600004016B4A1160724908606C484FF47A711C
:104470000160704800686A496D4A126841F820205E
:104480006C480068401C10F001006A4908607047E1
:1044900069480068C00711D56848006850F00800F6
:1044A000664908606448006850F00100624908608D
:1044B0005748006850F008005549086070470029C7
:1044C00004D05F4800210160002018E05C490968C1
:1044D00041185B4A11600100002902D55FF0FF32EC
:1044E0005143584A914205DA5549096840185449E0
:1044F000086002E05248002101605148006870479E
:1045000051490968401A50490860704710B50400C5
:10451000002C03D14D48002101700AE06420FEF711
:1045200024FD4B4804600220FEF71FFD474801218F
:10453000017010BD41F234114843C117C00B40EA6D
:104540004140C91340F6C3120023101A73EB010156
:10455000002904DC01DB962801D29620002140F6D8
:10456000C5120023994205DB01DC904202D340F6DC
:10457000C4100021704700202D490968002901D18D
:1045800000200EE0002105E0C9B2254A52F82120A2
:104590001018491CC9B20229F6DB40082D49B1FBAD
:1045A000F0F0704720C0092040C009203CC009201D
:1045B00010C0024048C10F404CC10F4000E100E074
:1045C000C4C00F4000E400E0048000407080004060
:1045D0000C8000400CC0024028800040ACC10F405D
:1045E00004000940700009400C0009401400094013
:1045F0003C000940080009401800094038C0092063
:10460000F07500105CC009200476001040C10F4016
:1046100080E200E0EC170010087600101076001021
:10462000C87500102C8000401876001000800040F3
:104630000C7600101C7600100000094058C00920BC
:1046400020760010A086010024760010B2760010BB
:1046500014760010D89830011548006850F0040016
:1046600013490860704780B512480078002815D0BB
:10467000FFF72CFD0F49097889B280B2814206D23A
:104680000D48006850F004000B4908600CE00B482E
:10469000006850F004000949086005E00648006819
:1046A00050F004000449086001BD024908707047D9
:1046B00040C00920B17600105CC0092058C0092014
:1046C00080B540F6B830FEF750FC00F012F8DFF885
:1046D000D8030078DFF8D0130978DFF8D02352F838
:1046E00021108847DFF8C01308703220FEF73DFC28
:1046F000EDE780B50021012001F02CFBDFF8B013BD
:104700000860DFF8AC030068002807D0002300220F
:104710000021DFF89C03006801F054FB0121032015
:1047200001F018FBDFF88C130860FDF744FFDFF899
:104730008813087001BD10B586B000208DF8000008
:1047400000A9022000F090FD032401AA0DF101014F
:10475000282002F0C0FCC0B2002804D121004C1E69
:1047600089B20029F1D1C0B2002801D1002026E091
:1047700003249DF8001089B2282002F0F7FCC0B293
:10478000002804D121004C1E89B20029F1D1C0B209
:10479000002801D1002012E00324FF21282002F08C
:1047A00003FDC0B2002804D121004C1E89B20029AB
:1047B000F3D1C0B2002801D1002000E0FF2006B0F4
:1047C00010BD80B5FFF7B7FF002801D0042000E03E
:1047D000032002BDC0B2704710B584B0040000AA27
:1047E000B649282002F077FC00280DD0B4480A21F1
:1047F0000170B2480078B349098880B2884201D07C
:1048000005240CE004240AE0AD480078002805D017
:10481000AB480078401EAA49087000E0032420003D
:10482000C0B204B010BD3EB5052400AAA34928209B
:1048300002F051FCC0B2002804D1641E2000C0B2B6
:104840000028F2D1E4B2002C01D1032031E09B48D2
:1048500000789C49098880B2884229D0994800880C
:104860009649097889B2884205D2944800789549DA
:104870000988441A06E093480088D0F1FF008F4968
:1048800009780C18002506E0EDB200A830F81500F4
:1048900000F010F86D1C2800C0B280B2A4B2A04293
:1048A00002D2EDB2052DEFDB8648844909780180FC
:1048B00004203EBD70B50400A4B2200AC0B2002896
:1048C0001DD0401E1CD0401E012859D9801E00F06A
:1048D0008080401E00F09F80401E012840F29C8096
:1048E000801E022875D9C01E042840F29580401F02
:1048F00001286ED9801E032840F28E808CE08BE068
:104900000A260025282002F017FCC0B2002804D196
:1049100031004E1EC9B20029F4D1C0B200282AD0FD
:104920000023012200216248006801F0B3FA002848
:10493000F6D065480088A4B2E1B25F4A12780E232F
:10494000624E03FB026232F8111008185E490880BB
:10495000A4B2E0B2584909780E225C4B02FB013147
:1049600031F810005A4908800023002200215048E5
:10497000006801F027FA6D1CC820FEF7F6FA4BE03C
:1049800054480078012823D10023012200214848FF
:10499000006801F07FFA0028F6D04B4800884C49A7
:1049A0000988884207D34848008849490988401A3D
:1049B0004549088002E0444800210180002300228C
:1049C00000213B48006801F0FDF9414800210180C9
:1049D00022E04048152101700023012200213448C3
:1049E000006801F057FA0028F6D037480088002800
:1049F00006D03548008836490988401A324908806F
:104A00000023002200212A48006801F0DBF9304829
:104A10000021018000E0FFE7A4B2200A2D490870C0
:104A20002D482C490978017070BD10B50024002371
:104A3000012200211E48006801F02CFA0028F6D05F
:104A4000214804880023002200211948006801F051
:104A5000B9F9200080B210BD10B504000023012276
:104A600000211348006801F015FA0028F6D0164816
:104A70000088A4B2844205D313480088001B124961
:104A8000088002E01048002101800023002200215C
:104A90000748006801F096F910BD0F48007870478C
:104AA0000148007870470000F51700109C170010AF
:104AB000E0750010E4750010AB760010AC760010C5
:104AC000F6170010E81700109076001018B90000D3
:104AD000EA170010AE760010AD76001080B5DFF852
:104AE0001403006850F08070DFF808130860DFF8E6
:104AF0000403006850F00070BE4908600120BE4900
:104B0000096860F31961BC480160BC48006850F056
:104B10000400BA490860BA48006850F00400B84977
:104B20000860B848006850F48010B6490860012059
:104B3000B149096860F39B61AF480160AF48006804
:104B400050F00800AD490860AD48006850F008001A
:104B5000AB490860AB48006850F40010A9490860F0
:104B6000A948006850F08070A7490860A64800680E
:104B700050F00070A44908600021012001F0EAF81B
:104B8000A2490860A1480068002806D0002300223E
:104B900000219E48006801F015F901BD9C4800887D
:104BA000002804D09A480088401E994908809948F6
:104BB0000088002804D097480088401E9549088046
:104BC000704710B502F0CAFC40F6B830FEF7CDF9D8
:104BD00002F0DAFCFFF729FF0400002C09D0642062
:104BE00000FB04F080B200F080F8200080B2FFF7F4
:104BF00033FF0A20FEF7B9F9EAE785480088002864
:104C000007D18548008819308349088080483221BF
:104C100001808248006850F00400804908608048A4
:104C2000006850F480107E49086070477A48008818
:104C300070477949098880B2884205D37649098846
:104C4000081A7549088002E0734800210180704706
:104C5000C0B2002806D06C48006850F080706A49E5
:104C6000086005E06F48006850F080706D4908608A
:104C7000704768480088002807D16B480088C83012
:104C8000694908806348322101806448006850F017
:104C90000800624908606248006850F400106049EA
:104CA00008607047C0B2002806D05748006850F02E
:104CB00000705549086005E05A48006850F00070DF
:104CC0005849086070475848008870475649098815
:104CD00080B2814205D254490988081A5249088095
:104CE00002E0514800210180704710B50400002304
:104CF000012200214548006801F0CCF80028F6D0D8
:104D00004A480068A4B2201848490860484842F25E
:104D1000107101600023002200213C48006801F06E
:104D200051F810BD10B5002301220021374800685A
:104D300001F0B0F80028F6D03C48046800230022B7
:104D400000213248006801F03DF8200010BD10B588
:104D500004000023012200212C48006801F09AF889
:104D60000028F6D031480068A04205D32F480068DB
:104D7000001B2E49086002E02C48002101602B48EE
:104D80000068002802D52948002101600023002284
:104D900000211E48006801F015F810BD10B5040090
:104DA0000023012200211948006801F073F800284F
:104DB000F6D01E480460002300220021134800683A
:104DC00001F000F810BD10B504002000C0B2FFF7DC
:104DD0003FFF2000C0B2FFF765FFE4B2200002F001
:104DE00003FCE4B2200002F09BFE10BD10480068F6
:104DF0007047000020C0092010C0024048C10F4089
:104E00004CC10F4000E100E038C00920FC750010E3
:104E100094760010987600109276001040C10F40F2
:104E200080E200E03CC0092096760010F875001082
:104E3000F47500102D48006850F4E0002B4908601C
:104E4000704780B52A48007800F004F86420FEF727
:104E50008CF8F7E780B500211EE0264A126852F46C
:104E60008002244B1A60244A126852F48012224BAA
:104E70001A6001228A400300DBB2134205D01D4AAA
:104E8000126852F480121B4B1A601B4A126852F4CB
:104E90008002194B1A60491CC9B20829DDDB15488C
:104EA000006850F40010134908600120FEF75DF817
:104EB0001148006850F400100F49086001BDC9B2E4
:104EC000002908D00A490978012212FA00F00843A3
:104ED0000749087008E006490978012212FA00F033
:104EE00031EA0000024908707047000020C0092024
:104EF000C776001038C009203CC00920002202F00B
:104F000007BF00001CB5040001A9072000F0ACF9A0
:104F100000200090002300220199032002F012FFDC
:104F20002000FCF789F80100C9B2200003F09FFBC4
:104F300003F0B5FB0028FBD10020009000230022E5
:104F400048F6F861032002F0FDFE13BD10B582B0F3
:104F500000A9002000F088F900240AE0E4B29DF8DE
:104F60000000064911EB001050F82400FFF7CAFFBB
:104F7000641CE4B2042CF1DB13BD0000F40B001040
:104F80008448006850F0020082490860012082498C
:104F9000096860F383018048016001207F49096846
:104FA00060F30F217D4801607D48006850F00200E9
:104FB0007B4908607B48006850F00100794908602F
:104FC0007848006850F0020076490860754800682B
:104FD00030F0020073490860734800688008800060
:104FE0007149086071480C210160714800684008EF
:104FF00040006F4908606E48006830F002006C495C
:1050000008606C480068400840006A4908606948C8
:10501000006840084000674908606648006830F052
:105020003000644908606448006810F57A7063498C
:10503000086002206249096860F315516048016008
:1050400001205549096860F3975153480160704742
:105050001CB50400E4B2012C04D15A491D2000F013
:1050600003F903E057491E2000F0FEF85548008878
:10507000652802DB534864210180524800880028DB
:105080001FD001A9E4B214F1120000F0EDF800A95C
:10509000E4B214F1160000F0E7F84B480199016002
:1050A0004A4800990160FEF772FC4348006810F519
:1050B0007A70424908603E48006850F001003C495F
:1050C000086013BD80B53A48006840084000384980
:1050D00008603E4800210160FEF764FC01BD80B518
:1050E0003548006810F5707034490860364800682B
:1050F000411C354A1160FEF742FC800034490880AB
:105100003348008800280DD0314800882D4909888F
:1051100048432F4908802E480088642190FBF1F015
:105120002B4908802A4800882A49096860F38F11B2
:10513000284801602548006800280BD023480068F3
:10514000401E224908601A48006850F001001849C2
:10515000086007E0164800684008400014490860ED
:10516000FEF720FC5FF04020006850F010005FF078
:10517000402108601848006850F010001649086087
:1051800001BD12480068002801D0012000E0002085
:10519000C0B27047C4C00F40A8C10F4000E400E097
:1051A00000E100E004400040704000400C4000403E
:1051B000144000403C40004008400040184000407F
:1051C00004C002409A760010E0170010007600102C
:1051D0009C76001000C0084080E200E080B5FEF739
:1051E00017FB01BD10B40021002207E02C23464C20
:1051F00003FB02439B889B1C5918521C8242F5D327
:10520000080010BC704710B504002C203E4A00FB7B
:10521000042082883D4801F049FE2C203A4900FBD9
:10522000041082880021394801F053FE2C21364AAF
:1052300001FB04218988354A80B2030A8B542C2152
:10524000314A01FB04218988304A891848702000BE
:10525000FFF7C8FF2C212C4A01FB042189888A1CF6
:105260002A49FEF754FB10BD70B504000D00200064
:10527000FFF7B8FF2C21244A01FB042189888A1CEE
:105280002349FEF760FB2C201F4900FB0410828895
:1052900000211F4801F01DFE80B22C211A4A01FB9B
:1052A00004218988194A891891F840102C22164B3C
:1052B00002FB04329288154BD21892F8412052EA30
:1052C0000121884209D12C200F4900FB041082885B
:1052D0000F49280001F0EAFD14E02C200A4900FBE8
:1052E0000410002104E0C9B2C9B20A5C4A55491C45
:1052F0000A00D2B22C23044E03FB04639B8892B2B3
:105300009A42F0D370BD0000DC90000000730010E2
:105310004073001030B585B000240120FFF753FD25
:1053200001A90020FFF7A0FF00A91A20FFF79CFFAA
:1053300003A91B20FFF798FF02A91C20FFF794FF89
:1053400004A90320FFF790FF0098AB2801D3552054
:105350000090039842F23511884202D341F2446032
:105360000390029842F21171884202D202980028FA
:1053700002D141F26800029001210520FEF7EAFD0A
:10538000DFF83C04006800280CD0DFF8380400681F
:10539000052813D2DFF82C040068401CDFF8241421
:1053A00008600BE0DFF81C040068002806D0DFF876
:1053B00014040068401EDFF80C140860DFF80004D5
:1053C000DFF8041401600098DFF8F8130968081882
:1053D00000909DF80400DFF8F41311EBC000426860
:1053E0009DF80400DFF8E41351F830100020FDF7B9
:1053F00097FC9DF80400DFF8D41311EBC00042685D
:105400009DF80400DFF8C41351F830100020FDF7B8
:105410005DFC0120FEF7A0FF4FF4FA70FDF7A5FD3B
:105420000398FFF773F8DFF8A803DFF8A81301600B
:1054300000F008F9002807D10020FFF767F80020E6
:10544000FEF78AFF0120DCE0009880B2FFF72DF91B
:105450004EF6602504E00120FDF787FDFDF7BDF85D
:10546000FEF734FE80B20099884202D26D1E002DF4
:10547000F1D1002D0AD10020FFF748F80020FEF7F7
:105480006BFF0020FFF711F90220BAE000F003F9EA
:1054900000280AD10020FFF739F80020FEF75CFF52
:1054A0000020FFF702F90320ABE002210420FEF701
:1054B00051FD029803F07CF900280AD00020FFF784
:1054C00025F80020FEF748FF0020FFF7EEF8042043
:1054D00097E000210020FFF7BBFDFFF752FE0028F8
:1054E000FBD1002200210020FDF71AFC0022002140
:1054F0000020FDF7EBFBB84840F6B8310160B44836
:10550000B449016000210120FFF7A2FD07E001215D
:105510000420FEF71FFD02210620FEF71BFDAC480C
:105520000068002838D0AA4801689DF8040000F0FF
:105530006AF800F09BF8FFF71EF8B0F57A7F0AD200
:105540000020FEF7E3FF0020FEF706FF0020FFF734
:10555000ACF8012055E0A048006800280DD1E4B265
:10556000142C00DA641C0098E4B2201880B2FFF713
:105570009CF8994840F6B8310160954800684CF2B3
:1055800051318842C3D201210620FEF7E3FC0221FB
:105590000320FEF7DFFCC2E701210320FEF7DAFC5F
:1055A0000020FEF7B3FF0020FEF7D6FE0020FFF735
:1055B0007CF89DF8040000F09AF8FFF783FD4FF4A3
:1055C000FA70FDF7D2FC00210220FFF741FDFFF742
:1055D000D8FD0028FBD1012003F042F9049803F024
:1055E0004EF9012003F05AF9049803F066F90020FF
:1055F000FEF7B4FC0120FEF7B1FC0020FFF7E3FB4F
:10560000002005B030BD10B586B0040070480068B9
:105610004FF47A71B0FBF1F23C20B2FBF0F100FBE9
:1056200011233C20B2FBF0F26C4900A8FDF7F0FB1F
:1056300000AAE4B26A4850F824100120FDF770FB7C
:1056400006B010BD10B541F28834FEF794FFB0F5F6
:105650007A7F01D9012008E00120FDF786FC2000B7
:10566000441E80B20028F0D1002010BD10B586B0D5
:10567000FEF72CFD0400FEF77EFFA4B2230002001B
:10568000584900A8FDF7C4FB002200A90120FDF73E
:105690001DFB06B010BD10B54FF4FA640120FEF7F3
:1056A0004CFB02E00120FDF760FC0220FEF71BFB33
:1056B000002803D02000441E0028F3D143F698248C
:1056C0000220FEF710FBC0B2002804D00020FEF735
:1056D00034FB01200AE00120FDF747FC2000441EB6
:1056E0000028EDD10020FEF728FB002010BD10B5EA
:1056F00004000120FEF730FE43F2C820FEF706FF4B
:10570000E4B2394810EBC4004268E4B2364850F8BD
:1057100034100020FDF704FB41F65830FDF725FC5E
:105720000020FEF7F3FE0020FEF716FE10BD10B5B8
:1057300004000120FEF710FE4FF4FA70FDF715FC8F
:1057400041F27070FEF7E2FEE4B2284810EBC400AC
:105750004268E4B2254850F834100020FDF7E0FA22
:1057600047F23050FDF701FC0020FEF7CFFE00208D
:10577000FEF7F2FD10BD10B504000120FEF7ECFDB0
:105780004FF4FA70FDF7F1FB42F6E060FEF7BEFE63
:10579000E4B2174810EBC4004268E4B2144850F871
:1057A00034100020FDF7BCFA41F65830FDF7DDFB60
:1057B0000020FEF7ABFE0020FEF7CEFD10BD00007E
:1057C0003076001034760010C0D40100240E001092
:1057D00028760010803801002C760010A0CA000046
:1057E00088150010B0CA0000B40D0010EC0D0010B8
:1057F0005C0E001010B5FCF7DEFE1F4B0A22C0B293
:1058000028211E4C01FB0041C0B21D4C54F8200061
:10581000FDF7EAF910BDE0B501A80021002206C09D
:105820000838FCF7C8FE8DF800009DF80000082835
:1058300002DB00208DF800009DF8000001A9FF2286
:105840004254072301AA0F490F4803F045F80020EE
:105850008DF80000002007E0C0B201A9415C0029DA
:1058600001D08DF80000401CC0B20728F4DB00A96D
:105870000020FFF7C8FC07BDECBE0000F4040010D8
:10588000D0110010EC0600109CCF000070B5040091
:105890000D008D48006850F010008B4908608A4860
:1058A000006850F00200884908608848006850F09D
:1058B0002000864908608548006850F01000834940
:1058C00008608248006850F00070804908607F4896
:1058D000006850F000707D4908607B48006850F413
:1058E0000030794908604FF4FA70FDF73EFB00265E
:1058F00006E0032000F032F86420FDF736FB761C4A
:10590000F6B2032EF5DB022000F028F81420FDF794
:105910002CFB54F02001C9B2002000F074F81420D0
:10592000FDF723FB55F00801C9B2002000F06BF829
:105930001420FDF71AFB55F0080065490870102186
:10594000002000F060F80A20FDF70FFB0621002080
:1059500000F059F80A20FDF708FB70BD5D490968A1
:1059600051F400315B4A116000BF00BF00BF00BFAF
:1059700000BF00BFC10706D55649096851F01001A4
:10598000544A116005E05449096851F01001524A27
:105990001160810706D54F49096851F002014D4A4F
:1059A000116005E04C49096851F002014A4A116052
:1059B000410706D54949096851F02001474A11605D
:1059C00005E04749096851F02001454A1160000788
:1059D00006D54248006850F010004049086005E0D4
:1059E0003F48006850F010003D49086000BF00BF0C
:1059F00000BF00BF00BF00BF3748006850F4003050
:105A000035490860704710B50C00C0B2002806D0B8
:105A10003248006850F000703049086005E03048B6
:105A2000006850F000702E490860E4B22009FFF7CA
:105A300095FF2000C0B2FFF791FF0220FDF795FA15
:105A400010BD80B5C0B2102809DAC9B2002906D14C
:105A5000B0F18001C9B20020FFF7D5FF08E0C9B25C
:105A6000012905D1B0F14001C9B20020FFF7CBFFF9
:105A70000420FDF77AFA01BD80B5C0B201000A2901
:105A80000CD00C2902D00D2908D00CE001210020F7
:105A9000FFF7B9FF0C20FDF768FA09E002210120A9
:105AA000FFF7B1FF04E00100C9B20120FFF7ABFF2F
:105AB00001BD10B5040003E02078FFF7DDFF641C92
:105AC00020780028F8D110BD20C0092000C009208E
:105AD000C276001038C009203CC0092018C0092037
:105AE0001CC0092070B504000D009548006850F4F2
:105AF0008070934908609248006850F08000904997
:105B000008608F48006850F040008D4908608C485C
:105B1000006850F400708A4908608948006850F0B5
:105B20002000874908608648006850F020008449BA
:105B300008608348006850F01000814908604FF405
:105B4000FA70FDF712FA002606E0032000F032F8A2
:105B50006420FDF70AFA761CF6B2032EF5DB02206C
:105B600000F028F81420FDF700FA54F02001C9B223
:105B7000002000F074F81420FDF7F7F955F0080143
:105B8000C9B2002000F06BF81420FDF7EEF955F0D3
:105B900008006C4908701021002000F060F80A200D
:105BA000FDF7E3F90621002000F059F80A20FDF77F
:105BB000DCF970BD6449096851F01001624A116056
:105BC00000BF00BF00BF00BF00BF00BFC10706D5B8
:105BD0005D49096851F480715B4A116005E05B49D9
:105BE000096851F48071594A1160810706D55649F8
:105BF000096851F08001544A116005E05349096871
:105C000051F08001514A1160410706D54E4909689B
:105C100051F040014C4A116005E04C49096851F0CF
:105C200040014A4A1160000706D54748006850F411
:105C300000704549086005E04448006850F4007071
:105C40004249086000BF00BF00BF00BF00BF00BFE7
:105C50003E48006850F010003C490860704710B59D
:105C60000C00C0B2002806D03748006850F0200071
:105C70003549086005E03548006850F02000334998
:105C80000860E4B22009FFF795FF2000C0B2FFF7DB
:105C900091FF0220FDF769F910BD80B5C0B2102850
:105CA00009DAC9B2002906D1B0F18001C9B20020D9
:105CB000FFF7D5FF08E0C9B2012905D1B0F14001D5
:105CC000C9B20020FFF7CBFF0420FDF74EF901BD5C
:105CD00080B5C0B201000A290CD00C2902D00D29D0
:105CE00008D00CE001210020FFF7B9FF0C20FDF7E0
:105CF0003CF909E002210120FFF7B1FF04E00100B7
:105D0000C9B20120FFF7ABFF01BD10B50400104878
:105D1000006800280FD10E4847F23051016004217D
