:10000000A07B001069D00000E9D10000EDD1000014
:10001000F1D10000F5D10000F9D10000429AFAEFC9
:1000200000000000000000000000000071770000E8
:1000300001D20000000000001F77000035760000AC
:100040000DD20000976A000081530000E9530000C0
:100050001DD200007365000000000000937E0000C8
:100060004797000031D2000035D2000039D200009D
:100070003DD2000041D2000045D2000049D200002C
:100080004DD2000051D2000055D20000D3520000E2
:1000900033380000AB38000065D2000069D20000A0
:1000A0006DD2000071D2000075D2000079D200003C
:1000B00079D2000081D200000000000089D2000047
:0400C0008DD20000DD
:100300002DE9F04FA1B0824602AE002017461D46EF
:10031000029170620DF144080AE017F8011B02987F
:10032000D0470290002800F08B82706A401C7062F7
:10033000387808B9706A85E22528EED10020F0608F
:1003400030617061B061F061306201E040F0010045
:1003500017F8011F2029F9D023290DD02B2904D00B
:100360002D2906D030290AD00CE040F0020080B2DE
:10037000EEE740F00400FAE740F00800F7E740F04D
:100380001000F4E72A290DD129680A1D2A6009689E
:10039000F162002904D5494240F00400F16280B2C4
:1003A0007F1C13E00021F1620BE0F16A6FF0004363
:1003B000994205D001EB810302EB43013039F16230
:1003C0007F1C3A78A2F130010A29EED339782E2920
:1003D00003D04FF0FF31B1621EE017F8011F2A2948
:1003E00006D129680A1D2A607F1C0968B16213E0E2
:1003F0000021B1620BE0B16A6FF00043994205D071
:1004000001EB810302EB43013039B1627F1C3A7882
:10041000A2F130010A29EED330860FF6C0303978C8
:1004200000F0FAFD08B117F8010B8DF83A009DF8BD
:100430003A00682802BF39786829622005D06C2804
:1004400004BF38786C2803D171208DF83A007F1CE6
:1004500011A8B0603978B1F1250023D01C3871D0D3
:10046000001F02286ED9133800F09780093869D030
:10047000801E00F02B81401E00F0D480401E022818
:1004800060D9001F00F0CE80401F30D0401E00F029
:100490008480401E20D0C01E09D0801E7DD0C01E8A
:1004A0007BD01BE1F068411CF160252120E1286828
:1004B000011D29600068B26A7060002A02D500F050
:1004C000BBFD07E0002100F0D3FD00281ABF7168D2
:1004D000401AB06A30610DE12868011D29600021D1
:1004E0000068CDE9000111A870607821EAE09DF86C
:1004F0003A00622818D0682806D06A280BD06C28E9
:1005000019D0712807D016E02868011D29600068FD
:10051000716A0180EEE02A68101D28601268706A16
:10052000C117C2E90001E5E02868011D29600068E3
:10053000716A0170DEE02868011D29600068716A37
:100540000160D7E02868C01D20F00700286000F196
:1005500008022A60D0E90023CDE90023002B04D54E
:10056000F068421CF2602D220DE0308E820704D527
:10057000F068421CF2602B2205E0C00705D5F06848
:10058000421CF260202200F80820F06811AA8018AE
:10059000706000A800F0E2F9ACE09DF83A006C2829
:1005A00008BF2A6811D0712808BF2A6802D02A68BB
:1005B0006A280AD1D21D22F007022A60144604F1EB
:1005C00008022A60D4E9002303E0131D2B600023F6
:1005D0001268CDE90023682808BF92B207D06228CC
:1005E00008BFD2B203D0742818BF7A2802D10023E2
:1005F000CDE9002396F8300000075FD5DDE9002340
:10060000002B08BF002A59D041F02000782855D18E
:10061000F068302200F80820401C421CF26000F80C
:1006200008104BE09DF83A0062280CD0682810D0E2
:100630006A281AD06C2823D0712816D074281FD0AD
:100640007A280CD01CE02868021D2A6090F900204E
:100650001AE02868021D2A60B0F9002014E028681A
:10066000021D2A60002302680FE02868C01D20F0E8
:100670000700286000F108022A60D0E9002304E0A6
:100680002868021D2A600268D317CDE90023002BD9
:1006900004DAF068421CF2602D220DE0308E8207F1
:1006A00004D5F068421CF2602B2205E0C00705D596
:1006B000F068421CF260202200F80820F06811AABD
:1006C0008018706000A800F0C0F813E0F068411CCA
:1006D000F16029680A1D2A60096809E0F068421C77
:1006E000F260252200F8082021B1F068421CF26077
:1006F00000F80810F06AF168401AB169401A3169CF
:10070000401AF169401A7169401A316AA0EB010977
:1007100096F830007F1C400710D420208DF8400050
:10072000002409E0012310AA00A9504600F03EFC75
:10073000002840F08580641C4C45F3DBF4680DF123
:10074000440B0AE01BF8011B0298D04702900028D6
:1007500076D0706A401C7062641E002CF2D130208A
:100760008DF840004FF0000BB46909E0012310AA96
:1007700000A9504600F01AFC002861D10BF1010BD2
:10078000A345F3DB3469D6F804B00AE01BF8011B7B
:100790000298D0470290002852D0706A401C7062C4
:1007A000641E002CF2D130208DF840004FF0000B79
:1007B000F46909E0012310AA00A9504600F0F6FBF5
:1007C00000283DD10BF1010BA345F3DB30697168C3
:1007D000746900EB010B09E01BF8011B0298D0477C
:1007E000029068B3706A401C7062641E002CF3D1E2
:1007F00030208DF840004FF0000B346A08E00123F0
:1008000010AA00A9504600F0D1FBC8B90BF1010BAA
:10081000A345F4DB96F8300040077FF589AD202032
:100820008DF84000002400E0641C4C45BFF680AD0C
:10083000012310AA00A9504600F0B8FB0028F3D00D
:100840004FF0FF3021B0BDE8F08F2DE9FA470646A2
:1008500082B035690A466F2A08BF082705D041F0E3
:100860002000782814BF0A271027D6E900013C246D
:1008700080468946642A18BF692A05D1002903DA0F
:10088000D8F1000869EB4909B9F1000F08BFB8F1C8
:10089000000F0CD1306B50B9082F3BD196F83800BF
:1008A000000737D530203B2485F83B0032E0CDE906
:1008B0000089FB17404649463A4600F005FCB84619
:1008C000A8FB0023DDE90089A8EB02023032A4F185
:1008D000010AD2B254463A2A03DB9DF80830513B54
:1008E0009A180AF8052080465FEA010908BFB8F1A6
:1008F000000F03D0F06861198842D8D3082F09D1BE
:1009000096F83800000705D5605D302802D0641ED7
:1009100030206055C4F13C00B0616119F160316B69
:10092000884207DA081A30624FF6EF71308F0840BC
:10093000308710E000290ED596F8381001F0140128
:10094000102908D1716B7269891A326A891A081ADA
:100950000128A8BF306204B0BDE8F0872DE9F24F4E
:1009600004468EB0D4E90001CDE9020104AE9DF841
:10097000380040F02000009061280AD0206B002849
:1009800048BF062004D404BF0098672801D1012085
:1009900020636168C1F30A5040F2FF7290421CD19B
:1009A000080304BF2068002809D10320A0619DF836
:1009B000380061381A2836D30FF2346108E003207A
:1009C000A0619DF8380061381A2829D30FF2186108
:1009D000E068032200F0F0FBB5E1012816DA2046BA
:1009E00000F025FC012811DB002700200099612977
:1009F00020D1E168302201F8012B4A1CE2609DF809
:100A00003820612A0CBF782258220FE0626840F239
:100A1000FE3161F31E52471A62604FF0FF30E5E786
:100A20000FF2C051D4E70FF2C451D1E70A706169E7
:100A3000891C616110B9002500277BE100986128BD
:100A400040F09680206B00284CBF2125451CDDE935
:100A500002012DB26E1CD4E900890022002300F0AF
:100A600007FC3ABF89F00040CDE90280CDE9028958
:100A70003F1F8DF810200DF1110801E000F207086A
:100A8000012E32DBDDE902010022002300F008FC28
:100A90002BD21C2102A800F01BFCDDE9020100F0B2
:100AA0009DFCF61F8146012E09DB00F0C3FC0246C7
:100AB0000B46DDE9020100F0D5FCCDE9020108F2A8
:100AC0000700072105E009F00F0200F8012D4FEAA9
:100AD0002919B9F1010F01DB491EF4D5491E5CBF8C
:100AE000002200F8012DF9D5C8E70DF11100A8EB9F
:100AF00000010DF11106A942B8BF0D462DB2280024
:100B00002FD4884206DA04A9411849780829A8BFD9
:100B10000F2100DA002104AA821800E06D1E12F8ED
:100B20000139401E8B42F9D00F2904D104A9411884
:100B30004A78521C4A70002802D504AE6D1C3F1D35
:100B40002DB2681E0DD481190A783032D2B23A2AF9
:100B500003DB9DF838303A3B9A1801F80129401E12
:100B6000F2D5206B002840F1E580681E2063E1E0AB
:100B7000DDE902010022002300F07AFB3CBF81F096
:100B80000041CDE902013FB247F29750784348490E
:100B9000DFF820B190FBF1F73FB2C7F107069246AC
:100BA000012E19DBDDE90289F00707D552465B46C5
:100BB0004046494600F016FD80468946761050466C
:100BC000594652465B4600F00DFD82468B46002E8C
:100BD000EAD1CDE9028921E076429046DFF8D8904B
:100BE00012E0F00707D552465B464046494600F002
:100BF000F9FC8046894676105046594652465B4677
:100C000000F0F0FC82468B46002EEAD1DDE90201BD
:100C100042464B4600F0B8FDCDE902010098662837
:100C20000CBF07F10A000620216B4518142DA8BF40
:100C3000132530208DF810000DF11106DFF87C909F
:100C4000012D3DDBDDE9020100F0DEFB06F10801CC
:100C500004220A23B0FBF3F303EB8306A0EB460068
:100C6000303001F8010D0A20B3FBF0F000EB8006F4
:100C7000A3EB4603303301F8013D521EE9D1083D94
:100C800001F10806012DDBDBDDE9020100F0BCFB10
:100C900000F0DAFB02460B46DDE9020100F0E2FB60
:100CA00000224B4600F09EFCCDE90201CAE700BFDE
:100CB000A0860100000024400000F03F84D7974147
:100CC0000DF11100301A0DF1110602E0401E7F1ED9
:100CD000761C31783029F9D00099662902D13FB2CB
:100CE000791C03E065290CBF01210021226B8D18BE
:100CF0002DB2A842B8BF05462DB229001AD48142B0
:100D000004DA885D3528A8BF392000DA30208A1936
:100D1000521E00E06D1E12F80139491E8342F9D0BF
:100D2000392802D1885D401C8855002902D5761EDD
:100D30006D1C7F1C3FB29DF8381000972BB23246D5
:100D4000204600F003F80FB0BDE8F08F2DE9F04326
:100D5000054685B01E46D5F8308089461746012ED7
:100D600002DA01260FF28C2749F02000BDF930404D
:100D7000662808BF641C17D0672840F0818014F1F2
:100D8000040FC0F28380444580F2808095F83800DB
:100D9000641C000702D44645B8BFB04624B2B8EB85
:100DA000040848BF4FF00008E868A96924B2012C84
:100DB00025DA30234A1C0B54B8F1010F03DA95F8F9
:100DC0003810090702D52E211154521CAA6118EBC4
:100DD000040FB8BFC8F1000424B26142A0446962A4
:100DE000B045B8BF464636B2EE613246AB693946C9
:100DF000181800F0E1F9A8EB0600A862BFE0081897
:100E0000A64218DA3246394600F0D6F9A9697118B7
:100E1000A961A01B6862B8F1010F03DA95F83800E8
:100E2000000705D5E8682E220A54E869401CE861ED
:100E3000C5F82880A3E02246394600F0BDF9A8692C
:100E40002018361BB8F1010F03DA95F8381009079E
:100E500003D5E9682E224254401C36B2A861B04541
:100E6000B8BF4646EB6836B23246E119C01800F00A
:100E7000A3F9A8693018A861A8EB060068627EE0B3
:100E80004846612816D14FF0700917E0464504DA4C
:100E900095F83810090758BFB046B8F1010848BFA7
:100EA0004FF00008B9F1670F14BF4FF045094FF03C
:100EB000650903E0412808BF4FF05009A969E868B7
:100EC00017F8013B0B544A1CB8F1010F05DA95F8ED
:100ED0003810090758BFAA6117D52E211154531C89
:100EE000AB61B8F1010F10DB761E36B2B045B8BF6A
:100EF000464636B232463946181800F05DF9A86900
:100F00003018A861A8EB06006862A869E96847186C
:100F1000200007F8019B03D42B2007F8010B03E006
:100F20002D2107F8011B444200260DF1080808E0B6
:100F30000A2200A800F04BFD019808F8010B761C6E
:100F4000009C21B20129F3DA022E06DA49F02000D2
:100F5000652804BF302007F8010B4EB9302007F890
:100F6000010B07E0761E02A8305C303007F8010B59
:100F7000012EF7DAA869E9684018381AE86195F88F
:100F8000380000F0140010280DD16869A96908180C
:100F9000696A0818E9690818A96A0818696B88421B
:100FA000BCBF081A286205B0BDE8F083F8B5044656
:100FB0000D4616461F46002004E0E86A401CE86221
:100FC0007F1E002047B116F8011BA868A047A86043
:100FD0000028F2D14FF0FF30F2BD0000686A6C7457
:100FE0007A4C00006E616E004E414E00696E6600E4
:100FF000494E4600300050F8041B61B150F8042BF4
:10100000D30744BFA9F101039A18002342F8043B17
:10101000091FFAD1EFE770470278C9B28A421AB1C4
:101020001CBF10F8012FF9E718BF002070470268B5
:10103000531C03601170704700F10103810704D055
:1010400010F8011B89B18107FAD10268B2F10131B0
:10105000914311F0803F04BF50F8042FF6E710F8D9
:10106000011B11B110F8011BFBE7C01A704700000B
:10107000C9B2830706D0521E22D310F8013B994211
:10108000F7D11FE0083A13D302F1040241EA01212B
:1010900041EA014150F8043B121F21BF4B40A3F12C
:1010A000013C2CEA030C1CF0803FF3D0C9B2001FB6
:1010B000083210F8013B521E28BF91EA030FF8D8FE
:1010C00018BF0120401E70471B4213D1094236D180
:1010D0002AB18446B0FBF2F002FB10C2704700F068
:1010E0007DBCFCD30022002370470B0002000021CE
:1010F00000207047904271EB030CF6D370B5B1FA43
:1011000081F4B3FA83F52C1BA340C4F1200532FA15
:1011100005F63343A2405FF00046E64002E05B087C
:101120005FEA3202841A71EB030524BF2046294688
:101130007641F4D302000B003000002170BD012A7B
:10114000CFD970B5140C20D0B1FA81F4B2FA82F57F
:10115000C4F120046419B4F12006D6D3B2405FF084
:101160000044F440002502E052085FEA3303C61A47
:1011700071EB020E24BF3046714664416D41F3D3DA
:1011800002000B002000290070BD0C46B1FBF2F1FB
:1011900002FB11452D0445EA1045B5FBF2F402FBB4
:1011A000145580B240EA0545B5FBF2F002FB10523F
:1011B00040EA044070BD000062B38B0708D0521EA5
:1011C00011F8013B00F8013B00F024808B07F6D1B9
:1011D000830740F0208000BF103A07D330B4B1E855
:1011E0003810103AA0E83810F9D230BC530724BFA9
:1011F000B1E80810A0E8081044BF51F8043B40F8DB
:10120000043BD20724BF31F8022B20F8022B44BF45
:101210000B7803707047083A07D3B1E80810083A12
:1012200040F8043B40F804CBF7D25307E4E730B46E
:10123000436803F0004201211B031B0B436004BF02
:101240000368002B08D10DE00368DD0F45EA440474
:1012500044605B000360491E4468E302F4D5230345
:101260001B0B436043681A434260084630BC70471A
:101270004FF4001C1CEB410F94BF1CEB430F09E023
:1012800041EA030C50EA4C0C52EA0C0C03D299428E
:1012900008BF9042704714BF8B42824270470000E3
:1012A0004FF4001C1CEB410F94BF1CEB430F09E0F3
:1012B00041EA030C50EA4C0C52EA0C0C03D28B426C
:1012C00008BF8242704714BF9942904270470000A5
:1012D00070B504460D466068C0F30A5040F2FF71D5
:1012E000884207D16068000304BF2068002817D037
:1012F000022070BD20B92046FFF799FF012867DA68
:10130000012D0FDB40F2FF71091A8D420AD360688C
:10131000002847BF00202F4900202F49C4E90001C1
:10132000012070BD4142A942616806DA6FF31E5187
:10133000401941EA0050606041E0401E63680122AC
:10134000451962F31F5305F1350001F00041636058
:10135000352803D361600020206070BD002215F1A4
:101360001F0F04DA22682360002020356060684285
:1013700013D0521E25689241C0F12003D2439D40F4
:1013800045EAD27225686668C54006FA03F32B4326
:101390002360636823FA00F060606068084360605F
:1013A000B2F1004F03D80DD12078C0070AD52068CC
:1013B000401C2060206828B96068401C60604FF0C5
:1013C000FF3070BD6068884204BF20680028F6D1F5
:1013D000002070BD0000F0FF0000F07FF446400DDB
:1013E00040EAC120490006D200F014F8004248BF8C
:1013F0006FF00040604700F00DF84FF00041884268
:101400008CBF084640426047400D40EAC120490079
:1014100080F00D8040F00040490DA1F58061491C2D
:1014200005D4D1F11F0154BFC840C01770474FF019
:1014300000007047010040F10980F446404200F08E
:1014400005F851F000416047010000BF09D0B0FA33
:1014500080F18840C91CC1F58461090501EBD021E8
:101460004005704770B44FF0004591EA030F44BF48
:101470006B4000F0B5BA00BF841A71EB030604D2CA
:101480006E40001BB141121973414FF4001C1CEB5C
:10149000410F34BF7CEB430684E00C0DA4EB1356E4
:1014A000362E7DDC012E43DC45EAC32343EA52534A
:1014B00012BFD20292025B08240545EAC12141EA2B
:1014C0005051D2EBC020994125D407D1B0FA80F613
:1014D00010FA06F164D00020203608E0B1FA81F657
:1014E000B140C6F1200220FA02F21143B0404FEAA7
:1014F000F474B4EB465434F001064FEA74040AD88D
:10150000D6F50016760D04F00044F04061FA06F2BC
:101510005040F1404840C00A40EA415021F00041AB
:1015200028BF5FEA500550F1000044EBD12137E0BD
:1015300045EAC323DB0A45EAC121C90AB6F1200501
:101540000EDD42EA0242120CC5F1200603FA06F64D
:10155000EB4042EA06056D42984161F100010DE061
:1015600062FA06F5F240554063FA06FC82EA0C0284
:10157000F3405A406D42904161EB030111F4801F2A
:1015800005D1641E620502D06D004041494121F43D
:101590008011430875F1004350F1000041EB045104
:1015A00070BC70471CEB410F15D223F0004352EA88
:1015B00043060BD04FEA4C0CBCEB410F04D80C0D8A
:1015C000661E342EB7DDEBE7801A994150EA4106DA
:1015D00008BF0021E4E708BF1CEB430F28BF6FF0F2
:1015E0000001DDE7B0B581EA030C0CF0004C40F2DD
:1015F000FF7515EA11541DBF15EA1357AC42AF42EF
:1016000039E0E41923EA455343F48013C90241F059
:10161000004141EA505EC7021100A7FB0202002808
:101620004FF00000EEFB01204FF00001E3FB07212B
:1016300018BF42F00102401800214941E3FB0E01AE
:10164000A4F580640F0302D252004041494154F195
:1016500001046CDD470872F1004250F1000051EBCB
:101660000451A1F580115CBF41EA0C01B0BD4CEA08
:1016700005510020B0BD05EA1357AC4214BFAF427C
:1016800041E050EA410E1CBF52EA430E02E06146BF
:101690000020B0BD24423C441BD15FEA070EF6D0C7
:1016A000090302BF01460020AEF1140EB1FA81F722
:1016B000AEEB070401FA07FE0C37C7F1200100FA70
:1016C00007F7C8404EEA000E23EA455343F480135F
:1016D000A2E733F00043B3FA83F704BFB2FA82FE05
:1016E00077440B3FE41BB7F1200E2FBF02FA0EF335
:1016F000BB40C7F1200E22FA0EFE38BF43EA0E03AC
:10170000BA40641C82E750EA410E14BF52EA430E0D
:101710006FF000014FF4001717EB430F8ABF194613
:1017200017EB410FB5E74CEA05510020B0BDD4F1ED
:101730000104B4F120070FDAC4F12007520828BFD2
:1017400042F0010210FA07F501FA07F7E1BF2A4358
:10175000E0403843E1400FE0352C98DCC7F120042D
:1017600052EA400220FA07F218BF42F0010231FAB1
:1017700007F0A1400A43002172F1004250F100003D
:1017800051EB0C01B0BD0000F0B540F2FF7581EAED
:10179000030C0CF0004C15EA11541DBF15EA135749
:1017A000AC42AF42E5E0BC41C1F31301C3F3130304
:1017B000801A994143F4801304D2641E40004941C9
:1017C00080185941C90241EA5051B1FBF3F603FBBD
:1017D0001611A2FB0675D7EBC020A94102D2761ED6
:1017E00080185941C90241EA5051B1FBF3FE03FB95
:1017F0001E11A2FB0E75D7EBC020A94103D2AEF19A
:10180000010E80185941890241EA9051760546EA55
:101810008E2EB1FBF3F603FB1611A2FB0675D7EB78
:101820008020A94102D2761E80185941C90241EA9E
:1018300050514EEA060EB1FBF3F603FB1611A2FB64
:101840000675D7EBC020A94102D2761E80185941F7
:10185000C90241EA5051B1FBF3F703FB1711A2FB98
:101860000735D3EBC020A94167F100070CBF004248
:1018700047F0010766F3D5274FEA1E31B80814F583
:10188000806412DDBD0775F1004250EB0E5051EB44
:10189000045111F5801F5CBF41EA0C01F0BD4CF012
:1018A0007F6141F0E0410020F0BDBD076D0840EAD6
:1018B0000E5041F48011D4F10104B4F120060ADA8B
:1018C000C4F120060200E04001FA06F3E1401843AB
:1018D000B24015430EE0342C13DCC6F1200445EA77
:1018E00040056D0820FA06F2154321FA06F0A140E2
:1018F0000D43002175F1004250F1000051EB0C0145
:10190000F0BD00205FEA0C01F0BDCFB992185B4139
:10191000B3FA83F704BFB2FA82F6BF190B3FB7F1EF
:1019200020062FBF02FA06F3BB40C7F1200622FAB9
:1019300006F638BF3343BA401CB1E419641E33E7DE
:101940007F4231F00041B1FA81F404BFB0FA80F671
:10195000A4190B3CB4F120062FBF00FA06F1A140F8
:10196000C4F1200620FA06F638BF3143A0403C1BE4
:101970001AE7AC421ABF05EA1357AF4212E050EA29
:1019800041061CBF52EA4306BFE750EA4107304612
:1019900061461CBF41EA0551F0BD52EA430C08BF45
:1019A000C143F0BD00204FF4001616EB410F98BF65
:1019B00016EB430F08BF16EB410F24BFC14305E0F0
:1019C00016EB430F0CBF61464CEA0551F0BD91FB8D
:1019D000F2F303FB1211C0E90031704770470000B9
:1019E000841A71EB030603D2001BB1411219734133
:1019F0004FF4001C1CEB410F34BF7CEB430443E06D
:101A00000C0DA4EB1356352E50DC45EAC323DB0A3C
:101A100045EAC121C912B6F120050DDD63FA05F6CC
:101A2000EB4086EA0305124218BF45F00105C018D5
:101A300051F100010CD213E062FA06F5F240554074
:101A4000F3415A40B340F3405A408018594107D3FC
:101A500049085FEA30005FEA350528BF45F0010517
:101A600001F58011420875F1004250F1000041EB90
:101A7000045170BC4FF4001C1CEB410F38BF704781
:101A80000020090D090570471CEB410F10D252EAE6
:101A900043060BD0BCEB410F05D80C0DAB43661EC3
:101AA000342EB5DD02E0AB438018594170BC70475D
:101AB00070BC70470000000001004944494F4D418F
:101AC0000000000000000000000000000000000016
:101AD000000000000000000000004E554D00000016
:101AE000000000000100464C41475F425632300082
:101AF00000000000000000000000000000000000E6
:101B00000000000000004E554D00000003000000E2
:101B100001005449504F5F4E4F54415300000000A4
:101B200000000000000000000000000000000000B5
:101B300000004E554D0000000A0000000400564110
:101B40004C4F525F5049504F43410000000000008D
:101B500000000000000000000000000000004E55E2
:101B60004D000000000000000100464C41475F4D61
:101B700044425F42494C4C0000000000000000005D
:101B8000000000000000000000004E554D00000065
:101B9000000000000100464C41475F4D44425F4356
:101BA0004F494E000000000000000000000000004F
:101BB0000000000000004E554D0000000000000035
:101BC0000100464C41475F4D44425F43534800008B
:101BD0000000000000000000000000000000000005
:101BE00000004E554D0000000A0000000400424174
:101BF00055445F5052494E544552000000000000C9
:101C000000000000000000000000000000004E5531
:101C10004D0000000A000000040056414C4F525F86
:101C200050554C534F5F4D4F45440000000000009D
:101C3000000000000000000000004E554D000000B4
:101C40000A000000040056414C4F525F50554C535F
:101C50004F5F4E4F540000000000000000000000E5
:101C60000000000000004E554D0000000000000084
:101C70000400434F4E544147454D5F504152434944
:101C8000414C0000000000000000000000000000C7
:101C900000004E554D000000000000000400434FBE
:101CA0004E544147454D5F544F54414C0000000095
:101CB00000000000000000000000000000004E5581
:101CC0004D0000000000000004004D4F4544415FFE
:101CD0005041524349414C00000000000000000008
:101CE000000000000000000000004E554D00000004
:101CF0000000000004004D4F4544415F544F5441E3
:101D00004C00000000000000000000000000000087
:101D10000000000000004E554D00000000000000D3
:101D2000040043415254414F5F5041524349414C9A
:101D300000000000000000000000000000000000A3
:101D400000004E554D00000000000000040043411B
:101D50005254414F5F544F54414C0000000000006A
:101D600000000000000000000000000000004E55D0
:101D70004D000000000000000400554E495F434143
:101D80005254414F5F5041524349414C00000000C2
:101D9000000000000000000000004E554D00000053
:101DA000000000000400554E495F43415254414F2A
:101DB0005F544F54414C0000000000000000000040
:101DC0000000000000004E554D0000000000000023
:101DD0000400494E4943494F5F4D55534943410023
:101DE00000000000000000000000000000000000F3
:101DF00000004E554D000000000000000400494E58
:101E00004943494F5F50524F504147414E44410072
:101E100000000000000000000000000000004E551F
:101E20004D000000000000000400494E4943494FA6
:101E30005F504547415F5041434F5445000000000B
:101E4000000000000000000000004E554D000000A2
:101E5000000000000400494E4943494F5F5049507B
:101E60004F4341535F50524F4E54415300000000C6
:101E70000000000000004E554D0000000000000072
:101E8000040054414D414E484F5F424C4F434F5F19
:101E90004D55534943410000000000000000000080
:101EA00000004E554D0000000000000004005441A9
:101EB0004D414E484F5F4C4F435543414F5F505249
:101EC0004F500000000000000000000000004E55D0
:101ED0004D00000000000000040054414D414E48F8
:101EE0004F5F504547415F5041434F54450000000C
:101EF000000000000000000000004E554D000000F2
:101F000000000000040054414D414E484F5F5049CD
:101F1000504F4341535F50524F4E544153000000C5
:101F20000000000000004E554D00000000000000C1
:101F3000040054454D50455241545552415F505252
:101F4000455041524F00000000000000000000001A
:101F500000004E554D0000000000000004005645F2
:101F60004C4F4349444144455F50524550415241D2
:101F70004F000000000000000000000000004E556F
:101F80004D00000000000000040054454D504F5F1C
:101F90004D4F544F525F454D42414C4147454D00D6
:101FA000000000000000000000004E554D00000041
:101FB000000000000400564F4C554D455F4D5553F1
:101FC0004943410000000000000000000000000044
:101FD0000000000000004E554D0000000000000011
:101FE0000400564F4C554D455F4C4F435543414FB0
:101FF00000000000000000000000000000000000E1
:1020000000004E554D000000000000000400494E45
:1020100054455256414C4F5F50524F500000000003
:1020200000000000000000000000000000004E550D
:102030004D00000000000000010046524545000030
:102040000000000000000000000000000000000090
:10205000000000000000000000004E554D00000090
:10206000000000000100464954415F4C4544000017
:102070000000000000000000000000000000000060
:102080000000000000004E554D0000000000000060
:10209000010054524F434F5F4D4F454441000000F3
:1020A0000000000000000000000000000000000030
:1020B00000004E554D000000000000000400534594
:1020C0004E48415F41444D494E0000000000000071
:1020D00000000000000000000000000000004E555D
:1020E0004D0000000000000004004E554D45524FC9
:1020F0005F53455249450000000000000000000009
:10210000000000000000000000004E554D000000DF
:10211000000000000400434F4D495353414F5F50AE
:102120004F4E544F0000000000000000000000006F
:102130000000000000004E554D00000000000000AF
:102140000100464C475F444553554D49440000004B
:10215000000000000000000000000000000000007F
:1021600000004E554D000000000000000400636EAA
:10217000745F7069705F74657374650000000000BF
:1021800000000000000000000000000000004E55AC
:102190004D000000000000000000000000000000F2
:1021A000000000000000000000000000000000002F
:1021B000000000000000000000000000000000001F
:1021C000000000000000000000000000000000000F
:1021D00000000000000000000000000000000000FF
:10250000000000009CCD0000100053475F434C4981
:10251000454E54455F3031000000000000000000CF
:1025200000000000000000000000545854000000AB
:102530009CCD0000100053475F434C49454E544525
:102540005F303200000000000000000000000000CA
:102550000000000000005458540000009CCD000012
:10256000100053475F434C49454E54455F3033009C
:10257000000000000000000000000000000000005B
:1025800000005458540000009CCD00001000534738
:102590005F434C49454E54455F3034000000000015
:1025A000000000000000000000000000000054587F
:1025B000540000001CB500F0FCF8040000F0A8F87E
:1025C00001A9032000F0DAFC0DF10101202000F048
:1025D000D5FC00A9222000F0D1FC0DF1020126203B
:1025E00000F0CCFC0022002100206DF033FD012022
:1025F00001F015F8002001F02FF801F0B3F901F017
:10260000F6F9002001F02FFA23E02000C0B200F01C
:1026100015F99DF80000002803D02000C0B200F09A
:10262000E6FA00F04FFB00F09AFB9DF80020210035
:10263000C9B2019800F06DF90221022000F0EBFF11
:1026400000F0C9F8322001F0E0FA9DF8020000F035
:10265000D1FB01A9032000F091FC0DF10101202024
:1026600000F08CFC00A9222000F088FC01F0A5FEFF
:10267000C0B2012830D038D3032805D003D30528B1
:102680002BD002D331E030E02FE000F07CF80020C6
:1026900000F0C5FF01F00CFF012000F0C0FF00F0CA
:1026A00088F8040001A9032000F068FC0DF1010185
:1026B000202000F063FC00A9222000F05FFCDFF87E
:1026C000C807DFF8C817016000F069F80022002190
:1026D00000206DF095FC08E007E09DF8010000285F
:1026E00003D0019880B201F020F99DF80100002884
:1026F0008BD0E4B2DFF8980710EBC4004268E4B274
:10270000DFF88C0750F8341001206DF0A3FC8CE743
:1027100010B500240421082001F016FF0421082030
:1027200002F03EF8E4B2DFF86C0710EBC400426838
:10273000E4B2DFF8600750F8341000206DF060FC60
:10274000E4B2DFF8540710EBC4004268E4B2DFF8EB
:10275000480750F8341000206DF07CFC0021012067
:1027600002F038FADFF834170860DFF83007006845
:10277000002807D0002300220021DFF8200700688E
:1027800002F060FA10BD80B5002301220021DFF8BD
:102790000C07006802F0BEFA0028F5D001BD80B534
:1027A000002300220021DFF8F406006802F04AFA54
:1027B00001BD80B500208DF8000000A9002000F0C8
:1027C000DDFB9DF80000082802DB00208DF80000EA
:1027D0009DF8000002BD70B586B002F023FC040035
:1027E00002F075FEA4B223000200DFF8B41601A8BF
:1027F00002F0DEFE002201A901206DF001FC01F0D3
:10280000B1F80400642501F0ADF8060002F03FFCC9
:1028100094FBF5F105FB11410091642196FBF1F366
:1028200080B20200DFF87C1601A802F0C1FE01AA06
:10283000002101206DF0E4FB06B070BD10B586B03C
:10284000040000A9032000F099FB00986421B0FB6C
:10285000F1F201FB120300986421B0FBF1F2E4B243
:10286000DFF8440650F8241001A802F0A1FE00226F
:1028700001A901206DF0EEFB01F074F8002815D0DD
:102880006421B0FBF1F201FB12036421B0FBF1F211
:10289000E4B2DFF8180650F8241001A802F088FE10
:1028A00001AA002101206DF0D5FB21E0DFF8000630
:1028B0000068002810D1DFF8FC050078401C0421D6
:1028C00090FBF1F202FB1102DFF8E8050270DFF87D
:1028D000E00542F21071016001A9DFF8D805007827
:1028E0003C3000F04BFB01AA002101206DF0B2FB4F
:1028F00006B010BD80B5DFF8C00502F0B2FF0028B9
:1029000005D0DFF8B40580781921484300E00020A5
:1029100002BD70B582B005000C00160001F022F86F
:10292000A842C0F08380F6B2002E03D0FFF7E2FF8A
:10293000A84272D3012100A802F0E4FF002806D0CB
:1029400002283BD02AD3042858D047D365E028007A
:1029500001F04DF8F6B2FF2E13D101F003F8002874
:102960000FD0E4B2DFF8540510EBC4004268E4B2C3
:10297000DFF8480550F8341000206DF06BFB00F0D4
:1029800090F82000C0B203F0D2F90022002100200C
:102990006DF060FB002001F066F83EE0DFF82025D6
:1029A000E4B2DFF8200550F8241000206DF052FB4F
:1029B00000F04AF8002001F056F82EE0DFF8082574
:1029C000E4B2DFF8000550F8241000206DF042FB5F
:1029D00000F03AF8002001F046F81EE0DFF8EC24A1
:1029E000E4B2DFF8E00450F8241000206DF032FB70
:1029F00000F02AF8002001F036F80EE0DFF8D024CD
:102A0000E4B2DFF8C00450F8241000206DF022FB7F
:102A100000F01AF8002001F026F800220021002022
:102A20006DF0EEFA002000F017FE0CE0F6B2FF2E7B
:102A300009D101F032F8002805D100F093FF0028F9
:102A400001D000F02EF873BD80B50221062000F001
:102A5000E2FD00F026F8012001F005F810E0FFF794
:102A600092FE002000F0DBFD01F022FD012000F0CD
:102A7000D6FDFFF794FE0022002100206DF0C0FA81
:102A8000FFF7A9FE01F099FCC0B2012806D0F7D3E8
:102A9000032805D003D30428E1D0F1E7F0E7EFE7FE
:102AA000EEE77FB500F05EFF04002500002000F097
:102AB000DAFF4FF4FA7001F0A8F800A802F0D1FE96
:102AC000002828D01920B4FBF0F4280000F08FFF74
:102AD0000F20B4FBF0F50F20B4FBF0F100FB114424
:102AE000002608E00F21022002F0A2FE41F2883009
:102AF00001F08BF8761CF6B2EDB2AE42F2D3E4B23E
:102B0000002C08D02100C9B2022002F091FE41F24F
:102B1000883001F07AF8012004B070BD38B503F0B8
:102B200043F90400FFF745FE0500E4B2002C01D193
:102B3000012032BDE4B2012C0AD02DD3032C1DD0CC
:102B400011D3052C1CD01AD3072C1BD019D323E08A
:102B5000DFF88023EDB2DFF86C0350F82510002079
:102B60006DF078FA18E0DFF86023EDB2DFF8540377
:102B700050F8251000206DF06DFA0DE00CE00BE030
:102B80000AE009E0DFF84823EDB2DFF8380350F837
:102B9000251000206DF05EFA012000F064FF062091
:102BA00000F03DFD01E0FFF716FE01F006FCC0B2AB
:102BB00001281AD0F7D30328F5D017D30428F2D16F
:102BC000FFF7E1FD002000F02AFD01F071FC01207B
:102BD00000F025FDFFF7EDFD0500FFF7E0FD002209
:102BE000002100206DF00CFADDE7DCE7DBE738B50B
:102BF0000400002500A9022000F0C0F99DF80000A3
:102C0000C00700D564259DF80000800700D5C825C1
:102C10009DF80000400701D54FF4FA759DF80000BB
:102C2000000701D54FF47A759DF80000C00601D564
:102C30004FF4FA65FFF75EFEA84242D20221062059
:102C400000F0E9FC012000F00EFFE4B2A24810EB16
:102C5000C4004268E4B2A04850F8341000206DF07F
:102C6000F9F901E0FFF7B7FDFFF744FEA8421BD2D8
:102C700001F0A3FBC0B20128F4D00428F2D1FFF781
:102C800082FD002000F0CBFC01F012FC012000F0DE
:102C9000C6FCFFF78EFD0400FFF781FD0022002136
:102CA00000206DF0ADF9DDE7002000F0DCFE002033
:102CB00000F0B5FC012000F0B2FC0221022000F07F
:102CC000AAFC31BD10B5FFF774FD040002F0F1FD60
:102CD000002803D002280FD001D319E010BDE4B2C0
:102CE0007E4810EBC4004268E4B27C4850F83410CF
:102CF00000206DF0AFF90BE0E4B2794810EBC400AE
:102D00004268E4B2764850F8341000206DF0A2F921
:102D100005E0FFF760FD4FF4FA7000F076FF02F077
:102D2000C8FD0028DAD001F048FBC0B20128F0D07D
:102D30000428EED1FFF727FD002000F070FC01F021
:102D4000B7FB012000F06BFCFFF733FD0400FFF739
:102D500026FD0022002100206DF052F9D9E710B5C0
:102D600082B000A9012000F009F99DF800000028B8
:102D700000D113BDFFF71DFD040003F085FAC0B2BA
:102D80000328F6D1E4B2574810EBC4004268E4B21D
:102D9000544850F8341000206DF05CF905E0FFF75E
:102DA0001AFD4FF4FA7000F030FF03F06DFAC0B274
:102DB0000328DED101F001FBC0B20128EFD00428C6
:102DC000EDD100F056FCFFF7DEFC002000F027FC00
:102DD00001F06EFB012000F022FCFFF7EAFC04008A
:102DE000FFF7DDFC0022002100206DF009F900F062
:102DF00040FCD4E710B5C0B2002842D02248006899
:102E000000283ED147F23054374A384900206DF04F
:102E1000F7F8354A354900206DF01CF9012002F021
:102E200047FA41F2707002F01DFB3C2003F08FFA6C
:102E300040F6B83000F0E9FE02E0012000F0E5FEC7
:102E40002000441E00280ED002F041FBB0F57A7F2E
:102E5000F3D2002003F07BFA002002F003FB0020F5
:102E600002F026FA0DE0002003F071FA002002F0D3
:102E7000F9FA002002F01CFAFFF750FE024803495D
:102E8000016010BD000000003403001040771B00FB
:102E900090100010F00D0010280E00100C7800109B
:102EA000D4CC0000E8CC00005C16001078160010AE
:102EB000107800109578001078770010201000101E
:102EC000F8CD00003C17001008CE00003CCF0000F9
:102ED00018CE000048CF000058100010C810001095
:102EE000001100103811001028CE000054CF00004F
:102EF00080B503F037FA01BD10B40021002207E0CD
:102F00002C23464C03FB02439B889B1C5918521CE4
:102F10008242F5D3080010BC704710B504002C2085
:102F20003E4A00FB042082883D4803F0F5FA2C203D
:102F30003A4900FB041082880021394803F0FFFA67
:102F40002C21364A01FB04218988354A80B2030AC4
:102F50008B542C21314A01FB04218988304A89187D
:102F600048702000FFF7C8FF2C212C4A01FB0421E8
:102F700089888A1C2A4903F074FA10BD70B50400D0
:102F80000D002000FFF7B8FF2C21244A01FB04218B
:102F900089888A1C234903F080FA2C201F4900FBF2
:102FA0000410828800211F4803F0C9FA80B22C2146
:102FB0001A4A01FB04218988194A891891F840109E
:102FC0002C22164B02FB04329288154BD21892F831
:102FD000412052EA0121884209D12C200F4900FBEF
:102FE000041082880F49280003F096FA14E02C2080
:102FF0000A4900FB0410002104E0C9B2C9B20A5C0E
:103000004A55491C0A00D2B22C23044E03FB046328
:103010009B8892B29A42F0D370BD0000B41A0000AF
:10302000D87400101875001080B503F07DFA00F018
:103030005DFB012000F017FD002000F0CAF9DFF869
:103040004406006850F07040DFF838160860DFF87A
:103050003806006850F07040DFF82C160860DFF882
:103060002406006850F00100DFF818160860DFF849
:103070001406006850F48030DFF808160860FFF787
:1030800037FF01F06FFF02F023F803F037F903F088
:10309000EFFB02F0A7FADFF8F405006850F04050AB
:1030A000DFF8E815086003F047FC03F07BFD022021
:1030B00003F085FD01BD10B5002402F031F901F0E7
:1030C000FBF803F0B5FD03F001FE03F01EF900F07C
:1030D00081FBDFF8BC050068002806D0DFF8B005EA
:1030E0000068401EDFF8A8150860DFF8A805006832
:1030F000002806D0DFF89C050068401EDFF8941514
:103100000860DFF894050068002806D0DFF888051D
:103110000068401EDFF880150860DFF88005006851
:10312000002806D0DFF874050068401EDFF86C1533
:103130000860DFF86C050068002806D0DFF860053D
:103140000068401EDFF858150860DFF85805006871
:10315000002806D0DFF84C050068401EDFF8441553
:103160000860DFF844050068002806D0DFF838055D
:103170000068401EDFF830150860DFF83005006891
:10318000002806D0DFF824050068401EDFF81C1573
:103190000860DFF81C050068002806D0DFF810057D
:1031A0000068401EDFF808150860DFF808050068B1
:1031B000002806D0DFF8FC040068401EDFF8F41495
:1031C0000860DFF8F4040068002806D0DFF8E8049F
:1031D0000068401EDFF8E0140860DFF8E0040068D3
:1031E000401CDFF8D8140860DFF8D4040068C0F38E
:1031F000C03010F0010090F00100C0B20443640040
:10320000DFF8BC040068C0F3400010F0010090F04B
:103210000100C0B204436400DFF8A8040068C0F3F2
:10322000406010F0010090F00100C0B20443DFF8EC
:1032300098040078DFF8941421F81040DFF888042F
:103240000078401C102190FBF1F202FB1102DFF824
:103250007804027010BD10B582B00024DFF870143D
:103260001F20FFF78BFEDFF8680400683D2803D3BA
:10327000DFF85C043C21016000A92120FFF77EFEFD
:1032800023E0DFF80404006850F48030DFF8F8131E
:103290000860FA2000F0B9FC00F0FAF8DFF800044A
:1032A0000068002811D1DFF828040068002803D046
:1032B0000021032003F0A8FBDFF8140400684EF699
:1032C00060214843DFF8D813086094F0FF049DF8AC
:1032D0000000002834D0E4B2002C18D0DFF8F4034A
:1032E000006850F48030DFF8EC130860DFF8E80382
:1032F000006850F08050DFF8E0130860DFF8DC036E
:10330000006850F00050DFF8D4130860C1E7DFF820
:103310007803006850F48030DFF86C130860DFF841
:10332000BC03006850F08050DFF8B0130860DFF88D
:10333000A803006850F00050DFF89C130860A8E76D
:10334000DFF89803006850F08050DFF890130860B1
:10335000DFF88803006850F00050DFF88013086041
:10336000E4B2002C8DD0DFF86C03006850F480309C
:10337000DFF8601308608CE710B4002100220AE037
:10338000D2B2DFF8483333F81230012484402342AC
:1033900000D0491C521CD2B2102AF1DBC9B2092953
:1033A00001DB012000E0002010BC7047C0B2002803
:1033B00008D0DFF82003006850F00100DFF8141394
:1033C000086005E0B048006850F00100AE490860B0
:1033D000704780B5C0B2002803D0022836D019D378
:1033E0004FE0A948006850F08050A7490860A648FF
:1033F000006850F00050A4490860A348006850F0ED
:103400008040A1490860A048006850F000409E49F3
:10341000086036E09C48006850F080409A49086097
:103420009948006850F0005097490860322000F039
:10343000ECFBA848006850F08050A6490860A548F9
:10344000006850F00040A34908601AE08E48006808
:1034500050F080508C4908608B48006850F0004064
:1034600089490860322000F0D0FB9A48006850F08B
:103470008040984908609748006850F0005095498E
:10348000086001BD82490860704781480068704744
:1034900080B593480078002800F0BC8091480078FF
:1034A00090F0FF008F4908708F488078002804D181
:1034B0000021022003F021FA0DE08B4880780128DA
:1034C00004D10121022003F018FA04E085480178B4
:1034D000022003F012FA8448C078002804D10021A9
:1034E000032003F00AFA0DE07F48C078012804D1D8
:1034F0000121032003F001FA04E07A480178032057
:1035000003F0FBF978480079002804D10021042059
:1035100003F0F3F90DE074480079012804D101218A
:10352000042003F0EAF904E06E480178042003F077
:10353000E4F96D484079002804D10021052003F00A
:10354000DCF90DE068484079012804D1012105200B
:1035500003F0D3F904E063480178052003F0CDF9C6
:1035600061488079002804D10021062003F0C5F9C4
:103570000DE05D488079012804D10121062003F087
:10358000BCF904E057480178062003F0B6F9564824
:103590004078002804D10021012003F0AEF90DE0AD
:1035A00051484078012804D10121012003F0A5F9F8
:1035B00004E04C480178012003F09FF94A48007864
:1035C000002804D10021002003F097F90DE04648BF
:1035D0000078012804D10121002003F08EF904E0D5
:1035E00040480178002003F088F93E480078002820
:1035F00008D00121012003F080F90021002003F010
:103600007CF907E00021012003F077F90121002077
:1036100003F073F901BDC0B2334A8154704738B525
:103620000400002505E000212800C0B203F065F980
:103630006D1CEDB2082DF6DBE4B2002C09D10020A0
:1036400004E0C0B2284900224254401CC0B20828FD
:10365000F7DB2348047031BD002807D11C480068FF
:103660004EF6602148430E49086001E00C490860AD
:103670007047174800684EF66021484308490860C3
:103680007047000020C009203CC0092080C00920EC
:10369000B0770010F0770010F4770010BC770010BE
:1036A00028030010B877001008780010F877001091
:1036B0003403001020780010107800105C7800109F
:1036C00034C0092014C0092081780010D47600107D
:1036D000B477001038C0092098C009209CC0092088
:1036E0004E030010827800108877001080B5DFF854
:1036F000B003006850F08070DFF8A4130860DFF8B2
:10370000A003006850F00070DFF8941308600120F7
:10371000DFF89013096860F31961DFF8880301602E
:10372000DFF88403006850F00400DFF87C130860C1
:10373000DFF87803006850F00400DFF870130860C9
:10374000DFF86C03006850F48010DFF86413086041
:103750000120DFF85013096860F39B61DFF8440330
:103760000160DFF84403006850F00800DFF8381308
:103770000860DFF83803006850F00800DFF82C1309
:103780000860DFF82C03006850F40010DFF8201305
:103790000860DFF82003006850F08070DFF8141331
:1037A0000860DFF81003006850F00070C14908603D
:1037B0000021012001F00EFABF490860BE480068F0
:1037C000002806D0002300220021BB48006801F039
:1037D00039FA01BDB9480088002804D0B7480088EC
:1037E000401EB6490880B6480088002804D0B44876
:1037F0000088401EB2490880704710B503F008FBEE
:1038000040F6B83000F001FA03F01AFB02F001FDB7
:103810000400002C09D0642000FB04F080B200F00A
:1038200084F8200080B202F00BFD0A2000F0EDF9D0
:10383000EAE7A2480088002807D1A248008819308A
:10384000A04908809D48322101809F48006850F0BF
:1038500004009D4908609D48006850F480109B4911
:10386000086070479748008870479649098880B279
:10387000884205D393490988081A9249088002E0D2
:103880009048002101807047C0B2002806D08948C6
:10389000006850F080708749086005E08C48006837
:1038A00050F080708A49086070478A480068002894
:1038B0000BD183480088002807D1874800886430EE
:1038C000854908807E48322101807F48006850F099
:1038D00008007D4908607D48006850F400107B496D
:1038E00008607047C0B2002806D07248006850F0E7
:1038F00000707049086005E07548006850F000707D
:103900007349086070477448008870477249098895
:1039100080B2814205D270490988081A6E49088030
:1039200002E06D4800210180704710B504000023BB
:10393000012200216048006801F0ECF90028F6D06F
:1039400066480068A4B220186449086064484EF6CE
:10395000602101600023002200215748006801F027
:1039600071F910BD30B583B0002301220021524807
:10397000006801F0CFF90028F6D0574800880028E9
:1039800024D05548058801A90E20FFF7F7FA00A9B1
:103990000F20FFF7F3FA01982818019000982818D3
:1039A000009001A90E20FFF7B8FA00A90F20FFF739
:1039B000B4FA49480088041948480068281847495B
:1039C000086045480088401B434908804348046814
:1039D0003C48008804193B48002101800023002254
:1039E00000213548006801F02DF920003EBD10B5DA
:1039F00004000023012200212F48006801F08AF909
:103A00000028F6D035480068A04205D33348006846
:103A1000001B3249086002E03048002101602F4855
:103A20000068002802D52D480021016000230022F3
:103A300000212148006801F005F910BD10B504000F
:103A40000023012200211C48006801F063F90028CE
:103A5000F6D02248046000230022002116480068A6
:103A600001F0F0F810BD10B504001A48E4B204608B
:103A70002000C0B2FFF708FF2000C0B2FFF732FFFE
:103A8000E4B2200003F00CFAE4B2200003F09AFC48
:103A90002000C0B202F00AFC10BD11480068704757
:103AA00020C0092010C0024048C10F404CC10F4047
:103AB00000E100E038C00920C477001064780010ED
:103AC000687800106278001040C10F4080E200E08A
:103AD0003CC009202C03001066780010C07700104D
:103AE000BC7700102DE9F84F06000F00904699466C
:103AF0000C99DDF834A0404680B200F02DFB0500A3
:103B00000A9C002D6DD01FFA88F8286B10EB8800F6
:103B1000B0F1040B5FEADB0B5FEACB0B1FFA88F80E
:103B2000CDF80080534622003900280000F0A4FAA6
:103B30004A463100584603F03FFD28600B980028A4
:103B400000D0056003F060FDDFF814070068401C3A
:103B5000DFF80C170860DFF80C07006800280AD1AE
:103B6000DFF800070560DFF8F8060068012810D1CB
:103B700000F09FFA0DE0DFF8F0060068002808D199
:103B8000DFF8E0060068C06A844202D3DFF8D4069A
:103B90000560DFF8D8060068E96A884203D2E86A5F
:103BA000DFF8C8160860DFF8C8060068401CDFF8B8
:103BB000C0160860DFF8BC060068E96A884203D2D4
:103BC000E86ADFF8B0160860291DE86A1422DFF8F9
:103BD000A83602FB003003F063FD012503F01DFD54
:103BE00001E05FF0FF35012D0CD1DFF87C060068A5
:103BF000002807D0DFF86C060068C06AA04201D236
:103C000003F0FDFC2800BDE8F28F10B50400002091
:103C1000002C29D000F04FF8DFF86806006824185F
:103C2000DFF840060068001D03F063FDDFF834068E
:103C300000684460DFF84C060068844209D2DFF86F
:103C400024060068011DDFF84006006803F036FD19
:103C500008E0DFF810060068011DDFF83006006894
:103C600003F02CFD00F02FF8002801D103F0C7FC71
:103C700010BD00B585B00020039000200290002008
:103C800001900020009000235022DFF810160FF260
:103C9000E130FFF727FF01280BD103F05BFDDFF8D0
:103CA000C80501210160DFF8DC050021016003F097
:103CB00090FC05B000BDDFF8E0050068401CDFF8AF
:103CC000D8150860704770B5002403F09DFCDFF83C
:103CD000C8050068401EDFF8C0150860DFF8B805A9
:103CE0000068002858D1DFF878050068002853D014
:103CF000002521E016F1180003F0FBFC301D03F055
:103D0000F8FCDFF870050068F16A884203D2F06AB7
:103D1000DFF860150860311DF06A1422DFF85835AD
:103D200002FB003003F0BCFCF06ADFF838150968CC
:103D3000C96A884200D30125DFF8580500680028C9
:103D400004D0DFF85005C068C66800E00026002EE9
:103D5000D0D1DFF84C050068002809D10EE000F052
:103D60001FF8DFF83C050068401EDFF834150860D6
:103D7000DFF82C0500680028F1D10125012D04D0C1
:103D8000DFF820050068012806D10124DFF81405BA
:103D90000021016003F033FC03F03FFC200070BD04
:103DA00010B5DFF8F4040068002852D1DFF8D4041D
:103DB0000068401CDFF8CC140860DFF8C804006815
:103DC000002812D1DFF8C4040068DFF8C014DFF85F
:103DD000B82412680A60DFF8B0140860DFF8C8047D
:103DE0000068401CDFF8C01408601CE0201D03F0D0
:103DF00080FCA06A002803D014F1180003F079FCBD
:103E0000DFF870040068E16A884203D2E06ADFF8F4
:103E100064140860211DE06A1422DFF85C3402FBA0
:103E2000003003F03DFCDFF86404006800680028FF
:103E300005D0DFF858040068C068C46800E00024BA
:103E4000002C0DD0DFF83C04006861688842CDD2B8
:103E500006E0DFF84C040068401CDFF844140860FA
:103E600010BD80B5DFF830040068002804D0DFF80A
:103E700034040121016053E0DFF8E8030068006BBF
:103E8000DFF8E01309680968884209D3DFF8D40332
:103E9000006810F13401DFF8CC03006803F0AEFDD8
:103EA0001422DFF80814DFF8BC030068006B03F08D
:103EB000A7FD002811D0DFF8AC03006810F1340131
:103EC000DFF8A003006803F099FD06E0DFF8A40323
:103ED0000068401EDFF89C130860DFF89803006854
:103EE0001421DFF8942301FB002000680028EDD0A6
:103EF000DFF8800300681421DFF87C2301FB002039
:103F0000416849684160416810F10802914202D15C
:103F10004168496841604068C068DFF8481308603C
:103F200001BD10B50C00DFF83C130968183103F02F
:103F3000C5FBDFF830030068001D03F0DAFB14F165
:103F4000010F08D1DFF81C030068011DDFF84003F2
:103F500003F0A6FB1CE0DFF82C0300682018DFF854
:103F6000041309684860DFF81C130968884208D206
:103F7000BC480068011DDFF81003006803F09EFBD9
:103F800006E0B8480068011DC048006803F096FBD1
:103F900010BD10B50168002902D0C068C46800E0F7
:103FA000002414F1180003F0A4FBBB4800680028AB
:103FB00013D1201D03F09DFBAE480068E16A8842E2
:103FC00002D2E06AAB490860211DE06A1422AA4BC4
:103FD00002FB003003F064FB04E014F11801AD486B
:103FE00003F05EFBE06A9F490968C96A884201D311
:103FF000012000E0002010BDAB4909680160A14923
:1040000009684160704738B504000D0003F0FCFA00
:10401000286810F1010F01D100241FE0A2480068B8
:104020002168884206D0974800686168884201D3B9
:10403000012413E0934800686168401A29688842A7
:104040000BD228688F490968401A616808182860EF
:104050002000FFF7D1FF002400E0012403F0DDFA87
:10406000200032BD8F480121016070470000000030
:1040700080B500F040F8FCE738B5040015000C22CC
:1040800014F1340003F0EEFC002084F83F00052D0D
:1040900000D30425E562A564201D03F0FEFA14F1A7
:1040A000180003F0FAFA2461D5F10500A0616462FA
:1040B00031BD10B5002406E014206F4900FB041048
:1040C00003F0DCFA641C052CF6D3794803F0D6FA29
:1040D000784803F0D3FA6F4803F0D0FA674803F04A
:1040E000CDFA6B4803F0CAFA684871490160664826
:1040F0007049016010BD10B56148006800282AD0E1
:10410000FFF7D9FD5D480068002801D1012400E0D7
:104110000024E4B2FFF7D7FD002C1CD103F074FAA1
:1041200056480068002803D05448C068C46800E0BE
:104130000024201D03F0DDFA49480068401E48496C
:1041400008604F480068401E4D49086003F065FA5A
:10415000200000F023F810BD70B504000D004C20C5
:1041600003F0B6FC0600002E16D0002D05D1A4B237
:10417000A00003F0ADFC0500FFE73563306B0028BD
:1041800004D1300003F0CBFC002605E0A4B2A2006D
:10419000A521306B03F0C8FC300070BD10B50400E1
:1041A000206B03F0BCFC200003F0B9FC10BD2D48CF
:1041B0000068704710B50400E06A2A490968C96AB6
:1041C000884229D227480068C06AD0F10500A06162
:1041D0006069E16A1422284B02FB0131884217D141
:1041E000201D03F086FA1F480068C06AE06221487B
:1041F0000068E16A884202D2E06A1E490860211D17
:10420000E06A14221C4B02FB003003F049FA03E081
:1042100014480068C06AE06210BD10B50400002CAC
:104220001CD0E06AA16C884218D0201D03F061FA0E
:10423000A06CE062E06AD0F10500A0610D48006862
:10424000E16A884202D2E06A0A490860211DE06AF8
:104250001422094B02FB003003F022FA10BD0000CB
:104260003478001024780010447800103C78001056
:1042700058780010407800105875001050770010E2
:1042800030780010387800102C7800102878001052
:10429000647700103C77001048780010A4D100002B
:1042A0004C7800105078001054780010B0CD000009
:1042B000147700102877001075480068002804D093
:1042C00073480068401E72490860724800880028E0
:1042D00004D070480088401E6E4908806E480088EF
:1042E000002805D06C480088401E6B49088063E0B8
:1042F0006A4800786A490022425468480078684950
:10430000405C68490968C1F3002111F0010191F096
:104310000101C9B2084361490978614A885461487A
:104320000068800501D5002000E002205B49097883
:104330005B4A895C084359490978594A8854594865
:104340000068400501D5002000E0042053490978A9
:10435000534A895C084351490978514A8854514865
:104360000068400401D5002000E008204B4909788E
:104370004B4A895C084349490978494A88544A4864
:104380000068800101D5002000E010204349097831
:10439000434A895C084341490978414A88543F4867
:1043A0000078401C082190FBF1F202FB11023B480F
:1043B0000270394806210180704710B400210020A6
:1043C00008E0C0B2364A825C12F00902092A00D124
:1043D000491C401CC0B20828F3DBC9B2052901DB27
:1043E00008204FE0002000E0401CC0B2052845DA5C
:1043F0000021002208E0D2B2294BD35C0124844082
:10440000234200D0491C521CD2B2082AF3DBC9B2A5
:104410000529E9DB1F49098800291BD123490978AF
:1044200000290DD0214900220A701A494FF4FA627E
:104430000A8017494EF660220A60401CC0B221E093
:10444000144932220A8012494EF660220A60401C4A
:10445000C0B217E01549097800290DD01349002290
:104460000A700C494FF4FA620A8009494EF660223C
:104470000A60401CC0B205E0002003E00B480121A7
:104480000170002010BC70470148006870470000B0
:1044900004780010460300104803001091780010C3
:1044A0009877001034C0092074C009209278001059
:1044B00010B5FEF77EF91F4B0A22C0B228211E4C10
:1044C00001FB0041C0B21D4C54F8200003F036FB44
:1044D00010BDE0B501A80021002206C00838FEF793
:1044E00068F98DF800009DF80000082802DB002024
:1044F0008DF800009DF8000001A9FF224254072317
:1045000001AA0F490F4803F08BFB00208DF8000033
:10451000002007E0C0B201A9415C002901D08DF85C
:104520000000401CC0B20728F4DB00A90020FEF701
:10453000F4FC07BDA0CA0000D406001088120010C9
:10454000CC08001078CF000070B504000D008D4835
:10455000006850F010008B4908608A48006850F0ED
:104560000200884908608848006850F020008649A9
:1045700008608548006850F0100083490860824850
:10458000006850F00070804908607F48006850F073
:1045900000707D4908607B48006850F4003079491C
:1045A00008604FF4FA70FFF730FB002606E00320A6
:1045B00000F032F86420FFF728FB761CF6B2032ED9
:1045C000F5DB022000F028F81420FFF71EFB54F062
:1045D0002001C9B2002000F074F81420FFF715FB89
:1045E00055F00801C9B2002000F06BF81420FFF765
:1045F0000CFB55F00800654908701021002000F000
:1046000060F80A20FFF701FB0621002000F059F8AE
:104610000A20FFF7FAFA70BD5D49096851F40031CC
:104620005B4A116000BF00BF00BF00BF00BF00BFFA
:10463000C10706D55649096851F01001544A116066
:1046400005E05449096851F01001524A1160810790
:1046500006D54F49096851F002014D4A116005E045
:104660004C49096851F002014A4A1160410706D5D8
:104670004949096851F02001474A116005E047495E
:10468000096851F02001454A1160000706D54248EB
:10469000006850F010004049086005E03F4800689D
:1046A00050F010003D49086000BF00BF00BF00BFD0
:1046B00000BF00BF3748006850F40030354908603B
:1046C000704710B50C00C0B2002806D03248006810
:1046D00050F000703049086005E03048006850F044
:1046E00000702E490860E4B22009FFF795FF200012
:1046F000C0B2FFF791FF0220FFF787FA10BD80B527
:10470000C0B2102809DAC9B2002906D1B0F180017F
:10471000C9B20020FFF7D5FF08E0C9B2012905D1D1
:10472000B0F14001C9B20020FFF7CBFF0420FFF732
:104730006CFA01BD80B5C0B201000A290CD00C2969
:1047400002D00D2908D00CE001210020FFF7B9FFAD
:104750000C20FFF75AFA09E002210120FFF7B1FF10
:1047600004E00100C9B20120FFF7ABFF01BD10B5A5
:10477000040003E02078FFF7DDFF641C20780028A8
:10478000F8D110BD20C0092000C009209378001086
:1047900038C009203CC0092018C009201CC00920CD
:1047A00070B504000D00DFF81804006850F4807044
:1047B000DFF80C140860DFF80804006850F080008F
:1047C000DFF8FC130860DFF8F803006850F04000E1
:1047D000DFF8EC130860DFF8E803006850F40070BD
:1047E000DFF8DC130860DFF8D803006850F0200021
:1047F000DFF8CC130860DFF8C803006850F0200031
:10480000DFF8BC130860DFF8B803006850F0100050
:10481000DFF8AC1308604FF4FA70FFF7F6F90026E2
:1048200006E0032000F033F86420FFF7EEF9761C71
:10483000F6B2032EF5DB022000F029F81420FFF772
:10484000E4F954F02001C9B2002000F01CF9142052
:10485000FFF7DBF955F00801C9B2002000F013F9A9
:104860001420FFF7D2F955F00800DFF8581308704C
:104870001021002000F007F90A20FFF7C6F90621F1
:10488000002000F000F90A20FFF7BFF970BD00BF5B
:1048900000BF00BF00BF00BF00BF00BF00BF00BF20
:1048A00000BF00BF00BF00BF00BF00BF00BF00BF10
:1048B00000BF00BF00BF00BF00BF00BF00BF00BF00
:1048C00000BF00BF00BF00BF00BF00BF00BF00BFF0
:1048D00000BF00BF00BF00BF00BF00BF00BF00BFE0
:1048E00000BF00BF00BFC10708D5DFF8DC120968B0
:1048F00051F48071DFF8D022116006E0DFF8CC12AD
:10490000096851F48071B14A1160810706D5AE493A
:10491000096851F08001AC4A116005E0AB490968B3
:1049200051F08001A94A1160410706D5A6490968DE
:1049300051F04001A44A116005E0A449096851F012
:104940004001A24A1160000706D59F48006850F454
:1049500000709D49086005E09C48006850F40070B4
:104960009A49086000BF00BF00BF00BF00BF00BF82
:1049700000BF00BF00BF00BF00BF00BF00BF00BF3F
:1049800000BF00BF00BF00BF00BF00BF00BF00BF2F
:1049900000BF00BF00BF00BF00BF00BF00BF00BF1F
:1049A00000BF00BF00BF00BF00BF00BF00BF00BF0F
:1049B00000BF00BF00BF00BF00BF00BF824800684B
:1049C00050F010008049086000BF00BF00BF00BF6A
:1049D00000BF00BF00BF00BF00BF00BF00BF00BFDF
:1049E00000BF00BF00BF00BF00BF00BF00BF00BFCF
:1049F00000BF00BF00BF00BF00BF00BF00BF00BFBF
:104A000000BF00BF00BF00BF00BF00BF00BF00BFAE
:104A100000BF00BF00BF00BF00BF00BF00BF00BF9E
:104A20006A48006850F010006849086000BF00BF85
:104A300000BF00BF00BF00BF00BF00BF00BF00BF7E
:104A400000BF00BF00BF00BF00BF00BF00BF00BF6E
:104A500000BF00BF00BF00BF00BF00BF00BF00BF5E
:104A600000BF00BF00BF00BF00BF00BF00BF00BF4E
:104A700000BF00BF00BF00BF00BF00BF00BF00BF3E
:104A800000BF00BF704710B50C00C0B2002806D0B0
:104A90004D48006850F020004B49086005E04B4845
:104AA000006850F0200049490860E4B22009FFF78F
:104AB000EEFE00BF00BF00BF00BF00BF00BF00BFD1
:104AC00000BF00BF00BF00BF00BF00BF00BF00BFEE
:104AD00000BF00BF00BF00BF00BF00BF00BF00BFDE
:104AE00000BF00BF00BF00BF00BF00BF00BF00BFCE
:104AF00000BF00BF00BF00BF00BF00BF00BF00BFBE
:104B000000BF00BF00BF00BF00BF2000C0B2FFF762
:104B1000BEFE0220FFF779F810BD80B5C0B21028A4
:104B200009DAC9B2002906D1B0F18001C9B200206A
:104B3000FFF7A9FF08E0C9B2012905D1B0F1400192
:104B4000C9B20020FFF79FFF0420FFF75EF801BD08
:104B500080B5C0B201000A290CD00C2902D00D2961
:104B600008D00CE001210020FFF78DFF0C20FFF79B
:104B70004CF809E002210120FFF785FF04E0010065
:104B8000C9B20120FFF77FFF01BD10B50400104836
:104B9000006800280FD10E4847F23051016004210F
:104BA0000820FFF7FDFD0C20FFF7D2FF03E020787F
:104BB000FFF7CEFF641C20780028F8D110BD00005C
:104BC00040C009209478001058C009205CC009201A
:104BD0000878001070B504000D00002C30D04C2077
:104BE00002F076FF0600002E2AD005FB04F0401CE0
:104BF00002F06EFF3060306800281ED0306805FB80
:104C0000040070600020B0633068B060601E3168DE
:104C100005FB0010F060F46335645FF0FF307064F2
:104C20005FF0FF30B06416F1100002F027FD16F1BE
:104C3000240002F023FD300003E0300002F06FFF9B
:104C4000002070BDF7B504000D001E00002704E031
:104C5000200000F032F9FFF736F802F0D5FCA06B27
:104C6000E16B884213D232002900200000F0DBF80B
:104C7000606A002807D014F12400FFF78AF90128A0
:104C800001D102F0BCFC02F0C8FC012041E0029816
:104C9000002803D102F0C1FC00203AE0002F03D12C
:104CA00000A8FFF7A9F9012702F0B7FCFFF703F806
:104CB00002F0AAFC606C10F1010F01D100206064C9
:104CC000A06C10F1010F01D10020A06402F0A5FC3E
:104CD00002A900A8FFF797F9002813D1200000F0DF
:104CE00030F90028B4D0029914F11000FFF719F937
:104CF000200000F0E2F8FEF7E6FF0028ADD102F058
:104D00007EFCAAE7200000F0D8F8FEF7DCFF0100E7
:104D10000020FEBDF7B504000D001E00002704E0D2
:104D2000200000F0CAF8FEF7CEFF02F06DFCA06B89
:104D300000282BD0E7682900200000F0A9F8002EF9
:104D400014D1A06B401EA0632068002802D1FFF799
:104D50002EFA60602069002814D014F11000FFF7CB
:104D600018F901280ED102F04AFC0BE0E760606AF6
:104D7000002807D014F12400FFF70BF9002801D018
:104D800002F03DFC02F049FC01204BE002980028B3
:104D900003D102F042FC002044E0002F03D100A820
:104DA000FFF72AF9012702F038FCFEF784FF02F032
:104DB0002BFC606C10F1010F01D100206064A06C2D
:104DC00010F1010F01D10020A06402F026FC02A91D
:104DD00000A8FFF718F900281DD1200000F0A2F864
:104DE00000289DD02068002806D102F00DFC6068E4
:104DF000FFF7E0F902F011FC029914F12400FFF72B
:104E000090F8200000F059F8FEF75DFF00288CD1E3
:104E100002F0F5FB89E7200000F04FF8FEF753FFA2
:104E200001000020FEBD10B50400206C002808D150
:104E30002068002828D16068FFF7EFF90020606043
:104E400022E0002A0ED1226CA06801F065FB206CE4
:104E5000A1684018A060A0686168884214D32068E7
:104E6000A06011E0226CE06801F056FB206C40422B
:104E7000E1684018E060E0682168884204D2206C54
:104E8000404261684018E060A06B401CA06310BD08
:104E900080B503000800196800290DD0196CDA6884
:104EA0008918D960D9685A68914201D31968D960C4
:104EB0001A6CD96801F030FB01BD10B5040002F096
:104EC000A3FB0AE014F12400FFF763F8002801D0E7
:104ED000FFF7C8F8A06C401EA064A06C012802DB9C
:104EE000606A0028EED15FF0FF30A06402F095FB0D
:104EF00002F08AFB0AE014F11000FFF74AF80028DC
:104F000001D0FFF7AFF8606C401E6064606C012850
:104F100002DB20690028EED15FF0FF30606402F010
:104F20007CFB10BD10B5040002F06EFBA06B0028E6
:104F300001D1012400E00024E4B202F06EFB200065
:104F400010BD10B5040002F05FFBA06BE16B88425E
:104F500001D1012400E00024E4B202F05EFB200055
:104F600010BD00005148006850F480504F4908605F
:104F700001204F49096860F319614D480160012023
:104F80004C49096860F38F314A4801600120494962
:104F9000096860F311414748016047480068000A0A
:104FA0000002454908600A204349096860F30F215F
:104FB000414801604048006830F480303E49086054
:104FC0003D48006850F400103B49086001203A4910
:104FD000096860F31A6138480160704700200021B9
:104FE00005E0C9B2354A32F811201018491CC9B27F
:104FF0001029F6DB80B20009704780B5FFF7EEFF9D
:1050000040F2263148432E49091A40F2F310B1FB11
:10501000F0F12B4840F2E63202FB1100B0FBF1F058
:1050200080B202BD80B5FFF7E8FF80B242F2117195
:10503000884201DB192029E0002100E0491C89B2E7
:10504000B32921DA89B21F4A32F8112080B2824294
:1050500007D389B21B4A12EB4102528880B28242C6
:105060000ED389B2184A32F8112080B28242E5D3B9
:1050700089B2144A12EB4102528880B28242DDD2D8
:1050800011F11C0080B201E04FF4FA7002BD002063
:10509000002105E089B20D4A32F811201018491C90
:1050A00089B21029F6DB000980B27047C4C00F40F6
:1050B000A8C10F4004C00240004003409476001095
:1050C000A05A3200E0C1000078C00000B4760010A1
:1050D000DFF82804006850F40020DFF8201408608E
:1050E000DFF81C04006850F00C00DFF814140860AE
:1050F000DFF81004006850F40020DFF8081408609E
:105100000120DFF80414096860F39751DFF8F80311
:105110000160DFF8F803006850F00200DFF8EC13DC
:105120000860DFF8EC03006850F00200DFF8E013DD
:105130000860DFF8E003006850F40020DFF8D413C3
:105140000860DFF8D403006850F00400DFF8C813EB
:105150000860DFF8C803006830F47F00DFF8BC1394
:105160000860DFF8B003006850F00400DFF8A41313
:105170000860DFF8AC03006850F00100DFF8A0130E
:105180000860DFF89C03006850F00200DFF890131D
:105190000860DFF88C03006830F00200DFF880134D
:1051A0000860DFF88003006880088000DFF874136F
:1051B0000860DFF874034FF496710160DFF86C0348
:1051C000006850F03000DFF864130860DFF8600317
:1051D000006850F00100DFF858130860DFF8500352
:1051E000006830F00200DFF848130860DFF8400381
:1051F000006850F00400DFF838130860DFF8180387
:10520000006850F48000DFF8101308600120DFF818
:105210002413096860F30D31DFF818030160DFF82B
:10522000FC0200680002000ABC490860B948006836
:1052300050F00800B7490860DFF8FC02006850F041
:105240000100BD490860BC48006850F00200BA493E
:105250000860B948006830F00200B7490860B748F4
:10526000006880088000B5490860B5484FF4967121
:105270000160B448006840084000B2490860B14885
:10528000006830F00200AF490860AF48006840088D
:105290004000AD490860AC48006830F03000AA49D1
:1052A0000860AA48006810F57A70A949086070473C
:1052B000C0B2002806D0A748006850F40020A549D5
:1052C000086005E08F48006850F400208D490860B0
:1052D000704780B5A0480068002810D19F4800683A
:1052E00050F008009D4908609B480621016002F0CB
:1052F00001FD9B480068401C9949086003E09648FE
:105300009549096801609748006850F00200954986
:1053100008609548006850F400209349086001BD7A
:1053200092480088401E9149088080B200280AD126
:105330008F488B49096801608948002101608B48CA
:105340004FF4FA7101808B480068002813D0894817
:10535000006801280AD1002005E0C0B28649002279
:1053600041F82020401CC0B20228F6DB81480068CA
:10537000401E8049086070477D48006880B27047D1
:105380007E48006801007E4A1268824203D27C4A4D
:105390001268801A05E05FF0FF32794B1B68D21A61
:1053A0001018774A11607749096851F01001754A61
:1053B00011606D49096851F004016B4A116072492E
:1053C00008606C484FF47A710160704800686A495F
:1053D0006D4A126841F820206C480068401C10F0AB
:1053E00001006A490860704769480068C00711D524
:1053F0006848006850F00800664908606448006822
:1054000050F00100624908605748006850F00800F9
:10541000554908607047002904D05F4800210160A9
:10542000002018E05C49096841185B4A11600100DE
:10543000002902D55FF0FF325143584A914205DA04
:105440005549096840185449086002E05248002153
:10545000016051480068704751490968401A504935
:105460000860704710B50400002C03D14D4800219E
:1054700001700AE06420FEF7C8FB4B48046002207C
:10548000FEF7C3FB47480121017010BD41F2341102
:105490004843C117C00B40EA4140C91340F6C3124C
:1054A0000023101A73EB0101002904DC01DB9628AC
:1054B00001D29620002140F6C5120023994205DB57
:1054C00001DC904202D340F6C41000217047002056
:1054D0002D490968002901D100200EE0002105E0D6
:1054E000C9B2254A52F821201018491CC9B2022914
:1054F000F6DB40082D49B1FBF0F0704720C00920D1
:1055000040C009203CC0092010C0024048C10F40E3
:105510004CC10F4000E100E0C4C00F4000E400E0D7
:1055200004800040708000400C8000400CC00240AD
:1055300028800040ACC10F400400094070000940C1
:105540000C000940140009403C00094008000940D3
:105550001800094038C00920B87700105CC0092045
:10556000CC77001040C10F4080E200E04003001003
:10557000D0770010D8770010907700102C80004072
:10558000E077001000800040D4770010E47700102E
:105590000000094058C00920E8770010A0860100EB
:1055A000EC77001084780010DC770010D898300178
:1055B0000CB41CB5044604A801900A46009401AB43
:1055C00000A9074878441830FAF79AFE009900229B
:1055D0000A7000285CBF0098001B16BC5DF80CFB2D
:1055E0004FBAFFFF80B502F049FC01BD10B40022A4
:1055F000002303E0DBB21C5CA2185B1CDBB2C9B267
:105600008B42F7D31000C0B210BC70472DE9F047B1
:105610008046894692461C00089D099E32275FFA03
:105620008AFA52464946814800F076FF5146C9B28F
:105630004846FFF7DBFF5FFA8AFA7C490AF8010067
:105640005FFA8AFA1AF1010292B278494046C0B272
:1056500002F080FC02F0B7FC8046012002F0CCFC96
:105660005FFA88F8B8F1000F04D13800471E80B205
:105670000028EFD15FFA88F8B8F1000F45D002F0AA
:105680009FFC80465FFA88F8B8F1250F01DB2421E2
:1056900000E04146C9B2654802F085FCB8F101015D
:1056A000C9B26248FFF7A2FF07005FFA88F8B8F1B5
:1056B000250F01DB242202E05FFA88F842465B49AD
:1056C000280000F029FF5FFA88F8B8F1250F01DB08
:1056D000242001E0B8F101003070E4B2002C01D0C8
:1056E00000F099F85FFA88F8B8F1000F09D15FFA75
:1056F00088F84E4818EB000010F8010CFFB2B842D1
:1057000001D1002002E0012000E00220BDE8F08786
:105710002DE9F0478046894692461C00089D099E67
:105720004FF4FA675FFA8AFA524649463F4800F05A
:10573000F3FE5146C9B24846FFF758FF5FFA8AFAAE
:105740003A490AF801005FFA8AFA1AF1010292B2A4
:1057500036494046C0B202F0FDFB02F034FC804600
:10576000012002F049FC5FFA88F8B8F1000F04D17B
:105770003800471E80B20028EFD15FFA88F8B8F1F0
:10578000000F45D002F01CFC80465FFA88F8B8F1A3
:10579000250F01DB242100E04146C9B2234802F075
:1057A00002FCB8F10101C9B22048FFF71FFF070052
:1057B0005FFA88F8B8F1250F01DB242202E05FFAD6
:1057C00088F842461949280000F0A6FE5FFA88F8DA
:1057D000B8F1250F01DB242001E0B8F101003070A1
:1057E000E4B2002C01D000F016F85FFA88F8B8F1A6
:1057F000010F09D05FFA88F80C4818EB000010F888
:10580000010CFFB2B84201D1002002E0012000E00B
:105810000220BDE8F08780B5044800210170012214
:105820000249002002F096FB01BD000070760010D6
:1058300038B504000D0001F01CFB40F6B830FEF74F
:10584000E4F92100C9B22800C0B202F059FC0400FA
:1058500001F01AFBE4B2002C01D1012000E000208D
:1058600032BD70B586B004000A2501F002FB01A923
:1058700000A802F0FCFB0600F6B2002E04D06D1E5C
:105880002800C0B20028F2D101F0FEFAF6B2002ED4
:105890000CD1002005E0C0B2C0B201A9415C0155A5
:1058A000401CC0B21028F6DB012000E0002006B04A
:1058B00070BD80B500A90420FDF760FB0DF101016A
:1058C0000520FDF75BFB01F0D4FA9DF800000028ED
:1058D00007D001F050FD002803D101F0D5FA0120D6
:1058E0000EE09DF80100002807D001F053FE0028CB
:1058F00003D101F0C9FA022002E001F0C5FA00204C
:1059000002BD000070B586B00C0000250120FEF736
:10591000AAF801A90020FDF731FB00A91A20FDF724
:105920002DFB03A91B20FDF729FB02A91C20FDF775
:1059300025FB04A90320FDF721FB0098AB2801D328
:1059400055200090039842F23511884202D341F26B
:1059500044600390029842F21171884202D2029888
:10596000002802D141F26800029001210220FDF7D7
:1059700052FEDFF80404006800280CD0DFF8FC03B6
:105980000068052813D2DFF8F4030068401CDFF834
:10599000EC1308600BE0DFF8E4030068002806D091
:1059A000DFF8D8030068401EDFF8D0130860DFF886
:1059B000C803DFF8CC1301600098DFF8C013096852
:1059C000081800909DF80400DFF8B81311EBC00030
:1059D00042689DF80400DFF8AC1351F83010002045
:1059E0006AF038FB9DF80400DFF8981311EBC00053
:1059F00042689DF80400DFF88C1351F83010002045
:105A00006AF0FEFA0120FFF753FC4FF4FA70FEF73C
:105A1000FCF80398FFF726FDDFF86C03DFF86C1342
:105A2000016000F00FF9002807D10020FFF71AFDF0
:105A30000020FFF73DFC0120E3E0009880B200F079
:105A400086FC4EF6602604E00120FEF7DEF8FCF747
:105A5000C2FEFFF7E7FA80B20099884202D2761EB2
:105A6000002EF1D1002E0AD10020FFF7FBFC002010
:105A7000FFF71EFC002000F06AFC0220C1E04FF49A
:105A80007A60FFF7EFFCFFF722FD41F269018842DF
:105A9000F9D200F000F900280AD10020FFF7E2FC5B
:105AA0000020FFF705FC002000F051FC0320A8E0D7
:105AB0000398FFF7D7FC02210320FDF7ACFD029805
:105AC00002F08CFB0021002000F09EFF01F035F871
:105AD0000028FBD10022002100206AF0BBFA00223E
:105AE000002100206AF08CFAA94840F6B831016024
:105AF000A548A64901600021012000F085FF07E0CC
:105B000001210320FDF787FD02210420FDF783FD1D
:105B10009D480068002838D09B4801689DF8040023
:105B200000F071F800F0A2F8FFF7D1FCB0F57A7F31
:105B30000AD20020FFF796FC0020FFF7B9FB0020F7
:105B400000F005FC01205CE09148006800280DD1C0
:105B5000EDB2142D00DA6D1C0098EDB2281880B259
:105B600000F0F5FB8A4840F6B831016086480068CD
:105B70004CF251318842C3D201210420FDF74BFD84
:105B800002210520FDF747FDC2E701210520FDF7B1
:105B900042FD0020FFF766FC0020FFF789FB002094
:105BA00000F0D5FB9DF8040000F0A1F800F066FFBE
:105BB0004FF4FA70FEF729F80021022000F024FFCC
:105BC00000F0BBFF0028FBD14FF4FA70FEF71DF880
:105BD000E4B2012C0CD1012002F070FB049802F019
:105BE0007CFB012002F088FB049802F094FB01E0AA
:105BF00002F0A8FB0020FDF712FD0120FDF70FFDCC
:105C0000002006B070BD10B586B004005E48006884
:105C10004FF47A71B0FBF1F23C20B2FBF0F100FBE3
:105C200011233C20B2FBF0F25A4900A8FFF7C0FC58
:105C300000AAE4B2584850F8241001206AF00AFA89
:105C400006B010BD10B54CF25034FFF740FCB0F573
:105C50007A7F01D9012008E00120FDF7D6FF20005E
:105C6000441E80B20028F0D1002010BD10B586B0CF
:105C7000FFF7D8F90400FFF72AFCA4B223000200C2
:105C8000464900A8FFF794FC002200A901206AF011
:105C9000B7F906B010BD10B54FF4FA640120FDF756
:105CA00098FB02E00120FDF7B0FF0220FDF764FB46
:105CB000002803D02000441E0028F3D143F6982486
:105CC0000220FDF759FBC0B2002804D00020FDF7E8
:105CD00080FB01200AE00120FDF797FF2000441E11
:105CE0000028EDD10020FDF774FB002010BD10B599
:105CF00004000120FFF7DCFA43F2C820FFF7B2FBF3
:105D0000E4B2274810EBC4004268E4B2244850F8DB
:105D1000341000206AF09EF941F65830FDF775FF07
:105D20000020FFF79FFB0020FFF7C2FA10BD10B55F
:105D300004000120FFF7BCFA4FF4FA70FDF765FF8D
:105D400041F27070FFF78EFBE4B2164810EBC4000E
:105D50004268E4B2134850F8341000206AF07AF92F
:105D600047F23050FDF751FF0020FFF77BFB00208A
:105D7000FFF79EFA10BD0000F8770010FC770010C6
:105D8000C0D40100080F0010F07700108038010027
:105D9000F4770010D8CD000040160010E8CD0000C8
:105DA000980E0010D00E001038B5FCF702FD04006C
:105DB000E4B2324810EBC4004268E4B22F4850F815
:105DC000341000206AF01CF9E4B22C4810EBC40037
:105DD0004268E4B2294850F8341000206AF03AF9D9
:105DE0000120FFF765FA4FF47A70FDF70EFF41F2DC
:105DF0008830FFF737FB47F2305402E00120FDF70F
:105E000004FFFFF764FBB0F57A7F02D2641E002C1A
:105E1000F4D1002C07D10020FFF74AFA0020FFF749
:105E200021FB012028E0FFF7FDF805004EF6602475
:105E3000681D80B200F08BFA02E00120FDF7E5FE5C
:105E4000FFF7F0F8E91C884202D2641E002CF4D15E
:105E50000020FFF72DFA0020FFF704FB002000F0E0
:105E600076FA002C01D1012006E002F0ECF90028BE
:105E700001D1072000E0002032BD0000E80F001033
:105E800080B540F6B830FDF7C0FE00F026F8DFF828
:105E900034040078002804D0DFF8280400780228B1
:105EA00009D1DFF82404DFF81C1409780170DFF849
:105EB000140406210170DFF810040078DFF80814DC
:105EC0000978DFF8082452F821108847DFF8F81322
:105ED00008703220FDF799FED9E780B50021012036
:105EE000FEF778FEDFF8E8130860DFF8E4030068E7
:105EF000002807D0002300220021DFF8D403006827
:105F0000FEF7A0FE01210320FEF764FEDFF8C413B4
:105F10000860FCF74EFCDFF8C013087001BD10B537
:105F200086B000208DF8000000A90220FDF726F8B9
:105F3000032401AA0DF10101282000F002FCC0B2E7
:105F4000002804D121004C1E89B20029F1D1C0B231
:105F5000002801D1002026E003249DF8001089B21A
:105F6000282000F039FCC0B2002804D121004C1ECA
:105F700089B20029F1D1C0B2002801D1002012E07D
:105F80000324FF21282000F045FCC0B2002804D1E2
:105F900021004C1E89B20029F3D1C0B2002801D1E2
:105FA000002000E0FF2006B010BD80B5FFF7B7FF6E
:105FB000002801D0042000E0032002BDC0B27047D9
:105FC00010B584B0040000AAC449282000F0B9FB31
:105FD00000280DD0C2480A210170C0480078C1498C
:105FE000098880B2884201D005240CE004240AE02C
:105FF000BB480078002805D0B9480078401EB84951
:10600000087000E003242000C0B204B010BD3EB50B
:10601000052400AAB149282000F093FBC0B2002853
:1060200004D1641E2000C0B20028F2D1E4B2002CDA
:1060300001D1032031E0A9480078AA49098880B23B
