:10000000B87A001091E8000011EA000015EA00003B
:1000100019EA00001DEA000021EA00003A0AFAEF9E
:10002000000000000000000000000000017500005A
:1000300029EA000000000000AF740000A573000072
:1000400035EA0000B77A0000E15C00004F5D000077
:1000500045EA0000E56F000000000000B38B0000DF
:100060008BA7000059EA00005DEA000061EA000089
:1000700065EA000069EA00006DEA000071EA00002C
:1000800075EA000079EA00007DEA00002D5C0000BE
:1000900043480000BF4800008DEA000091EA0000DC
:1000A00095EA000099EA00009DEA0000A1EA00003C
:1000B000A1EA0000A9EA000000000000B1EA000087
:0400C000B5EA00009D
:100300002DE9F04FA1B0824602AE002017461D46EF
:10031000029170620DF144080AE017F8011B02987F
:10032000D0470290002800F08B82706A401C7062F7
:10033000387808B9706A85E22528EED10020F0608F
:1003400030617061B061F061306201E040F0010045
:1003500017F8011F2029F9D023290DD02B2904D00B
:100360002D2906D030290AD00CE040F0020080B2DE
:10037000EEE740F00400FAE740F00800F7E740F04D
:100380001000F4E72A290DD129680A1D2A6009689E
:10039000F162002904D5494240F00400F16280B2C4
:1003A0007F1C13E00021F1620BE0F16A6FF0004363
:1003B000994205D001EB810302EB43013039F16230
:1003C0007F1C3A78A2F130010A29EED339782E2920
:1003D00003D04FF0FF31B1621EE017F8011F2A2948
:1003E00006D129680A1D2A607F1C0968B16213E0E2
:1003F0000021B1620BE0B16A6FF00043994205D071
:1004000001EB810302EB43013039B1627F1C3A7882
:10041000A2F130010A29EED330860FF6C0303978C8
:1004200000F0FAFD08B117F8010B8DF83A009DF8BD
:100430003A00682802BF39786829622005D06C2804
:1004400004BF38786C2803D171208DF83A007F1CE6
:1004500011A8B0603978B1F1250023D01C3871D0D3
:10046000001F02286ED9133800F09780093869D030
:10047000801E00F02B81401E00F0D480401E022818
:1004800060D9001F00F0CE80401F30D0401E00F029
:100490008480401E20D0C01E09D0801E7DD0C01E8A
:1004A0007BD01BE1F068411CF160252120E1286828
:1004B000011D29600068B26A7060002A02D500F050
:1004C000BBFD07E0002100F0D3FD00281ABF7168D2
:1004D000401AB06A30610DE12868011D29600021D1
:1004E0000068CDE9000111A870607821EAE09DF86C
:1004F0003A00622818D0682806D06A280BD06C28E9
:1005000019D0712807D016E02868011D29600068FD
:10051000716A0180EEE02A68101D28601268706A16
:10052000C117C2E90001E5E02868011D29600068E3
:10053000716A0170DEE02868011D29600068716A37
:100540000160D7E02868C01D20F00700286000F196
:1005500008022A60D0E90023CDE90023002B04D54E
:10056000F068421CF2602D220DE0308E820704D527
:10057000F068421CF2602B2205E0C00705D5F06848
:10058000421CF260202200F80820F06811AA8018AE
:10059000706000A800F0E2F9ACE09DF83A006C2829
:1005A00008BF2A6811D0712808BF2A6802D02A68BB
:1005B0006A280AD1D21D22F007022A60144604F1EB
:1005C00008022A60D4E9002303E0131D2B600023F6
:1005D0001268CDE90023682808BF92B207D06228CC
:1005E00008BFD2B203D0742818BF7A2802D10023E2
:1005F000CDE9002396F8300000075FD5DDE9002340
:10060000002B08BF002A59D041F02000782855D18E
:10061000F068302200F80820401C421CF26000F80C
:1006200008104BE09DF83A0062280CD0682810D0E2
:100630006A281AD06C2823D0712816D074281FD0AD
:100640007A280CD01CE02868021D2A6090F900204E
:100650001AE02868021D2A60B0F9002014E028681A
:10066000021D2A60002302680FE02868C01D20F0E8
:100670000700286000F108022A60D0E9002304E0A6
:100680002868021D2A600268D317CDE90023002BD9
:1006900004DAF068421CF2602D220DE0308E8207F1
:1006A00004D5F068421CF2602B2205E0C00705D596
:1006B000F068421CF260202200F80820F06811AABD
:1006C0008018706000A800F0C0F813E0F068411CCA
:1006D000F16029680A1D2A60096809E0F068421C77
:1006E000F260252200F8082021B1F068421CF26077
:1006F00000F80810F06AF168401AB169401A3169CF
:10070000401AF169401A7169401A316AA0EB010977
:1007100096F830007F1C400710D420208DF8400050
:10072000002409E0012310AA00A9504600F03EFC75
:10073000002840F08580641C4C45F3DBF4680DF123
:10074000440B0AE01BF8011B0298D04702900028D6
:1007500076D0706A401C7062641E002CF2D130208A
:100760008DF840004FF0000BB46909E0012310AA96
:1007700000A9504600F01AFC002861D10BF1010BD2
:10078000A345F3DB3469D6F804B00AE01BF8011B7B
:100790000298D0470290002852D0706A401C7062C4
:1007A000641E002CF2D130208DF840004FF0000B79
:1007B000F46909E0012310AA00A9504600F0F6FBF5
:1007C00000283DD10BF1010BA345F3DB30697168C3
:1007D000746900EB010B09E01BF8011B0298D0477C
:1007E000029068B3706A401C7062641E002CF3D1E2
:1007F00030208DF840004FF0000B346A08E00123F0
:1008000010AA00A9504600F0D1FBC8B90BF1010BAA
:10081000A345F4DB96F8300040077FF589AD202032
:100820008DF84000002400E0641C4C45BFF680AD0C
:10083000012310AA00A9504600F0B8FB0028F3D00D
:100840004FF0FF3021B0BDE8F08F2DE9FA470646A2
:1008500082B035690A466F2A08BF082705D041F0E3
:100860002000782814BF0A271027D6E900013C246D
:1008700080468946642A18BF692A05D1002903DA0F
:10088000D8F1000869EB4909B9F1000F08BFB8F1C8
:10089000000F0CD1306B50B9082F3BD196F83800BF
:1008A000000737D530203B2485F83B0032E0CDE906
:1008B0000089FB17404649463A4600F005FCB84619
:1008C000A8FB0023DDE90089A8EB02023032A4F185
:1008D000010AD2B254463A2A03DB9DF80830513B54
:1008E0009A180AF8052080465FEA010908BFB8F1A6
:1008F000000F03D0F06861198842D8D3082F09D1BE
:1009000096F83800000705D5605D302802D0641ED7
:1009100030206055C4F13C00B0616119F160316B69
:10092000884207DA081A30624FF6EF71308F0840BC
:10093000308710E000290ED596F8381001F0140128
:10094000102908D1716B7269891A326A891A081ADA
:100950000128A8BF306204B0BDE8F0872DE9F24F4E
:1009600004468EB0D4E90001CDE9020104AE9DF841
:10097000380040F02000009061280AD0206B002849
:1009800048BF062004D404BF0098672801D1012085
:1009900020636168C1F30A5040F2FF7290421CD19B
:1009A000080304BF2068002809D10320A0619DF836
:1009B000380061381A2836D30FF2346108E003207A
:1009C000A0619DF8380061381A2829D30FF2186108
:1009D000E068032200F0F0FBB5E1012816DA2046BA
:1009E00000F025FC012811DB002700200099612977
:1009F00020D1E168302201F8012B4A1CE2609DF809
:100A00003820612A0CBF782258220FE0626840F239
:100A1000FE3161F31E52471A62604FF0FF30E5E786
:100A20000FF2C051D4E70FF2C451D1E70A706169E7
:100A3000891C616110B9002500277BE100986128BD
:100A400040F09680206B00284CBF2125451CDDE935
:100A500002012DB26E1CD4E900890022002300F0AF
:100A600007FC3ABF89F00040CDE90280CDE9028958
:100A70003F1F8DF810200DF1110801E000F207086A
:100A8000012E32DBDDE902010022002300F008FC28
:100A90002BD21C2102A800F01BFCDDE9020100F0B2
:100AA0009DFCF61F8146012E09DB00F0C3FC0246C7
:100AB0000B46DDE9020100F0D5FCCDE9020108F2A8
:100AC0000700072105E009F00F0200F8012D4FEAA9
:100AD0002919B9F1010F01DB491EF4D5491E5CBF8C
:100AE000002200F8012DF9D5C8E70DF11100A8EB9F
:100AF00000010DF11106A942B8BF0D462DB2280024
:100B00002FD4884206DA04A9411849780829A8BFD9
:100B10000F2100DA002104AA821800E06D1E12F8ED
:100B20000139401E8B42F9D00F2904D104A9411884
:100B30004A78521C4A70002802D504AE6D1C3F1D35
:100B40002DB2681E0DD481190A783032D2B23A2AF9
:100B500003DB9DF838303A3B9A1801F80129401E12
:100B6000F2D5206B002840F1E580681E2063E1E0AB
:100B7000DDE902010022002300F07AFB3CBF81F096
:100B80000041CDE902013FB247F29750784348490E
:100B9000DFF820B190FBF1F73FB2C7F107069246AC
:100BA000012E19DBDDE90289F00707D552465B46C5
:100BB0004046494600F016FD80468946761050466C
:100BC000594652465B4600F00DFD82468B46002E8C
:100BD000EAD1CDE9028921E076429046DFF8D8904B
:100BE00012E0F00707D552465B464046494600F002
:100BF000F9FC8046894676105046594652465B4677
:100C000000F0F0FC82468B46002EEAD1DDE90201BD
:100C100042464B4600F0B8FDCDE902010098662837
:100C20000CBF07F10A000620216B4518142DA8BF40
:100C3000132530208DF810000DF11106DFF87C909F
:100C4000012D3DDBDDE9020100F0DEFB06F10801CC
:100C500004220A23B0FBF3F303EB8306A0EB460068
:100C6000303001F8010D0A20B3FBF0F000EB8006F4
:100C7000A3EB4603303301F8013D521EE9D1083D94
:100C800001F10806012DDBDBDDE9020100F0BCFB10
:100C900000F0DAFB02460B46DDE9020100F0E2FB60
:100CA00000224B4600F09EFCCDE90201CAE700BFDE
:100CB000A0860100000024400000F03F84D7974147
:100CC0000DF11100301A0DF1110602E0401E7F1ED9
:100CD000761C31783029F9D00099662902D13FB2CB
:100CE000791C03E065290CBF01210021226B8D18BE
:100CF0002DB2A842B8BF05462DB229001AD48142B0
:100D000004DA885D3528A8BF392000DA30208A1936
:100D1000521E00E06D1E12F80139491E8342F9D0BF
:100D2000392802D1885D401C8855002902D5761EDD
:100D30006D1C7F1C3FB29DF8381000972BB23246D5
:100D4000204600F003F80FB0BDE8F08F2DE9F04326
:100D5000054685B01E46D5F8308089461746012ED7
:100D600002DA01260FF28C2749F02000BDF930404D
:100D7000662808BF641C17D0672840F0818014F1F2
:100D8000040FC0F28380444580F2808095F83800DB
:100D9000641C000702D44645B8BFB04624B2B8EB85
:100DA000040848BF4FF00008E868A96924B2012C84
:100DB00025DA30234A1C0B54B8F1010F03DA95F8F9
:100DC0003810090702D52E211154521CAA6118EBC4
:100DD000040FB8BFC8F1000424B26142A0446962A4
:100DE000B045B8BF464636B2EE613246AB693946C9
:100DF000181800F0E1F9A8EB0600A862BFE0081897
:100E0000A64218DA3246394600F0D6F9A9697118B7
:100E1000A961A01B6862B8F1010F03DA95F83800E8
:100E2000000705D5E8682E220A54E869401CE861ED
:100E3000C5F82880A3E02246394600F0BDF9A8692C
:100E40002018361BB8F1010F03DA95F8381009079E
:100E500003D5E9682E224254401C36B2A861B04541
:100E6000B8BF4646EB6836B23246E119C01800F00A
:100E7000A3F9A8693018A861A8EB060068627EE0B3
:100E80004846612816D14FF0700917E0464504DA4C
:100E900095F83810090758BFB046B8F1010848BFA7
:100EA0004FF00008B9F1670F14BF4FF045094FF03C
:100EB000650903E0412808BF4FF05009A969E868B7
:100EC00017F8013B0B544A1CB8F1010F05DA95F8ED
:100ED0003810090758BFAA6117D52E211154531C89
:100EE000AB61B8F1010F10DB761E36B2B045B8BF6A
:100EF000464636B232463946181800F05DF9A86900
:100F00003018A861A8EB06006862A869E96847186C
:100F1000200007F8019B03D42B2007F8010B03E006
:100F20002D2107F8011B444200260DF1080808E0B6
:100F30000A2200A800F04BFD019808F8010B761C6E
:100F4000009C21B20129F3DA022E06DA49F02000D2
:100F5000652804BF302007F8010B4EB9302007F890
:100F6000010B07E0761E02A8305C303007F8010B59
:100F7000012EF7DAA869E9684018381AE86195F88F
:100F8000380000F0140010280DD16869A96908180C
:100F9000696A0818E9690818A96A0818696B88421B
:100FA000BCBF081A286205B0BDE8F083F8B5044656
:100FB0000D4616461F46002004E0E86A401CE86221
:100FC0007F1E002047B116F8011BA868A047A86043
:100FD0000028F2D14FF0FF30F2BD0000686A6C7457
:100FE0007A4C00006E616E004E414E00696E6600E4
:100FF000494E4600300050F8041B61B150F8042BF4
:10100000D30744BFA9F101039A18002342F8043B17
:10101000091FFAD1EFE770470278C9B28A421AB1C4
:101020001CBF10F8012FF9E718BF002070470268B5
:10103000531C03601170704700F10103810704D055
:1010400010F8011B89B18107FAD10268B2F10131B0
:10105000914311F0803F04BF50F8042FF6E710F8D9
:10106000011B11B110F8011BFBE7C01A704700000B
:10107000C9B2830706D0521E22D310F8013B994211
:10108000F7D11FE0083A13D302F1040241EA01212B
:1010900041EA014150F8043B121F21BF4B40A3F12C
:1010A000013C2CEA030C1CF0803FF3D0C9B2001FB6
:1010B000083210F8013B521E28BF91EA030FF8D8FE
:1010C00018BF0120401E70471B4213D1094236D180
:1010D0002AB18446B0FBF2F002FB10C2704700F068
:1010E0007DBCFCD30022002370470B0002000021CE
:1010F00000207047904271EB030CF6D370B5B1FA43
:1011000081F4B3FA83F52C1BA340C4F1200532FA15
:1011100005F63343A2405FF00046E64002E05B087C
:101120005FEA3202841A71EB030524BF2046294688
:101130007641F4D302000B003000002170BD012A7B
:10114000CFD970B5140C20D0B1FA81F4B2FA82F57F
:10115000C4F120046419B4F12006D6D3B2405FF084
:101160000044F440002502E052085FEA3303C61A47
:1011700071EB020E24BF3046714664416D41F3D3DA
:1011800002000B002000290070BD0C46B1FBF2F1FB
:1011900002FB11452D0445EA1045B5FBF2F402FBB4
:1011A000145580B240EA0545B5FBF2F002FB10523F
:1011B00040EA044070BD000062B38B0708D0521EA5
:1011C00011F8013B00F8013B00F024808B07F6D1B9
:1011D000830740F0208000BF103A07D330B4B1E855
:1011E0003810103AA0E83810F9D230BC530724BFA9
:1011F000B1E80810A0E8081044BF51F8043B40F8DB
:10120000043BD20724BF31F8022B20F8022B44BF45
:101210000B7803707047083A07D3B1E80810083A12
:1012200040F8043B40F804CBF7D25307E4E730B46E
:10123000436803F0004201211B031B0B436004BF02
:101240000368002B08D10DE00368DD0F45EA440474
:1012500044605B000360491E4468E302F4D5230345
:101260001B0B436043681A434260084630BC70471A
:101270004FF4001C1CEB410F94BF1CEB430F09E023
:1012800041EA030C50EA4C0C52EA0C0C03D299428E
:1012900008BF9042704714BF8B42824270470000E3
:1012A0004FF4001C1CEB410F94BF1CEB430F09E0F3
:1012B00041EA030C50EA4C0C52EA0C0C03D28B426C
:1012C00008BF8242704714BF9942904270470000A5
:1012D00070B504460D466068C0F30A5040F2FF71D5
:1012E000884207D16068000304BF2068002817D037
:1012F000022070BD20B92046FFF799FF012867DA68
:10130000012D0FDB40F2FF71091A8D420AD360688C
:10131000002847BF00202F4900202F49C4E90001C1
:10132000012070BD4142A942616806DA6FF31E5187
:10133000401941EA0050606041E0401E63680122AC
:10134000451962F31F5305F1350001F00041636058
:10135000352803D361600020206070BD002215F1A4
:101360001F0F04DA22682360002020356060684285
:1013700013D0521E25689241C0F12003D2439D40F4
:1013800045EAD27225686668C54006FA03F32B4326
:101390002360636823FA00F060606068084360605F
:1013A000B2F1004F03D80DD12078C0070AD52068CC
:1013B000401C2060206828B96068401C60604FF0C5
:1013C000FF3070BD6068884204BF20680028F6D1F5
:1013D000002070BD0000F0FF0000F07FF446400DDB
:1013E00040EAC120490006D200F014F8004248BF8C
:1013F0006FF00040604700F00DF84FF00041884268
:101400008CBF084640426047400D40EAC120490079
:1014100080F00D8040F00040490DA1F58061491C2D
:1014200005D4D1F11F0154BFC840C01770474FF019
:1014300000007047010040F10980F446404200F08E
:1014400005F851F000416047010000BF09D0B0FA33
:1014500080F18840C91CC1F58461090501EBD021E8
:101460004005704770B44FF0004591EA030F44BF48
:101470006B4000F0B5BA00BF841A71EB030604D2CA
:101480006E40001BB141121973414FF4001C1CEB5C
:10149000410F34BF7CEB430684E00C0DA4EB1356E4
:1014A000362E7DDC012E43DC45EAC32343EA52534A
:1014B00012BFD20292025B08240545EAC12141EA2B
:1014C0005051D2EBC020994125D407D1B0FA80F613
:1014D00010FA06F164D00020203608E0B1FA81F657
:1014E000B140C6F1200220FA02F21143B0404FEAA7
:1014F000F474B4EB465434F001064FEA74040AD88D
:10150000D6F50016760D04F00044F04061FA06F2BC
:101510005040F1404840C00A40EA415021F00041AB
:1015200028BF5FEA500550F1000044EBD12137E0BD
:1015300045EAC323DB0A45EAC121C90AB6F1200501
:101540000EDD42EA0242120CC5F1200603FA06F64D
:10155000EB4042EA06056D42984161F100010DE061
:1015600062FA06F5F240554063FA06FC82EA0C0284
:10157000F3405A406D42904161EB030111F4801F2A
:1015800005D1641E620502D06D004041494121F43D
:101590008011430875F1004350F1000041EB045104
:1015A00070BC70471CEB410F15D223F0004352EA88
:1015B00043060BD04FEA4C0CBCEB410F04D80C0D8A
:1015C000661E342EB7DDEBE7801A994150EA4106DA
:1015D00008BF0021E4E708BF1CEB430F28BF6FF0F2
:1015E0000001DDE7B0B581EA030C0CF0004C40F2DD
:1015F000FF7515EA11541DBF15EA1357AC42AF42EF
:1016000039E0E41923EA455343F48013C90241F059
:10161000004141EA505EC7021100A7FB0202002808
:101620004FF00000EEFB01204FF00001E3FB07212B
:1016300018BF42F00102401800214941E3FB0E01AE
:10164000A4F580640F0302D252004041494154F195
:1016500001046CDD470872F1004250F1000051EBCB
:101660000451A1F580115CBF41EA0C01B0BD4CEA08
:1016700005510020B0BD05EA1357AC4214BFAF427C
:1016800041E050EA410E1CBF52EA430E02E06146BF
:101690000020B0BD24423C441BD15FEA070EF6D0C7
:1016A000090302BF01460020AEF1140EB1FA81F722
:1016B000AEEB070401FA07FE0C37C7F1200100FA70
:1016C00007F7C8404EEA000E23EA455343F480135F
:1016D000A2E733F00043B3FA83F704BFB2FA82FE05
:1016E00077440B3FE41BB7F1200E2FBF02FA0EF335
:1016F000BB40C7F1200E22FA0EFE38BF43EA0E03AC
:10170000BA40641C82E750EA410E14BF52EA430E0D
:101710006FF000014FF4001717EB430F8ABF194613
:1017200017EB410FB5E74CEA05510020B0BDD4F1ED
:101730000104B4F120070FDAC4F12007520828BFD2
:1017400042F0010210FA07F501FA07F7E1BF2A4358
:10175000E0403843E1400FE0352C98DCC7F120042D
:1017600052EA400220FA07F218BF42F0010231FAB1
:1017700007F0A1400A43002172F1004250F100003D
:1017800051EB0C01B0BD0000F0B540F2FF7581EAED
:10179000030C0CF0004C15EA11541DBF15EA135749
:1017A000AC42AF42E5E0BC41C1F31301C3F3130304
:1017B000801A994143F4801304D2641E40004941C9
:1017C00080185941C90241EA5051B1FBF3F603FBBD
:1017D0001611A2FB0675D7EBC020A94102D2761ED6
:1017E00080185941C90241EA5051B1FBF3FE03FB95
:1017F0001E11A2FB0E75D7EBC020A94103D2AEF19A
:10180000010E80185941890241EA9051760546EA55
:101810008E2EB1FBF3F603FB1611A2FB0675D7EB78
:101820008020A94102D2761E80185941C90241EA9E
:1018300050514EEA060EB1FBF3F603FB1611A2FB64
:101840000675D7EBC020A94102D2761E80185941F7
:10185000C90241EA5051B1FBF3F703FB1711A2FB98
:101860000735D3EBC020A94167F100070CBF004248
:1018700047F0010766F3D5274FEA1E31B80814F583
:10188000806412DDBD0775F1004250EB0E5051EB44
:10189000045111F5801F5CBF41EA0C01F0BD4CF012
:1018A0007F6141F0E0410020F0BDBD076D0840EAD6
:1018B0000E5041F48011D4F10104B4F120060ADA8B
:1018C000C4F120060200E04001FA06F3E1401843AB
:1018D000B24015430EE0342C13DCC6F1200445EA77
:1018E00040056D0820FA06F2154321FA06F0A140E2
:1018F0000D43002175F1004250F1000051EB0C0145
:10190000F0BD00205FEA0C01F0BDCFB992185B4139
:10191000B3FA83F704BFB2FA82F6BF190B3FB7F1EF
:1019200020062FBF02FA06F3BB40C7F1200622FAB9
:1019300006F638BF3343BA401CB1E419641E33E7DE
:101940007F4231F00041B1FA81F404BFB0FA80F671
:10195000A4190B3CB4F120062FBF00FA06F1A140F8
:10196000C4F1200620FA06F638BF3143A0403C1BE4
:101970001AE7AC421ABF05EA1357AF4212E050EA29
:1019800041061CBF52EA4306BFE750EA4107304612
:1019900061461CBF41EA0551F0BD52EA430C08BF45
:1019A000C143F0BD00204FF4001616EB410F98BF65
:1019B00016EB430F08BF16EB410F24BFC14305E0F0
:1019C00016EB430F0CBF61464CEA0551F0BD91FB8D
:1019D000F2F303FB1211C0E90031704770470000B9
:1019E000841A71EB030603D2001BB1411219734133
:1019F0004FF4001C1CEB410F34BF7CEB430443E06D
:101A00000C0DA4EB1356352E50DC45EAC323DB0A3C
:101A100045EAC121C912B6F120050DDD63FA05F6CC
:101A2000EB4086EA0305124218BF45F00105C018D5
:101A300051F100010CD213E062FA06F5F240554074
:101A4000F3415A40B340F3405A408018594107D3FC
:101A500049085FEA30005FEA350528BF45F0010517
:101A600001F58011420875F1004250F1000041EB90
:101A7000045170BC4FF4001C1CEB410F38BF704781
:101A80000020090D090570471CEB410F10D252EAE6
:101A900043060BD0BCEB410F05D80C0DAB43661EC3
:101AA000342EB5DD02E0AB438018594170BC70475D
:101AB00070BC70470000000001004944494F4D418F
:101AC0000000000000000000000000000000000016
:101AD000000000000000000000004E554D00000016
:101AE000000000000100464C41475F425632300082
:101AF00000000000000000000000000000000000E6
:101B00000000000000004E554D00000003000000E2
:101B100001005449504F5F4E4F54415300000000A4
:101B200000000000000000000000000000000000B5
:101B300000004E554D0000000A0000000400564110
:101B40004C4F525F5049504F43410000000000008D
:101B500000000000000000000000000000004E55E2
:101B60004D000000000000000100464C41475F4D61
:101B700044425F42494C4C0000000000000000005D
:101B8000000000000000000000004E554D00000065
:101B9000000000000100464C41475F4D44425F4356
:101BA0004F494E000000000000000000000000004F
:101BB0000000000000004E554D0000000000000035
:101BC0000100464C41475F4D44425F43534800008B
:101BD0000000000000000000000000000000000005
:101BE00000004E554D0000000A0000000400424174
:101BF00055445F5052494E544552000000000000C9
:101C000000000000000000000000000000004E5531
:101C10004D0000000A000000040056414C4F525F86
:101C200050554C534F5F4D4F45440000000000009D
:101C3000000000000000000000004E554D000000B4
:101C40000A000000040056414C4F525F50554C535F
:101C50004F5F4E4F540000000000000000000000E5
:101C60000000000000004E554D0000000000000084
:101C70000400434F4E544147454D5F504152434944
:101C8000414C0000000000000000000000000000C7
:101C900000004E554D000000000000000400434FBE
:101CA0004E544147454D5F544F54414C0000000095
:101CB00000000000000000000000000000004E5581
:101CC0004D0000000000000004004D4F4544415FFE
:101CD0005041524349414C00000000000000000008
:101CE000000000000000000000004E554D00000004
:101CF0000000000004004D4F4544415F544F5441E3
:101D00004C00000000000000000000000000000087
:101D10000000000000004E554D00000000000000D3
:101D2000040043415254414F5F5041524349414C9A
:101D300000000000000000000000000000000000A3
:101D400000004E554D00000000000000040043411B
:101D50005254414F5F544F54414C0000000000006A
:101D600000000000000000000000000000004E55D0
:101D70004D000000000000000400554E495F434143
:101D80005254414F5F5041524349414C00000000C2
:101D9000000000000000000000004E554D00000053
:101DA000000000000400554E495F43415254414F2A
:101DB0005F544F54414C0000000000000000000040
:101DC0000000000000004E554D0000000000000023
:101DD0000400494E4943494F5F4D55534943410023
:101DE00000000000000000000000000000000000F3
:101DF00000004E554D000000000000000400494E58
:101E00004943494F5F50524F504147414E44410072
:101E100000000000000000000000000000004E551F
:101E20004D000000000000000400494E4943494FA6
:101E30005F504547415F5041434F5445000000000B
:101E4000000000000000000000004E554D000000A2
:101E5000000000000400494E4943494F5F5049507B
:101E60004F4341535F50524F4E54415300000000C6
:101E70000000000000004E554D0000000000000072
:101E8000040054414D414E484F5F424C4F434F5F19
:101E90004D55534943410000000000000000000080
:101EA00000004E554D0000000000000004005441A9
:101EB0004D414E484F5F4C4F435543414F5F505249
:101EC0004F500000000000000000000000004E55D0
:101ED0004D00000000000000040054414D414E48F8
:101EE0004F5F504547415F5041434F54450000000C
:101EF000000000000000000000004E554D000000F2
:101F000000000000040054414D414E484F5F5049CD
:101F1000504F4341535F50524F4E544153000000C5
:101F20000000000000004E554D00000000000000C1
:101F3000040054454D50455241545552415F505252
:101F4000455041524F00000000000000000000001A
:101F500000004E554D0000000000000004005645F2
:101F60004C4F4349444144455F50524550415241D2
:101F70004F000000000000000000000000004E556F
:101F80004D00000000000000040054454D504F5F1C
:101F90004D4F544F525F454D42414C4147454D00D6
:101FA000000000000000000000004E554D00000041
:101FB000000000000400564F4C554D455F4D5553F1
:101FC0004943410000000000000000000000000044
:101FD0000000000000004E554D0000000000000011
:101FE0000400564F4C554D455F4C4F435543414FB0
:101FF00000000000000000000000000000000000E1
:1020000000004E554D000000000000000400494E45
:1020100054455256414C4F5F50524F500000000003
:1020200000000000000000000000000000004E550D
:102030004D00000000000000010046524545000030
:102040000000000000000000000000000000000090
:10205000000000000000000000004E554D00000090
:10206000000000000100464954415F4C4544000017
:102070000000000000000000000000000000000060
:102080000000000000004E554D0000000000000060
:10209000010054524F434F5F4D4F454441000000F3
:1020A0000000000000000000000000000000000030
:1020B00000004E554D000000000000000400534594
:1020C0004E48415F41444D494E0000000000000071
:1020D00000000000000000000000000000004E555D
:1020E0004D0000000000000004004E554D45524FC9
:1020F0005F53455249450000000000000000000009
:10210000000000000000000000004E554D000000DF
:10211000000000000400434F4D495353414F5F50AE
:102120004F4E544F0000000000000000000000006F
:102130000000000000004E554D00000000000000AF
:102140000100464C475F444553554D49440000004B
:10215000000000000000000000000000000000007F
:1021600000004E554D000000000000000400636EAA
:10217000745F7069705F74657374650000000000BF
:1021800000000000000000000000000000004E55AC
:102190004D000000000000000000000000000000F2
:1021A000000000000000000000000000000000002F
:1021B000000000000000000000000000000000001F
:1021C000000000000000000000000000000000000F
:1021D00000000000000000000000000000000000FF
:10250000000000003CE50000100053475F434C49C9
:10251000454E54455F3031000000000000000000CF
:1025200000000000000000000000545854000000AB
:102530003CE50000100053475F434C49454E54456D
:102540005F303200000000000000000000000000CA
:102550000000000000005458540000003CE500005A
:10256000100053475F434C49454E54455F3033009C
:10257000000000000000000000000000000000005B
:1025800000005458540000003CE500001000534780
:102590005F434C49454E54455F3034000000000015
:1025A000000000000000000000000000000054587F
:1025B000540000003CE5000002005449504F535FB6
:1025C0004D4F4E4541444100000000000000000016
:1025D000000000000000000000006931360000002B
:1025E000000000000100434F4D505F4552524F5FC5
:1025F0004D4F544F5200000000000000000000004A
:102600000000000000004E554D00000000000000DA
:102610000400434F4D505F54454D500000000000F2
:1026200000000000000000000000000000000000AA
:1026300000004E554D0000007CB5040000F00DF97F
:10264000060000F0B9F801A9032000F086FD0DF1A5
:102650000101202000F081FD00A9222000F07DFD75
:102660000DF10201262000F078FD40F6B83000F0B0
:102670006CFE3000C0B201F033FC002200210020CB
:102680006DF0EBFC012001F0A6FF002001F0C0FF7F
:1026900000F0DAFA02F072F902F0B6F9002002F066
:1026A000EFF901A9032000F058FD0DF101012020F0
:1026B00000F053FD00A9222000F04FFD02F0A9FA1E
:1026C0000500EDB2012D34D03CD3032D05D003D34A
:1026D000052D2FD002D335E034E033E000F0A7F829
:1026E000002001F078FF02F011FB012001F073FFE0
:1026F00000F0B3F8060001A9032000F02EFD0DF153
:102700000101202000F029FD00A9222000F025FD74
:10271000DFF83409DFF83419016000F094F8002282
:10272000002100206DF06CFC72B6002002F03CFB32
:10273000FEE707E09DF80100002803D0019880B271
:1027400002F0FFF89DF8010000280ED0F6B2DFF885
:10275000000910EBC6004268F6B2DFF8F40850F842
:10276000361001206DF079FC0FE03000C0B200F0AF
:10277000B9F89DF80000002803D03000C0B200F086
:10278000CEFA00F03FFB00F08DFB9DF800203100F9
:10279000C9B2019800F00DF90221022001F017FFE3
:1027A00000F06DF800F0CDFB322000F0CEFD9DF87A
:1027B000020000F000FC74E710B50024042108209A
:1027C00002F020FB0421082002F060FCE4B2DFF8F4
:1027D000840810EBC4004268E4B2DFF8780850F8CF
:1027E000341000206DF00CFCE4B2DFF86C0810EB44
:1027F000C4004268E4B2DFF8600850F834100020EA
:102800006DF02BFC0021012002F05EFEDFF84C1879
:102810000860DFF848080068002807D0002300227D
:102820000021DFF83808006802F088FE10BD80B58E
:10283000002301220021DFF82408006802F0E7FEEF
:102840000028F5D001BD80B5002300220021DFF86B
:102850000C08006802F072FE01BD80B500208DF802
:10286000000000A9002000F078FC9DF80000082876
:1028700002DB00208DF800009DF8000002BD70B55D
:1028800086B003F05EF8040003F023FBA4B223003B
:102890000200DFF8CC1701A803F092FB002201A987
:1028A00001206DF0ADFB02F069F80400642502F030
:1028B00065F8060003F07AF894FBF5F105FB114189
:1028C0000091642196FBF1F380B20200DFF89417C7
:1028D00001A803F075FB01AA002101206DF090FB17
:1028E00006B070BD30B587B0040000A9032000F029
:1028F00034FC00986421B0FBF1F201FB1203009854
:102900006421B0FBF1F2E4B2DFF85C0750F8241068
:1029100001A803F055FB002201A901206DF09DFBE9
:1029200002F02CF80500002D15D06420B5FBF0F165
:1029300000FB11536420B5FBF0F2E4B2DFF82C0782
:1029400050F8241001A803F03BFB01AA002101204C
:102950006DF083FB21E0DFF818070068002810D134
:10296000DFF810070078401C042190FBF1F202FB15
:102970001102DFF800070270DFF8F40642F210716E
:10298000016001A9DFF8EC0600783C3000F0E5FBBF
:1029900001AA002101206DF060FB07B030BD80B5B9
:1029A00000A803F0D1FC002801D0009800E000202E
:1029B00002BD70B582B004000D00160001F0DEFF0C
:1029C000A042C0F08D80F6B2002E03D0FFF7E7FFE3
:1029D000A0427CD3012100A801F02CF8002806D0E9
:1029E000022845D034D3042862D051D36FE02000B0
:1029F00002F00AF8F6B2FF2E1DD101F0BFFF002849
:102A000019D00022002100206DF027FB00220021B8
:102A100000206DF022FBEDB2DFF85C0610EBC50084
:102A20004268EDB2DFF8500650F8351000206DF026
:102A300014FB00F090F82800C0B201F02DFA00223B
:102A4000002100206DF009FB002002F019F83EE0A3
:102A5000DFF82826EDB2DFF8280650F82510002010
:102A60006DF0FBFA00F04AF8002002F009F82EE0C1
:102A7000DFF81026EDB2DFF8080650F82510002028
:102A80006DF0EBFA00F03AF8002001F0F9FF1EE0DB
:102A9000DFF8F425EDB2DFF8E80550F82510002046
:102AA0006DF0DBFA00F02AF8002001F0E9FF0EE0FB
:102AB000DFF8D825EDB2DFF8C80550F82510002062
:102AC0006DF0CBFA00F01AF8002001F0D9FF0022D7
:102AD000002100206DF094FA002001F099FD0CE037
:102AE000F6B2FF2E09D101F0E5FF002805D101F073
:102AF00045FF002801D000F02EF873BD10B502216B
:102B0000062001F064FD00F026F8012001F0B8FF76
:102B1000FFF7B5FE02F07DF80400E4B2012C17D0F7
:102B2000F6D3032C16D014D3042CF1D1FFF77FFE7B
:102B3000002001F050FD02F0E9F8012001F04BFD0A
:102B4000FFF781FE0022002100206DF059FADFE737
:102B5000DEE7DDE7DCE72DE9F0418AB001F00EFFAA
:102B60000400FFF77AFE0600002001F089FF4FF411
:102B7000FA7000F0EAFB0A20070005A900A803F09C
:102B8000C2FB0500EDB2002D02D07F1E002FF4D154
:102B9000EDB2002D54D1F6B2DFF8F40450F826203F
:102BA000002101206DF059FA03F043FC0A200700D0
:102BB0009DF80010200080B203F095FD0500EDB2F5
:102BC000002D03D03800471E0028F1D103F03CFC53
:102BD000EDB2002D34D103F02CFC0A20070001A82F
:102BE00003F0AAFD0500EDB2002D02D07F1E002FDC
:102BF000F5D103F029FCEDB2002D1DD15FF00008E6
:102C00000020C0B210280CDAC0B201A9415C9DF8C6
:102C100000205143C0B205AA825C02FB0188401C1F
:102C2000EFE7A04503D1200001F0EEFE04E04046AE
:102C300001F0EAFEB4EB080401F0A0FE0028CAD1BE
:102C400001200AB0BDE8F08170B503F099FD0400E1
:102C5000FFF703FE0500E4B2002C01D101205DE086
:102C6000E4B2012C0AD02DD3032C1DD011D3052C96
:102C70001CD01AD3072C1BD019D323E0DFF814245F
:102C8000EDB2DFF8FC0350F8251000206DF0E5F9F7
:102C900018E0DFF8F023EDB2DFF8E40350F8251078
:102CA00000206DF0DAF90DE00CE00BE00AE009E03D
:102CB000DFF8D823EDB2DFF8C80350F82510002064
:102CC0006DF0CBF9012001F0DBFE062001F083FC62
:102CD00001F09FFF0600F6B2012E1AD01BD3032E7F
:102CE00019D017D3042E16D1FFF7A1FD002001F053
:102CF00072FC02F00BF8012001F06DFCFFF7ADFD56
:102D00000500FFF7A0FD0022002100206DF078F9FA
:102D100001E000E0FFE7FFF7B2FDD9E770BD70B555
:102D200082B00400002500A9022000F016FA9DF8E8
:102D30000000C00701D5642005009DF80000800751
:102D400001D5C82005009DF80000400702D54FF4CA
:102D5000FA7005009DF80000000702D54FF47A7064
:102D600005009DF80000C00602D54FF4FA6005008A
:102D7000FFF715FEA84244D20221062001F027FCED
:102D8000012001F07DFEE4B2C34810EBC4004268AC
:102D9000E4B2C14850F8341000206DF05EF9FFF73E
:102DA000FEFDA84220D201F034FF0600F6B230004A
:102DB000012816D0042814D1FFF739FD002001F0B6
:102DC0000AFC01F0A3FF012001F005FCFFF745FD1F
:102DD0000400FFF738FD0022002100206DF010F9FB
:102DE000FFE7FFF74CFDDAE7002001F049FE002085
:102DF00001F0F1FB012001F0EEFB0221022001F0C5
:102E0000E6FB73BD38B5FFF728FD040003F053FA65
:102E1000002803D002280FD001D319E041E0E4B22A
:102E20009E4810EBC4004268E4B29C4850F834104D
:102E300000206DF012F90BE0E4B2994810EBC400E9
:102E40004268E4B2964850F8341000206DF005F95D
:102E500003F031FA002824D001F0DBFE0500EDB2CA
:102E60002800012816D0042814D1FFF7E0FC002028
:102E700001F0B1FB01F04AFF012001F0ACFBFFF7CC
:102E8000ECFC0400FFF7DFFC0022002100206DF0C5
:102E9000B7F8FFE7FFF7F3FC4FF4FA7000F055FACC
:102EA000D6E731BD70B582B000A9012000F055F918
:102EB0009DF80000002843D0FFF7CFFC040003F08A
:102EC00004FF0500EDB2032D3AD1E4B2754810EBD2
:102ED000C4004268E4B2734850F8341000206DF02A
:102EE000BCF803F0F2FE0500EDB2032D28D101F08D
:102EF00090FE0600F6B2300001281AD0042818D13E
:102F000001F093FBFFF793FC002001F064FB01F05C
:102F1000FDFE012001F05FFBFFF79FFC0400FFF7BF
:102F200092FC0022002100206DF06AF801F07DFB88
:102F3000FFE7FFF7A4FC4FF4FA7000F006FAD0E7C1
:102F400073BD80B503F08AFC002803D002280AD0A4
:102F500001D30FE00EE0544A544900206DF07DF893
:102F600000F009F806E0524A524900206DF075F869
:102F700000F001F801BD38B50125EDB2002D10D0EB
:102F800001F047FE0400E4B22000012804D0042828
:102F900004D101F0BBFE01E000200500FFF76FFC4B
:102FA000EBE7454A454900206DF02AF840F6B83075
:102FB00000F0CBF931BD38B50400E4B2002C42D0AA
:102FC0002148006800283ED147F230553C4A3D492F
:102FD00000206DF015F83A4A3A4900206DF03DF8AE
:102FE000012002F010FE41F2707002F033FF3C202D
:102FF00003F0D0FE40F6B83000F0A7F92800451ED7
:10300000002812D002F065FFB0F57A7F09D20020C7
:1030100003F0C0FE002002F01DFF002002F0F3FDCF
:1030200011E0012000F091F9E8E7002003F0B2FE82
:10303000002002F00FFF002002F0E5FDFFF704FE84
:1030400001480249016031BD3C03001040771B007C
:10305000F0100010500E0010880E00101C770010A9
:1030600074E4000088E40000BC160010D8160010BC
:1030700020770010AC7700108010001098E5000059
:103080009C170010A8E50000ECE60000B8E5000081
:10309000B4180010F8E60000B81000102811001055
:1030A000601100109811001010E7000004E7000004
:1030B00028E700001CE7000040E7000034E70000BC
:1030C000C8E500004CE7000080B503F06FFE01BDCD
:1030D00010B40100002000228A4208D22C23484C60
:1030E00003FB02439B889B1C1818521CF4E710BC7E
:1030F000704770B504000D002C20414900FB0410FE
:10310000828829003F4803F03BFF2C203C4900FB0C
:103110000410828800213B4803F049FF06002C2060
:10312000374900FB041080883649B6B2320A42544F
:103130002C20334900FB0410808832494018467027
:103140002000FFF7C5FF2C212D4A01FB04218988AF
:103150008A1C2C4903F0B6FE70BDF8B504000D00C2
:103160002000FFF7B5FF2C21254A01FB04218988A7
:103170008A1C254903F0C2FE2C20214900FB0410C3
:1031800082880021204803F012FF0600B6B22C20EE
:103190001B4900FB041080881A49401890F8400031
:1031A0002C21174A01FB04218988164A891891F8B5
:1031B000411051EA0020864209D12C20104900FB21
:1031C000041082881049280003F0DAFE16E0280077
:1031D0002C210B4A01FB042100221300DBB22C2717
:1031E000DFF81CC007FB04C7BF889BB2BB4205D2F7
:1031F000D2B2D2B2535C1354521CEEE7F1BD0000C0
:10320000B41A0000D0730010107400102DE9FB4FA9
:1032100082B014000E9D0F9E109FDDF8448039008F
:10322000200080B200F052FB8246BAF1000F75D048
:10323000A4B2DAF8300010EB8400001F83465FEA86
:10324000DB0B5FEACB0BA4B2009443462A00039940
:10325000504600F0C6FA049A0299584604F064F801
:10326000CAF80000002E01D0C6F800A004F084F8CF
:10327000DFF820070068401CDFF818170860DFF847
:103280006007006800280BD1DFF85407C0F800A0E1
:10329000DFF800070068012811D100F0C3FA0EE042
:1032A000DFF840070068002809D1DFF8340700681C
:1032B000C06A854203D3DFF82807C0F800A0DFF812
:1032C00028070068DAF82C10884204D2DAF82C00BB
:1032D000DFF814170860DFF814070068401CDFF8F7
:1032E0000C170860DFF808070068DAF82C1088422D
:1032F00004D2DAF82C00DFF8F81608601AF104019D
:10330000DAF82C001422DFF8EC3602FB003004F06F
:103310008BF80120814604F038F802E05FF0FF30BE
:103320008146B9F1010F0CD1DFF8B806006800281A
:1033300007D0DFF8AC060068C06AA84201D204F0EA
:1033400016F8484605B0BDE8F08F70B504000026B9
:10335000002C2BD000F050F8DFF8A40600682018ED
:103360000500DFF87C060068001D04F08AF8DFF82D
:10337000700600684560DFF888060068854209D25B
:10338000DFF85C060068011DDFF87806006804F0CD
:103390005AF808E0DFF848060068011DDFF8680603
:1033A000006804F050F800F02FF80600002E01D15C
:1033B00003F0DDFF70BD1FB50020039000200290D8
:1033C000002001900020009000235022DFF84816D2
:1033D0000FF20540FFF71AFF0400012C0BD104F097
:1033E00081F8DFF8000601210160DFF814060021F2
:1033F000016003F0A6FF1FBDDFF818060068401C3F
:10340000DFF810160860704770B5002503F0B4FFB0
:10341000DFF800060068401EDFF8F8150860DFF8E6
:10342000F405006800285BD1DFF868050068002813
:1034300056D00026DFF8D8050068002804D0DFF851
:10344000D005C068C46800E00024002C23D014F12B
:10345000180004F016F8201D04F013F8DFF89005AA
:103460000068E16A884203D2E06ADFF884150860E8
:10347000211DE06A1422DFF87C3502FB003003F0E6
:10348000D3FFE06ADFF858150968C96A8842D1D3CA
:1034900001200600CEE7DFF884050068002810D080
:1034A000DFF878050068002809D000F01DF8DFF883
:1034B0006C050068401EDFF864150860F0E7012025
:1034C0000600012E04D0DFF858050068012807D156
:1034D00001200500DFF848050021016003F047FFE7
:1034E00003F053FF280070BD10B5DFF82805006811
:1034F000002852D1DFF808050068401CDFF80015ED
:103500000860DFF8FC040068002813D1DFF8F81425
:1035100009680800DFF8F014DFF8E82412680A6090
:10352000DFF8E0140860DFF8FC140968491CDFF8D4
:10353000F4241160DFF8D00400680068002805D08A
:10354000DFF8C4040068C068C46800E00024002CF0
:103550002AD0DFF8AC0400686168884224D3201DBB
:1035600003F08FFFA06A002803D014F1180003F0C5
:1035700088FFDFF87C040068E16A884203D2E06AD1
:10358000DFF86C140860211DE06A1422DFF864344F
:1035900002FB003003F048FFCCE7DFF8800400684E
:1035A000401CDFF87814086010BD80B5DFF86404B3
:1035B0000068002804D0DFF868040121016054E0AD
:1035C000DFF81C040068006BDFF814140968096850
:1035D000884209D3DFF80804006810F13401DFF8ED
:1035E0000004006804F0D2F81422DFF83C14DFF87D
:1035F000F0030068006B04F0CBF8002809D0DFF876
:10360000E003006810F13401DFF8D403006804F02F
:10361000BDF8DFF8DC0300681421DFF8D82301FBD4
:1036200000200068002807D1DFF8C4030068401EAE
:10363000DFF8BC130860ECE7DFF8B4130968142264
:10364000DFF8B03302FB013108004168496841608E
:10365000416810F10802914202D141684968416015
:103660004068C068DFF87813086001BD70B50400D9
:103670000D00DFF86C03006810F11801200003F062
:10368000E2FEDFF85C030068001D03F0FAFE15F1AE
:10369000010F08D1DFF848030068011DDFF86C0353
:1036A00003F0C2FE20E0DFF8580300682818060087
:1036B000DFF82C0300684660DFF8440300688642A8
:1036C00009D2DFF81C030068011DDFF83803006829
:1036D00003F0B9FE08E0DFF808030068011DDFF819
:1036E0002803006803F0AFFE70BD70B504002068C9
:1036F000002802D0E068C66800E0002616F1180035
:1037000003F0BFFEDFF80C030068002813D1301D62
:1037100003F0B7FEB6480068F16A884202D2F06A48
:10372000B3490860311DF06A1422B24B02FB00302D
:1037300003F07AFE04E016F11801B54803F074FEB8
:10374000F06AA7490968C96A884202D301200500C6
:1037500001E000200500280070BDB2490968016041
:10376000A74909684160704770B504000D0003F077
:1037700003FE286810F1010F02D10020060022E0AC
:10378000A84800682168884207D09D4800686168A1
:10379000884202D30120060015E09948006861685C
:1037A000401A296888420CD2286895490968401A4D
:1037B0006168081828602000FFF7CFFF002006008E
:1037C00001E00120060003F0E0FD300070BD9448E8
:1037D000012101607047000010B5040000F045F8B9
:1037E000FCE7F8B504000D0016001F000C222900AC
:1037F00014F1340003F0FEFF002084F83F00052E92
:1038000001D304200600E662A664201D03F009FE31
:1038100014F1180003F005FE2461D6F10500A06143
:103820006462F1BD10B500200400052C07D21420FD
:10383000704900FB041003F0E5FD641CF5E77B48CC
:1038400003F0E0FD7A4803F0DDFD714803F0DAFD96
:10385000694803F0D7FD6D4803F0D4FD6A48734909
:10386000016068487249016010BD38B5634800685E
:1038700000282AD0FFF7C0FD5F480068002801D16A
:10388000012400E00024E4B2FFF7BEFD002C1CD1AF
:1038900003F072FD58480068002803D05648C068FD
:1038A000C56800E00025281D03F0EBFD39480068DD
:1038B000401E3849086051480068401E4F49086062
:1038C00003F063FD280000F024F831BD70B504005A
:1038D0000D004C2003F0C4FF0600002E17D0002D71
:1038E00004D1A4B2A00003F0BBFF00E028003063C5
:1038F000306B002805D1300003F0DAFF002006000D
:1039000005E0A4B2A200A521306B03F0D7FF300080
:1039100070BD10B50400206B03F0CAFF200003F057
:10392000C7FF10BD2E4909680800704738B504006C
:103930002500E86A2A490968C96A884229D22848C4
:103940000068C06AD0F10500A8616869E96A1422BC
:10395000284B02FB0131884217D1281D03F091FD4D
:103960001F480068C06AE86221480068E96A884226
:1039700002D2E86A1E490860291DE86A14221D4B1C
:1039800002FB003003F050FD03E015480068C06AF8
:10399000E86231BD4477001038B504002500002CE2
:1039A0001CD0E86AA96C884218D0281D03F069FD74
:1039B000A86CE862E86AD0F10500A8610C480068CC
:1039C000E96A884202D2E86A09490860291DE86A62
:1039D0001422084B02FB003003F026FD31BD00002D
:1039E00034770010547700104C770010687700107F
:1039F0005077001050740010487600104077001087
:103A0000487700103C770010387700105C76001083
:103A10003476001058770010CCE900005C77001075
:103A2000607700106477001050E500000C760010FD
:103A300020760010F0B587B004000D0000260120AC
:103A400001F01EF800A90020FFF787FB01A91A204A
:103A5000FFF783FB03A91B20FFF77FFB04A91C20B2
:103A6000FFF77BFB05A90320FFF777FB0DF10101B1
:103A70004120FFF772FB02A94220FFF76EFB01987D
:103A8000AB2801D355200190039842F235118842AA
:103A900002D341F244600390049842F211718842CB
:103AA00002D20498002802D141F26800049001215A
:103AB000022000F08CFD0298002801D10120029024
:103AC0000298042801D3032002900198DFF85C14C7
:103AD0000968081801909DF80000DFF8541411EBF4
:103AE000C00042689DF80000DFF8441451F830101F
:103AF00000206CF0B2FA9DF80000DFF8341411EBEE
:103B0000C00042689DF80000DFF8241451F830101E
:103B100000206CF075FA012002F075F84FF4FA708D
:103B2000FFF713FC9DF80100002804D040F6C410F4
:103B300002F090F903E04FF47A6002F08BF9DFF8BD
:103B4000F403DFF8F413016000F02FF9002807D127
:103B5000002002F07FF9002002F055F80120FEE07D
:103B6000019880B203F016F94EF6602701F0E9FEE5
:103B700080B20199884208D27F1E002F05D0012013
:103B8000FFF7E3FBFEF77BFEF0E7002F0AD10020F2
:103B900002F060F9002002F036F8002003F0FAF895
:103BA0000220DCE000F02AF900280AD1002002F00F
:103BB00051F9002002F027F8002003F0EBF8032071
:103BC000CDE0039802F046F99DF80100002805D0E9
:103BD00002F07FF90399884207D2F9E702F079F9F8
:103BE0000399B1F57A718842F8D30221032000F0DD
:103BF000EEFC049803F06DFE0021002003F012FF9C
:103C000003F0ABFF0028FBD10022002100206CF064
:103C100024FA0022002100206CF0F2F9C74840F697
:103C2000B8310160C348C44901600021012003F09C
:103C3000F9FEC0480068002841D0BE4801689DF8E0
:103C4000000000F08EF800F0C4F802F042F9B0F580
:103C50007A7F0AD2002002F0FDF8002001F0D3FFA5
:103C6000002003F097F8012079E0B44800680028AC
:103C70000DD1F6B2142E00DA761C0198F6B2301887
:103C800080B203F087F8AD4840F6B8310160A9482A
:103C900000684CF25131884208D30121032000F022
:103CA00096FC0221042000F092FCC2E701210420CE
:103CB00000F08DFC0221052000F089FCB9E701210C
:103CC000052000F084FC002002F0C4F8002001F080
:103CD0009AFF002003F05EF89DF8000000F0BCF8A9
:103CE00003F0DCFE4FF4FA70FFF72FFB00210220F7
:103CF00003F098FE03F031FF0028FBD14FF4FA7077
:103D0000FFF723FBEDB2012D0CD1012003F08AFF58
:103D1000059803F096FF012003F0A2FF059803F039
:103D2000AEFF01E003F0C2FF8548006800280CD018
:103D30000298052148437D490968884205D37B489C
:103D4000006802990818794908607D487D4901603A
:103D5000002000F040FC012000F03DFC002007B0F6
:103D6000F0BDF0B585B004000D00724800684FF456
:103D70007A71B0FBF1F006003C20B6FBF0F100FBDD
:103D8000116007003C20B6FBF0F63B0032006E49A4
:103D900000A802F015F900AAE4B26C4850F824100B
:103DA00001206CF05AF905B0F0BD10B54CF250345A
:103DB00002F08FF8B0F57A7F01D9012008E00120E8
:103DC000FFF7C3FA2000441E80B20028F0D1002083
:103DD00010BD10B586B001F0B4FD040002F079F812
:103DE000A4B2230002005A4900A802F0E9F8002218
:103DF00000A901206CF004F906B010BD38B54FF4ED
:103E0000FA65012000F0C0FA022000F08FFA0028C5
:103E100007D02800451E002803D00120FFF795FA9F
:103E2000F2E743F698200500022000F07FFA040034
:103E3000E4B2002C04D0002000F0A6FA01200AE031
:103E40000120FFF782FA2800451E0028ECD100204F
:103E500000F09AFA002032BD10B50400012001F0F4
:103E6000D2FE43F2C82001F0F5FFE4B2394810EB6E
:103E7000C4004268E4B2374850F8341000206CF0B7
:103E8000ECF841F65830FFF760FA002001F0E2FF4D
:103E9000002001F0B8FE10BD10B50400012001F0B3
:103EA000B2FE4FF4FA70FFF750FA41F2707001F071
:103EB000D1FFE4B2284810EBC4004268E4B22648BF
:103EC00050F8341000206CF0C8F847F23050FFF77B
:103ED0003CFA002001F0BEFF002001F094FE10BD6E
:103EE00010B50400012001F08EFE4FF4FA70FFF7C8
:103EF0002CFA42F6E06001F0ADFFE4B2174810EB97
:103F0000C4004268E4B2154850F8341000206CF048
:103F1000A4F841F65830FFF718FA002001F09AFF94
:103F2000002001F070FE10BD000000000C770010B2
:103F3000680F00100077001080380100047700102F
:103F400008770010E093040078E50000A016001048
:103F500088E50000F80E0010300F0010A00F0010D0
:103F600080B5DFF8D806006850F00100DFF8CC1605
:103F7000086003F011F8012000F082FD002000F03D
:103F800003FADFF8B806006850F07040DFF8AC16AE
:103F90000860DFF8AC06006850F07040DFF8A0164B
:103FA0000860DFF89806006850F00100DFF88C1612
:103FB0000860DFF88806006850F48030DFF87C166F
:103FC0000860FFF781F801F055FC01F011FD02F0E7
:103FD000B7FE03F079FE02F00DF8DFF8680600681E
:103FE00050F04050DFF85C16086003F0B3FC03F0BB
:103FF000CDFE022003F0D7FE00F05EFB01BD10B540
:10400000002401F03DFE00F083FD03F005FF03F006
:1040100051FF02F09CFE00F0E4FBDFF82C06006884
:10402000002806D0DFF820060068401EDFF81816CA
:104030000860DFF818060068002806D0DFF80C06D4
:104040000068401EDFF804160860DFF80406006808
:10405000002806D0DFF8F8050068401EDFF8F015EC
:104060000860DFF8F0050068002806D0DFF8E405F6
:104070000068401EDFF8DC150860DFF8DC0500682A
:10408000002806D0DFF8D0050068401EDFF8C8150C
:104090000860DFF8C8050068002806D0DFF8BC0516
:1040A0000068401EDFF8B4150860DFF8B40500684A
:1040B000002806D0DFF8A8050068401EDFF8A0152C
:1040C0000860DFF8A0050068002806D0DFF8940536
:1040D0000068401EDFF88C150860DFF88C0500686A
:1040E000002806D0DFF880050068401EDFF878154C
:1040F0000860DFF878050068002806D0DFF86C0556
:104100000068401EDFF864150860DFF86405006889
:10411000002806D0DFF858050068401EDFF850156B
:104120000860DFF850050068002806D0DFF8440575
:104130000068401EDFF83C150860DFF83C050068A9
:10414000002811D1DFF83005DFF830150160DFF805
:104150003005006800280ED0DFF824050068401EF6
:10416000DFF81C15086006E0DFF80C050068401E4B
:10417000DFF804150860DFF80C050068002806D099
:10418000DFF800050068401EDFF8F8140860DFF86B
:10419000F8040068401CDFF8F0140860DFF8EC0455
:1041A0000068C0F3C03010F0010090F00100C0B210
:1041B00004436400DFF8D4040068C0F3400010F04A
:1041C000010090F00100C0B204436400DFF8C004B5
:1041D0000068C0F3406010F0010090F00100C0B230
:1041E0000443DFF8B0040078DFF8AC1421F8104085
:1041F000DFF8A0040078401C102190FBF1F202FBD4
:104200001102DFF89004027010BD38B504000025DB
:10421000DFF888141F20FEF7A0FFDFF88004006895
:104220003D2803D3DFF874043C21016000A921205C
:10423000FEF793FF95F0FF059DF80000002834D0AD
:10424000EDB2002D18D0DFF85804006850F480302B
:10425000DFF84C140860DFF84C04006850F0805020
:10426000DFF840140860DFF84004006850F00050A8
:10427000DFF8341408603CE0DFF8C403006850F451
:104280008030DFF8BC130860DFF81C04006850F0D1
:104290008050DFF814140860DFF80804006850F05C
:1042A0000050DFF80014086023E0DFF8FC0300682A
:1042B00050F08050DFF8F0130860DFF8EC0300687E
:1042C00050F00050DFF8E0130860EDB2002D08D088
:1042D000DFF8CC03006850F48030DFF8C4130860C6
:1042E00007E0DFF85C03006850F48030DFF850131B
:1042F0000860FA20FFF729F800F0A6F8DFF8580365
:104300000068002896D1DFF894030068002803D0E5
:104310000021032003F086FBDFF8800300684EF6DF
:1043200060214843DFF83013086083E710B40100D0
:1043300000220020C0B210280BDAC0B2DFF85833D8
:1043400033F8103001248C40234200D0521C401C12
:10435000F0E7D2B2092A01DB012000E0002010BC06
:104360007047C0B2002808D0DFF83413096851F054
:104370000101DFF82C23116005E0B149096851F013
:104380000101AF4A1160704710B50400E4B2002C7F
:1043900003D0022C36D019D34FE0A948006850F062
:1043A0008050A7490860A648006850F00050A44912
:1043B0000860A348006850F08040A1490860A04808
:1043C000006850F000409E49086036E09C48006854
:1043D00050F080409A4908609948006850F00050B9
:1043E000974908603220FEF7B0FFAD48006850F0F2
:1043F0008050AB490860AA48006850F00040A849C6
:1044000008601AE08E48006850F080508C490860BF
:104410008B48006850F00040894908603220FEF760
:1044200094FF9F48006850F080409D4908609C4878
:10443000006850F000509A49086010BD8249086039
:10444000704781480068704780B598480078002818
:1044500000F0BC809648007890F0FF009449087006
:1044600094488078002804D10021022003F073FCD6
:104470000DE090488078012804D10121022003F04A
:104480006AFC04E08A480178022003F064FC894851
:10449000C078002804D10021032003F05CFC0DE06B
:1044A0008448C078012804D10121032003F053FC83
:1044B00004E07F480178032003F04DFC7D4800793B
:1044C000002804D10021042003F045FC0DE07948C8
:1044D0000079012804D10121042003F03CFC04E010
:1044E00073480178042003F036FC724840790028B4
:1044F00004D10021052003F02EFC0DE06D48407929
:10450000012804D10121052003F025FC04E06848BE
:104510000178052003F01FFC66488079002804D14B
:104520000021062003F017FC0DE062488079012885
:1045300004D10121062003F00EFC04E05C48017860
:10454000062003F008FC5B484078002804D10021D5
:10455000012003F000FC0DE056484078012804D10A
:104560000121012003F0F7FB04E05148017801200C
:1045700003F0F1FB4F480078002804D1002100200F
:1045800003F0E9FB0DE04B480078012804D101213C
:10459000002003F0E0FB04E045480178002003F030
:1045A000DAFB43480078002808D00121012003F0FD
:1045B000D2FB0021002003F0CEFB07E00021012008
:1045C00003F0C9FB0121002003F0C5FB01BDC0B20F
:1045D000384A8154704738B504000025EDB2082DE3
:1045E00006DA00212800C0B203F0B5FB6D1CF5E728
:1045F000E4B2002C09D10020C0B2082805DAC0B20C
:104600002C4900224254401CF6E72848047031BD72
:10461000002807D1214909684EF6602251430E4A0D
:10462000116001E00C49086070471C4800684EF6B4
:1046300060214843084908607047000020C00920F5
:104640003CC0092080C00920B87600100077001017
:1046500004770010C87600102C030010C0760010FC
:1046600018770010087700103C0300103077001016
:104670002077001038030010C476001020BF02001D
:104680000C770010440300106C77001034C0092030
:1046900014C0092095770010CC750010BC7600106E
:1046A00038C0092098C009209CC009205C03001074
:1046B000967700109076001080B5DFF8000400684F
:1046C00050F08070DFF8F4130860DFF8F003006842
:1046D00050F00070DFF8E41308600120DFF8E01309
:1046E000096860F31961DFF8D8030160DFF8D403CB
:1046F000006850F00400DFF8CC130860DFF8C8034E
:10470000006850F00400DFF8C0130860DFF8BC0355
:10471000006850F48010DFF8B41308600120DFF85F
:10472000A013096860F39B61DFF894030160DFF870
:104730009403006850F00800DFF888130860DFF881
:104740008803006850F00800DFF87C130860DFF889
:104750007C03006850F40010DFF870130860DFF885
:104760007003006850F08070DFF864130860DFF8B1
:104770006003006850F00070DFF8541308600021F7
:10478000012000F0A1FEDFF84C130860DFF84403BD
:104790000068002807D0002300220021DFF834033E
:1047A000006800F0CBFEDFF830130820FEF7D5FCE0
:1047B000DFF828130920FEF7D0FCDFF81C0300689F
:1047C000B0F57A7F04D9DFF810034FF47A710160F5
:1047D000C2480068C249884202D3C048C14901604A
:1047E00001BDC1480088002804D0BF480088401E91
:1047F000BD490880BD480088002804D0BB48008817
:10480000401EBA490880704738B5040001F0DEFD4B
:1048100040F6B830FEF799FD01F0F0FD02F019FA0C
:104820000500002D09D0642000FB05F080B200F0E7
:1048300088F8280080B202F024FA0A20FEF785FDED
:10484000EAE7A9480088002809D1A9480088A249B8
:1048500009680818A6490880A34832210180A548A4
:10486000006850F00400A3490860A348006850F4B1
:104870008010A149086070479D48008870479C4996
:10488000098880B2884205D399490988091A984A4B
:10489000118002E0964900220A807047C0B20028C9
:1048A00006D08B49096851F08071894A116005E092
:1048B0009249096851F08071904A116070479048A0
:1048C000006800280DD189480088002809D18D484A
:1048D00000888249096808188A490880834832217B
:1048E00001808448006850F00800824908608248CE
:1048F000006850F40010804908607047C0B200287A
:1049000006D07349096851F00071714A116005E0E1
:104910007A49096851F00071784A11607047794806
:10492000008870477749098880B2814205D275496D
:104930000988091A734A118002E0724900220A802C
:10494000704710B50400002301220021614800686F
:1049500000F05DFE0028F6D06B480068A4B2201875
:104960006949086069484EF6602101600023002211
:1049700000215848006800F0E1FD10BD30B583B05B
:104980000023012200215348006800F040FE002867
:10499000F6D05C480088002824D05A48058801A930
:1049A0000E20FEF7DAFB00A90F20FEF7D6FB0198D8
:1049B0002818019000982818009001A90E20FEF7F1
:1049C00098FB00A90F20FEF794FB4E4800880419BD
:1049D0004D48006828184C4908604A480088401B28
:1049E0004849088048480068040041480088041984
:1049F0003F48002101800023002200213548006843
:104A000000F09CFD20003EBD10B5040000230122F3
:104A100000213048006800F0FAFD0028F6D03A483E
:104A20000068A04205D338480068001B364908607A
:104A300002E035480021016033480068002802D5B3
:104A40003148002101600023002200212148006834
:104A500000F074FD10BD10B50400002301220021F8
:104A60001C48006800F0D3FD0028F6D026480460FA
:104A70000023002200211748006800F05FFD10BDF0
:104A800010B504001E48E4B204602000C0B2FFF775
:104A900005FF2000C0B2FFF731FFE4B2200003F0B1
:104AA000ADFAE4B2200003F04BFD2000C0B202F0EA
:104AB00020F910BD154800687047000020C009208B
:104AC00010C0024048C10F404CC10F4000E100E05F
:104AD00038C00920D8760010CC760010D0760010AF
:104AE000A1860100A086010074770010787700107D
:104AF0007277001040C10F4080E200E03CC0092006
:104B00003003001076770010D4760010C8760010BD
:104B100076480068002804D074480068401E734935
:104B2000086073480088002804D071480088401E3F
:104B30006F4908806F480088002805D06D480088BC
:104B4000401E6C49088063E06B4800786B49002286
:104B50004254694800786949405C69490968C1F371
:104B6000002111F0010191F00101C9B2084362492D
:104B70000978624A885462480068800501D500209F
:104B800000E002205C4909785C4A895C08435A4984
:104B900009785A4A88545A480068400501D50020CF
:104BA00000E0042054490978544A895C084352497A
:104BB0000978524A885452480068400401D50020C0
:104BC00000E008204C4909784C4A895C08434A496E
:104BD00009784A4A88544B480068800101D5002072
:104BE00000E0102044490978444A895C084342495E
:104BF0000978424A885440480078401C082190FBBC
:104C0000F1F202FB11023C4802703A480621018091
:104C1000704710B4002001000020C0B2082809DA53
:104C2000C0B2364A825C12F00902092A00D1491C3E
:104C3000401CF2E7C9B2052901DB082050E0002042
:104C4000C0B2052848DA002211000022D2B2082A98
:104C500009DAD2B2294BD35C01248440234200D02C
:104C6000491C521CF2E7C9B2052933DB204A1288DD
:104C7000002A1BD1244A1278002A0DD0224A002390
:104C800013701B4A4FF4FA631380184A4EF66023E0
:104C90001360401CC0B223E0154A32231380134A2C
:104CA0004EF660231360401CC0B219E0164A127819
:104CB000002A0DD0144A002313700D4A4FF4FA63F2
:104CC00013800A4A4EF660231360401CC0B207E00E
:104CD000002005E0401CB3E70B48012202700020D1
:104CE00010BC70470148006870470000147700103E
:104CF0005203001054030010A8770010A076001093
:104D000034C0092074C00920A977001010B5FDF740
:104D1000A4FD04001F4B0A22E4B228201E4900FB18
:104D20000411E4B21D4850F8240003F03DFD10BD0D
:104D3000E0B501A80021002206C00838FDF78DFD6E
:104D40008DF800009DF80000082802DB00208DF897
:104D500000009DF8000001A9FF224254072301AA88
:104D60000F49104803F096FD00208DF80000002048
:104D7000C0B2072808DAC0B201A9415C002901D0FD
:104D80008DF80000401CF3E700A90020FEF7B1F900
:104D900007BD000010E20000FC060010E812001041
:104DA000F009001088E700005FF08041096851F0C9
:104DB00001015FF0804211605FF08041096851F0AD
:104DC00002015FF0804211600B490968890889007F
:104DD000094A11600849096851F00041064A11600A
:104DE00006495FF47A120A600549AA220A6004495A
:104DF00055220A60704700BF1000004004000040C8
:104E00000800004070B504000D00DFF86002006883
:104E100050F01000954908609448006850F0020076
:104E2000924908609248006850F02000904908605C
:104E30008F48006850F010008D4908608C48006869
:104E400050F000708A4908608948006850F000708E
:104E5000874908608548006850F40030834908603D
:104E60004FF4FA70FEF771FA00200600F6B2032E36
:104E700007DA032000F030F86420FEF766FA761CAB
:104E8000F4E7022000F028F81420FEF75EFA54F050
:104E90002001C9B2002000F074F81420FEF755FA82
:104EA00055F00801C9B2002000F06BF81420FEF79D
:104EB0004CFA55F008006F4908701021002000F0EE
:104EC00060F80A20FEF741FA0621002000F059F8A8
:104ED0000A20FEF73AFA70BD6749096851F40031BB
:104EE000654A116000BF00BF00BF00BF00BF00BF28
:104EF000C10706D56049096851F010015E4A11608A
:104F000005E05E49096851F010015C4A11608107B3
:104F100006D55949096851F00201574A116005E068
:104F20005649096851F00201544A1160410706D5FB
:104F30005349096851F02001514A116005E0514977
:104F4000096851F020014F4A1160010706D54C490C
:104F5000096851F010014A4A116005E049490968A1
:104F600051F01001474A116000BF00BF00BF00BFF1
:104F700000BF00BF4149096851F400313F4A116048
:104F8000704738B504000D00E4B2002C06D03C4850
:104F9000006850F000703A49086005E03948006840
:104FA00050F0007037490860EDB22809FFF794FF10
:104FB0002800C0B2FFF790FF0220FEF7C6F931BD0E
:104FC00038B504000D00E4B2102C09DAEDB2002D62
:104FD00006D1B4F18001C9B20020FFF7D2FF08E08A
:104FE000EDB2012D05D1B4F14001C9B20020FFF7A7
:104FF000C8FF0420FEF7A9F931BD10B50400E4B2E2
:1050000020000A280CD00C2802D00D2808D00CE073
:1050100001210020FFF7B5FF0C20FEF796F909E00B
:1050200002210120FFF7ADFF04E02100C9B20120F9
:10503000FFF7A7FF10BD10B5040013480068002853
:105040000AD1114847F23051016004210820FFF7CE
:10505000D9FE0C20FFF7D1FF2078002804D020785B
:10506000FFF7CBFF641CF7E710BD000020C009204C
:1050700000C00920AA77001038C009203CC00920D0
:1050800018C009201CC009203803001070B50400A6
:105090000D00DFF82004006850F48070DFF814146D
:1050A0000860DFF81004006850F08000DFF8041496
:1050B0000860DFF80004006850F04000DFF8F413E7
:1050C0000860DFF8F003006850F40070DFF8E413C4
:1050D0000860DFF8E003006850F02000DFF8D41328
:1050E0000860DFF8D003006850F02000DFF8C41338
:1050F0000860DFF8C003006850F01000DFF8B41358
:1051000008604FF4FA70FEF720F900200600F6B2AE
:10511000032E07DA032000F031F86420FEF715F9BA
:10512000761CF4E7022000F029F81420FEF70DF9B0
:1051300054F02001C9B2002000F01CF91420FEF741
:1051400004F955F00801C9B2002000F013F9142049
:10515000FEF7FBF855F00800DFF85C13087010212B
:10516000002000F007F90A20FEF7EFF806210020E2
:1051700000F000F90A20FEF7E8F870BD00BF00BF9C
:1051800000BF00BF00BF00BF00BF00BF00BF00BF27
:1051900000BF00BF00BF00BF00BF00BF00BF00BF17
:1051A00000BF00BF00BF00BF00BF00BF00BF00BF07
:1051B00000BF00BF00BF00BF00BF00BF00BF00BFF7
:1051C00000BF00BF00BF00BF00BF00BF00BF00BFE7
:1051D00000BF00BFC10708D5DFF8E012096851F42D
:1051E0008071DFF8D822116006E0DFF8D412096878
:1051F00051F48071B24A1160810706D5AF49096840
:1052000051F08001AD4A116005E0AD49096851F0E7
:105210008001AB4A1160410706D5A849096851F0E1
:105220004001A64A116005E0A549096851F0400116
:10523000A34A1160010706D5A049096851F400711D
:105240009E4A116005E09E49096851F400719C4A2C
:10525000116000BF00BF00BF00BF00BF00BF00BFA4
:1052600000BF00BF00BF00BF00BF00BF00BF00BF46
:1052700000BF00BF00BF00BF00BF00BF00BF00BF36
:1052800000BF00BF00BF00BF00BF00BF00BF00BF26
:1052900000BF00BF00BF00BF00BF00BF00BF00BF16
:1052A00000BF00BF00BF00BF00BF8449096851F0C4
:1052B0001001824A116000BF00BF00BF00BF00BFE5
:1052C00000BF00BF00BF00BF00BF00BF00BF00BFE6
:1052D00000BF00BF00BF00BF00BF00BF00BF00BFD6
:1052E00000BF00BF00BF00BF00BF00BF00BF00BFC6
:1052F00000BF00BF00BF00BF00BF00BF00BF00BFB6
:1053000000BF00BF00BF00BF00BF00BF00BF6C49AF
:10531000096851F010016A4A116000BF00BF00BF68
:1053200000BF00BF00BF00BF00BF00BF00BF00BF85
:1053300000BF00BF00BF00BF00BF00BF00BF00BF75
:1053400000BF00BF00BF00BF00BF00BF00BF00BF65
:1053500000BF00BF00BF00BF00BF00BF00BF00BF55
:1053600000BF00BF00BF00BF00BF00BF00BF00BF45
:1053700000BF704738B504000D00E4B2002C06D021
:105380004E48006850F020004C49086005E04C4849
:10539000006850F020004A490860EDB22809FFF784
:1053A000EDFE00BF00BF00BF00BF00BF00BF00BFD9
:1053B00000BF00BF00BF00BF00BF00BF00BF00BFF5
:1053C00000BF00BF00BF00BF00BF00BF00BF00BFE5
:1053D00000BF00BF00BF00BF00BF00BF00BF00BFD5
:1053E00000BF00BF00BF00BF00BF00BF00BF00BFC5
:1053F00000BF00BF00BF00BF00BF2800C0B2FFF762
:10540000BDFE0220FDF7A1FF31BD38B504000D003F
:10541000E4B2102C09DAEDB2002D06D1B4F180010E
:10542000C9B20020FFF7A6FF08E0EDB2012D05D1BB
:10543000B4F14001C9B20020FFF79CFF0420FDF742
:1054400084FF31BD10B50400E4B220000A280CD05E
:105450000C2802D00D2808D00CE001210020FFF715
:1054600089FF0C20FDF771FF09E002210120FFF701
:1054700081FF04E02100C9B20120FFF77BFF10BDCE
:1054800010B504000F48006800280AD10D4847F203
:105490003051016004210820FFF7F8FD0C20FFF7D0
:1054A000D1FF2078002804D02078FFF7CBFF641CC0
:1054B000F7E710BD40C00920AB77001058C00920A5
:1054C0005CC0092018770010F8B504000D00002C0E
:1054D00032D04C2002F0C4F90600002E2CD005FB7F
:1054E00004F0401C0700380002F0BAF93060306860
:1054F00000281ED0306805FB040070600020B063F7
:105500003068B060601E316805FB0010F060F46325
:1055100035645FF0FF3070645FF0FF30B06416F107
:10552000100001F06FFF16F1240001F06BFF300056
:1055300003E0300002F0BCF90020F2BDF7B5040032
:105540000D001E00002701F017FFA06BE16B8842E1
:1055500013D232002900200000F0E9F8606A002828
:1055600007D014F12400FEF7C0F8012801D101F0A2
:10557000FEFE01F00AFF012048E00298002803D156
:1055800001F003FF002041E0002F04D100A8FEF746
:10559000E4F80120070001F0F8FEFDF72DFF01F00F
:1055A000EBFE606C10F1010F01D100206064A06C73
:1055B00010F1010F01D10020A06401F0E6FE02A964
:1055C00000A8FEF7D1F8002819D1200000F042F918
:1055D00000280ED0029914F11000FEF747F82000C1
:1055E00000F0F4F8FDF710FF0028ACD101F0BFFE89
:1055F000A9E7200000F0EAF8FDF706FFA3E7200086
:1056000000F0E4F8FDF700FF01000020FEBD2DE9E9
:10561000F44183B004000D001E00002701F0ACFE31
:10562000A06B00282DD0E06880462900200000F003
:10563000B7F8002E14D1A06B401EA063206800288C
:1056400002D1FEF76FF960602069002815D014F1CF
:105650001000FEF74AF801280FD101F088FE0CE097
:10566000C4F80C80606A002807D014F12400FEF70B
:105670003CF8002801D001F07AFE01F086FE0120FE
:1056800052E00398002803D101F07FFE00204BE098
:10569000002F04D100A8FEF760F80120070001F0F8
:1056A00074FEFDF7A9FE01F067FE606C10F1010FBA
:1056B00001D100206064A06C10F1010F01D1002025
:1056C000A06401F062FE03A900A8FEF74DF80028CF
:1056D00023D1200000F0AFF8002818D0206800285F
:1056E00006D101F049FE6068FEF720F901F04DFE99
:1056F000039914F12400FDF7B9FF200000F066F8CB
:10570000FDF782FE002889D101F031FE86E72000F6
:1057100000F05CF8FDF778FE80E7200000F056F816
:10572000FDF772FE0100002004B0BDE8F08170B505
:1057300004000D001600206C002808D12068002805
:105740002AD16068FEF728F90020606024E0002E6E
:105750000FD1226C2900A06801F012FC206CA16816
:105760004018A060A0686168884215D32068A060D6
:1057700012E0226C2900E06801F002FC206C40423B
:10578000E1684018E060E0682168884204D2206C3B
:10579000404261684018E060A06B401CA06370BD8F
:1057A00038B504000D00206800280ED0206CE16898
:1057B0004018E060E0686168884201D32068E060DA
:1057C000226CE168280001F0DBFB31BD10B504005C
:1057D00001F0D2FDA06C01280EDB606A00280BD01E
:1057E00014F12400FDF781FF002801D0FDF7EFFF41
:1057F000A06C401EA064EDE75FF0FF30A06401F0F4
:10580000C4FD01F0B9FD606C01280EDB20690028A1
:105810000BD014F11000FDF768FF002801D0FDF750
:10582000D6FF606C401E6064EDE75FF0FF3060649F
:1058300001F0ABFD10BD38B5040001F09DFDA06B7B
:10584000002801D1012500E00025EDB201F09DFD09
:10585000280032BD38B5040001F08EFDA06BE16B6D
:10586000884201D1012500E00025EDB201F08DFD57
:10587000280032BD5548006850F4805053490860F4
:1058800001205349096860F3196151480160012002
:105890005049096860F38F314E48016001204D493D
:1058A000096860F311414B4801604B480068000AE9
:1058B0000002494908600A204749096860F30F213E
:1058C000454801604448006830F48030424908602F
:1058D0004148006850F400103F49086001203E49EB
:1058E000096860F31A613C4801607047002000219C
:1058F000C9B2102906DAC9B2384A32F81120101894
:10590000491CF5E780B200097047F8B5FFF7EEFFD4
:10591000040040F2263000FB04F005003048401B34
:10592000070040F2F310B7FBF0F72D4840F2E631E4
:1059300001FB17000500B5FBF7F00600300080B250
:10594000F2BD80B5FFF7E1FF010089B242F21170AC
:10595000814201DB192028E0002080B2B32822DA3E
:1059600080B2204A32F8102089B28A4207D380B22E
:105970001C4A12EB4002528889B28A420ED380B28E
:10598000194A32F8102089B28A420AD380B2154AE5
:1059900012EB4002528889B28A4202D21C3080B295
:1059A00003E0401CD9E74FF4FA7002BD002000214B
:1059B00089B2102906DA89B20C4A32F8112010187F
:1059C000491CF5E7000980B270470000C4C00F40D1
:1059D000A8C10F4004C00240004003408C75001075
:1059E000A05A320050D90000E8D70000AC75001072
:1059F00080B5DFF81005006850F40020DFF80415CA
:105A00000860DFF80405006850F00C00DFF8F814B7
:105A10000860DFF8F804006850F40020DFF8EC14A8
:105A200008600120DFF8E814096860F39751DFF897
:105A3000E0040160DFF8DC04006850F00200DFF8E9
:105A4000D4140860DFF8D004006850F00200DFF8DA
:105A5000C8140860DFF8C404006850F40020DFF8C0
:105A6000BC140860DFF8B804006850F00400DFF8E8
:105A7000B0140860DFF8AC04006830F47F00DFF891
:105A8000A4140860DFF89404006850F00400DFF804
:105A90008C140860DFF89004006850F00100DFF813
:105AA00088140860DFF88004006850F00200DFF816
:105AB00078140860DFF87004006830F00200DFF846
:105AC00068140860DFF86404006880088000DFF86C
:105AD0005C140860DFF858044FF496710160DFF839
:105AE0005404006850F03000DFF848140860DFF814
:105AF0004804006850F00100DFF83C140860DFF84B
:105B00003804006830F00200DFF82C140860DFF879
:105B10002804006850F00400DFF81C140860DFF867
:105B20000004006850F48000DFF8F41308600120DE
:105B3000DFF80814096860F30D31DFF80004016034
:105B4000DFF8E00300680002000ADFF8D8130860FD
:105B5000DFF8C803006850F00800DFF8C0130860E1
:105B6000DFF8DC03006850F00100DFF8D4130860B0
:105B7000DFF8CC03006850F00200DFF8C4130860BF
:105B8000DFF8BC03006830F00200DFF8B4130860EF
:105B9000DFF8B003006880088000DFF8A813086011
:105BA000DFF8A4034FF496710160DFF8A0030068EA
:105BB00040084000DFF894130860DFF890030068A5
:105BC00030F00200DFF884130860DFF88403006817
:105BD00040084000DFF878130860DFF874030068BD
:105BE00030F03000DFF868130860DFF86803006801
:105BF00010F57A70DFF860130860DFF86013412059
:105C0000FDF7ABFA01BDC0B2002808D0DFF8501391
:105C1000096851F40021DFF84823116005E0BB4911
:105C2000096851F40021B94A1160704780B5DFF866
:105C300034030068002812D1DFF82C03006850F00C
:105C40000800DFF824130860C6480621016002F04E
:105C5000A3FEC6480068401CC449086003E0C14870
:105C6000C04909680160C248006850F00200C0499C
:105C70000860C048006850F40020BE49086001BDBB
:105C8000BD480088401EBC49088080B200280AD167
:105C9000BA48B64909680160B44800210160B648B5
:105CA0004FF4FA710180B6480068002813D0B44858
:105CB000006801280AD10020C0B2022806DAC0B26A
:105CC000B049002241F82020401CF5E7AC480068AC
:105CD000401EAB4908607047A848006880B2704712
:105CE00010B4A94A126810001100A84A12688A422A
:105CF00003D2A64A1268891A05E05FF0FF32A34B6F
:105D00001B68D21A5118A14A1060A14A126852F0B9
:105D100010029F4B1A60974A126852F00402954B8A
:105D20001A609C4A1160964A4FF47A7313609A4A3B
:105D30001268944B974C246843F82240964A1268A4
:105D4000521C12F00102944B1A6010BC7047934829
:105D50000068C00711D59248006850F008009049CB
:105D600008608E48006850F001008C490860814846
:105D7000006850F008007F490860704710B40200C6
:105D8000002904D0874800240460002011E08548E1
:105D900000681018834C20601300002B02D55FF0C0
:105DA000FF3043437F48006810187E4C20607D48D8
:105DB000006810BC704710B4010000207A4A1288B5
:105DC0007A4B43F822100B2202FB0100764A12881C
:105DD000521C042392FBF3F404FB1324734A52F87D
:105DE0002420122303FB12006F4A1288921C042302
:105DF00092FBF3F404FB13246C4A52F82420092389
:105E000003FB0200684A1288D21C042392FBF3F4BD
:105E100004FB1324654A52F82420B0EB4200624A86
:105E20001288521C042392FBF3F404FB13245E4AF1
:105E30001480062290FBF2F042F6E162904202DB0F
:105E400042F6E06210005A4A904201DA584A1000C5
:105E500010BC704710B50400002C03D15548002138
:105E600001700AE06420FDF770FA534804600220D4
:105E7000FDF76BFA4F480121017010BD10B404000A
:105E80004FF42F6202FB04F2D31710001900C00B6D
:105E900040EA4140C91340F6C3120023101A73EBC5
:105EA0000101002906DC01DB962803D2962200239B
:105EB0001000190040F6C5120023994207DB01DCEF
:105EC000904204D340F6C41200231000190010BC05
:105ED000704700212F480068002801D100200FE002
:105EE0000020C0B2022806DAC0B2264A52F82020AA
:105EF0005118401CF5E749083048B0FBF1F10800A3
:105F00007047000020C0092040C009203CC0092083
:105F100010C0024048C10F404CC10F4000E100E0FA
:105F2000C4C00F4000E400E00480004070800040E6
:105F30000C8000400CC0024028800040ACC10F40E3
:105F400004000940700009400C0009401400094099
:105F50003C000940080009401800094099770010EA
:105F600038C00920C07600105CC00920E07600101F
:105F700040C10F4080E200E04C030010E4760010C6
:105F8000EC760010987600102C800040F47600101B
:105F900000800040E8760010F8760010000009400C
:105FA00058C00920FC760010807700107076001031
:105FB00020D1FFFF98770010F0760010D8983001BC
:105FC0000CB41CB5044604A801900A46009401AB29
:105FD00000A9074878441830FAF792F9009900228E
:105FE0000A7000285CBF0098001B16BC5DF80CFB13
:105FF0003FB0FFFF80B502F0D1FD01BD10B402003B
:1060000000200023DBB2C9B28B4204D2DBB29C5C1D
:1060100020185B1CF6E7C0B210BC70472DE9F94FA1
:1060200081B00C0015000C9E0D9F5FF06409EDB26D
:106030002A0021007E4800F0A3FF2900C9B22000F9
